:020000040000fa
:080000000002040000000000f2
:020000040000fa
:100400004f81200000ff270000018800000000004d
:100410000c000700a0972000010020000f0007003b
:10042000000020000000e000020032000000020096
:10043000000000006a090200000000000040da002d
:100440000000fe00000020000000e000020032007a
:10045000000020009001880000000600a102880032
:10046000800078000000eb001a003700e2804000b6
:1004700054a0b4009101ba00e280400054a0b4003e
:100480009102ba00e280400054a0b4000002eb00e8
:10049000472bde00f507b200a6018800602ce100c2
:1004a00008003a000049eb000201e80002003900b0
:1004b0003420ec0002f0a0008301e900f9ff3e00c7
:1004c000040037006128e100010032000082eb00e7
:1004d000040007001101ba000200e000e3ff3a0047
:1004e0000000060004d0a300e20f49001c00390000
:1004f000810278003549ba000201e80002003900a3
:100500003420ec0002f0a0008301e9000f0032006b
:100510002549ba000201e800020039003420ec004d
:1005200002f0a0008301e900080032000400e000ae
:100530000600320015c9ba000201e80002003900c5
:100540003420ec0002f0a0008301e9008180e80083
:1005500054a0b4000300e000e2ff3a0000000600ef
:100560009102ba00055978008301e900f7ff3200d3
:10057000c82ade00055978008301e900f3ff320044
:100580000400e000f1ff320011d9ba00eeff37009d
:10059000e80404000000000026050400000000003c
:1005a000c40504000000000056050400000000001f
:1005b000ee050400000000008006040000000000ba
:1005c000be06040000000000340604000000000025
:1005d0005a060400000000000407040000000000a8
:1005e000889fbe008a9fbe00010578000100e000e0
:1005f0000400350008003c000000e000200032004c
:100600000500370060001000e080180002003b0089
:1006100001f02c001a0037000004be006011b80081
:100620006b0920000982cf00020039000882cf0048
:100630000441b000694252000e00320008003b0045
:1006400082817100610164008904d1000884d300b3
:100650008b05e8000442e800f9ff3a000500370086
:100660000804440089844c008b05e9000442e90039
:10067000fbff3a00830007000af0a70001f0a0008a
:100680004f05be004f04be0000000600889fbe005c
:100690008a9fbe008c1f7800a0000700a7003300cf
:1006a00003866c006450e1002e0032006420e100fb
:1006b000330032006150e1002f0032006120e10080
:1006c0003100320085855500eb07b000090020009d
:1006d00008042000050037000804440089844c0009
:1006e0000a0031000603430087834b0000015300da
:1006f00081815b00f8ff33000203be000800a00008
:100700000804440089844c00f6ff3900c639dd0036
:100710008301730001003200130020008904d1001e
:100720000884d3000998a300050032000800a70040
:100730000300a0008904d1000884d3008b05e800e1
:100740008904d1000884d3000001eb000281d200ab
:100750004c00070001f0a1000cf0a70001f0a00080
:100760007f0037006420e100810032000801be00f4
:100770000200be00f7ff37006120e1007c0032007c
:100780006000b800f3ff37000000200001f82700e8
:10079000f0ff37000001be00780007000470a700da
:1007a00003f0a1006509b100160032000d0035000c
:1007b0006828e10006003500f0ff2f00f1ff270058
:1007c0000300e00013003b000100280000000500ca
:1007d00000004000818048008502e900fcff3a00eb
:1007e00008003700f88f420002003c008000eb0058
:1007f000000005008100d1000080d3008502e800e0
:10080000fcff3a000300e00002003b006000100023
:10081000e0801800000006000001be00570007003d
:100820000470a70003f0a10003f8a30013003a002e
:100830006509b10010003200090035006928e100a7
:100840000200350001002800000005000000400003
:10085000818048008502e900fcff3a0000000600a4
:10086000f88f4200050035008100d1000080d300e0
:100870008502e800fcff3a00000006008000eb0063
:100880000000050081002000618055000b003d0044
:100890000b00200061fe2f000100e1001d0034006c
:1008a00082817100610164008904d1000884d30051
:1008b0000000e800faff3a007100200061006400c7
:1008c000030070000200600009003200610444006f
:1008d000e0844c000988a500050032008b05e80083
:1008e0006808e10002003a008904d1000884d300be
:1008f000f20f20000258e10005003d00c75ddd0059
:10090000f907b20089807500080078000000060031
:100910000bf827008b007800000005000004be00e3
:10092000160007000003be000405be000200be0062
:1009300012000700844f7500000006000200be0090
:100940006450e100050036006420e100020036003a
:100950000968a30001003a000800be000160a00081
:100960004f0678004f05be004f04be000000060091
:10097000f0ff2f00f1ff2700f9ff3700c70ade0064
:10098000f107b200f50fb20008003200e1cf4200db
:10099000020032000170a00024000500810f7000e9
:1009a000010032000408050044000500810f7000ba
:1009b00002003a00140005008502e9000000400032
:1009c00081c04800fcff3b000170a000240005002e
:020000040000fa
:020000040005f5
:0457f800bf7f00006f
:020000040000fa
:020000040005f5
:0457fc007f3e0000ec
:020000040000fa
:1000080082090000820900008209000082090000bc
:1000180082090000820900008209000082090000ac
:10002800820900008209000082090000820900009c
:10003800820900008209000082090000820900008c
:020000040000fa
:020000040000fa
:1009d0000200fa00004f78001e80fb0061006000fa
:1009e0000004e00002003200c802a800e204a800ef
:1009f0001e80fb000000d100610060000004e000e8
:100a000002003200c822a800e224a8001e80fb00d9
:100a10004200de00610060000004e00002003200dd
:100a2000c842a800e244a8001e80fb004300de008c
:100a3000610060000004e00002003200c862a8000b
:100a4000e264a8000080fa00000006000200fa003c
:100a5000004f78001e80fb00610060000004e00091
:100a600002003200e022a900e422a9001e80fb005f
:100a70000000d100610060000004e00002003200cc
:100a8000e042a900e442a9001e80fb004200de0013
:100a9000610060000004e00002003200e062a90092
:100aa000e462a9000080fa00000006000200fa00db
:100ab000004f78001e80fb00610060000004e00031
:100ac00008003200d962a900dd62a900c16c2000d3
:100ad0009140780000ccb30000c060002041b3001a
:100ae000cce6b7001e80fb000000d1006100600072
:100af0000004e00008003200d902a900dd02a900cc
:100b0000216c20009140780000ccb30000c0600050
:100b10003041b300c2e6b7001e80fb004200de0099
:100b2000610060000004e00008003200d802a90063
:100b3000dc02a900b16c20009140780000ccb30029
:100b400000c060004041b300cbe6b7001e80fb0050
:100b50004300de00610060000004e0000800320095
:100b6000d822a900dc22a900816d200091407800e4
:100b700000ccb30000c060005041b300d8e6b7001d
:100b80000080fa00000006000200fa00004f780022
:100b90001e80fb00610060000004e00004003200e1
:100ba000c942a900c962a900cd42a900cd62a9002d
:100bb0001e80fb000000d100610060000004e00026
:100bc00004003200c982a900c9a2a900cd82a900ef
:100bd000cda2a9000080fa00000006000200fa0081
:100be000004f78001e80fb00610060000004e00000
:100bf00003003200e002a800e202a9000200370070
:100c0000e002a900e202a9001e80fb000000d10062
:100c1000610060000004e00003003200e822a80048
:100c2000ea22a90002003700e822a900ea22a9006e
:100c30001e80fb004200de00610060000004e00056
:100c400004003200ea04a900e802a800ea02a900b0
:100c500003003700ea04a900e802a900ea02a9009b
:100c60000080fa00000006000000fa00e284a900fb
:100c7000e2a4a900c882a800c8a2a900416a200075
:100c80009140780000ccb30000c06000c041b300c8
:100c9000a4e6b700216d20009140780000ccb3009d
:100ca00000c060003040b300d2e6b7000080fa0018
:100cb000000006000000fa00e3e4a900e3c4a90074
:100cc000c9e2a800c9c2a900616a20009140780069
:100cd00000ccb30000c06000d041b300a6e6b7006e
:100ce000e16c20009140780000ccb30000c06000af
:100cf0005040b300cee6b7000080fa0000000600c6
:100d00000000fa00d8a2a900d882a800d862a900e1
:100d1000d842a900416d20009140780000ccb3007a
:100d200000c060009040b300d4e6b700816a2000a4
:100d30009140780000ccb30000c060009041b30047
:100d4000a8e6b700616d20009140780000ccb300a8
:100d500000c060007040b300d6e6b700716d20009f
:100d60009140780000ccb30000c060000034a000c7
:100d7000d7e6b7000080fa00000006000000fa0085
:100d8000ed24a900ed04a900ece4a900ecc4a9003d
:100d9000f122a900f102a800f0e2a900f0c2a90026
:100da000b16d20009140780000ccb30000c060001d
:100db000c040b300dbe6b700c16a20009140780074
:100dc00000ccb30000c060003041b300ace6b70017
:100dd000a16d20009140780000ccb30000c06000fd
:100de000a040b300dae6b700516d200091407800d2
:100df00000ccb30000c06000b040b300d5e6b7003f
:100e00000080fa00000006000000fa00113a80009d
:100e1000f00b2000008160006104200070052000bc
:100e20002374200081497800804978008249780045
:100e300001408000f0c0b3000100010011408000bb
:100e400070c0b300010001002140800030c0b30039
:100e50000100010031408000f0c0b300010001003a
:100e60004140800070c0b30001000100504080008c
:100e70000000010060408000000001007040800020
:100e8000000001008040800000000100113a800055
:100e90000004200000817000610420007005200023
:100ea00023742000814978008049780082497800c5
:100eb0000080fa00000006000000fa00804e2000ca
:100ec000004088006052200010408800405c2000f4
:100ed000204088006055200030408800e05e2000ff
:100ee000404088000068200070408800e06b2000cf
:100ef000804088004063200050408800a0652000aa
:100f00006040880040702000904088000080fa0017
:100f1000000006000400fa00204798000040eb00a3
:100f2000104798000040eb00004f780043c7bf0017
:100f30000080fb004400de0067406000004f780046
:100f400010c0b3009e4f10000300320030c0b30049
:100f50009e4f100010003a002e409000e34f5000ca
:100f600020003e00517420009140780080cfb300f3
:100f700000c0600045e7b7002e409000634060006d
:100f8000c600dd0044c7bf00f043b200014070005e
:100f900044e7b7001300370070c0b3009e4f100045
:100fa00010003a002e409000e74f50000d00360030
:100fb0002e4090000080fb004400de0010479800a7
:100fc0001e4090006740600067416000517420003f
:100fd0009140780080cfb30000c0600002407000f4
:100fe00045e7b7000080fa00000006000a00fa009a
:100ff000889fbe000040eb00704798000040eb0067
:10100000604798000040eb00504798000040eb001c
:101010004047980000902000d1032000008fbe00c0
:1010200043c7bf000080fb004400de006740600053
:101030007047980044c7bf000080fb004600de00f8
:101040005047980045c7bf00674060004047980080
:101050007e4090000080fb00400798004e0090000a
:10106000e30f5000370032004e009000e30f5000b5
:101070000a003c004e009000e10f500018003200c2
:101080004e009000e10f50002a003c004e009000fe
:101090000000e0000e0032005f0037004e009000bc
:1010a000e50f5000400032004e009000e50f500068
:1010b000390035004e009000e60f50003e0032002f
:1010c0004e009000e70f50003f0032005200370002
:1010d00000902000d1032000008fbe004e0037009a
:1010e00000402200410f2000008fbe005e409000b3
:1010f0008080fb00100020000100dd0060479800a8
:101100001e00be0036fd07000004be006e409000c9
:101110000080fb00cf80de0031fd07000001be0033
:101120000800be0059fd07009afd0700008fbe00b1
:101130003900370000902000d1032000008fbe004e
:101140003500370000402200410f2000008fbe0014
:101150005e4090008080fb00100020000100dd0058
:10116000604798001e00be001dfd07000004be0081
:101170006e4090000080fb00cf80de0018fd07006d
:101180000001be000800be0040fd070081fd070011
:10119000008fbe0020003700000024000100200066
:1011a000008fbe001c003700c0c8230001002000d3
:1011b000008fbe001800370000092d00310020000c
:1011c000008fbe001400370000902000d1032000e3
:1011d000008fbe004e4090008080fb001000200079
:1011e0000100dd00604798001e00be00fcfc070007
:1011f0000004be006e4090000080fb00cf80de0047
:10120000f7fc07000001be000800be001ffd07003c
:1012100060fd0700008fbe001e00be004f04be0030
:101220000080fa00000006000a00fa00400798005b
:101230006000b80020079800310798006000b800ef
:10124000008fbe0069ff0700200798003107980053
:101250002e009000be009000e1fc0700020020007c
:10126000a347240009fd07006bfd0700008fbe00a7
:10127000050037001e00be00080007004e00900069
:101280000000e900400798004e0090000000e000d8
:10129000f8ff3a000080fa0000000600f03fb100bd
:1012a0000180b10006003500ee03090000000000d7
:1012b000403fb1000180b100fbff3d001000b000d5
:1012c000203fb0000200350000800900000000004f
:1012d000000006000400fa006000b800008fbe00a5
:1012e00080c0b3000bff070040ff0700008fbe0067
:0412f000ffff3700c5
:020000040000fa
:1012f400000800001400000080000000000000004e
:020000040000fa
:041304000000fe00e7
:00000001FF
