:020000040000fa
:080000000002040000000000f2
:020000040000fa
:100400006f88200000ff2700000188000000000026
:100410000c000700e0f22100010020000f0007009f
:10042000000020000000e000020032000000020096
:1004300000000000861f0200000000000040da00fb
:100440000000fe00400120000000e0000200320039
:10045000002020009001880000000600a102880012
:10046000800078000000eb001a003700e2804000b6
:1004700054a0b4009101ba00e280400054a0b4003e
:100480009102ba00e280400054a0b4000002eb00e8
:10049000472bde00f507b200a6018800602ce100c2
:1004a00008003a000049eb000201e80002003900b0
:1004b0003420ec0002f0a0008301e900f9ff3e00c7
:1004c000040037006128e100010032000082eb00e7
:1004d000040007001101ba000200e000e3ff3a0047
:1004e0000000060004d0a300e20f49001c00390000
:1004f000810278003549ba000201e80002003900a3
:100500003420ec0002f0a0008301e9000f0032006b
:100510002549ba000201e800020039003420ec004d
:1005200002f0a0008301e900080032000400e000ae
:100530000600320015c9ba000201e80002003900c5
:100540003420ec0002f0a0008301e9008180e80083
:1005500054a0b4000300e000e2ff3a0000000600ef
:100560009102ba00055978008301e900f7ff3200d3
:10057000c82ade00055978008301e900f3ff320044
:100580000400e000f1ff320011d9ba00eeff37009d
:10059000ac18040000000000ea180400000000008d
:1005a00088190400000000001a190400000000006f
:1005b000b219040000000000441a0400000000000a
:1005c000821a040000000000f81904000000000076
:1005d0001e1a040000000000c81a040000000000f9
:1005e000f402040000000000881f78000204780074
:1005f00014000700080040004f04780000000600c7
:100600000000fa00881f7800000478003fb99700c6
:10061000ea81570080007800402f2000100007007a
:10062000800078000000e000020035000040eb0090
:1006300000f47800010078004f0478000080fa0090
:10064000000006008001eb000200370061f0790035
:100650008301e800828f5100fcff3a000000060091
:100660006200fa00889fbe008a9fbe000004be00a0
:10067000020578008300780060f92f000f00400029
:10068000b000070088979f0099979f000000eb003b
:10069000a09f9f009a4578000b80fb000000ea00b5
:1006a000cf04de0050c2b30080cf550002003200fc
:1006b00009047800010037000904e9000800e0009f
:1006c0000b0034001f909700080178008a00780022
:1006d0008f9197000300010090979f000000e000b9
:1006e000930032002f98970000004400a09f9f00c5
:1006f0000905450050c2b30080cf55000400320008
:100700000b04e000e3ff3a002f98970089003700c0
:100710000000eb00809f9f00f0979f00e0979f00f4
:10072000d0979f00c0979f00b0979f00c09f9f00e9
:100730000900370080872000008050000000400042
:10074000c1862000e10078004f98970001007000fa
:10075000c09f9f000a05e8001a4478008800fb004b
:10076000808720007c000700800078000000e00007
:10077000f0ff3a00a0c2b300804f54000e003a00d0
:10078000bf8897000180e900b08f9f0010007800bb
:10079000b09f9f000000e00005003d000000ea005f
:1007a000b09f9f004f9897000020a000c09f9f001f
:1007b0000a05e80010003700b19f9f0003fd2f00dd
:1007c000f4ff2700080037003f989700840f50007f
:1007d000040032006a00b90000004100030040003c
:1007e000b09f9f000a05e8001a01fb0003004100ca
:1007f000e90f5000f4ff3600e0c2b3009a4f10003a
:10080000040032000080eb00909f9f008a04780073
:100810001c0037008a04e800a0c2b300994f100002
:1008200007003a00bf8897000180e900b08f9f0061
:1008300010007800909f9f008a84e8001100370024
:100840000000eb00909f9f0003fd2f00f4ff2700a6
:10085000080037001f989700840f500004003200f2
:100860006a00b9000000410003004000909f9f0013
:100870008904e8001901fb0003004100e90f500062
:10088000f4ff3600194478008800fb00e087200060
:10089000310007000000e00002003a000044780048
:1008a000010037008904e800a87f9f0080c6b300dc
:1008b000804f540004003a00994f14000a003a0097
:1008c0006640500006003700c0c6b300804f540099
:1008d00005003a00994f140003003a0065404000bb
:1008e000a07f9f008904e8000905e800cbfb2f00ea
:1008f0008f8545001901fb0060f92f000f004000b3
:100900000084e8008b0178008000780008007800ff
:100910001a0007000000e00005003a008b00780094
:1009200008007800580107000000e00059ff3d0072
:100930000080eb004f05be004f04be000080fa00af
:10094000000006000200fa00f1bf9f0001087800d5
:100950000080fa0000000600040037000204e000f6
:1009600001003a00000005000000e8001041780096
:10097000814f5100f9ff3a0000000600889fbe0039
:100980008a1f780000047800010278008244780011
:1009900003057800e0c6b300804f5100d20032005a
:1009a00015003c006b405000804f51002400320085
:1009b0000a003c0070405000804f51000f0132008f
:1009c00065404000804f51007400320050c2b300b7
:1009d000804f510020013a001c01370040c6b3008f
:1009e000804f51001b00320065404000804f510095
:1009f00019013a001700370030c7b300804f51008b
:100a0000fe00320007003c0064405000804f51005f
:100a1000620032000040e800804f51000e013a00b1
:100a2000e700370050c7b300804f51005b00320031
:100a300063404000804f510007013a0057003700e3
:100a40009180e900010a78007800900091717800a7
:100a500007013700a8609000c0c6b30080cf5000e7
:100a60000a003a009400780064805000000a780080
:100a70001000be004f89de00cf91de000002be00f4
:100a800002037800820378001300370010c7b30018
:100a900080cf500003003200a0c6b30080cf5000ca
:100aa00006003a009400780068805000000a780040
:100ab0003002be002003be00070037001480e900aa
:100ac000000a78001000780000027800cfa2de0053
:100ad0000503780086037800049cbe000694be00df
:100ae000a860900080c6b30080cf50000e00320096
:100af00020c6b30080cf500005003a000400fb0080
:100b0000cf80de0001017800820178000a00370002
:100b100040c7b30080cf5000030032006640400061
:100b200080cf500006003a0004007800cf80de003d
:100b30000101780082017800009cbe000294be0092
:100b40003800be002801be00e00f5000e08f5800c2
:100b5000e00f5900e08f590003003d00780090003d
:100b6000d1c2b3000a003700081090000018a3009b
:100b70000300320078009000b1c2b30004003700d7
:100b80000008a300530032007800900001c2b300b7
:100b9000017578000000e8004d003700a860900063
:100ba000c0c6b30080cf500006003a009400780021
:100bb00064805000000a78001002be006033b80064
:100bc0001300370010c7b30080cf5000030032007d
:100bd000a0c6b30080cf500006003a009400780011
:100be00068805000000a78003002be002003be007a
:100bf000070037001480e900000a78001000780030
:100c000000027800050020000600200007002000f8
:100c1000049cbe000694be00a860900080c6b3008d
:100c200080cf50000e00320020c6b30080cf5000ad
:100c300005003a000480fb000100200002002000b3
:100c4000030020000a00370040c7b30080cf5000e7
:100c5000030032006640400080cf500006003a009a
:100c600004007800010020000200200003002000a2
:100c7000009cbe000294be00081090000038a30043
:100c8000140032003800be002801be00e00f500002
:100c9000e08f5800e00f5900e08f59000d0032003e
:100ca00080c7b30080cf54000300320080c5b3007a
:100cb00080cf540007003a007800900001c3b300d1
:100cc000017578008000e80009f578000080e800f0
:100cd00070049800780090000000450060049800bf
:100ce0008940780042003700a8609000c0c6b30079
:100cf00080cf5000250032000a003c0064405000c4
:100d000080cf50002800320000c0e80080cf5000a3
:100d1000140032006840500080cf500022003a009a
:100d20000a00370040c7b30080cf50001e003200d9
:100d30006640400080cf50001b00320069405000e8
:100d400080cf500018003a00060037001480e900f8
:100d5000000a780010007800485c9000084878008d
:100d6000450037001480e900000a7800100278007e
:100d700068089000cf80de000101780082017800d1
:100d8000009abe000292be003b0037001480e900ca
:100d9000000a78001001780068089000cf80de001b
:100da0000089be00340037001480e900000a780092
:100db00010007800680c9000080878002e003700ba
:100dc0001180e9008008780010007800cf80de00f4
:100dd0000101780082017800009cbe000294be00f0
:100de00078009000000045006004980081c7b300bf
:100df00008007800ee0007001f0037001480e900ab
:100e0000000a7800100078006004980058099000eb
:100e10000200e00002003d006e02070009003700fa
:100e20008000eb0072020700800078000000e00004
:100e3000030032006800900000805000010037007d
:100e400058089000100c98000b00370078009000b4
:100e50000275780006003700780090008000450099
:100e60000904e00001003a0059c2b3008948780043
:100e70000000e800700498000000eb004f057800c7
:100e80004f04be00000006000400fa00889fbe0068
:100e90008a9fbe008c1f780000047800010678004d
:100ea00070089000f8009000010050008808900041
:100eb000010050009808900001005000a808900020
:100ec00001005000b808900001005000c8089000d0
:100ed000810550000002220090bf9f000003230004
:100ee000a0bf9f00081090000028a30018003a003f
:100ef0000b00e000160034008b0478000905780030
:100f0000e28f5400020036002a0020000200370061
:100f10000900e0000b00340058009000c801900068
:100f20000a017800ee805700030001005004980089
:100f30000000e000960032006808900000004500c4
:100f4000600c98008a8454004240a900ebff3c00ea
:100f5000780190000200e0000b003400580090007f
:100f6000c80190008c007800030001005004980034
:100f70000000e0008600320068089000f800900051
:100f800001004000600c9800880c90000900e0000f
:100f90001500340009057800e28f54000200360085
:100fa0002a002000020037000900e0000b00340096
:100fb00058009000c80190000a017800ec805700aa
:100fc00003000100500498000000e00070003200af
:100fd0006808900000004500600c98008a84540066
:100fe0004240a900ebff3c00180990000200e0001d
:100ff0000b003400e800900058009000c8019000f9
:1010000003000100500498000000e000600032007e
:10101000680890009808900001004000600c98005b
:10102000a80c90000900e0001500340009057800c4
:10103000e28f5400020036002a0020000200370030
:101040000900e0000b00340058009000c801900037
:101050000a017800ec80570003000100500498005a
:101060000000e0004a0032006808900000004500df
:10107000600c98008a8454004240a900ebff3c00b9
:10108000380990000200e0000d003400e8009000f4
:10109000180890008080400058009000c80190001f
:1010a00003000100500498000000e0003800320006
:1010b00068089000b808900001004000600c98009b
:1010c000c80c90000900e000150034000905780004
:1010d000e28f5400020036002a0020000200370090
:1010e0000900e0000b00340058009000c801900097
:1010f0000a017800ec8057000300010050049800ba
:101100000000e00022003200680890000000450066
:10111000600c98008a8454004240a900ebff3c0018
:10112000081090000028a3001b0032000b00e00014
:10113000190034008b04780009057800e28f540010
:10114000020036002a002000020037000900e000fb
:101150000b00340058009000c80190000a0178008c
:10116000ee80570003000100500498000000e000ea
:10117000070032006808900000004500600c9800ed
:101180008a8454004240a90003003400eaff37007b
:101190000080eb00010037000000eb004f067800f4
:1011a0004f05be004f04be000080fa00000006009c
:1011b0002f03b000889fbe008a9fbe008c9fbe0098
:1011c0008e1f780000077800b0852000c0b79f0010
:1011d00080c5b30080cf500008003200a2842000f8
:1011e000c2b79f007740400080cf500003003a0014
:1011f00083002000b3b79f000a00370080c7b30008
:1012000080cf500005003200a4002000b4b79f003a
:1012100080c5b30080cf500002003a0005012000d5
:10122000b5b79f003e04be002e05be0040c6b30009
:1012300080cf5000030032006540400080cf500056
:101240000b003a00e00f5400e08f5c00e00f5d00ff
:10125000e08f5d0006003d006000b8006011b8003e
:1012600008045000898458000a0559008b855900ec
:10127000bfb39700e88f530003003200f08f530094
:1012800045003a0002003700360020000100370018
:1012900046002000e00f5400e08f5c00e00f5d008e
:1012a000e08f5d0005003a005e089000810120009b
:1012b000a1b79f000000e000080032003fb1970096
:1012c0000200e90008006000cfb197006340780099
:1012d00090df9f0074012000a4b79f008602780071
:1012e0008502e900050033008b05d1000a85d30093
:1012f0008984d3000884d300f9ff3700089fbe001b
:101300000a97be00afb397000700e90021fc2f0049
:101310008f804000008240003fb197008202e900c8
:1013200012003700afb397008703e900a7b79f000b
:1013300000806200cfb09700615278003e00be008e
:101340002e01be00860378008703e9000500330004
:101350008381d1000281d3008180d3000080d3003b
:10136000f9ff3700009fbe000297be003e00be009e
:101370002e01be00e00f5000e08f5800e00f590032
:10138000e08f5900d6003400afb397000700e000ab
:10139000e4ff3c00d2003700ae60900080c6b3008e
:1013a00080cf50000b00320006003c000104e0003a
:1013b000080032006640500080cf500073003a00b1
:1013c00004003700c0c6b30080cf50006f003a0061
:1013d00031003700080178000800e00005003a00fd
:1013e0005e08900081012000a1b79f000000e0008e
:1013f00009003200bfb19700110009000381d80035
:101400008000fd004fb297006440780090df9f009d
:1014100075012000a5b79f00bfb397001100090018
:101420000781d80080017800afb097000100e90083
:1014300022fc2f000f014100000241000c00370088
:10144000bfb29700110009008501d80000017800a3
:10145000afb397008703e900a7b79f000590b900d5
:1014600000805100cfb0970061527800820178006f
:101470000300e000030034002fb197000200e000f9
:10148000efff3c0003007800cf80de000101780010
:10149000820178003a0037000806be00e00f5400d1
:1014a000e08f5c0005003a005e0890008301200098
:1014b000a3b79f000000e000090032003fb2970090
:1014c0006121b9000c00be0033020700cfb29700c3
:1014d0006540780090df9f0077012000a7b79f004c
:1014e0003fb297006121b9000c00be002d02070039
:1014f0000006be00afb297000500e90027fc2f00f0
:101500008f8343008083430097b79f00110037000b
:101510003fb197006114b9000801be000c00be0085
:10152000300207000005be00afb197008301e9005b
:10153000a3b79f000801be00b700070000005600d7
:101540001fb29700cfb297006552780094b79f0002
:101550000a06be00e00f5600e08f5e000300340074
:10156000afb397000700e000e9ff3c004feade0060
:10157000cfa2de000c00be000401780084017800d8
:10158000009fbe000297be0055003700e00f5400d8
:10159000e08f5c00e00f5d00e08f5d0005003a0029
:1015a0005e08900081012000a1b79f000000e000cc
:1015b0000d0032003fb1970002027800cfa2de009a
:1015c00005037800860378000800be000a01be000b
:1015d000940207004fb297006440780090df9f00ac
:1015e00075012000a5b79f003fb197000202780067
:1015f000cfa2de0005037800860378000800be0055
:101600000a01be0080020700009fbe000297be00d4
:10161000afb197000300e90024fc2f000f02420045
:101620000006420020003700bfb297000504780092
:10163000cfc4de00090578008a0578000802be00e4
:101640000a03be005fa89700efa897007fa9970044
:101650008fb1970077020700d0b79f00e1b79f00d6
:10166000f2b79f0083bf9f00afb397008703e900e5
:10167000a7b79f000802be000a03be00f3020700de
:101680005faa970000005200cfb29700655678001d
:101690005fb09700efb097007fb197008fb99700c8
:1016a000009fbe000297be003e00be002e01be009d
:1016b000d0af9f00e1af9f00f2af9f0083b79f00c4
:1016c000e00f5000e08f5800e00f5900e08f590004
:1016d00003003400afb097000100e000d2ff3c00ef
:1016e0003fb19700e80f510013003a000e10900030
:1016f0000038a30010003200afb19700f78f5100ff
:1017000006003e0024fc2f000f024200830042002e
:1017100000c3b300914f100007003200afb2970032
:101720008502e900a5b79f0000c3b30027fc2f0086
:101730008f83430080f37a00afb197007881110066
:10174000120f98006e00900024fc2f000f02420040
:1017500083004200bbfb07001e0990005e0890005a
:10176000800f510006003d0002005000000f98005d
:101770000e1090000040a100001798000f003700e5
:101780000000e0000d003d000e10900074006000ad
:10179000f00f500009003a007e089000fe00900013
:1017a000010050008e08900001005000020050001f
:1017b0004240a90001003400000f98004f07780054
:1017c0004f06be004f05be004f04be002f03b10000
:1017d0000000060080007800010037000000e800eb
:1017e0001004e000fdff3a00010050000000060078
:1017f0008001eb00040037008301e80090cf100067
:10180000040032000000e800828f5100faff3a0025
:101810000000eb0000000600020ab900001bb9003e
:101820000200b80081004200810043000000060071
:10183000889fbe008a9fbe00010578000100e0007d
:101840000400350008003c000000e00020003200e9
:101850000500370060001000e080180002003b0027
:1018600001f02c001a0037000004be006011b8001f
:101870006b0920000982cf00020039000882cf00e6
:101880000441b000694252000e00320008003b00e3
:1018900082817100610164008904d1000884d30051
:1018a0008b05e8000442e800f9ff3a000500370024
:1018b0000804440089844c008b05e9000442e900d7
:1018c000fbff3a00e10007000af0a70001f0a000ca
:1018d0004f05be004f04be0000000600889fbe00fa
:1018e0008a9fbe008c1f7800fe00070005013300b0
:1018f00003866c006450e1002e0032006420e10099
:10190000330032006150e1002f0032006120e1001d
:101910003100320085855500eb07b000090020003a
:1019200008042000050037000804440089844c00a6
:101930000a0031000603430087834b000001530077
:1019400081815b00f8ff33000203be000800a000a5
:101950000804440089844c00f6ff3900c639dd00d4
:101960008301730001003200130020008904d100bc
:101970000884d3000998a300050032000800a700de
:101980000300a0008904d1000884d3008b05e8007f
:101990008904d1000884d3000001eb000281d20049
:1019a000aa00070001f0a1000cf0a70001f0a000c0
:1019b000dd0037006420e100df0032000801be00d6
:1019c0000200be00f7ff37006120e100da003200bc
:1019d0006000b800f3ff37000000200001f8270086
:1019e000f0ff370003f0a200889fbe008a9fbe0070
:1019f0008c1f7800bb000700c20033006450e10078
:101a00004f0032006420e1005200320003826c007b
:101a100007003b000905d0000306d000820f5400e8
:101a20000c065d00020039000200320089017800d6
:101a3000030678008582550004003d000003fd0088
:101a40008103fd008502ea008b854200840f72004d
:101a500002003b0060001000e08018006011b80038
:101a60000005eb007a28e1000a0039000600780042
:101a7000c75ddd00f707b200878075002d003700d5
:101a8000828171000a017800610560008180d100c7
:101a90000080d3008502e900f9ff3b000604400006
:101aa0008784480002003b0060041400e0841c00ae
:101ab0000988a300070032008a81710082817100c9
:101ac000610164008904d1000884d3008b05e8001b
:101ad000170037000978a30013003a000b00e0005c
:101ae000130034008b05e9000804440089844c008d
:101af0000a4474000978a3000d003a000b00e000ce
:101b0000070034008b05e9000804440089844c0078
:101b100001003a000b0020000978a300f7ff320013
:101b20000001eb0002003700828171000a01780099
:101b3000460007000cf0a70001f0a0007a00370073
:101b40006420e10002003a00838f6c007a003300c9
:101b50000801be000200be00730037000001be0095
:101b6000780007000470a70003f0a10003f8a300a9
:101b700013003a006509b100100032000900350079
:101b80006928e1000200350001002800000005007e
:101b900000004000818048008502e900fcff3a0017
:101ba00000000600f88f4200050035008100d100da
:101bb0000080d3008502e800fcff3a000000060028
:101bc0008000eb00000005000001be005d00070082
:101bd0000470a70003f0a1006509b10016003200ef
:101be0000d0035006828e10006003500f0ff2f00e9
:101bf000f1ff27000300e00013003b000100280074
:101c00000000050000004000818048008502e900d6
:101c1000fcff3a0008003700f88f420002003c0049
:101c20008000eb00000005008100d1000080d3009f
:101c30008502e800fcff3a000300e00002003b00e0
:101c400060001000e0801800000006008100200005
:101c5000618055000b003d000b00200061fe2f004d
:101c60000100e1001d003400828171006101640007
:101c70008904d1000884d3000000e800faff3a008c
:101c80007100200061006400030070000200600029
:101c90000900320061044400e0844c000988a5007a
:101ca000050032008b05e8006808e10002003a00f8
:101cb0008904d1000884d300f20f20000258e1000b
:101cc00005003d00c75ddd00f907b20089807500a1
:101cd00008007800000006000bf827008b00780051
:101ce000000005000004be00160007000003be004f
:101cf0000405be000200be0012000700844f7500fc
:101d0000000006000200be006450e100050036003d
:101d10006420e100020036000968a30001003a00d7
:101d20000800be000160a0004f0678004f05be000d
:101d30004f04be0000000600f0ff2f00f1ff270057
:101d4000f9ff3700c70ade00f107b200f50fb20055
:101d500008003200e1cf4200020032000170a00012
:101d600024000500810f7000010032000408050006
:101d700044000500810f700002003a0014000500c5
:101d80008502e9000000400081c04800fcff3b00e4
:101d90000170a00024000500020007000400be003e
:101da000000006006022b800060220000000d000fb
:101db0008180d2000482d2008582d2000000a0007f
:101dc0000202520083825a000300310002024200e4
:101dd00083824a000000a1000603e900f3ff3a00f5
:101de00000000600839f68000100e00002003d0043
:101df00060001000e08018000300e00002003d00d9
:101e000060011100e0811900e6ff07004f00e000cb
:101e100002003b0060001000e08018000000060097
:101e2000881f7800000478005001be004000be000a
:101e30000400400085804800060149008781490070
:101e4000009cbe000294be000400e1000588e10091
:101e50000690e1000798e1000200310068004400ac
:101e60001008e8004f04780000000600f4874700df
:101e7000889fbe008a9fbe008c9fbe008e1f780088
:101e80000205be000004be00d4b79f00e5b79f0066
:101e9000f6b79f0087bf9f000000eb00c0b79f0010
:101ea000b0b79f00a0b79f0090b79f0080b79f007a
:101eb0000d042000bfb097004fb097000001400014
:101ec0000000e0000f003d004f08de000000710040
:101ed000c0b79f009e00070001003d0012002000d7
:101ee000a100070001003d0012002000a60007002d
:101ef000b1000700b60007000f004000c8ff070050
:101f0000220037004f08de0000067100ccb79f00aa
:101f10008f00070001003d00120020009200070022
:101f200001003d001200200097000700a2000700fa
:101f30000fb297009fb297002fb39700bfb39700df
:101f4000a90007000000520081805a0002015b00d6
:101f500083815b0080b79f0091b79f00a2b79f006d
:101f6000b3b79f000007eb009f0007000020e100cf
:101f700001a8e10002b0e10003b8e1000100310076
:101f80001e0020000e005600c0b79f004fb2970001
:101f90000400e000070035001000200001002000d0
:101fa0006011b80008047000898470000a0571008f
:101fb0008b8571008d06e900beff3a000400e00049
:101fc00003003d00820007000f00400094ff07005f
:101fd0004fa897000000e00004003a000fb49700fb
:101fe0009fb497002fb59700bfb5970094000700e6
:101ff0004f0778004f06be004f05be004f04be00dd
:102000004f01b10000000600881f78001800200072
:10201000881f780095ff07008f87e9004f0478003c
:1020200000000600801feb0090ff07008f87e9008b
:1020300000000600889fbe008a9fbe008c1f7800ab
:102040006e00070007003d0073000700e00f5b0013
:10205000e08f5b0007003d00320007000006eb0048
:10206000040037003400070002003d002a0007008a
:102070001c00200072000700e3ff07000203be00ff
:102080000002be000c00e000010032002200070048
:102090000400be000601be004f0678004f05be00da
:1020a0004f04be0000000600889fbe008a9fbe004d
:1020b0008c1f78005100070005003d005600070006
:1020c000e00f5b00e08f5b0006003d00040037007e
:1020d0001900070003003d006000b8006011b8005f
:1020e0001000070056000700ceff07000203be00e5
:1020f0000002be000c00e0000100320006000700f4
:102100000400be000601be004f0678004f05be0069
:102110004f04be00000006006000b8006011b80067
:102120000000370004025000858258000603590061
:1021300087835900000006000006eb00e00f520004
:10214000e08f5a00e00f5b00e08f5b0000000600ac
:102150000180400090b79f000001eb008fb0970016
:102160000100e000000006000200700090b79f0030
:102170000180400080b79f000001eb00ffa897009e
:102180000100e000000006000200700080b79f0020
:10219000018040006faa9700cf20de000100700090
:1021a000f0af9f0004024200250007004f18de0038
:1021b0000002720000000600e4af9f000804440023
:1021c00089844c000a054d008b854d0000000600f7
:1021d0003fb29700cfb297005fb39700efb397007d
:1021e00000fe2f00000006003fb09700cfb0970020
:1021f0005fb19700efb19700000006000205be0036
:102200000004be00e00f5000e08f5800e00f5900be
:10221000e08f5900000006006000b8006011b800af
:1022200008045000898458000a0559008b8559001c
:102230001c002000e00f5200e08f5a000000060052
:102240000800be000a01be0000000600889fbe0014
:102250008a9fbe008c1f78000205be000004be00ed
:102260000006eb00e00f5000e08f5800e00f59002f
:10227000e08f590007003d006000b8006011b80011
:1022800008045000898458000a0559008b855900bc
:102290001c002000e00f5200e08f5a00e00f5b00ae
:1022a000e08f5b0002003d000f0007000c00a20061
:1022b0000800be000a01be00120007000203be00b3
:1022c0000002be000c00e000010032000600070022
:1022d0000400be000601be004f0678004f05be0098
:1022e0004f04be00000006006000b8006011b80096
:1022f0000402500085825800060359008783590064
:1023000000000600889fbe008a9fbe008c9fbe0012
:102310000404b8000506b8008904460060854e0034
:102320000606b8000a054600e0854e000706b8001c
:102330008b054600040eb800890446000a854e004d
:10234000e0854d00050eb8000a0546008b854e005d
:10235000060eb8008b0546000416b8000a054600b4
:102360008b854e000516b8008b054600041eb8008c
:102370008b0546000800be000a01be004f06be00e5
:102380004f05be004f04be00000006008600a900f5
:102390008620a900e7416000c10a20009140780032
:1023a00082cfb30082c0600083c070008000fd0057
:1023b000ace0b7008000fd0001c7b30081416000c0
:1023c000c10a200091407800f2c8b30082c06000ca
:1023d00083c070008000fd00ace0b7008000fd000d
:1023e000680160004311de0061092000914078001f
:1023f0000104a10082c070008000fd0096e0b700db
:102400008000fd000008b2004700de0000404000f0
:1024100061092000914078000114a10080c0700083
:102420000100780096e0b700000006002110880047
:1024300030108800000006008a20a9008a40a90008
:10244000e7416000c419dd00c10b20009140780015
:10245000f2c8b30082c0600083c070008000fd003d
:10246000bce0b7008000fd00800178000307b200e7
:10247000c419de00d10b20009140780082cfb30058
:1024800082c0600083c070008000fd00bde0b70026
:102490008000fd00680160004311de000241410040
:1024a000a1092000914078000114a10082c07000b1
:1024b0008000fd009ae0b7008000fd000008b20037
:1024c0004700de004200dd00a109200091407800b5
:1024d0000124a10080c07000010078009ae0b700dc
:1024e00000000600a1108800b0108800000006005f
:1024f000a1138800b0138800000006000602a8009f
:102500000000060006c2bf000008a300fdff3a005d
:1025100006c2bf000018a300faff3a0006c2bf00bf
:102520000028a300f7ff3a0006c2bf000038a3004e
:10253000f4ff3a0006c2bf000048a300f1ff3a00d2
:1025400009c2bf000068a300eeff3a0000000600c9
:102550000080fb001010880008c2bf0001c8b30053
:10256000014060000080fb000000e9004f00de0039
:102570000000e900000006000642a8000000060076
:102580001602a8000000060016c2bf000008a30043
:10259000fdff3a0016c2bf000018a300faff3a0080
:1025a00016c2bf000028a300f7ff3a0016c2bf0002
:1025b0000038a300f4ff3a0016c2bf000048a30091
:1025c000f1ff3a0019c2bf000068a300eeff3a0015
:1025d000000006000080fb009010880018c2bf00b9
:1025e00001c8b300014060000080fb000000e9006a
:1025f0004f00de000000e900000006001642a800bf
:10260000000006007602a8000000060076c2bf00a7
:102610000008a300fdff3a0076c2bf000018a30027
:10262000faff3a0076c2bf000028a300f7ff3a0085
:1026300076c2bf000038a300f4ff3a0076c2bf00a4
:102640000048a300f1ff3a0079c2bf000068a30070
:10265000eeff3a00000006000080fb0090138800a7
:1026600078c2bf0001c8b300014060000080fb00d9
:102670000000e9004f00de000000e9000000060055
:102680007642a800000006000622a800000006000e
:10269000889fbe008a9fbe008c9fbe008005780088
:1026a0008106780002067800800478000005eb00bf
:1026b000150037000662a8000004eb000300370095
:1026c0008c0f5400130031000804e8006f0007006d
:1026d0000004e000faff32000010800080767d00e8
:1026e0008904e90002003a0006a2a80001003700b0
:1026f00006a2a9000682a80006c2bf000048a300e7
:10270000fdff3a000a05e8008b0f5500e9ff3a008b
:102710008004eb00090078004f06be004f05be00a4
:102720004f04be000000060006a2a8000682a80012
:10273000000006001622a80000000600889fbe00c8
:102740008a9fbe008c9fbe008005780081067800bd
:1027500002067800800478000005eb0015003700c1
:102760001662a8000004eb00030037008c0f540031
:10277000130031000804e800480007000004e000ee
:10278000faff32008010800080767d008904e90025
:1027900002003a0016a2a8000100370016a2a90004
:1027a0001682a80016c2bf000048a300fdff3a0031
:1027b0000a05e8008b0f5500e9ff3a008004eb00a2
:1027c000090078004f06be004f05be004f04be0052
:1027d0000000060016a2a8001682a800000006004d
:1027e0007622a80000000600889fbe008a9fbe00d7
:1027f0008c9fbe0080057800810678000206780074
:10280000800478000005eb00150037007662a80010
:102810000004eb00030037008c0f5400130031005c
:102820000804e800210007000004e000faff32007d
:102830008013800080767d008904e90002003a0060
:1028400076a2a8000100370076a2a9007682a8002f
:1028500076c2bf000048a300fdff3a000a05e80069
:102860008b0f5500e9ff3a008004eb000900780067
:102870004f06be004f05be004f04be00000006001c
:1028800076a2a8007682a8000000060008c2bf0059
:102890000000d100610060000000060018c2bf0007
:1028a0000000d100610060000000060078c2bf0097
:0c28b0000000d100610060000000060084
:020000040000fa
:020000040005f5
:0457f800bf7f00006f
:020000040000fa
:020000040005f5
:0457fc007f3e0000ec
:020000040000fa
:10000800e01f0000e01f0000e01f0000e01f0000ec
:10001800e01f0000e01f0000e01f0000e01f0000dc
:10002800e01f0000e01f0000e01f0000e01f0000cc
:10003800e01f0000e01f0000e01f0000e01f0000bc
:020000040000fa
:020000040000fa
:1028bc00256400002000000042520000494700003f
:1028cc004f530000484100002054000045430000d5
:0828dc00482e0000000000007e
:020000040000fa
:1028e4000c00fa00889fbe0030079800410798004a
:1028f400224f980000902000d10320001007980078
:102904002107980070c2b300004f7800a6040700a6
:1029140010079800210798001e009000ae00900058
:10292400c2fb07000004be003e009000ce009000f1
:10293400befb07000001be000800be00e6fb070066
:102944000004be001e009000ae009000b7fb07001c
:102954000268290083b12c00dffb07000001be00e0
:102964000800be001ffc07000200200003f823003b
:102974001bfc070078fc0700004f78002e489000ed
:102984000080fb0080fe07009e80fb000000280002
:10299400a5fe07004f04be000080fa0000000600f8
:1029a4000c00fa00889fbe00300798004107980089
:1029b400224f980000902000d103200010079800b7
:1029c4002107980030c0b300004f78007604070058
:1029d40010079800210798001e009000ae00900098
:1029e40092fb07000004be003e009000ce00900061
:1029f4008efb07000001be000800be00b6fb070006
:102a04000004be001e009000ae00900087fb07008b
:102a14000268290083b12c00affb07000001be004f
:102a24000800be00effb07000200200003f82300ab
:102a3400ebfb070048fc0700004f78002e4890008d
:102a44000080fb007bfe07009e80fb000000280046
:102a5400a3fe07004f04be000080fa000000060039
:102a64000c00fa00889fbe003007980041079800c8
:102a7400224f980000902000d103200010079800f6
:102a84002107980030c0b300004f780046040700c7
:102a940010079800210798001e009000ae009000d7
:102aa40062fb07000004be003e009000ce009000d0
:102ab4005efb07000001be000800be0086fb0700a5
:102ac4000004be001e009000ae00900057fb0700fb
:102ad4000268290083b12c007ffb07000001be00bf
:102ae4000800be00bffb07000200200003f823001b
:102af400bbfb070018fc0700004f78002e4890002d
:102b04000080fb004bfe07009e80fb0000002800b5
:102b140076fe07004f04be000080fa0000000600a5
:102b24000800fa00204798003147980022079800cf
:102b3400634798002e4090000040400020479800d2
:102b44006dfe07006efe070009c2bf0001c8b30096
:102b5400014060000004e000fbff3a002e409000ba
:102b64007afe0700004f780065fe070009c2bf0027
:102b740001c8b300014060000004e000fbff3a001c
:102b84003e40900071fe0700004f78005cfe070095
:102b940009c2bf0001c8b300014060000004e000a6
:102ba400fbff3a000d0037002e0090001040780023
:102bb40066fe0700004f780051fe070009c2bf00ff
:102bc40001c8b300014060000004e000fbff3a00cc
:102bd4002e0090000000e800200798006e4090004e
:102be4000040e900604798006e409000e14f4000cb
:102bf400edff3a005ffe070041fe07001e00fb00e8
:102c04000080fa00000006000800fa00204798003f
:102c14003147980022079800634798002e4090009f
:102c2400004040002047980054fe070055fe07006e
:102c340019c2bf0001c8b300014060000004e000f5
:102c4400fbff3a002e40900061fe0700004f780021
:102c54004cfe070019c2bf0001c8b3000140600068
:102c64000004e000fbff3a003e40900058fe0700dd
:102c7400004f780043fe070019c2bf0001c8b3002b
:102c8400014060000004e000fbff3a000d00370043
:102c94002e009000104078004dfe0700004f780091
:102ca40038fe070019c2bf0001c8b300014060002c
:102cb4000004e000fbff3a002e0090000000e80052
:102cc400200798006e4090000040e900604798009b
:102cd4006e409000e14f4000edff3a0046fe0700d1
:102ce40028fe07001e00fb000080fa00000006001a
:102cf4000800fa00204798003147980022079800fe
:102d0400634798002e409000004040002047980000
:102d14003bfe07003cfe070079c2bf0001c8b300b8
:102d2400014060000004e000fbff3a002e409000e8
:102d340048fe0700004f780033fe070079c2bf0049
:102d440001c8b300014060000004e000fbff3a004a
:102d54003e4090003ffe0700004f78002afe070027
:102d640079c2bf0001c8b300014060000004e00064
:102d7400fbff3a000d0037002e0090001040780051
:102d840034fe0700004f78001ffe070079c2bf0021
:102d940001c8b300014060000004e000fbff3a00fa
:102da4002e0090000000e800200798006e4090007c
:102db4000040e900604798006e409000e14f4000f9
:102dc400edff3a002dfe07000ffe07001e00fb007a
:102dd4000080fa00000006000a00fa00404798004c
:102de4005147980032079800034f98000e4890000e
:102df4008080fb00400620000088b900100798007e
:102e04004e4090000080fb0000004000004f78001e
:102e1400b9fd0700bafd070009c2bf0001c8b3002d
:102e2400014060000004e000fbff3a001e4078000f
:102e3400c6fd070010479800b1fd070009c2bf0096
:102e440001c8b300014060000004e000fbff3a0049
:102e54005e409000bdfd070010479800a8fd0700e4
:102e640009c2bf0001c8b300014060000004e000d3
:102e7400fbff3a00a2fd070002fe0700a0fd0700c9
:102e840009c2bf0001c8b300014060000004e000b3
:102e9400fbff3a004e4090000080fb000000400021
:102ea400804078000104a000014f78001e407800a3
:102eb400a6fd070092fd070009c2bf0001c8b300c8
:102ec400014060000004e000fbff3a001e01900096
:102ed4000e4890000080fb00be009000ebfd070050
:102ee40087fd07000ffe070085fd0700a1fd070011
:102ef40083fd07001e4090000000fb000080fa00e4
:102f0400000006000a00fa00404798005147980064
:102f140032079800034f98000e4890008080fb0011
:102f2400400620000088b900100798004e40900029
:102f34000080fb0000004000004f78008ffd070078
:102f440090fd070019c2bf0001c8b3000140600032
:102f54000004e000fbff3a001e4078009cfd0700df
:102f64001047980087fd070019c2bf0001c8b300cd
:102f7400014060000004e000fbff3a005e40900066
:102f840093fd0700104798007efd070019c2bf009b
:102f940001c8b300014060000004e000fbff3a00f8
:102fa400e3fd070077fd070019c2bf0001c8b300a5
:102fb400014060000004e000fbff3a004e40900036
:102fc4000080fb0000004000804078000104a00065
:102fd400014f78001e4078007dfd070069fd070061
:102fe40019c2bf0001c8b300014060000004e00042
:102ff400fbff3a001e0190000e4890000080fb0089
:10300400be009000ccfd07005efd0700f0fd070048
:103014005cfd070078fd07005afd07001e40900084
:103024000000fb000080fa00000006000a00fa001d
:10303400404798005147980032079800034f980082
:103044000e4890008080fb00400620000088b900f4
:10305400100798004e4090000080fb0000004000e4
:10306400004f780066fd070067fd070079c2bf00c6
:1030740001c8b300014060000004e000fbff3a0017
:103084001e40780073fd0700104798005efd07009e
:1030940079c2bf0001c8b300014060000004e00031
:1030a400fbff3a005e4090006afd0700104798005d
:1030b40055fd070079c2bf0001c8b300014060009c
:1030c4000004e000fbff3a00c4fd07004efd0700ca
:1030d40079c2bf0001c8b300014060000004e000f1
:1030e400fbff3a004e4090000080fb0000004000cf
:1030f400804078000104a000014f78001e40780051
:1031040054fd070040fd070079c2bf0001c8b300a9
:10311400014060000004e000fbff3a001e01900043
:103124000e4890000080fb00be009000adfd07003b
:1031340035fd0700d1fd070033fd07004ffd0700f3
:1031440031fd07001e4090000000fb000080fa00e3
:10315400000006000200fa00004f78001e80fb0009
:10316400610060000004e00002003200c802a80010
:10317400e204a8001e80fb000000d1006100600092
:103184000004e00002003200c822a800e224a800e3
:103194001e80fb004200de00610060000004e000cd
:1031a40002003200c842a800e244a8001e80fb00ce
:1031b4004300de00610060000004e0000200320011
:1031c400c862a800e264a8000080fa0000000600bb
:1031d4000200fa00004f78001e80fb0061006000ce
:1031e4000004e00002003200e022a900e422a90069
:1031f4001e80fb000000d100610060000004e000bc
:1032040002003200e042a900e442a9001e80fb0053
:103214004200de00610060000004e00002003200b1
:10322400e062a900e462a9000080fa000000060040
:103234000200fa00004f78001e80fb00610060006d
:103244000004e00008003200d962a900dd62a90090
:10325400c16c20009140780000ccb30000c0600035
:103264002041b300cce6b7001e80fb000000d10073
:10327400610060000004e00008003200d902a900e7
:10328400dd02a900216c20009140780000ccb3003d
:1032940000c060003041b300c2e6b7001e80fb00ee
:1032a4004200de00610060000004e000080032001b
:1032b400d802a900dc02a900b16c2000914078007a
:1032c40000ccb30000c060004041b300cbe6b700bf
:1032d4001e80fb004300de00610060000004e0008b
:1032e40008003200d822a900dc22a900816d200048
:1032f4009140780000ccb30000c060005041b3009e
:10330400d8e6b7000080fa00000006000200fa00c8
:10331400004f78001e80fb00610060000004e000a4
:1033240004003200c942a900c962a900cd42a90023
:10333400cd62a9001e80fb000000d1006100600086
:103344000004e00004003200c982a900c9a2a90057
:10335400cd82a900cda2a9000080fa0000000600d9
:103364000200fa00004f78001e80fb00610060003c
:103374000004e00003003200e002a800e202a90019
:1033840002003700e002a900e202a9001e80fb004f
:103394000000d100610060000004e000030032007e
:1033a400e822a800ea22a90002003700e822a900c6
:1033b400ea22a9001e80fb004200de0061006000da
:1033c4000004e00004003200ea04a900e802a800b6
:1033d400ea02a90003003700ea04a900e802a900f0
:1033e400ea02a9000080fa00000006000000fa00ca
:1033f400e284a900e2a4a900c882a800c8a2a90086
:10340400416a20009140780000ccb30000c0600005
:10341400c041b300a4e6b700216d200091407800bc
:1034240000ccb30000c060003040b300d2e6b70067
:103434000080fa00000006000000fa00e3e4a9009e
:10344400e3c4a900c9e2a800c9c2a900616a2000b6
:103454009140780000ccb30000c06000d041b300bc
:10346400a6e6b700e16c20009140780000ccb300e0
:1034740000c060005040b300cee6b7000080fa0000
:10348400000006000000fa00d8a2a900d882a80013
:10349400d862a900d842a900416d2000914078006b
:1034a40000ccb30000c060009040b300d4e6b70085
:1034b400816a20009140780000ccb30000c0600015
:1034c4009041b300a8e6b700616d200091407800f8
:1034d40000ccb30000c060007040b300d6e6b70073
:1034e400716d20009140780000ccb30000c06000f2
:1034f4000034a000d7e6b7000080fa000000060000
:103504000000fa00ed24a900ed04a900ece4a900f0
:10351400ecc4a900f122a900f102a800f0e2a9007c
:10352400f0c2a900b16d20009140780000ccb30036
:1035340000c06000c040b300dbe6b700c16a2000f1
:103544009140780000ccb30000c060003041b3006b
:10355400ace6b700a16d20009140780000ccb30028
:1035640000c06000a040b300dae6b700516d20004f
:103574009140780000ccb30000c06000b040b300bc
:10358400d5e6b7000080fa00000006000000fa004b
:10359400113a8000f00b20000081600061042000db
:1035a4007005200023742000814978008049780048
:1035b4008249780091418000f0c0b300010001000d
:1035c400a141800070c0b30001000100b14180003e
:1035d40030c0b30001000100c1418000f0c0b3005d
:1035e40001000100d141800070c0b300010001005e
:1035f400e041800000000100f04180000000010073
:103604000042800000000100104280000000010020
:10361400113a800000042000008170006104200041
:1036240070052000237420008149780080497800c7
:10363400824978000080fa00000006000000fa00c9
:10364400c08a210090418800a08e2100a0418800fa
:1036540080982100b0418800a0912100c0418800d9
:10366400209b2100d041880040a421000042880012
:1036740020a8210010428800809f2100e04188009a
:10368400e0a12100f041880080ac210020428800a4
:103694000080fa00000006000000fa0002c8b3002f
:1036a40000a8210061002000edfc0700800220003a
:1036b400cc01070080c3b30046e8b70013c0b300d1
:1036c400628420008040eb00e0c3b30088fd070063
:1036d40010002000c301070090c3b30046e8b70000
:1036e40013c0b300628420008040eb00e0c3b30049
:1036f4007ffd070010002000ba01070040c1b3009d
:1037040046e8b70013c0b300628420008040eb0099
:10371400e0c3b30076fd070010002000b1010700ec
:1037240080c7b30046e8b70013c0b300628420002a
:103734008040eb00e0c3b3006dfd070010002000e3
:10374400a8010700d0c5b30046e8b70013c0b30012
:10375400628420008040eb00e0c3b30064fd0700f6
:10376400100020009f010700d0c6b30046e8b70050
:1037740013c0b300628420008040eb00e0c3b300b8
:103784005bfd0700800c200096010700c0c0b30059
:1037940046e8b70013c0b300628420008040eb0009
:1037a400e0c3b30052fd0700100020008d010700a4
:1037b40010c0b30046e8b70013c0b3006284200011
:1037c4008040eb00e0c3b30049fd07002000200067
:1037d4008401070060c0b30046e8b70013c0b3001b
:1037e400628420008040eb00e0c3b30040fd07008a
:1037f400a00020007b01070090c3b30046e8b70097
:1038040013c0b300628420008040eb00e0c3b30027
:1038140037fd0700100020007201070010c0b3003c
:1038240046e8b70013c0b300628420008040eb0078
:10383400e0c3b3002efd070020002000690107004b
:103844000080fa00000006001a00fa0040579800b1
:1038540051579800320f98000040eb002047980021
:103864000040eb00004f78004e509000e14f5000b4
:1038740002003a0082000700010037008a000700b6
:1038840080c3b30046e8b70013c0b30062842000cd
:103894008040eb00e0c3b30015fd070010002000da
:1038a400500107000040eb00104798000a00370061
:1038b40040c1b30046e8b70013c0b30062842000df
:1038c4008040eb00e0c3b30009fd07001e409000f8
:1038d4000040e800104798001e4090008080fb00e4
:1038e4005e5090000080fb000000e900808f5000d3
:1038f400efff3500010037001e4fe8002e40900016
:103904000080fb00800078003e08900000804000aa
:1039140010407800005f98000e5890000004e0000a
:103924000200320010c0b300005f98000e589000ef
:10393400ae4090008140e800214798000004e00078
:10394400edff3a000040eb00204798009e80fb000a
:103954005e5090000080fb0071001000808f5000ca
:1039640006003c009e4178003e09900001c4b3006b
:10397400e0c3b300defc0700350037004e50900072
:10398400e14f50002a003a00de50900010c1b3000d
:1039940001405000804178003e09900001c4b3000a
:1039a400e0c3b300d2fc0700de50900010c1b300a6
:1039b4000140500010479800130037002e4090003b
:1039c4000081fb001e4090000080fb008000780016
:1039d4003e0890000080400090407800630047005b
:1039e400017178002e4090000040e80020479800c4
:1039f4002e409000f04f5000060032001e40900010
:103a04000040e800104798001e4090009e4f500070
:103a1400eaff39002400070063014700ae4190002b
:103a240001c4b300e0c3b300b1fc070008003700d1
:103a3400de50900010c1b300014050008041780076
:103a44003e09900001c4b300e0c3b300a8fc070022
:103a54000080fa00000006000000fa0010c0b30065
:103a640046e8b70013c0b300628420008040eb0036
:103a7400e0c3b3009efc07000080fa0000000600cb
:103a84000000fa0020c0b30046e8b70013c0b3003a
:103a9400628420008040eb00e0c3b30094fc070084
:103aa4000080fa00000006000000fa0000ccb30019
:103ab40046e8b70013c0b300628420008040eb00e6
:103ac400e0c3b3008afc07000080fa00000006008f
:103ad4000400fa00204798000040eb0010479800cb
:103ae4000040eb00004f780043c7bf000080fb009c
:103af4004400de0067406000004f780010c0b3004f
:103b04009e4f10000300320030c0b3009e4f1000df
:103b140010003a002e409000e34f500020003e0079
:103b2400517420009140780080cfb30000c0600041
:103b340045e7b7002e40900063406000c600dd00fa
:103b440044c7bf00f043b2000140700044e7b7002f
:103b54001300370070c0b3009e4f100010003a00ed
:103b64002e409000e74f50000d0036002e4090008c
:103b74000080fb004400de00104798001e409000c7
:103b840067406000674160005174200091407800f4
:103b940080cfb30000c060000240700045e7b7006a
:103ba4000080fa00000006000a00fa00889fbe00a8
:103bb4000040eb00704798000040eb00604798001d
:103bc4000040eb00504798000040eb00404798004d
:103bd40000902000d1032000008fbe0043c7bf0027
:103be4000080fb004400de006740600070479800de
:103bf40044c7bf000080fb004600de005047980029
:103c040045c7bf0067406000404798007e40900071
:103c14000080fb00400798004e009000e30f500026
:103c2400370032004e009000e30f50000a003c00c1
:103c34004e009000e10f5000180032004e0090003a
:103c4400e10f50002a003c004e0090000000e0000c
:103c54000e0032005f0037004e009000e50f500068
:103c6400400032004e009000e50f5000390035004e
:103c74004e009000e60f50003e0032004e009000cf
:103c8400e70f50003f003200520037000090200040
:103c9400d1032000008fbe004e00370000402200f8
:103ca400410f2000008fbe005e4090008080fb002a
:103cb400100020000100dd00604798001e00be00d7
:103cc400daf607000004be006e4090000080fb009e
:103cd400cf80de00d5f607000001be000800be005c
:103ce400fdf60700b7f70700008fbe003900370064
:103cf40000902000d1032000008fbe003500370063
:103d040000402200410f2000008fbe005e40900062
:103d14008080fb00100020000100dd006047980057
:103d24001e00be00c1f607000004be006e409000f5
:103d34000080fb00cf80de00bcf607000001be005f
:103d44000800be00e4f607009ef70700008fbe00df
:103d5400200037000000240001002000008fbe0076
:103d64001c003700c0c8230001002000008fbe00e3
:103d74001800370000092d0031002000008fbe001c
:103d84001400370000902000d1032000008fbe00f3
:103d94004e4090008080fb00100020000100dd00f8
:103da400604798001e00be00a0f607000004be0095
:103db4006e4090000080fb00cf80de009bf6070081
:103dc4000001be000800be00c3f607007df707002f
:103dd400008fbe001e00be004f04be000080fa002b
:103de400000006000a00fa00400798006000b800ce
:103df40020079800310798006000b800008fbe00cb
:103e040069ff070020079800310798002e009000f2
:103e1400be00900085f6070002002000a34724009e
:103e2400adf607004cf70700008fbe000500370011
:103e34001e00be00530007004e0090000000e90081
:103e4400400798004e0090000000e000f8ff3a00a0
:083e54000080fa0000000600e6
:020000040000fa
:103e5c00460800000200000080000000320800004c
:103e6c001400000080000000480800000200000060
:103e7c00820000000000000000080000320000007a
:103e8c00800000006c08000012000000820000009e
:103e9c0001000200000400000800100000000000f7
:103eac00202b2d00233000007e08000008000000ad
:103ebc0082000000686a6c00747a4c0000000000fc
:103ecc004a0800002200000082000000303132005d
:103edc00333435003637380039616200636465006d
:103eec006600300031323300343536003738390053
:103efc004142430044454600000000000000000021
:020000040000fa
:103f0c000000fa0080c0b300effe0700c9fd0700f7
:103f1c002042800000000100ddfd0700d07d200064
:103f2c00404288004042800001802000801f7800c1
:103f3c00e0452900801f780001007800adf10700f2
:103f4c00e48757000280200061c0b30010c0b300aa
:103f5c003bfe070000802000214629000e000900ce
:103f6c0031587800f000b1000280200021c0b3006d
:103f7c0020c0b30032fe0700ffff3700f03fb10056
:103f8c000180b10006003500ee03090000000000be
:103f9c00403fb1000180b100fbff3d001000b000bc
:103fac00203fb00002003500008009000000000036
:043fbc0000000600fb
:020000040000fa
:043fc0000000fe00ff
:00000001FF
