:0400000051EF00F0CC
:0C000800FACF12F0FBCF13F0C8EF09F0A4
:10001800D8CF01F0E8CF02F0E0CF03F0FACF04F038
:10002800FBCF05F0E9CF06F0EACF07F0E1CF08F003
:10003800E2CF09F0D9CF0AF0DACF0BF0F3CF0CF00A
:10004800F4CF0DF0F6CF0EF0F7CF0FF0F8CF10F099
:10005800F5CF11F011C0F5FF10C0F8FF0FC0F7FF82
:100068000EC0F6FF0DC0F4FF0CC0F3FF0BC0DAFFA3
:100078000AC0D9FF09C0E2FF08C0E1FF07C0EAFFD4
:1000880006C0E9FF05C0FBFF04C0FAFF03C0E0FF9C
:1000980002C0E8FF01C0D8FF10002DEF0AF00001F0
:1000A80062C028F0296A2A6A00016135283601E30E
:1000B8002980285000010001686F000165C028F000
:1000C800296A2A6A00016435283601E32980285004
:1000D80000010001676F000100016851D8B414D015
:1000E80000010001675100010001685DD8B013D01C
:1000F8000001000168510008000100016725286E11
:10010800190E285CD8A007D063C060F064C061F005
:1001180065C062F01200000100016751D8B414D024
:1001280000010001685100010001675DD8B013D0DB
:100138000001000167510008000100016825286ED0
:10014800190E285CD8A007D060C060F061C061F0CB
:1001580062C062F01200286E060E00010001666F90
:1001680028500001000162AF03D000010001668F32
:100178000001000165AF03D000010001668D000198
:100188000001618FFF0E000100016017FF0E0001E2
:1001980000016117000E0001000162170001000153
:1001A800648FFF0E000100016317FF0E00010001BC
:1001B8006417000E00010001651700010001675176
:1001C80000010001685DD8B030D00001D89000016E
:1001D80063370001643700016537000100016707D4
:1001E800000100016751000100016819D8B415D059
:1001F80000010001660766C028F0070E2816D8B46B
:100208000CD0E3D70001D8900001623300016133BC
:100218000001603300010001682B000100016751F3
:10022800000100016863EED737D000010001685172
:1002380000010001675DD8B02FD00001D8900001FF
:10024800603700016137000162370001000168076B
:10025800000100016751000100016819D8B415D0E8
:1002680000010001660766C028F0070E2816D8B4FA
:100278000CD0E3D70001D890000165330001643346
:100288000001633300010001672B00010001675181
:10029800000100016863EED70001000166AF18D0C5
:1002A800FF0E00010001601BFF0E00010001611B31
:1002B800FF0E00010001621B010E00010001602712
:1002C800000E000100016123000E000100016223FD
:1002D8000001000166AD18D0FF0E00010001631B8C
:1002E800FF0E00010001641BFF0E00010001651BE9
:1002F800010E000100016327000E000100016423C4
:10030800000E000100016523286E000E00010001A7
:10031800666F285000010001605100010001632749
:100328000001000161510001000164230001000186
:1003380062510001000165230001000165AF1ED074
:10034800FF0E00010001631BFF0E00010001641B8A
:10035800FF0E00010001651B010E0001000163276B
:10036800000E000100016423000E00010001652356
:10037800286E010E00010001666F285063C020F04E
:1003880064C021F065C022F068C023F066C024F084
:100398002CEC09F020C060F021C061F022C062F0AE
:1003A8001200E8CFADF0380E00010001A76F060E6D
:1003B80000010001A86F360E00010001A96F0001BD
:1003C8000001AD51FDEC09F028C0B0F029C0B1F032
:1003D8002AC0B2F09C0E000100019E6FC40E0001FD
:1003E80000019F6F3A0E00010001A06F000E00018E
:1003F8000001A16F000E00010001A26F000E0001B4
:100408000001A36FC60E00010001A46F270E0001B2
:100418000001A56FB70E00010001A66F000E206E47
:10042800700E216E420E226EB0C023F0B1C024F0CF
:10043800B2C025F080EC09F0D8B00CD0000E000155
:100448000001B06F700E00010001B16F420E000193
:100458000001B26FB0C020F0B1C021F0B2C022F0EC
:10046800000E236E700E246EC20E256E80EC09F00D
:10047800D8B00CD0000E00010001B06F700E000162
:100488000001B16FC20E00010001B26FA4C06CF090
:10049800A5C06DF0A6C06EF0B0C063F0B1C064F046
:1004A800B2C065F0A1C020F0A2C021F0A3C022F024
:1004B80091EC0AF020C060F021C061F022C062F027
:1004C80053EC00F060C069F061C06AF062C06BF084
:1004D800C5EC02F069C0AAF06AC0ABF06BC0ACF022
:1004E800AAC060F0ABC061F0ACC062F09EC063F01F
:1004F8009FC064F0A0C065F053EC00F060C09BF0B2
:1005080061C09CF062C09DF0000E000100016C6F9C
:10051800800E000100016D6F410E000100016E6F39
:10052800A7C069F0A8C06AF0A9C06BF0C5EC02F0DA
:1005380069C07BF06AC07CF06BC07DF09BC078F02E
:100548009CC079F09DC07AF094EC04F078C087F0F4
:1005580079C088F07AC089F06DEC05F087C097F013
:1005680088C098F089C099F08AC09AF097C0AEF018
:1005780098C0AFF0AEC087F0AFC088F0B1EC03F020
:10058800120000016BC06FF00001706B716B00010D
:1005980000016A3500016F3701E3708100016F5176
:1005A80000010001726F000172670DD0000E00019A
:1005B8000001696F000E000100016A6F000E000162
:1005C80000016B6F120000016EC06FF00001706BCC
:1005D800716B000100016D3500016F3701E3708117
:1005E80000016F5100010001776F000177670DD09E
:1005F800000E00010001696F000E000100016A6F22
:10060800000E000100016B6F12000001000177511C
:100618007B0F0001000172276BC077F00001000119
:100628006E5100010001771B800E00010001771751
:10063800000100016A8F000100016D8FFF0E0001AB
:1006480000016C17FF0E000100016D17000E00017C
:1006580000016E17000E00010001736F000E00010B
:100668000001746F000E00010001756F00016F6FCB
:10067800070E00010001766F00016F5100010001B3
:1006880069A112D0000100016C510001000173271B
:10069800000100016D5100010001742300010001F7
:1006A8006E510001000175230001D89000016B33E1
:1006B80000016A33000169330001D89000016C37EA
:1006C80000016D3700016E3700010001762FD6D783
:1006D80000016F6F090E00010001766F00016F5174
:1006E8000001000169A112D0000100016C51000154
:1006F80000017327000100016D51000100017423FE
:10070800000100016E510001000175230001D8901D
:1007180000016B3300016A33000169330001D8908E
:1007280000017533000174330001733300010001C7
:10073800762FD6D773C020F074C021F075C022F090
:1007480072C023F077C024F02CEC09F020C069F0C7
:1007580021C06AF022C06BF012000F01000152CFD5
:1007680095F000010001966BD6C08BF0D7C08CF0D5
:10077800D8C08DF00F010F015151030B000100018A
:10078800946F240E000100018E6FF40E0001000129
:100798008F6F480E00010001906F000195C089F02D
:1007A800000196C08AF00001D89089378A37000185
:1007B800D89089378A37010E000189250001000188
:1007C800956F000E00018A210001966F000100015B
:1007D800875100010001955D000100018851000169
:1007E80000019659D8B004D095C087F096C088F01B
:1007F80087C089F0030E000189170001893BBD50AD
:1008080000018919CF0B8919BD6E000187C089F0D5
:10081800000188C08AF00001D8908A33893300012A
:10082800D8908A33893300018951BE6E00010001D6
:100838009451010D00018B0EF324D96E0001000EB6
:10084800F420DA6EDF505AEC0AF028C06CF029C0A8
:100858006DF02AC06EF087C028F088C029F077ECC8
:100868000AF028C069F029C06AF02AC06BF0C5EC0C
:1008780002F069C091F06AC092F06BC093F0000E6C
:10088800000100016C6F7A0E000100016D6F440ECB
:10089800000100016E6F91C069F092C06AF093C0C8
:1008A8006BF0C5EC02F069C078F06AC079F06BC0F3
:1008B8007AF08EC07BF08FC07CF090C07DF094EC15
:1008C80004F078C0DFF079C0E0F07AC0E1F0000E03
:1008D800000100016C6FC80E000100016D6F420E2F
:1008E800000100016E6FDFC069F0E0C06AF0E1C08E
:1008F8006BF0C5EC02F069C078F06AC079F06BC0A3
:100908007AF0DCC07BF0DDC07CF0DEC07DF094ECDA
:1009180004F078C0D9F079C0DAF07AC0DBF01200C0
:1009280000017AC07EF000017F6B806B000100013E
:10093800793500017E3701E37F8100017E51000196
:100948000001856F000185670DD0000E00010001D0
:10095800786F000E00010001796F000E00010001A0
:100968007A6F120000017DC07EF000017F6B806B02
:10097800000100017C3500017E3701E37F81000121
:100988007E5100010001866F000186670DD0000EC0
:1009980000010001786F000E00010001796F000E60
:1009A800000100017A6F1200000E00010001826F41
:1009B800000E00010001836F000E00010001846F2A
:1009C800000100018651890F00010001855F7AC08E
:1009D80086F0000100017D5100010001861B800E98
:1009E80000010001861700010001798FFF0E000148
:1009F80000017817FF0E000100017917000E0001B1
:100A080000017A17000100017C8FFF0E0001000130
:100A18007B17FF0E000100017C17000E000100018A
:100A28007D1700017E6F180E00010001816F000123
:100A38007E510001D8900001823700018337000100
:100A48008437000100017B5100010001785D00013D
:100A580000017C51000100017959000100017D511C
:100A6800000100017A59D8A015D0000100017B517E
:100A780000010001785F000100017C5100010001C4
:100A8800795B000100017D51000100017A5B0001E2
:100A9800000182810001D890000178370001793780
:100AA80000017A3700010001812FC3D782C020F0EE
:100AB80083C021F084C022F085C023F086C024F0D2
:100AC8002CEC09F020C078F021C079F022C07AF02F
:100AD8001200000189C08BF000018C6B8D6B000146
:100AE8000001883500018B3701E38C8100018B51AF
:100AF80000010001956F000195670ED0000E0001FE
:100B08000001876F000E0001886F000E0001896FD9
:100B1800000E00018A6F1200170E00018B6F000192
:100B280087C08CF0000188C08DF0000189C08EF06C
:100B380000018B2900018F6F05D00001D8908E33FA
:100B48008D338C3300018F2FF8D700018C510001B1
:100B58000001906F00010001888FFF0E0001000165
:100B68008717FF0E000100018817000E0001000121
:100B7800891700010001875100010001916F0001F0
:100B8800000188510001926F000189510001936FA3
:100B98000001946B8E0E00010001955F00010001B9
:100BA80095AF29D0000100019551800A00018B6F93
:100BB800F10E800A00018B5DD8B00ED0000E000146
:100BC8000001876F000E0001886F000E0001896F19
:100BD800000E00018A6F12000001D89000019433C2
:100BE80000019333000192330001913300010001A9
:100BF800953FF2D724D0170E0001000195651BD050
:100C0800000E00010001876F000E0001886F000EC2
:100C18000001896F000E00018A6F12000001D89050
:100C28000001913700019237000193370001943792
:100C3800000100019507000100019567EFD7000149
:100C480000019051D8B410D000010001941F000198
:100C5800931F0001921F0001916D000E0001922365
:100C6800000193230001942391C087F092C088F07B
:100C780093C089F094C08AF01200286E000E00011B
:100C88000001616F28502750800A800F08E1000E8C
:100C9800265C05E1000E255C02E1000E245CD8B05C
:100CA8000ED0271E261E251E246C000E2522262265
:100CB8002722286E010E00010001616F2850235081
:100CC800800A800F08E1000E225C05E1000E215C1D
:100CD80002E1000E205CD8B00CD0231E221E211E7B
:100CE800206C000E212222222322010E0001000185
:100CF800611B000E00010001626F000E0001636FAE
:100D0800000E0001646F000E0001656F275024106B
:100D180025102610D8B439D0286E010E0001000124
:100D2800606F285008D0D8902436253626362736C6
:100D380000010001602B27AEF6D70001D890000112
:100D480062370001633700016437000165372450BA
:100D5800205C255021582650225827502358D8A0C7
:100D68000BD02450205E2550215A2650225A275055
:100D7800235A000100016281D89027322632253299
:100D8800243200010001602FD8D700010001615111
:100D9800D8B410D000010001651F0001641F0001D4
:100DA800631F0001626D000E0001632300016423CC
:100DB8000001652362C020F063C021F064C022F006
:100DC80065C023F01200E8CF92F03BC088F03CC029
:100DD80089F03DC08AF0200E000100018B6FA10E42
:100DE80000018C6F070E00018D6F000E00018E6FE1
:100DF8000F010F013A9594840F010F014951FC0B23
:100E080001090F01496FBD50F00B0C09BD6E0F01B0
:100E18000F015151000100019219FC0B00019219B8
:100E28000F010F01516F87C052FF0F010F0151854C
:100E38000001000187515AEC0AF028C06CF029C063
:100E48006DF02AC06EF0000100019251010D000101
:100E5800880EF324D96E0001000EF420DA6EDF50FC
:100E68005AEC0AF028C069F029C06AF02AC06BF071
:100E7800C5EC02F069C08FF06AC090F06BC091F0C9
:100E8800000E000100016C6F7A0E000100016D6F09
:100E9800450E000100016E6F8FC069F090C06AF0C6
:100EA80091C06BF0C5EC02F069C078F06AC079F0C7
:100EB8006BC07AF08BC060F08CC061F08DC062F0BE
:100EC8008EC063F0EDEC07F060C07BF061C07CF091
:100ED80062C07DF094EC04F078C0DCF079C0DDF0FD
:100EE8007AC0DEF01200000120EEC8F001D80AD066
:100EF8000500FA6EDE50FD6EDE50FE6EF850FF6E95
:100F0800FA50120020C072F021C073F022C074F0B1
:100F180023C075F072C020F073C021F074C022F0B5
:100F280075C023F0000166C06AF0000167C06BF06D
:100F3800000168C06CF0000169C06DF0020ED89025
:100F480000016A376B376C376D37E82EF8D76AC0FF
:100F580024F06BC025F06CC026F06DC027F041EC82
:100F680006F020C06EF021C06FF022C070F023C0E0
:100F780071F0FF0E00016E2500010001766FFF0E73
:100F880000016F210001776F000100017751800A8D
:100F9800800F010ED8B4765DD8A01200B886AC8454
:100FA800AC98000177C06AF06AC06BF000016C6B06
:100FB80000016B51B06E76C0AFFF0F010F013A9D73
:100FC8000F010F013A9F948C948EAC8AAB88AB8E3C
:100FD80012000001646F000E296E000164510001C7
:100FE800646F8E0E286E0001645100010001635188
:100FF800800A800F0BE1000E0001625D07E1000E20
:101008000001615D03E1000E0001605DD8B022D0EF
:1010180000010001631F0001621F0001611F000140
:10102800606D000E0001612300016223000163234B
:101038000001646F010E296E000164510BD000019C
:10104800D89000016333000162330001613300016D
:101058006033282A000E0001000160150001646F4A
:10106800000E0001000161150001656F000E00010E
:10107800000162150001666FFF0E00010001631593
:101088000001676F00016751641165116611D8A4EA
:10109800D6D760C020F061C021F062C022F028C01D
:1010A80023F029C024F02CEC09F020C060F021C006
:1010B80061F022C062F01200000120EEC8F001D8F1
:1010C8000AD00500FA6EDE50FD6EDE50FE6EF85056
:1010D800FF6EFA50120020C072F021C073F022C0D7
:1010E80074F023C075F072C020F073C021F074C092
:1010F80022F075C023F0000166C06AF0000167C0E5
:101108006BF0000168C06CF0000169C06DF0020E60
:10111800D89000016A376B376C376D37E82EF8D7EF
:101128006AC024F06BC025F06CC026F06DC027F0B3
:1011380041EC06F020C06EF021C06FF022C070F0C4
:1011480023C071F0FF0E00016E2500010001766FCB
:10115800FF0E00016F210001776F00010001775138
:10116800800A800F010ED8B4765DD8A01200708670
:1011780072847298000177C06AF06AC06BF000014F
:101188006C6B00016B51766E76C075FF938C938EF5
:10119800728A7188718E1200000120EEB8F001D8B1
:1011A8000AD00500FA6EDE50FD6EDE50FE6EF85075
:1011B800FF6EFA501200800E00010001666F250EC6
:1011C8000001676F000E0001686F000E0001696F73
:1011D80001D80DD005000001FA6E0001CA51FD6E5C
:1011E8000001CB51FE6EF850FF6EFA50120000015C
:1011F800B36F9C0E00010001876F0001B351020E0E
:10120800E7EC06F0000E00010001886F2E0E0001C9
:10121800876FB1EC03F0D3EC0AF0A4AAFED7A49A26
:10122800000120EED2F001D80AD00500FA6EDE5097
:10123800FD6EDE50FE6EF850FF6EFA50120000018F
:101248000001E26F00010001E251D5EC01F0E5D7A1
:101258002350D8B405D0205021102210D8A40CD087
:10126800000E206E000E216E000E226E1200232A40
:10127800D890223221322032000E2014256E000E22
:101288002114266EFE0E2214276E255026102710D4
:10129800D8B40CD0ECD7232A010E2026000E212228
:1012A800000E2222D890223221322032000E201441
:1012B800256E000E2114266EFF0E2214276E25506F
:1012C80026102710D8B406D0E6D72306D8902036A3
:1012D8002136223621AEF9D723A0219ED890233279
:1012E800235022122450D8A4228E20C020F021C0DE
:1012F80021F022C022F0120022AE16D020C026F023
:1013080021C027F022C028F0261E271E281E262AC4
:10131800000E27222822000E2624206E000E2720E9
:10132800216E800E2820226E25AE16D023C026F00E
:1013380024C027F025C028F0261E271E281E262A8E
:10134800000E27222822000E2624236E000E2720B6
:10135800246E800E2820256E000E201A000E211AF9
:10136800800E221A000E231A000E241A800E251A47
:101378002350205C2450215825502258D8B002D040
:10138800D8901200D8801200E9CF14F0EACF15F0F7
:10139800E1CF16F0E2CF17F0D9CF18F0DACF19F075
:1013A800F3CF1AF0F4CF1BF0F6CF1CF0F7CF1DF0F7
:1013B800F8CF1EF0F5CF1FF01FC0F5FF1EC0F8FFD5
:1013C8001DC0F7FF1CC0F6FF1BC0F4FF1AC0F3FFD7
:1013D80019C0DAFF18C0D9FF17C0E2FF16C0E1FF35
:1013E80015C0EAFF14C0E9FF13C0FBFF12C0FAFFE3
:1013F8001100E8CF62F00001606F000E00010001EB
:10140800616F000160510001000162AF0BD0000163
:101418000001626D0001606F010E00010001616F43
:1014280000016051000100016251206E216A226AA8
:101438000001606F8E0E236E0001605161C024F0C0
:101448002CEC09F020C028F021C029F022C02AF095
:10145800120000EED9F00A0EEE6AE806FDE1406AD5
:101468003F6A480EF66E150EF76E000EF86E00EE27
:10147800B4F010EE25F00900F5CFEEFFE550E1508D
:10148800FAE1920EF66E150EF76E000EF86E00EE8B
:101498002BF010EE14F00900F5CFEEFFE550E15007
:1014A800FAE1000EF86E0001D0EF08F0E8CF62F024
:1014B800000100016251206E216A226A0001606FFA
:1014C8008E0E236E000160510001616F000E246EC4
:1014D800000161512CEC09F020C028F021C029F04E
:1014E80022C02AF0120028C020F029C021F0226A68
:1014F8000001606F8E0E236E000160510001616F64
:10150800000E246E000161512CEC09F020C028F077
:1015180021C029F022C02AF012007F0E22142110C7
:101528002010D8B406D0000E201A000E211A800E02
:10153800221A20C020F021C021F022C022F012007F
:10154800000000006E150000000000000000000010
:1015580000000000B815C010000000000000CE1503
:10156800000001041000D282D3508C0B2209D36EE4
:10157800206E020E3E6E2050200E376EA10E386E81
:10158800070E396E000E3A6E1200EE0E00000000D3
:101598000000CA15000040420F00010410037E90AD
:1015A8007EA0FED77E900F010F013A959494120009
:1015B80037C020F038C021F039C022F03AC023F0FB
:0A15C8001200AE5012007450120021
:020000040020DA
:08000000FFFFFFFFFFFFFFFF00
:020000040030CA
:0E000000FF291F3CFFBF81FF0FC00FE00F4024
:00000001FF
