:020000040000fa
:080000000002040000000000f2
:020000040000fa
:100400008f8b20000eff27000e01880000000000e7
:100410000c00070040032300010020000f0007002c
:10042000000020000000e000020032000000020096
:1004300000000000d62f0200000000000040da009b
:100440000000fe00400220000000e0000200320038
:10045000002020009001880000000600a102880012
:10046000800078000000eb001a003700e2804000b6
:1004700054a0b4009101ba00e280400054a0b4003e
:100480009102ba00e280400054a0b4000002eb00e8
:10049000472bde00f507b200a6018800602ce100c2
:1004a00008003a000049eb000201e80002003900b0
:1004b0003420ec0002f0a0008301e900f9ff3e00c7
:1004c000040037006128e100010032000082eb00e7
:1004d000040007001101ba000200e000e3ff3a0047
:1004e0000000060004d0a300e20f49001c00390000
:1004f000810278003549ba000201e80002003900a3
:100500003420ec0002f0a0008301e9000f0032006b
:100510002549ba000201e800020039003420ec004d
:1005200002f0a0008301e900080032000400e000ae
:100530000600320015c9ba000201e80002003900c5
:100540003420ec0002f0a0008301e9008180e80083
:1005500054a0b4000300e000e2ff3a0000000600ef
:100560009102ba00055978008301e900f7ff3200d3
:10057000c82ade00055978008301e900f3ff320044
:100580000400e000f1ff320011d9ba00eeff37009d
:1005900010290400000000004e29040000000000a3
:1005a000ec290400000000007e2904000000000087
:1005b000162a040000000000a82a04000000000021
:1005c000e62a0400000000005c2a0400000000008d
:1005d000822a0400000000002c2b04000000000010
:1005e0007e21040000000000222004000000000022
:1005f0001422040000000000962004000000000007
:100600006010040000000000f4100400000000006e
:10061000da110400000000000040da000000fe00d3
:100620008600a9008620a900e7416000c10a2000d9
:100630009140780082cfb30082c0600083c0700018
:100640008000fd00ace0b7008000fd0001c7b300f2
:1006500081416000c10a200091407800f2c8b300d7
:1006600082c0600083c070008000fd00ace0b70075
:100670008000fd00680160004311de006109200078
:10068000914078000104a10082c070008000fd004c
:1006900096e0b7008000fd000008b2004700de00d1
:1006a0000040400061092000914078000114a10041
:1006b00080c070000100780096e0b70000000600de
:1006c0008a20a9008a40a900e7416000c419dd0022
:1006d000c10b200091407800f2c8b30082c06000d6
:1006e00083c070008000fd00bce0b7008000fd000a
:1006f000800178000307b200c419de00d10b20008e
:100700009140780082cfb30082c0600083c0700047
:100710008000fd00bde0b7008000fd0068016000c2
:100720004311de0002414100a10920009140780000
:100730000114a10082c070008000fd009ae0b700a3
:100740008000fd000008b2004700de004200dd002e
:10075000a1092000914078000124a10080c0700010
:10076000010078009ae0b7000000060006c2bf0052
:100770000008a300fdff3a0006c2bf000018a30056
:10078000faff3a0006c2bf000028a300f7ff3a00b4
:1007900006c2bf000038a300f4ff3a0006c2bf0043
:1007a0000048a300f1ff3a0009c2bf000068a3009f
:1007b000eeff3a000000060016c2bf000008a300ca
:1007c000fdff3a0016c2bf000018a300faff3a006e
:1007d00016c2bf000028a300f7ff3a0016c2bf00f0
:1007e0000038a300f4ff3a0016c2bf000048a3007f
:1007f000f1ff3a0019c2bf000068a300eeff3a0003
:100800000000060076c2bf000008a300fdff3a000a
:1008100076c2bf000018a300faff3a0076c2bf00fc
:100820000028a300f7ff3a0076c2bf000038a300fb
:10083000f4ff3a0076c2bf000048a300f1ff3a007f
:1008400079c2bf000068a300eeff3a000000060076
:10085000889fbe008a9fbe008c9fbe0080057800e6
:100860008106780002067800800478000005eb001d
:10087000150037000662a8000004eb0003003700f3
:100880008c0f5400130031000804e800a400070096
:100890000004e000faff32000010800080767d0046
:1008a0008904e90002003a0006a2a800010037000e
:1008b00006a2a9000682a80006c2bf000048a30045
:1008c000fdff3a000a05e8008b0f5500e9ff3a00ea
:1008d0008004eb00090078004f06be004f05be0003
:1008e0004f04be0000000600889fbe008a9fbe0025
:1008f0008c9fbe0080057800810678000206780093
:10090000800478000005eb00150037001662a8008f
:100910000004eb00030037008c0f5400130031007b
:100920000804e800820007000004e000faff32003b
:100930008010800080767d008904e90002003a0082
:1009400016a2a8000100370016a2a9001682a8006e
:1009500016c2bf000048a300fdff3a000a05e800e8
:100960008b0f5500e9ff3a008004eb000900780086
:100970004f06be004f05be004f04be00000006003b
:10098000889fbe008a9fbe008c9fbe0080057800b5
:100990008106780002067800800478000005eb00ec
:1009a000150037007662a8000004eb000300370052
:1009b0008c0f5400130031000804e80060000700a9
:1009c0000004e000faff32008013800080767d0092
:1009d0008904e90002003a0076a2a800010037006d
:1009e00076a2a9007682a80076c2bf000048a300c4
:1009f000fdff3a000a05e8008b0f5500e9ff3a00b9
:100a00008004eb00090078004f06be004f05be00d1
:100a10004f04be00000006000080fb00101088009c
:100a200008c2bf0001c8b300014060000080fb00a5
:100a30000000e9004f00de000000e90000000600b1
:100a40000080fb009010880018c2bf0001c8b300ee
:100a5000014060000080fb000000e9004f00de0064
:100a60000000e900000006000080fb0090138800f1
:100a700078c2bf0001c8b300014060000080fb00e5
:100a80000000e9004f00de000000e9000000060061
:100a900006a2a8000682a8000000060016a2a80070
:100aa0001682a8000000060076a2a8007682a800a0
:100ab00000000600211088003010880000000600a9
:100ac000a1108800b010880000000600a113880063
:100ad000b0138800000006000622a80000000600ef
:100ae0001622a800000006007622a80000000600da
:100af0000602a800000006001602a800000006007a
:100b00007602a800000006000642a80000000600c9
:100b10001642a800000006007642a8000000060069
:100b200008c2bf000000d1006100600000000600a4
:100b300018c2bf000000d100610060000000060084
:100b400078c2bf000000d100610060000000060014
:100b500003f0a200889fbe008a9fbe008c1f780011
:100b6000b3010700ba0133006450e1004f003200c6
:100b70006420e1005200320003826c0007003b0059
:100b80000905d0000306d000820f54000c065d005a
:100b90000200390002003200890178000306780063
:100ba0008582550004003d000003fd008103fd0027
:100bb0008502ea008b854200840f720002003b0030
:100bc00060001000e08018006011b8000005eb0024
:100bd0007a28e1000a00390006007800c75ddd00d0
:100be000f707b200878075002d0037008281710001
:100bf0000a017800610560008180d1000080d30087
:100c00008502e900f9ff3b000604400087844800a4
:100c100002003b0060041400e0841c000988a3006b
:100c2000070032008a8171008281710061016400d5
:100c30008904d1000884d3008b05e8001700370031
:100c40000978a30013003a000b00e0001300340001
:100c50008b05e9000804440089844c000a447400b0
:100c60000978a3000d003a000b00e00007003400f3
:100c70008b05e9000804440089844c0001003a0017
:100c80000b0020000978a300f7ff32000001eb0001
:100c900002003700828171000a01780029010700f3
:100ca0000cf0a70001f0a000720137006420e10001
:100cb00002003a00838f6c00720133000801be000d
:100cc0000200be006b013700889fbe008a9fbe00f5
:100cd0008c9fbe000004be00400107000800be005b
:100ce000890678006420e100080039000400320021
:100cf0000160a00012022000b245880053003700b6
:100d000091fc2300b0fd20004e0037000006eb00f0
:100d100009f0a10003f82300020020000800be0033
:100d20009f0007000600340001f8230000002000a7
:100d30000801be00490007000004be002c0020008e
:100d40000800be0093e82300320a23009400070045
:100d5000120034000801be00d1fd2300703d2b00bd
:100d60007cff07000005be00b3f32300f27a2600e3
:100d70000800be004601070003f82300020020001f
:100d800073ff07000801be0072ff07000a01be00e2
:100d9000320007000004be000c06e8000800be0098
:100da00001f0a10002002000039823007c0007004e
:100db0000800be00160035000801be00340107001f
:100dc0000005be0032cd2c0043fb230061ff07006d
:100dd000809fbe001269280003d52b000a00be00c8
:100de0002b010700620f210013ef2b0059ff0700b2
:100df0000a01be00260107004f01be0017000700d0
:100e00000801be00220107000801be0051ff0700d3
:100e10000c00e0000b0032000c10a70001f0a20053
:100e2000b2fd200093fc23006260e1000400320068
:100e300022a9200063f023000c10a70063f8230010
:100e400044ff07000df0a70001f0a2004f06be000e
:100e50004f05be004f04be0000000600889fbe0084
:100e60008a9fbe008c1f7800f1000700f800330055
:100e700003866c006450e1002e0032006420e10023
:100e8000330032006150e1002f0032006120e100a8
:100e90003100320085855500eb07b00009002000c5
:100ea00008042000050037000804440089844c0031
:100eb0000a0031000603430087834b000001530002
:100ec00081815b00f8ff33000203be000800a00030
:100ed0000804440089844c00f6ff3900c639dd005f
:100ee0008301730001003200130020008904d10047
:100ef0000884d3000998a300050032000800a70069
:100f00000300a0008904d1000884d3008b05e80009
:100f10008904d1000884d3000001eb000281d200d3
:100f20008800070001f0a1000cf0a70001f0a0006c
:100f3000d00037006420e100d20032000801be007a
:100f40000200be00f7ff37006120e100cd00320053
:100f50006000b800f3ff37000000200001f8270010
:100f6000f0ff3700839f68000100e00002003d00b1
:100f700060001000e08018000300e00002003d0067
:100f800060011100e0811900f50007004f00e0004a
:100f900002003b0060001000e08018000000060026
:100fa00014002000fe0037000001be008b00070087
:100fb0000470a70003f0a1006509b100160032001b
:100fc0000d0035006828e10006003500f0ff2f0015
:100fd000f1ff27000300e00013003b0001002800a0
:100fe0000000050000004000818048008502e90003
:100ff000fcff3a0008003700f88f420002003c0076
:101000008000eb00000005008100d1000080d300cb
:101010008502e800fcff3a000300e00002003b000c
:1010200060001000e0801800000006000001be0013
:101030006a0007000470a70003f0a10003f8a300f2
:1010400013003a006509b1001000320009003500b4
:101050006928e100020035000100280000000500b9
:1010600000004000818048008502e900fcff3a0052
:1010700000000600f88f4200050035008100d10015
:101080000080d3008502e800fcff3a000000060063
:101090008000eb0000000500889fbe008a9fbe0014
:1010a000010578000100e0000400350008003c0064
:1010b0000000e00020003200050037006000100052
:1010c000e080180002003b0001f02c001a003700fd
:1010d0000004be006011b8006b0920000982cf0037
:1010e000020039000882cf000441b000694252007a
:1010f0000e00320008003b00828171006101640033
:101100008904d1000884d3008b05e8000442e8007c
:10111000f9ff3a00050037000804440089844c00b8
:101120008b05e9000442e900fbff3a0005000700d7
:101130000af0a70001f0a0004f05be004f04be005a
:101140000000060081002000618055000b003d007a
:101150000b00200061fe2f000100e1001d003400a3
:1011600082817100610164008904d1000884d30088
:101170000000e800faff3a007100200061006400fe
:1011800003007000020060000900320061044400a6
:10119000e0844c000988a500050032008b05e800ba
:1011a0006808e10002003a008904d1000884d300f5
:1011b000f20f20000258e10005003d00c75ddd0090
:1011c000f907b20089807500080078000000060069
:1011d0000bf827008b00780000000500c70ade002e
:1011e000f107b200f50fb20008003200e1cf420073
:1011f000020032000170a00024000500810f700081
:10120000010032000408050044000500810f700051
:1012100002003a00140005008502e90000004000c9
:1012200081c04800fcff3b000170a00024000500c5
:101230000004be00e9ff07000003be000405be0075
:101240000200be00e5ff0700844f750000000600a5
:101250000200be006450e100050036006420e10099
:10126000020036000968a30001003a000800be0031
:101270000160a0004f0678004f05be004f04be007d
:1012800000000600f0ff2f00f1ff2700f9ff3700f4
:10129000889fbe008a9fbe008c1f7800e4ff070075
:1012a000ebff330003866c006450e1002400320041
:1012b0006420e100270032006150e100220032008a
:1012c0006120e100210032008b854200eb07b10074
:1012d0000134b800003ab8000804420089844a008a
:1012e000013ab8000030b8008880400009014a0087
:1012f00004003300000040008180480002014900e2
:101300008b05e900c909dd0083017000010032008e
:1013100013002000c814de004814dd004709de0079
:101320001200b200c808de000884700085ff0700c4
:1013300001f0a1000cf0a70001f0a000cdff3700e4
:101340006120e100cfff32000801be000200be00b4
:10135000f7ff37006150e100fcff3a00c9ff37009a
:101360006022b800060220000000d0008180d20078
:101370000482d2008582d2000000a0000202520046
:1013800083825a00030031000202420083824a0035
:101390000000a1000603e900f3ff3a000000060088
:1013a000889fbe008a9fbe00841f7800a0ff0700b0
:1013b0004f00780011003300f0ff2f00838f6c0086
:1013c00006003b00040565000a00a700080037007e
:1013d00009f0a6001000200008003700820f54001a
:1013e000838f5c00030039001000200001003e00e4
:1013f0000000200009f0a7000000ea004f05be0031
:0c1400004f04be000000e00000000600e9
:020000040000fa
:020000040005f5
:0457f800bf7f00006f
:020000040000fa
:020000040005f5
:0457fc007f3e0000ec
:020000040000fa
:100008000c0300000c0300000c0300000c030000ac
:100018000c0300000c0300000c0300000c0300009c
:100028000c0300000c0300000c0300000c0300008c
:100038000c0300000c0300000c0300000c0300007c
:10004800a03000000c0300000c0300000c030000ab
:100058000c0300000c0300000c0300000c0300005c
:100068000c0300000c0300000c0300000c0300004c
:100078000c0300000c0300000c0300000c0300003c
:100088000c0300000c0300000c0300000c0300002c
:100098000c0300000c0300000c0300000c0300001c
:1000a8000c0300000c0300000c0300000c0300000c
:1000b8000c0300000c0300000c0300000c030000fc
:1000c8000c0300000c0300000c0300000c030000ec
:1000d8000c0300000c0300000c0300000c030000dc
:1000e8000c0300000c0300000c0300000c030000cc
:1000f8000c0300000c0300000c0300000c030000bc
:100108000c0300000c0300000c0300000c030000ab
:100118000c0300000c0300000c0300000c0300009b
:100128000c0300000c0300000c0300000c0300008b
:100138000c0300000c0300000c0300000c0300007b
:100148000c0300000c0300000c0300000c0300006b
:100158000c0300000c0300000c0300000c0300005b
:100168000c0300000c0300000c0300000c0300004b
:100178000c0300000c0300000c0300000c0300003b
:100188000c0300000c0300000c0300000c0300002b
:100198000c0300000c0300000c0300000c0300001b
:1001a8000c0300000c0300000c0300000c0300000b
:1001b8000c0300000c0300000c0300000c030000fb
:1001c8000c0300000c0300000c0300000c030000eb
:1001d8000c0300000c0300000c0300000c030000db
:1001e8000c0300000c0300000c0300000c030000cb
:0801f8000c0300000c030000e1
:020000040000fa
:100208000c0300000c0300000c0300000c030000aa
:100218000c0300000c0300000c0300000c0300009a
:100228000c0300000c0300000c0300000c0300008a
:100238000c0300000c0300000c0300000c0300007a
:10024800a03000000c0300000c0300000c030000a9
:100258000c0300000c0300000c0300000c0300005a
:100268000c0300000c0300000c0300000c0300004a
:100278000c0300000c0300000c0300000c0300003a
:100288000c0300000c0300000c0300000c0300002a
:100298000c0300000c0300000c0300000c0300001a
:1002a8000c0300000c0300000c0300000c0300000a
:1002b8000c0300000c0300000c0300000c030000fa
:1002c8000c0300000c0300000c0300000c030000ea
:1002d8000c0300000c0300000c0300000c030000da
:1002e8000c0300000c0300000c0300000c030000ca
:1002f8000c0300000c0300000c0300000c030000ba
:100308000c0300000c0300000c0300000c030000a9
:100318000c0300000c0300000c0300000c03000099
:100328000c0300000c0300000c0300000c03000089
:100338000c0300000c0300000c0300000c03000079
:100348000c0300000c0300000c0300000c03000069
:100358000c0300000c0300000c0300000c03000059
:100368000c0300000c0300000c0300000c03000049
:100378000c0300000c0300000c0300000c03000039
:100388000c0300000c0300000c0300000c03000029
:100398000c0300000c0300000c0300000c03000019
:1003a8000c0300000c0300000c0300000c03000009
:1003b8000c0300000c0300000c0300000c030000f9
:1003c8000c0300000c0300000c0300000c030000e9
:1003d8000c0300000c0300000c0300000c030000d9
:1003e8000c0300000c0300000c0300000c030000c9
:0803f8000c0300000c030000df
:020000040000fa
:10140c0000000000000000000000000000000000d0
:10141c0000000000000000000000000000000000c0
:10142c0000000000000000000000000000000000b0
:10143c0000000000000000000000000000000000a0
:08144c00000000000000000098
:020000040000fa
:101454000400fa00100798000040eb00004f7800e9
:101464001e009000604588006145800070c7b3008d
:10147400a0589800604580002012900060458000cc
:10148400205890000e01e80013c0b30001cdb30052
:10149400040001001e4f4000614580001e40900082
:1014a400f05098006145800010c0b300806098003f
:1014b400614580000040eb0090609800604580002a
:1014c4002012900060458000205890000e01e80032
:1014d40013c0b30011cdb300040001001e4f40003f
:1014e400614580001e4090006f4060008058980065
:1014f400624580001e4090008080fb00000f2000a9
:10150400008060004480de00105998003500070018
:10151400004f78001e00fb000080fa000000060067
:101524000e00fa0040079800510798000040eb00b5
:1015340060479800aac8bf000080fb0060079800bd
:101544006e009000e10f50000c0032006e0090001d
:10155400e20f5000100032006e0090000000e00026
:10156400010032001b003700c500070060479800e7
:1015740010c0b300aae8b70016003700d100070076
:1015840020079800e70007006047980020c0b300d8
:10159400aae8b7000f003700f7000700008fbe006d
:1015a4002e0090002e010700800078005e0090005d
:1015b400010878001e00be006c0107004e01900077
:1015c4000089be0010c0b300604798000040eb00e3
:1015d400aae8b7006e4090000000fb000080fa000b
:1015e400000006002000fa000040eb00004f9800c5
:1015f40060458000201290006045800020589000d3
:101604006901470063c1b300a1cab300040001002b
:10161400004f980069004700104078000080fb00ec
:101624003007980069004700104090000080fb00dc
:1016340020079800624580003e009000c800dd004d
:101644002e009000008070000009780069004700b7
:10165400204090000080fb0030079800690047009c
:10166400304090000080fb00200798006245800015
:101674003e009000c800dd002e0090000080700045
:101684001001980069004700404090000080fb0072
:101694003007980069004700504090000080fb002c
:1016a40020079800624580003e009000c800dd00dd
:1016b4002e0090000080700020019800690047000f
:1016c400604090000080fb0010079800690047000c
:1016d400704090000080fb00000f7800614580009e
:1016e4001e0090004800dd001e007000b00098004d
:1016f40069004700004890000080fb001007980034
:1017040069004700104890000080fb00000f78003b
:10171400614580001e0090004800dd001e0070003e
:10172400c000980069004700204890000080fb003a
:101734001007980069004700304890000080fb00c3
:10174400000f7800614580001e0090004800dd0015
:101754001e007000d00098006900470040489000c7
:101764000080fb0030079800690047005048900053
:101774000080fb0020079800624580003e00900036
:10178400c800dd002e009000008070006001980009
:1017940069004700604890000080fb003007980013
:1017a40069004700704890000080fb002007980003
:1017b400624580003e009000c800dd002e009000cd
:1017c400008070007001980069004700005090008c
:1017d4000080fb003007980069004700105090001b
:1017e4000080fb0020079800624580003e009000c6
:1017f400c800dd002e0090000080700000099800f1
:1018040069004700205090000080fb0030079800da
:1018140069004700305090000080fb0020079800ca
:10182400624580003e009000c800dd002e0090005c
:101834000080700010099800690047004050900033
:101844000080fb003007980069004700505090006a
:101854000080fb0020079800624580003e00900055
:10186400c800dd002e009000008070002009980060
:101874000e4890000000fb000080fa000000060003
:101884000200fa00e0c2b300104798000040eb00e9
:10189400004f780060458000101290006045800081
:1018a400205890000e01e80013c0b30041cfb300ec
:1018b40004000100004f78001e00fb000080fa00c5
:1018c400000006000800fa00604580002012900025
:1018d40060458000205890006601470023c0b30093
:1018e40061cfb30004000100660047001040780097
:1018f4000080fb001007980066004700104090002d
:101904000080fb00000f78001e0090004800dd00fe
:101914001e007000200798002e0090000080fa003e
:10192400000006000200fa000040eb00004f7800bf
:1019340060458000106090000080fb004600dd00e0
:101944004043b0001047980060458000101290009a
:1019540060458000205890000e01e80013c0b300d9
:1019640041cfb30004000100004f78001e00fb00cb
:101974000080fa00000006001400fa0060458000b0
:1019840020129000604580002058900070014700ac
:1019940033c0b30061cfb3000400010070004700fe
:1019a400104078000080fb000100200040079800f0
:1019b4005107980070004700104090000080fb0021
:1019c40001002000200798003107980070004700ac
:1019d400204090000080fb0001002000008fbe002a
:1019e4004e009000de009000c001dd0002002000e7
:1019f4002e009000be009000c808dd000080fd00ad
:101a0400804078000040eb0000007100818071008c
:101a14003e017000ae81700060458000106090004f
:101a24000080fb00680010000202be000003780082
:101a34000603e900030033008502d1000482d300c9
:101a4400fbff37000400be00600798007107980090
:101a54006e009000fe0090000080fa000000060076
:101a64000c00fa00889fbe00500798005e009000aa
:101a74006101b80060458000500090000100200022
:101a840000045100818459006045800040009000aa
:101a94006103b8008800780006007800000ab800e6
:101aa40007c0b900050178000001410009b0b90080
:101ab40000014100820278004129dd004f20de0050
:101ac40000007100cfa8de002007980031079800bd
:101ad4006045800010089000cf80de004b0add00d6
:101ae400c502de00850272004b02dd006045800005
:101af400200890006101b9002e009000be00900003
:101b040002014000838148000400be0014fd070068
:101b1400008fbe00624580002e009000be00900041
:101b24003e024000ae8248000400be0060099800f6
:101b34007109980060458000f008900060089000ea
:101b440068004000e0804800cc0add004400de006c
:101b540000807200c488de00400798004e009000a8
:101b64004f04be000080fa00000006002400fa00c2
:101b7400889fbe00001798001117980060458000e8
:101b840060099000f009900000062f00f1ff2f007b
:101b940002004000838048004007980051079800e5
:101ba400ce0090004e009000000ab800ce009000d5
:101bb4005e0090000088b900050178000001410032
:101bc400ce0090005e0090000088b9000001410042
:101bd400820278004429dd004c20de000000710000
:101be400cca8de00400f9800510f9800604580009b
:101bf400700090006103b900ce08900006007800e0
:101c0400000ab8004e0890000780b900050178006a
:101c1400000141005e08900000b0b90000014100dd
:101c240082027800440f9800550f98004e089000e7
:101c3400de089000c509dd004b00de000080710065
:101c4400cb88de00400f9800510f9800604580005b
:101c5400100090006103b900860078004e009000e7
:101c6400000ab8005e00900000b0b90005017800d9
:101c7400000141004e0090000780b90000014100be
:101c840082027800240f9800350f98002e089000e7
:101c9400be089000450add004b00de000000720023
:101ca400cb88de00200f9800310f98004e09900079
:101cb400de0990002e089000be089000020040004b
:101cc40083804800000f9800110f98006045800041
:101cd40010007800cf80de004209dd00ce01de0076
:101ce400830171004201dd000e0890009e089000ff
:101cf400020140008381480060458000106090002c
:101d04000080fb000202be00000378000603e90025
:101d1400030033000402420085824a00fbff3700bf
:101d24000400be0062004000e08048004e09dd006f
:101d34004200de0000007100c288de0060079800e7
:101d44007107980060458000200090006103b9008d
:101d5400860078004e009000000ab8005e009000f3
:101d640000b0b90005017800000141004e00900068
:101d74000780b9000001410082027800c329dd0018
:101d84004d20de0000807100cda8de00400f9800d9
:101d9400510f980060458000600090006104b90014
:101da400ce0090004e009000000ab800ce009000d3
:101db4005e0090000088b900050178000001410030
:101dc400ce0090005e0090000088b9000001410040
:101dd40082027800ccabde004428dd004c23de0018
:101de400060370008800780006007800000ab80036
:101df40007c0b900050178000001410009b0b9002d
:101e0400000141008202780040a8de00cf80de009d
:101e1400200f9800310f98004e099000de099000c1
:101e24002e089000be089000020040008380480005
:101e340062004000e08048004e09dd004200de0000
:101e440000007100c288de00000f9800110f980096
:101e540060458000300090006104b8000e099000d5
:101e64009e099000000028000100200002004000ac
:101e7400838048000003be008800780006007800d4
:101e8400000ab80007c0b90005017800000141004c
:101e940009b0b9000001410082027800c129dd00c7
:101ea4004f20de0000807100cf28de00200798005c
:101eb400310798006e019000fe0190000e10900012
:101ec4009e109000020450008384580060458000f6
:101ed400106090000081fb0000352c000100200000
:101ee400020278000402e900030033008180d1007b
:101ef4000080d300fbff37000003be008800780099
:101f040006007800000ab80007c0b900050178008f
:101f14000001410009b0b9000001410082027800cb
:101f2400048fbe001e00be00e00f5000e08f58007a
:101f3400090035001e00be000000400081804800fa
:101f44002e019000be01900004fd0700600f980070
:101f5400710f9800080037002e019000be01900018
:101f64001e00be00fdfc0700000040008180480008
:101f7400600f9800710f98006e089000fe089000a2
:101f8400c80add004800de0000807200c888de0058
:101f9400400f9800510f9800ce0890004e08900012
:101fa400000ab800ce0890005e0890000088b900ce
:101fb4000501780000014100ce0890005e08900001
:101fc4000088b9000001410082027800440f9800a3
:101fd400550f9800ce089000e0bd20000009b8001d
:101fe4004e0890006000b90003027800000242002d
:101ff400de089000e0bd20000088b9000002420025
:10200400840178004098de00cf80de00400f980005
:10201400510f9800ee08900030342e00000ab800ea
:10202400ee0890000080eb000088b90005017800fc
:1020340000014100fe08900030342e000088b900f1
:10204400000141008202780040a8de00cf80de005b
:10205400200f9800310f98004e099000de0990007f
:102064002e089000be0890000201400083814800c1
:10207400f0ec2000010020000200400083804800b2
:10208400c489de004c0bdd004401de000201730054
:102094006e089000fe089000000041008180490015
:1020a400600f9800710f98006e089000fe08900071
:1020b4004f04be000080fa00000006000400fa008d
:1020c400204798000040eb00004f78002e4090001d
:1020d4000080fb00610060000004e0000c0032009e
:1020e40020802000fa040700004f78000040eb0035
:1020f400a0050700004f78000040eb004c050700e6
:10210400004f78000040eb0005060700004f780000
:102114002e4090000080fb000000d10061006000b0
:102124000004e00012003200208120009102070028
:10213400004f78000040eb00da020700004f7800ff
:102144000040eb000b040700004f780040c0b300d0
:102154001d030700004f780020c0b3006703070089
:10216400004f780010c0b300b2030700004f78009e
:102174002e4090000080fb004200de006100600001
:102184000004e0000c003200e0812000390907005f
:10219400004f780030c0b3004d090700004f7800ad
:1021a4000040eb0093090700004f780070c0b300b3
:1021b400d4090700004f78002e4090000080fb00f7
:1021c4004300de00610060000004e0000300320010
:1021d400a08220009efc0700004f78000080fa00d7
:1021e400000006000400fa00204798000040eb00bd
:1021f400004f78002e4090000080fb0061006000da
:102204000004e00008003200c0802000100607002f
:1022140060408000e042880070408000f042880006
:1022240080408000004388002e4090000080fb0026
:102234000000d100610060000004e00008003200ea
:102244008081200063020700c04080003043880082
:10225400d040800040438800e04080005043880024
:102264002e4090000080fb004200de006100600010
:102274000004e00008003200408220000a0a07003f
:1022840020418000804388003041800090438800d2
:1022940040418000a04388002e4090000080fb0055
:1022a4004300de00610060000004e0000d00320025
:1022b400418520000085200099fc0700004f78002c
:1022c40010c0b3009e4f100006003a008042800008
:1022d40091428000d0438800e1438800a0428000fe
:1022e400f04388000080fa00000006000200fa00b3
:1022f400004f78001147980010c0b3009e4f1000a3
:1023040010003a00e017220050408800200222000a
:1023140040408800e0172200a040880020022200ec
:10232400b0408800e01722001041880020022200fb
:1023340000418800e0172200704288002002220039
:102344006042880020c0b3009e4f100010003a0085
:10235400402122005040880060092200404088004b
:1023640040212200a040880060092200b04088007b
:1023740040212200104188006009220000418800a9
:1023840040212200704288006009220060428800d7
:1023940000062100b0428800400f2100c04288009e
:1023a400a01d2100d04288000080fa000000060031
:1023b4003a00fa00889fbe004077980010c0b3002e
:1023c4004057980010c0b3003057980010c0b300b5
:1023d400205798000000200001f82300700798009f
:1023e400010f98000000200001f823005007980016
:1023f400610798000000200001f8230030079800ce
:10240400410798000000eb00200798007500470082
:1024140061a028001d00090031587800e001b100d6
:102424006000b800008fbe00118020009140780049
:102434007500470001487800f500470010c0b3005c
:1024440090409800750047004e719000224098001b
:1024540030c0b30000e8b70001c8bf000040e80086
:1024640001e8b7004e7090000080fb00610060003e
:102474000004e0006f003200e0428000cf80de0004
:1024840004fb07007e0190008e0990007ffb07008b
:102494000004be004e5090000080fb00cf80de00a0
:1024a400fcfa07000001be000800be0077fb07002d
:1024b400bcfa07002007980000c8bf000081fb0099
:1024c4002e0090004880de008040780075004700b0
:1024d4000171780000c8bf000040e80000e8b700c0
:1024e40000c8bf000081fb002e00900080407800ef
:1024f40000c0eb0080c060007500470001717800e7
:1025040000c8bf000040e80000e8b700f0428000c7
:10251400cf80de00dffa07007e0190008e09900074
:102524005afb07000004be004e5090000080fb00e0
:10253400cf80de00d7fa07000001be000800be000d
:1025440052fb070097fa07002007980000c8bf0055
:102554000081fb002e0090004880de00804078005f
:10256400750047000171780000c8bf000040e80012
:1025740000e8b70000c8bf000081fb002e009000f7
:102584008040780000c0eb0080c060007500470008
:102594000171780000c8bf000040e80000e8b700ff
:1025a40000438000cf80de00bafa07007e0190006d
:1025b4008e09900035fb07000004be004e509000c9
:1025c4000080fb00cf80de00b2fa07000001be00ed
:1025d4000800be002dfb070072fa070020079800d0
:1025e40000c8bf000081fb002e0090004880de0080
:1025f40080407800750047000171780000c8bf0072
:102604000040e80000e8b70000c8bf000081fb00fc
:102614002e0090008040780000c0eb0080c0600075
:10262400750047000171780000c8bf000040e80051
:1026340000e8b7004e7090000080fb000000d1005d
:10264400610060000004e0006f003200304380004d
:10265400cf80de008ffa07005e019000ee0190004b
:102664000afb07000004be002e5090000080fb000f
:10267400cf80de0087fa07000001be000800be001c
:1026840002fb070047fa07002007980000c8bf00b4
:102694000081fb002e0090004880de00804078001e
:1026a400750047000171780000c8bf000040e800d1
:1026b40000e8b70000c8bf000081fb002e009000b6
:1026c4008040780000c0eb0080c0600075004700c7
:1026d4000171780000c8bf000040e80000e8b700be
:1026e40040438000cf80de006afa07005e0190005c
:1026f400ee019000e5fa07000004be002e509000a1
:102704000080fb00cf80de0062fa07000001be00fb
:102714000800be00ddfa070022fa0700200798002f
:1027240000c8bf000081fb002e0090004880de003e
:1027340080407800750047000171780000c8bf0030
:102744000040e80000e8b70000c8bf000081fb00bb
:102754002e0090008040780000c0eb0080c0600034
:10276400750047000171780000c8bf000040e80010
:1027740000e8b70050438000cf80de0045fa070030
:102784005e019000ee019000c0fa07000004be0054
:102794002e5090000080fb00cf80de003dfa070041
:1027a4000001be000800be00b8fa0700fdf90700ea
:1027b4002007980000c8bf000081fb002e00900095
:1027c4004880de0080407800750047000171780081
:1027d40000c8bf000040e80000e8b70000c8bf0020
:1027e4000081fb002e0090008040780000c0eb00c8
:1027f40080c06000750047000171780000c8bf0008
:102804000040e80000e8b7004e7090000080fb0034
:102814004200de00610060000004e0006f0032004e
:1028240080438000cf80de001afa07003e0190004a
:10283400ce01900095fa07000004be003e509000bf
:102844000080fb00cf80de0012fa07000001be000a
:102854000800be008dfa0700d2f90700200798008f
:1028640000c8bf000081fb002e0090004880de00fd
:1028740080407800750047000171780000c8bf00ef
:102884000040e80000e8b70000c8bf000081fb007a
:102894002e0090008040780000c0eb0080c06000f3
:1028a400750047000171780000c8bf000040e800cf
:1028b40000e8b70090438000cf80de00f5f9070000
:1028c4003e019000ce01900070fa07000004be00a3
:1028d4003e5090000080fb00cf80de00edf9070041
:1028e4000001be000800be0068fa0700adf9070049
:1028f4002007980000c8bf000081fb002e00900054
:102904004880de008040780075004700017178003f
:1029140000c8bf000040e80000e8b70000c8bf00de
:102924000081fb002e0090008040780000c0eb0086
:1029340080c06000750047000171780000c8bf00c6
:102944000040e80000e8b700a0438000cf80de002c
:10295400d0f907003e019000ce0190004bfa070029
:102964000004be003e5090000080fb00cf80de00db
:10297400c8f907000001be000800be0043fa0700c2
:1029840088f907002007980000c8bf000081fb00f9
:102994002e0090004880de008040780075004700db
:1029a4000171780000c8bf000040e80000e8b700eb
:1029b40000c8bf000081fb002e009000804078001a
:1029c40000c0eb0080c06000750047000171780012
:1029d40000c8bf000040e80000e8b7004e70900057
:1029e4000080fb004300de00610060000004e000a2
:1029f4003f003200d6438000e7438000068fbe00cc
:102a040000c8bf000081fb001e00be004088de003d
:102a1400cf80de00804078007500470001717800a7
:102a240000c8bf000040e80000e8b70000c8bf00cd
:102a34008082fb0000f02f00010020009e0178003e
:102a44001e029000000178000100780002816100fc
:102a5400000062006103b800361f9800471f980009
:102a64003e189000ce189000c000dd000000200049
:102a7400301f9800411f98003e189000ce18900017
:102a84006113b800361f9800471f98003e19900044
:102a9400ce1990000200700083807000c809dd0028
:102aa4004800de0000807100c888de0080407800a5
:102ab400750047008172780000c8bf000040e8003c
:102ac40000e8b70000c8bf000081fb001e007800ca
:102ad4008040780000c0eb0080c0600075004700b3
:102ae4000171780000c8bf000040e80000e8b700aa
:102af4004e7090000004e00017003d00f643800093
:102b04002607980000c8bf000081fb002e0090003b
:102b14004880de008040780075004700017178002d
:102b240000c8bf000040e80000e8b70000c8bf00cc
:102b34000081fb002e0090008040780000c0eb0074
:102b440080c06000750047000171780000c8bf00b4
:102b54000040e80000e8b7000180200091407800c0
:102b640075004700040c07004f04be000080fa0003
:102b7400000006000400fa00100798000040eb0073
:102b8400004f78001e009000a0458800a1458000f9
:102b9400e0c1b30080487800a04580001002900096
:102ba400a0458000104078000e01e80013c0b30077
:102bb400a1c0b30004000100004f7800a1458000cb
:102bc4001e409000904098001e00fb000080fa0018
:102bd400000006000a00fa00400798000040eb00dd
:102be400004f7800a04580000000e00003003a0098
:102bf40000c0eb00004f780027003700a04580009c
:102c040010029000a0458000104078000e01e800fa
:102c140063c0b30031c0b30004000100004f78006a
:102c24000e00e800104078000080fb00c800dd00c2
:102c34000e00e800104090000080fb0080807000cf
:102c44004e009000010878000e00e800404090001b
:102c54000080fb00c800dd000e00e800504090003a
:102c64000080fb00808070004e00900011009800ee
:102c74000e00e800204090000080fb00c800dd004a
:102c84000e00e800304090000080fb00808070005f
:102c94004e009000210098001e00fb000080fa0006
:102ca400000006000400fa00204798000040eb00f2
:102cb400004f7800a04580000000e00003003a00c7
:102cc40000c0eb00004f7800200037002e40900039
:102cd400e24f500003003600e0cfb300004f78000d
:102ce4001a003700a045800010029000a045800023
:102cf400104078000e01e80013c0b3008040eb00e0
:102d040004000100004f78001e40900080407800cd
:102d1400c0cfb30080c060002e40900063406000cc
:102d240000c0700010479800a04580002002900069
:102d3400a0458000104078000e01e80013c0b300e5
:102d44008040eb0004000100004f78001e00fb00ef
:102d54000080fa00000006000400fa001007980042
:102d64000040eb00004f7800a04580000000e00028
:102d740003003a0000c0eb00004f78000f0037005a
:102d8400a045800010029000a0458000104078000b
:102d94000e01e80013c0b3008040eb000400010002
:102da400004f78001e409000634060001047980078
:102db4009e4090001e009000014878001e00fb0019
:102dc4000080fa00000006000400fa002047980082
:102dd4000040eb00004f7800a04580000000e000b8
:102de40003003a0000c0eb00004f780022003700d7
:102df4002e409000e64f500003003600e0cfb300b1
:102e0400004f78001c003700a0458000100290009d
:102e1400a0458000104078000e01e80013c0b30004
:102e24008040eb0004000100004f78001e40900039
:102e34008040780030ceb30080c060002e40900007
:102e44000080fb004200dd007c40600000c0700098
:102e540010479800a045800020029000a045800003
:102e6400104078000e01e80013c0b3008040eb006e
:102e740004000100004f78001e00fb000080fa00ef
:102e8400000006000400fa00100798000040eb0060
:102e9400004f7800a04580000000e00003003a00e5
:102ea40000c0eb00004f780011003700a0458000ff
:102eb40010029000a0458000104078000e01e80048
:102ec40013c0b3008040eb0004000100004f780001
:102ed4001e4090000080fb007c0060004280de0009
:102ee400104798009e4090001e0090000148780012
:102ef4001e00fb000080fa00000006000400fa0037
:102f0400204798000040eb00004f7800a045800067
:102f14000000e00003003a0000c0eb00004f78001e
:102f2400220037002e409000e34f5000030036008b
:102f3400e0cfb300004f78001c003700a0458000ac
:102f440010029000a0458000104078000e01e800b7
:102f540013c0b3008040eb0004000100004f780070
:102f64001e40900080407800f0c9b30080c060002b
:102f74002e4090000080fb004500dd000046b200ba
:102f840000c0700010479800a04580002002900007
:102f9400a0458000104078000e01e80013c0b30083
:102fa4008040eb0004000100004f78001e00fb008d
:102fb4000080fa00000006000400fa0010079800e0
:102fc4000040eb00004f7800a04580000000e000c6
:102fd40003003a0000c0eb00004f780012003700f5
:102fe400a045800010029000a045800010407800a9
:102ff4000e01e80013c0b3008040eb0004000100a0
:10300400004f78001e4090008080fb0000062000e6
:10301400008060004580de00104798009e409000cc
:103024001e009000014878001e00fb000080fa009a
:10303400000006000400fa00204798000040eb005e
:10304400004f7800a04580000000e00003003a0033
:1030540000c0eb00004f7800240037002e409000a1
:10306400e74f500003003600e0cfb300004f780074
:103074001e003700a045800010029000a04580008b
:10308400104078000e01e80013c0b30011c0b30073
:1030940004000100004f78001e409000804078003a
:1030a400f0c1b30000c160002e4090000080fb001e
:1030b4004500dd008040780000ceb30000c0600011
:1030c4000040710010479800a04580002002900045
:1030d400a0458000104078000e01e80013c0b30042
:1030e40011c0b30004000100004f78001e00fb0073
:1030f4000080fa00000006000400fa00100798009f
:103104000040eb00004f7800a04580000000e00084
:1031140003003a0000c0eb00004f780012003700b3
:10312400a045800010029000a04580001040780067
:103134000e01e80013c0b30011c0b3000400010085
:10314400004f78001e4090008080fb00000e20009d
:10315400008060004580de00104798009e4090008b
:103164001e009000014878001e00fb000080fa0059
:10317400000006000400fa00204798000040eb001d
:10318400004f7800a04580000000e00003003a00f2
:1031940000c0eb00004f7800200037002e40900064
:1031a400e34f500003003600e0cfb300004f780037
:1031b4001a003700a045800010029000a04580004e
:1031c400104078000e01e80013c0b30021c0b30022
:1031d40004000100004f78001e40900080407800f9
:1031e400c0cfb30080c060002e40900063406000f8
:1031f40000c0700010479800a04580002002900095
:10320400a0458000104078000e01e80013c0b30010
:1032140021c0b30004000100004f78001e00fb0031
:103224000080fa00000006000400fa00100798006d
:103234000040eb00004f7800a04580000000e00053
:1032440003003a0000c0eb00004f78000f00370085
:10325400a045800010029000a04580001040780036
:103264000e01e80013c0b30021c0b3000400010044
:10327400004f78001e4090006340600010479800a3
:103284009e4090001e009000014878001e00fb0044
:103294000080fa00000006000400fa0010079800fd
:1032a4000040eb00004f7800a04580000000e000e3
:1032b40003003a0000c0eb00004f78000f00370015
:1032c400a045800010029000a045800010407800c6
:1032d4000e01e80013c0b30091c0b3000400010064
:1032e400004f78001e409000614060001047980035
:1032f4009e4090001e009000014878001e00fb00d4
:103304000080fa00000006000400fa00100798008c
:103314000040eb00004f7800a04580000000e00072
:1033240003003a0000c0eb00004f780011003700a2
:10333400a045800010029000a04580001040780055
:103344000e01e80013c0b30091c0b30004000100f3
:10335400004f78001e4090000080fb006200600077
:103364000080d100104798009e4090001e009000fd
:10337400014878001e00fb000080fa0000000600ef
:103384000800fa0020479800314798004247980007
:1033940053479800a04580000000e00003003a0075
:1033a4000080eb003007980022003700a045800021
:1033b40010029000a0458000104078000e01e80043
:1033c40013c0b300ae40900004000100004f780029
:1033d4005e40900080c0ea001e40900000c1600082
:1033e4003e4090008080fb004e4090000080fb0037
:1033f4000008dd00804078005e40900000c060005e
:103404000040710010479800a04580002002900001
:10341400a0458000104078000e01e80013c0b300fe
:10342400ae409000040001001e4f40001e00fb004f
:10343400300798003e0090000080fa00000006006b
:103444000a00fa0020479800210798006247980074
:1034540073479800a04580000000e00003003a0094
:103464000080eb004007980016003700a04580005c
:1034740010029000a04580001040780013c0b300f3
:103484002e019000ae40900004000100004f78002f
:103494002e009000904078007e40900000c06000b4
:1034a4008080fb006e4090000080fb000088de00fe
:1034b400804078002e009000014878001e00fb0038
:1034c400400798004e0090000080fa0000000600bb
:1034d4000400fa00100798000040eb00004f780049
:1034e4001e009000904588009145800080c3b30081
:1034f400c0409800904580004002900090458000b4
:10350400404090000e01e80013c0b3008040eb007f
:1035140004000100004f7800914580001e40900097
:103524006740600080487800904580004002900029
:1035340090458000404090000e01e80013c0b300a5
:1035440011c0b300040001001e4f400091458000eb
:103554001e4090006f4060009040980092458000ab
:103564001e4090008080fb00000f2000008060005f
:103574004480de00204198001e00fb000080fa0019
:10358400000006000600fa00204798000040eb0007
:10359400004f7800904580000000e00003003a00ee
:1035a4000080eb00200798001e0037009045800043
:1035b4004002900090458000404090000e01e800d9
:1035c40013c0b300a1c0b30004000100004f780091
:1035d4001e40900080407800f0ceb30080c06000b0
:1035e4002e4090000080fb004400dd00704060002d
:1035f40000c0700010479800904580003002900091
:1036040090458000404090000e01e80013c0b300d4
:10361400a1c0b30004000100004f78001e00fb00ad
:10362400200798002e0090000080fa000000060099
:103634000600fa00204798000040eb00004f780095
:10364400904580000000e00003003a000080eb0099
:1036540020079800240037002e409000e24f5000cd
:103664001f003c009045800040029000904580007f
:10367400404090000e01e80013c0b30041c1b30004
:1036840004000100004f78001e4090008040780044
:1036940070ceb30080c060002e4090000000fb009c
:1036a4004300dd007840600000c0700010479800bf
:1036b400904580003002900090458000404090008a
:1036c4000e01e80013c0b30041c1b30004000100bf
:1036d4001e4f40001e00fb00200798000200370028
:1036e4000080eb00200798002e0090000080fa0074
:1036f400000006000600fa00100798000040eb00e6
:10370400004f7800904580000000e00003003a007c
:103714000080eb00200798001300370090458000dc
:1037240040029000904580004040900013c0b300d8
:103734001e01900041c1b30004000100004f780055
:103744001e009000104078000080fb0078006000ac
:103754004380de00804078001e009000014878001d
:103764001e00fb00200798002e0090000080fa0045
:10377400000006000a00fa00404798000040eb00f1
:10378400004f7800904580000000e00003003a00fc
:103794000080eb00400798005e0037004e40900028
:1037a400e24f500059003e009045800040029000d6
:1037b40090458000404090000e01e80013c0b30023
:1037c40051c1b30004000100004f7800904580000f
:1037d4004002900090458000404090000e81e80037
:1037e40013c0b300a1c0b300040001001e4f400089
:1037f4004e4090000080fb0030079800be0090000f
:10380400e18f5000100032003e009000e20f5000a3
:1038140018003200be0090000100e00001003200f8
:103824001f0037009e409000e0cfb30000c060004e
:1038340010479800ae409000e0cfb30000c0600095
:1038440020479800190037009e409000e0cfb30055
:1038540000c06000104798002e409000804078001f
:10386400e0cfb30000c060000004a000204798002f
:103874000e0037001e40900080407800e0cfb30077
:1038840000c060000004a00010479800ae40900003
:10389400e0cfb30000c06000204798000300370069
:1038a4000080eb00400798001a0037009045800024
:1038b4003002900090458000404090000e01e800e6
:1038c40013c0b30051c1b300040001001e4f4000f7
:1038d4009045800030029000904580004040900068
:1038e4000e81e80013c0b300a1c0b30004000100be
:1038f4001e4f400090458000ce409000314098001b
:103904001e00fb0040079800020037008080eb0097
:10391400410798004e0090000080fa000000060065
:103924000600fa00204798000040eb00004f7800a2
:10393400904580000000e00003003a000080eb00a6
:1039440020079800220037002e409000e64f5000d8
:103954001d003e009045800040029000904580008c
:10396400404090000e01e80013c0b30041c1b30011
:1039740004000100004f78001e4090008040780051
:1039840080cfb30080c060002e409000674060008c
:1039940000c07000104798009045800030029000ed
:1039a40090458000404090000e01e80013c0b30031
:1039b40041c1b300040001001e4f40001e00fb0083
:1039c40020079800020037000080eb0020079800d1
:1039d4002e0090000080fa00000006000600fa00a5
:1039e4001007980010c0b300004f78009045800085
:1039f4000000e00003003a000080eb00200798007c
:103a040010003700904580004002900090458000ef
:103a14004040900013c0b3001e01900041c1b300a8
:103a240004000100004f78001e0090001040780050
:103a3400e74060001e009000014878001e00fb0073
:103a4400200798002e0090000080fa000000060075
:103a54001200fa0070079800904580000000e00012
:103a640003003a000080eb00000f98005c00370070
:103a740090458000400290009045800040409000b6
:103a84006701470063c0b30021c0b3000400010014
:103a94006047980067004700104078008080fb0072
:103aa400000c2000008060004680de0020079800a3
:103ab40067004700104090000080fb004200dd00da
:103ac40010079800ae0090001e009000008f700058
:103ad4001e0078004900de00610060000004e00080
:103ae400040032001e00780001c02f0001007000a5
:103af400000f78007e0090001e08780067004700e1
:103b0400204090008080fb00000c200000806000ba
:103b14004680de0020079800670047003040900090
:103b24000080fb004200dd0010079800ae0090000a
:103b34001e009000008f70001e0078004900de0017
:103b4400610060000004e000040032001e00780000
:103b540001c02f0001007000000f78007e0090006b
:103b64009e007800110098006700470040409000d4
:103b74008080fb00000c2000008060004680de0096
:103b84002007980067004700504090000080fb0029
:103b94004200dd0010079800ae0090001e00900067
:103ba400008f70001e0078004900de006100600094
:103bb4000004e000040032001e00780001c02f0061
:103bc40001007000000f78007e0090009e007800d5
:103bd400210098006e4090000000fb00000f980048
:103be4000e0890000080fa00000006000a00fa00a7
:103bf400881f780010079800904580000000e000be
:103c040003003a000080eb004007980024003700ce
:103c14009045800040029000904580004040900014
:103c24000e01e80013c0b30081c0b300040001001a
:103c3400004f78001e4490000800fb00cf80de0097
:103c440014f5070020079800310798000804e000e5
:103c540007003d0002002000033824002e009000dd
:103c6400be009000baf307002007980031079800bf
:103c74000200200003f023002e009000be009000fc
:103c840082f5070002002000031f2400aff30700a1
:103c94001e0190000089be001e00fb004007980032
:103ca4004e0090004f0478000080fa0000000600e7
:103cb4000800fa00204798003147980042479800ce
:103cc40053479800904580000000e00003003a004c
:103cd4000080eb00300798002200370090458000f8
:103ce4004002900090458000404090000e01e800a2
:103cf40013c0b300ae40900004000100004f7800f0
:103d04005e40900080c0ea001e40900000c1600048
:103d14003e4090008080fb004e4090000080fb00fd
:103d24000008dd00804078005e40900000c0600024
:103d340000407100104798009045800030029000c8
:103d440090458000404090000e01e80013c0b3008d
:103d5400ae409000040001001e4f40001e00fb0016
:103d6400300798003e0090000080fa000000060032
:103d74000a00fa002047980021079800624798003b
:103d840073479800904580000000e00003003a006b
:103d94000080eb0040079800160037009045800033
:103da40040029000904580004040900013c0b30052
:103db4002e019000ae40900004000100004f7800f6
:103dc4002e009000904078007e40900000c060007b
:103dd4008080fb006e4090000080fb000088de00c5
:103de400804078002e009000014878001e00fb00ff
:103df400400798004e0090000080fa000000060082
:103e04000c00fa00889fbe00300798004107980014
:103e1400224f980000902000d10320001007980042
:103e24002107980070c2b300004f7800b207070062
:103e340010079800210798001e009000ae00900023
:103e440094f407000004be003e009000ce009000f1
:103e540090f407000001be000800be00fef3070056
:103e64000004be001e009000ae00900089f407001c
:103e74000268290083b12c00f7f307000001be009b
:103e84000800be0032f307000200200003f82300fc
:103e94002ef3070064f40700004f78002e489000ca
:103ea4000080fb00ddf107009e80fb00000028007d
:103eb400fff207004f04be000080fa000000060075
:103ec4000c00fa00889fbe00300798004107980054
:103ed400224f980000902000d10320001007980082
:103ee4002107980030c0b300004f78008207070014
:103ef40010079800210798001e009000ae00900063
:103f040064f407000004be003e009000ce00900060
:103f140060f407000001be000800be00cef30700f5
:103f24000004be001e009000ae00900059f407008b
:103f34000268290083b12c00c7f307000001be000a
:103f44000800be0002f307000200200003f823006b
:103f5400fef2070034f40700004f78002e4890006a
:103f64000080fb00d5f107009e80fb0000002800c4
:103f7400d2f207004f04be000080fa0000000600e1
:103f84000c00fa00889fbe00300798004107980093
:103f9400224f980000902000d103200010079800c1
:103fa4002107980030c0b300004f78005207070083
:103fb40010079800210798001e009000ae009000a2
:103fc40034f407000004be003e009000ce009000d0
:103fd40030f407000001be000800be009ef3070095
:103fe4000004be001e009000ae00900029f40700fb
:103ff4000268290083b12c0097f307000001be007a
:104004000800be00d2f207000200200003f82300db
:10401400cef2070004f40700004f78002e48900009
:104024000080fb00a5f107009e80fb000000280033
:10403400a5f207004f04be000080fa00000006004d
:104044000800fa002047980031479800220798009a
:10405400634798002e40900000404000204798009d
:10406400a2f20700c0f1070009c2bf0001c8b300f3
:10407400014060000004e000fbff3a002e40900085
:1040840064f20700004f7800b7f1070009c2bf00cf
:1040940001c8b300014060000004e000fbff3a00e7
:1040a4003e4090005bf20700004f7800aef107003d
:1040b40009c2bf0001c8b300014060000004e00071
:1040c400fbff3a000d0037002e00900010407800ee
:1040d40050f20700004f7800a3f1070009c2bf00a7
:1040e40001c8b300014060000004e000fbff3a0097
:1040f4002e0090000000e800200798006e40900019
:104104000040e900604798006e409000e14f400095
:10411400edff3a007bf2070093f107001e00fb005d
:104124000080fa00000006000800fa00204798000a
:104134003147980022079800634798002e4090006a
:1041440000404000204798006af2070099f10700f8
:1041540019c2bf0001c8b300014060000004e000c0
:10416400fbff3a002e40900034f20700004f780025
:1041740090f1070019c2bf0001c8b30001406000fc
:104184000004e000fbff3a003e4090002bf20700e1
:10419400004f780087f1070019c2bf0001c8b300bf
:1041a400014060000004e000fbff3a000d0037000e
:1041b4002e0090001040780020f20700004f780095
:1041c4007cf1070019c2bf0001c8b30001406000c0
:1041d4000004e000fbff3a002e0090000000e8001d
:1041e400200798006e4090000040e9006047980066
:1041f4006e409000e14f4000edff3a0043f20700ab
:104204006cf107001e00fb000080fa0000000600ad
:104214000800fa00204798003147980022079800c8
:10422400634798002e4090000040400020479800cb
:1042340032f2070072f1070079c2bf0001c8b3006f
:10424400014060000004e000fbff3a002e409000b3
:1042540004f20700004f780069f1070079c2bf003b
:1042640001c8b300014060000004e000fbff3a0015
:104274003e409000fbf10700004f780060f107001a
:1042840079c2bf0001c8b300014060000004e0002f
:10429400fbff3a000d0037002e009000104078001c
:1042a400f0f10700004f780055f1070079c2bf0014
:1042b40001c8b300014060000004e000fbff3a00c5
:1042c4002e0090000000e800200798006e40900047
:1042d4000040e900604798006e409000e14f4000c4
:1042e400edff3a000bf2070045f107001e00fb004a
:1042f4000080fa00000006000a00fa004047980017
:104304005147980032079800034f98000e489000d8
:104314008080fb00400620000088b9001007980048
:104324004e4090000080fb0000004000004f7800e9
:10433400eef107000cf1070009c2bf0001c8b30089
:10434400014060000004e000fbff3a001e407800da
:10435400b0f107001047980003f1070009c2bf003d
:1043640001c8b300014060000004e000fbff3a0014
:104374005e409000a7f1070010479800faf007008c
:1043840009c2bf0001c8b300014060000004e0009e
:10439400fbff3a00f4f00700cef10700f2f007004b
:1043a40009c2bf0001c8b300014060000004e0007e
:1043b400fbff3a004e4090000080fb0000004000ec
:1043c400804078000104a000014f78001e4078006e
:1043d40090f10700e4f0070009c2bf0001c8b30070
:1043e400014060000004e000fbff3a001e01900061
:1043f4000e4890000080fb00be00900013f10700ff
:10440400d9f00700a1f10700d7f00700bdf10700bc
:10441400d5f007001e4090000000fb000080fa0069
:10442400000006000a00fa0040479800514798002f
:1044340032079800034f98000e4890008080fb00dc
:10444400400620000088b900100798004e409000f4
:104454000080fb0000004000004f7800a5f1070039
:10446400d4f0070019c2bf0001c8b30001406000c6
:104474000004e000fbff3a001e4078006ff10700e3
:1044840010479800cbf0070019c2bf0001c8b30061
:10449400014060000004e000fbff3a005e40900031
:1044a40066f1070010479800c2f0070019c2bf0068
:1044b40001c8b300014060000004e000fbff3a00c3
:1044c40086f10700bbf0070019c2bf0001c8b300a2
:1044d400014060000004e000fbff3a004e40900001
:1044e4000080fb0000004000804078000104a00030
:1044f400014f78001e40780050f10700adf007002e
:1045040019c2bf0001c8b300014060000004e0000c
:10451400fbff3a001e0190000e4890000080fb0053
:10452400be009000eff00700a2f007005af1070068
:10453400a0f0070075f107009ef007001e409000f0
:104544000000fb000080fa00000006000a00fa00e8
:10455400404798005147980032079800034f98004d
:104564000e4890008080fb00400620000088b900bf
:10457400100798004e4090000080fb0000004000af
:10458400004f78005df107009df0070079c2bf007d
:1045940001c8b300014060000004e000fbff3a00e2
:1045a4001e4078002ff107001047980094f0070090
:1045b40079c2bf0001c8b300014060000004e000fc
:1045c400fbff3a005e40900026f107001047980078
:1045d4008bf0070079c2bf0001c8b300014060003e
:1045e4000004e000fbff3a003ef1070084f00700fe
:1045f40079c2bf0001c8b300014060000004e000bc
:10460400fbff3a004e4090000080fb000000400099
:10461400804078000104a000014f78001e4078001b
:1046240010f1070076f0070079c2bf0001c8b3009b
:10463400014060000004e000fbff3a001e0190000e
:104644000e4890000080fb00be009000cbf00700f5
:104654006bf0070013f1070069f007002df1070064
:1046640067f007001e4090000000fb000080fa0085
:10467400000006000400fa00100798001e009000d5
:10468400804588008145800090c6b3009040980022
:1046940080458000200290008045800010409000fa
:1046a4000e01e80013c0b3008040eb0004000100d9
:1046b400004f7800814580001e4090000074a100e6
:1046c400804878001e00fb000080fa00000006000d
:1046d4000600fa00204798002e409000e34f500057
:1046e40003003e00804580000000e00003003a0023
:1046f4000080eb00200798001e00370080458000f2
:104704002002900080458000104090000e01e800d7
:1047140013c0b30061c1b30004000100004f78006e
:104724001e4090008040780070ceb30080c06000ce
:104734002e4090000080fb004300dd0078406000c4
:1047440000c070001047980080458000100290005f
:1047540080458000104090000e01e80013c0b300b3
:1047640061c1b30004000100004f78001e00fb008b
:10477400200798002e0090000080fa000000060038
:104784000600fa0010079800804580000000e00051
:1047940003003a000080eb00200798001200370065
:1047a40080458000200290008045800010409000e9
:1047b4000e01e80013c0b30061c1b300040001009e
:1047c400004f78001e4090000080fb0078006000dd
:1047d4004380de00804078001e009000014878008d
:1047e4001e00fb00200798002e0090000080fa00b5
:1047f400000006000600fa00204798002e409000b2
:10480400e64f500003003e00804580000000e000b9
:1048140003003a000080eb00200798001c003700da
:104824008045800020029000804580001040900068
:104834000e01e80013c0b30061c1b300040001001d
:10484400004f78001e4090008040780080cfb30075
:1048540080c060002e4090006740600000c070007f
:104864001047980080458000100290008045800029
:10487400104090000e01e80013c0b30061c1b30002
:1048840004000100004f78001e00fb002007980080
:104894002e0090000080fa00000006000600fa00d6
:1048a40010079800804580000000e00003003a00f3
:1048b4000080eb00200798000f003700804580003f
:1048c4002002900080458000104090000e01e80016
:1048d40013c0b30061c1b30004000100004f7800ad
:1048e4001e409000e74060001e00900001487800e0
:1048f4001e00fb00200798002e0090000080fa00a4
:10490400000006000600fa00204798008045800059
:104914000000e00003003a000080eb00200798004c
:104924001b003700804580002002900080458000f5
:10493400104090000e01e80013c0b30051c1b30051
:1049440004000100004f78001e4090008040780071
:104954000040eb0080c060002e40900000c070005a
:104964001047980080458000100290008045800028
:10497400104090000e01e80013c0b30051c1b30011
:1049840004000100004f78001e00fb00200798007f
:104994002e0090000080fa00000006000600fa00d5
:1049a40010079800804580000000e00003003a00f2
:1049b4000080eb00200798000e003700804580003f
:1049c4002002900080458000104090000e01e80015
:1049d40013c0b30051c1b30004000100004f7800bc
:1049e4009e4090001e009000014878001e00fb00cd
:1049f400200798002e0090000080fa0000000600b6
:104a04000800fa0030079800e30047000040eb007c
:104a1400804878000040eb00904098000000eb00d4
:104a2400000f7800804580002002900080458000bf
:104a3400104090006301470023c0b300b1c1b3002c
:104a440004000100204798006300470010407800ec
:104a54000080fb00c800dd006300470010409000a8
:104a64000080fb00008f7000003923001e0040000e
:104a7400cf80de0087f1070002002000c338240045
:104a8400f5f0070002002000c320240030f00700e6
:104a94003e0190000089be002e4090000000fb0003
:104aa4000080fa00000006000a00fa00400798009f
:104ab4000e00e80041a228000500090031587800e2
:104ac4006000b10080458000200290008045800095
:104ad400104090000e01e80063c0b300d1c1b300e0
:104ae40004000100004f78000e00e8001040780038
:104af4000080fb00c800dd000e00e80010409000bc
:104b04000080fb00808070004e0090000108780057
:104b14000e00e800204090000080fb00c800dd008b
:104b24000e00e800304090000080fb0080807000a0
:104b34004e009000110098000e00e80040409000e4
:104b44000080fb00c800dd000e00e800504090002b
:104b54000080fb00808070004e00900021009800cf
:104b64001e00fb000080fa00000006000800fa00a6
:104b740020479800314798004247980053479800cf
:104b8400804580000000e00003003a000080eb0054
:104b940030079800220037008045800020029000f2
:104ba40080458000104090000e01e80013c0b3005f
:104bb400ae40900004000100004f78005e40900079
:104bc40080c0ea001e40900000c160003e4090009a
:104bd4008080fb004e4090000080fb000008dd0058
:104be400804078005e40900000c06000004071008a
:104bf4001047980080458000100290008045800096
:104c0400104090000e01e80013c0b300ae409000c5
:104c1400040001001e4f40001e00fb0030079800f6
:104c24003e0090000080fa00000006000a00fa002e
:104c3400204798002107980062479800734798001e
:104c4400804580000000e00003003a000080eb0093
:104c5400400798001600370080458000200290002d
:104c6400804580001040900013c0b3002e019000d6
:104c7400ae40900004000100004f78002e00900028
:104c8400904078007e40900000c060008080fb006f
:104c94006e4090000080fb000088de0080407800b9
:104ca4002e009000014878001e00fb004007980089
:104cb4004e0090000080fa00000006001000fa0088
:104cc4005007980061079800624f98000000eb00bd
:104cd400400798006000b80020079800310798004a
:104ce40000902000d1032000008fbe0002040700c2
:104cf400008fbe001e00be00e6f007005e019000bb
:104d0400ee01900061f1070002002000a347240097
:104d140051f00700c4f007002007980031079800fd
:104d24002e019000be019000e0ff2f000100200042
:104d3400800f5100818f5900030036000080eb0082
:104d440040079800020037002e00900040079800aa
:104d54006e4890000004e00010003200ee4890001d
:104d640070cfb30000c06000604f98006e489000a0
:104d740067406000674060004401dd00510a200084
:104d840091407800f0c8b30000c060000240700099
:104d9400a5e0b7008460a9009460a8000000eb00bf
:104da400200888000000eb00000888004e009000f6
:104db400100888004110200091407800f0ccb30026
:104dc40000c0600004e1b7000421a90005e1a800c7
:104dd4000080fa00000006001000fa005007980056
:104de40061079800624f98000000eb0040079800ac
:104df4006000b80020079800310798000090200058
:104e0400d1032000008fbe00bb030700008fbe004b
:104e14001e00be009ff007005e019000ee019000ae
:104e24001af1070002002000a34724000af007003b
:104e34007df0070020079800310798002e019000ac
:104e4400be019000e0ff2f0001002000800f510000
:104e5400818f5900030036000080eb004007980062
:104e6400020037002e009000400798006e48900022
:104e74000004e00010003200ee48900070cfb30050
:104e840000c06000604f98006e489000674060006a
:104e9400674060004401dd00710a20009140780001
:104ea400f0c8b30000c0600002407000a7e0b70083
:104eb40084e0a90094e0a8000000eb0080088800ca
:104ec4000000eb00300888004e0090006008880065
:104ed4000111200091407800f0ccb30000c06000c4
:104ee40010e1b7001021a90011e1a8000080fa0028
:104ef400000006001000fa005007980061079800af
:104f0400624f98000000eb00400798006000b80072
:104f1400200798003107980000902000d10320005a
:104f2400008fbe0074030700008fbe001e00be0089
:104f340058f007005e019000ee019000d3f00700e6
:104f440002002000a3472400c3ef070036f0070047
:104f540020079800310798002e019000be019000b0
:104f6400e0ff2f0001002000800f5100818f5900c5
:104f7400030036000080eb00400798000200370071
:104f84002e009000400798006e4890000004e00056
:104f94000f003200ee48900070cfb30000c06000f4
:104fa400604f98006e489000674060006741600061
:104fb400810a20009140780080cfb30000c06000d7
:104fc40002407000a8e0b7008500a9009500a80081
:104fd4000000eb00900888000000eb0050088800f7
:104fe4004e00900070088800211120009140780044
:104ff400f0ccb30000c0600012e1b7001221a90098
:1050040013e1a8000080fa00000006000e00fa0078
:105014004007980051079800424f98006000b8007c
:10502400200798003107980000902000d103200049
:10503400008fbe0030030700008fbe001e00be00bc
:1050440014f007004e019000de0190008ff007007d
:1050540002002000a34724007fef0700f2ef0700bf
:1050640020079800310798000000eb0080088800b2
:105074000000eb00900888000000eb003008880076
:105084000000eb00500888001061a8004e48900012
:105094000004e0000f003200ce48900070cfb3004f
:1050a40000c06000404f98004e4890006740600088
:1050b40067416000810a20009140780080cfb300ee
:1050c40000c0600002407000a8e0b7008500a9009d
:1050d4009500a8002e009000600888002e00900023
:1050e400be0090004008de00010020007008880027
:1050f4000111200091407800f0ccb30000c06000a2
:1051040010e1b7001021a90011e1a8000080fa0005
:10511400000006000e00fa004007980051079800ae
:10512400424f98006000b8002007980031079800ab
:1051340000902000d1032000008fbe00ee02070083
:10514400008fbe001e00be00d2ef07004e0190008b
:10515400de0190004df0070002002000a347240068
:105164003def0700b0ef07002007980031079800d3
:105174000000eb00f00888000000eb000009880044
:105184000000eb00a00888000000eb00c0088800c5
:105194001e61a8004e4890000004e0000f00320099
:1051a400ce48900070cfb30000c06000404f98001c
:1051b4004e4890006740600067416000210b20006a
:1051c4009140780080cfb30000c0600002407000be
:1051d400b2e0b7008780a9009780a8002e00900055
:1051e400d00888002e009000be0090004008de0029
:1051f40001002000e0088800e111200091407800bf
:10520400f0ccb30000c060001ee1b7001e21a9006d
:105214001fe1a8000080fa00000006000200fa0066
:10522400004f78001e80fb00610060000004e00075
:1052340002003200c802a800e204a8001e80fb009d
:105244000000d100610060000004e00002003200b0
:10525400c822a800e224a8001e80fb004200de0051
:10526400610060000004e00002003200c842a800af
:10527400e244a8001e80fb004300de0061006000e1
:105284000004e00002003200c862a800e264a80042
:105294000080fa00000006000200fa00004f7800c7
:1052a4001e80fb00610060000004e0000200320088
:1052b400e022a900e422a9001e80fb000000d10026
:1052c400610060000004e00002003200e042a90036
:1052d400e442a9001e80fb004200de006100600081
:1052e4000004e00002003200e062a900e462a900c8
:1052f4000080fa00000006000200fa00004f780067
:105304001e80fb00610060000004e0000800320021
:10531400d962a900dd62a900c16c20009140780027
:1053240000ccb30000c060002041b300cce6b7005d
:105334001e80fb000000d100610060000004e0005a
:1053440008003200d902a900dd02a900216c200066
:105354009140780000ccb30000c060003041b3003d
:10536400c2e6b7001e80fb004200de006100600060
:105374000004e00008003200d802a900dc02a90001
:10538400b16c20009140780000ccb30000c06000f4
:105394004041b300cbe6b7001e80fb004300de00b3
:1053a400610060000004e00008003200d822a90077
:1053b400dc22a900816d20009140780000ccb3006c
:1053c40000c060005041b300d8e6b7000080fa0086
:1053d400000006000200fa00004f78001e80fb0067
:1053e400610060000004e00004003200c942a9002a
:1053f400c962a900cd42a900cd62a9001e80fb00ac
:105404000000d100610060000004e00004003200ec
:10541400c982a900c9a2a900cd82a900cda2a90070
:105424000080fa00000006000200fa00004f780035
:105434001e80fb00610060000004e00003003200f5
:10544400e002a800e202a90002003700e002a9007d
:10545400e202a9001e80fb000000d1006100600090
:105464000004e00003003200e822a800ea22a900b8
:1054740002003700e822a900ea22a9001e80fb00ee
:105484004200de00610060000004e000040032001d
:10549400ea04a900e802a800ea02a9000300370010
:1054a400ea04a900e802a900ea02a9000080fa00bf
:1054b400000006000000fa00e284a900e2a4a900aa
:1054c400c882a800c8a2a900416a200091407800bf
:1054d40000ccb30000c06000c041b300a4e6b70034
:1054e400216d20009140780000ccb30000c0600022
:1054f4003040b300d2e6b7000080fa000000060096
:105504000000fa00e3e4a900e3c4a900c9e2a8008a
:10551400c9c2a900616a20009140780000ccb300a0
:1055240000c06000d041b300a6e6b700e16c2000e3
:105534009140780000ccb30000c060005040b3003c
:10554400cee6b7000080fa00000006000000fa0072
:10555400d8a2a900d882a800d862a900d842a9007c
:10556400416d20009140780000ccb30000c0600081
:105574009040b300d4e6b700816a200091407800df
:1055840000ccb30000c060009041b300a8e6b700af
:10559400616d20009140780000ccb30000c0600031
:1055a4007040b300d6e6b700716d200091407800da
:1055b40000ccb30000c060000034a000d7e6b70000
:1055c4000080fa00000006000000fa00ed24a900a3
:1055d400ed04a900ece4a900ecc4a900f122a9009f
:1055e400f102a800f0e2a900f0c2a900b16d200008
:1055f4009140780000ccb30000c06000c040b3000c
:10560400dbe6b700c16a20009140780000ccb3000b
:1056140000c060003041b300ace6b700a16d2000cb
:105624009140780000ccb30000c06000a040b300fb
:10563400dae6b700516d20009140780000ccb30049
:1056440000c06000b040b300d5e6b7000080fa00a7
:10565400000006000000fa00113a8000f00b200060
:105664000081600061042000700520002374200084
:10567400814978008049780082497800014480009b
:10568400f0c0b300010001001144800070c0b300f9
:10569400010001002144800030c0b300010001007a
:1056a40031448000f0c0b300010001004144800097
:1056b40070c0b300010001005044800000000100ec
:1056c400604480000000010070448000000001007c
:1056d4008044800000000100113a80000004200092
:1056e40000817000610420007005200023742000f4
:1056f4008149780080497800824978000080fa0066
:10570400000006000000fa00009122000044880016
:10571400e094220010448800c09e220020448800a7
:10572400e09722003044880060a1220040448800b1
:1057340080aa22007044880060ae22008044880061
:10574400c0a522005044880020a82200604488009c
:10575400c0b22200904488000080fa0000000600d5
:105764001000fa00889fbe00500798006107980057
:10577400624f9800734f98000040eb00104f980060
:105784000040eb00004f980000902000d10320005f
:10579400200798003107980000c1b3002047980003
:1057a4000000eb00000f7800530107002007980069
:1057b400310798006e4890000004e00002003200b7
:1057c40040c0b300204798002e009000be00900017
:1057d40030ee07000004be002e4090000083fb0062
:1057e40007002000860078005e009000000ab800e0
:1057f4006e00900000b0b90005017800000141007e
:105804005e0090000780b900000141008202780028
:105814000400be001fee07000001be000800be0029
:105824008ded07000200200003f82300c7ec0700f9
:10583400fded0700000f78007e4890000080fb001b
:105844004300de00610060000004e0001300320049
:105854007e4890004500dd00004f98000e489000ff
:105864000080fb004500de00004f98000e489000c9
:1058740067406000674060004401dd00910a200039
:1058840091407800f0c8b30000c06000024070008e
:10589400a9e0b7008560a9009560a8007e48900043
:1058a4000004e00012003d007e4890000047b20072
:1058b400004f98000e4890000080fb004400de007a
:1058c400004f98000e4890006740600067416000f8
:1058d400a10a20009140780080cfb30000c060008e
:1058e40002407000aae0b7008580a9009580a80056
:1058f4000000eb00001188000000eb00101188008c
:105904001e007800401188006e48900061406000dd
:10591400614060004301dd000122200091407800d5
:1059240070cfb30000c060000240700020e2b700f6
:10593400012220009140780090cfb30000c06000a5
:1059440020e2b7002002a90021e2a8002342a80017
:1059540010c0b300104f98001e4890000000fb00d8
:105964004f04be000080fa00000006001000fa0098
:10597400889fbe005007980061079800624f980006
:10598400734f98000040eb00104f98000040eb006c
:10599400004f980000902000d103200020079800b9
:1059a4003107980000c1b300204798000000eb00c5
:1059b400000f7800d00007002007980031079800f6
:1059c4006e4890000004e0000200320040c0b300c2
:1059d400204798002e009000be009000aded070017
:1059e4000004be002e4090000083fb00070020004e
:1059f400860078005e009000000ab8006e009000f7
:105a040000b0b90005017800000141005e0090007b
:105a14000780b90000014100820278000400be0042
:105a24009ced07000001be000800be000aed07005f
:105a34000200200003f8230044ec07007aed07007d
:105a4400000f78007e4890000080fb004300de00d9
:105a5400610060000004e000120032007e48900003
:105a64004500dd00004f98000e4890000080fb00c8
:105a74004500de00004f98000e489000674060002b
:105a840067416000310b20009140780080cfb30063
