:0400000051EF00F0CC
:0C000800FACF12F0FBCF13F0B7EF08F0B6
:10001800D8CF01F0E8CF02F0E0CF03F0FACF04F038
:10002800FBCF05F0E9CF06F0EACF07F0E1CF08F003
:10003800E2CF09F0D9CF0AF0DACF0BF0F3CF0CF00A
:10004800F4CF0DF0F6CF0EF0F7CF0FF0F8CF10F099
:10005800F5CF11F011C0F5FF10C0F8FF0FC0F7FF82
:100068000EC0F6FF0DC0F4FF0CC0F3FF0BC0DAFFA3
:100078000AC0D9FF09C0E2FF08C0E1FF07C0EAFFD4
:1000880006C0E9FF05C0FBFF04C0FAFF03C0E0FF9C
:0E00980002C0E8FF01C0D8FF1000ECEF08F036
:10100000004E12000000000000000000003A2C7E9C
:101010000000000002120000AAB33E98BADCFEC134
:10102000C4C5C6C78081828384C4C780818283840B
:101030008586878484848484848C9CBC0084848496
:1010400084CCCCCCA5CDA7083E7DFA3264C8C8C8F4
:10105000C8C1C2C3C4C5C6C78081060D193264C8E1
:10106000C8C8C8C0C1C2C3C4C5000000003A00005F
:1010700001D809D00500FA6E3550FD6E3650FE6E6F
:10108000FF6AFA501200010EF66E100EF76E000E97
:10109000F86E0900F5CF24F00900F5CF25F001D84E
:1010A00009D00500FA6E2450FD6E2550FE6EFF6AD1
:1010B000FA501200140EF66E100EF76E000EF86E57
:1010C0000900F5CF24F00900F5CF25F001D825D08F
:1010D0000500FA6E2450FD6E2550FE6EFF6AFA5030
:1010E0001E0EF66E100EF76E000EF86E0800F5CFAD
:1010F00026F026380F0B206E276EFF0E216E27502C
:10110000180EF66E100EF76E000EF86E0800F5CF92
:1011100028F02830E832030B12000F010F013A9D2E
:10112000949C0F010F013A9F949EF2A40FD0F29469
:101130008BBC02D0010E01D0000E246E243A24464E
:1011400024468B502418BF0B24188B6E9EA2EDD71B
:101150009E928BBE02D0010E01D0000E246E24326E
:1011600024328B5024187F0B24188B6EDED7E9CFE6
:1011700014F0EACF15F0E1CF16F0E2CF17F0D9CF97
:1011800018F0DACF19F0F3CF1AF0F4CF1BF0F6CF46
:101190001CF0F7CF1DF0F8CF1EF0F5CF1FF01FC0E9
:1011A000F5FF1EC0F8FF1DC0F7FF1CC0F6FF1BC0F7
:1011B000F4FF1AC0F3FF19C0DAFF18C0D9FF17C037
:1011C000E2FF16C0E1FF15C0EAFF14C0E9FF13C03B
:1011D000FBFF12C0FAFF1100456A446A6C0EF66EFE
:1011E000120EF76E000EF86E00EE29F010EE1BF0F6
:1011F0000900F5CFEEFFE550E150FAE1000138EFCC
:1012000008F0E8CF23F0BA502318FC0B2318BA6E6D
:1012100020C022F0224622462246BA502218870BCE
:101220002218BA6EBA8421C0BBFF1200D3508C0BB7
:101230006209D36E206E060E436E2050000E3F6E84
:10124000120E406E7A0E416E000E426E1200435036
:10125000010D290EF324F66E100EF420F76EF86AD5
:10126000000EF8220800F5CFD5FF120000000000A4
:1012700000000000000000002C1200000000000030
:08128000000040420F000300D2
:020000040020DA
:08000000FFFFFFFFFFFFFFFF00
:020000040030CA
:0E000000FF291F3CFFBF81FF0FC00FE00F4024
:00000001FF
