:0400000051EF00F0CC
:0C000800FACF12F0FBCF13F014EF0BF056
:10001800D8CF01F0E8CF02F0E0CF03F0FACF04F038
:10002800FBCF05F0E9CF06F0EACF07F0E1CF08F003
:10003800E2CF09F0D9CF0AF0DACF0BF0F3CF0CF00A
:10004800F4CF0DF0F6CF0EF0F7CF0FF0F8CF10F099
:10005800F5CF11F011C0F5FF10C0F8FF0FC0F7FF82
:100068000EC0F6FF0DC0F4FF0CC0F3FF0BC0DAFFA3
:100078000AC0D9FF09C0E2FF08C0E1FF07C0EAFFD4
:1000880006C0E9FF05C0FBFF04C0FAFF03C0E0FF9C
:0E00980002C0E8FF01C0D8FF100049EF0BF0D6
:10100000000000000000000000000000003A2C7EFC
:1010100000000000DC160000AAB33E98BADCFEC156
:10102000C4C5C6C78081828384C4C780818283840B
:101030008586878484848484848C9CBC0084848496
:1010400084CCCCCCA5CDA7083E7DFA3264C8C8C8F4
:10105000C8C1C2C3C4C5C6C78081060D193264C8E1
:10106000C8C8C8C0C1C2C3C4C5000000003A00005F
:101070000001A06F000E00010001A56F0001A0514A
:101080000001A06F000E00010001A66F0001A05139
:1010900001D80CD00500FA6E000100016C51FD6E04
:1010A00000016D51FE6EFF6AFA501200140EF66ECA
:1010B000100EF76E000EF86E0900F5CFA0F00900D3
:1010C000F5CFA1F001D82AD00500FA6E0001A05199
:1010D000FD6EA151FE6EFF6AFA501E0EF66E100EE6
:1010E000F76E000EF86E0800F5CFA2F00001A239ED
:1010F0000F0B206E0001A36FFF0E216E0001A351A4
:10110000180EF66E100EF76E000EF86E0800F5CF92
:10111000A4F00001A431E832030B1200800E00019C
:1011200000018E6F250E00018F6F000E0001906F81
:10113000000E0001916F01D80CD00500FA6E00017D
:1011400000017651FD6E00017751FE6EFF6AFA5084
:1011500012000F010F013881928001D80DD00500D7
:10116000FA6E000100018451FD6E00018551FE6E92
:10117000FF6AFA50000E120001D80CD00500FA6E7A
:10118000000100018251FD6E00018351FE6EFF6A75
:10119000FA50120001D80CD00500FA6E00010001CF
:1011A0008651FD6E00018751FE6EFF6AFA501200F3
:1011B00020C0A7F021C0A8F00001A8C0A0F0000145
:1011C000A16BA0BFA1690001A05100010001A56FA2
:1011D000A7C0A6F001D80FD00500FA6E00010001EB
:1011E0007851FD6E00017951FE6EFF6AFA500001E0
:1011F0000001A551120001D80FD00500FA6E0001C0
:1012000000017851FD6E00017951FE6EFF6AFA50BF
:1012100000010001A65112009E929EB2BBD7FDD7DD
:101220002C6E000E00010001896F2C502B50800A9B
:10123000800F08E1000E2A5C05E1000E295C02E146
:10124000000E285CD8B00ED02B1E2A1E291E286C3A
:10125000000E29222A222B222C6E010E00010001F1
:10126000896F2C502750800A800F08E1000E265C01
:1012700005E1000E255C02E1000E245CD8B00CD024
:10128000271E261E251E246C000E2522262227221C
:10129000010E00010001891B000E000100018A6F90
:1012A000000E00018B6F000E00018C6F000E00011C
:1012B0008D6F2B50281029102A10D8B439D02C6EDD
:1012C000010E00010001886F2C5008D0D8902836FC
:1012D00029362A362B3600010001882B2BAEF6D793
:1012E0000001D89000018A3700018B3700018C374C
:1012F00000018D372850245C295025582A50265843
:101300002B502758D8A00BD02850245E2950255A9E
:101310002A50265A2B50275A000100018A81D89062
:101320002B322A322932283200010001882FD8D7E7
:10133000000100018951D8B410D0000100018D1FB7
:1013400000018C1F00018B1F00018A6D000E00013F
:101350008B2300018C2300018D238AC024F08BC0D5
:1013600025F08CC026F08DC027F0120001D80CD0DB
:101370000500FA6E000100017451FD6E0001755107
:10138000FE6EFF6AFA50120020C024F021C025F042
:1013900022C026F023C027F0400E286E420E296E90
:1013A0000F0E2A6E000E2B6E10EC09F024C08EF08A
:1013B00025C08FF026C090F027C091F000018E511B
:1013C00000010001926F1DD000018E6F000E13D03E
:1013D00000018E6F040E0FD000018E6F010E0BD036
:1013E00000018E6F050E07D000018E6F020E03D034
:1013F00000018E6F060E00010001936F00018E51F7
:101400001BD0000100019251000AD8B4DDD7010AB7
:10141000D8B4DAD7030AD8B4D7D7060AD8B4D8D7FD
:101420000C0AD8B4D9D7180AD8B4DAD7300AD8B445
:10143000DBD7600AD8B4DCD7C05000010001931993
:10144000F80B00019319C06EC050C70B2809C06E7D
:10145000F30EC116FC0EC116C08EC280C2821200ED
:1014600001D80CD00500FA6E000100017451FD6E28
:1014700000017551FE6EFF6AFA50120020C09AF00A
:1014800021C09BF022C09CF023C09DF09AC024F0A4
:101490009BC025F09CC026F09DC027F000018EC0A7
:1014A00092F000018FC093F0000190C094F0000111
:1014B00091C095F0020ED89000019237933794377F
:1014C0009537E82EF8D792C028F093C029F094C041
:1014D0002AF095C02BF010EC09F024C096F025C03E
:1014E00097F026C098F027C099F0FF0E00019625CE
:1014F000000100019E6FFF0E0001972100019F6F08
:10150000000100019F51800A800F010ED8B49E5D3A
:10151000D8A01200B886AC84AC9800019FC092F0AD
:1015200092C093F00001946B00019351B06E9EC085
:10153000AFFF0F010F013A9D0F010F013A9F948CED
:10154000948EAC8AAB88AB8E120001D80CD005000B
:10155000FA6E000100017451FD6E00017551FE6EBE
:10156000FF6AFA50120020C09AF021C09BF022C0FE
:101570009CF023C09DF09AC024F09BC025F09CC035
:1015800026F09DC027F000018EC092F000018FC0B0
:1015900093F0000190C094F0000191C095F0020E0C
:1015A000D89000019237933794379537E82EF8D7C3
:1015B00092C028F093C029F094C02AF095C02BF077
:1015C00010EC09F024C096F025C097F026C098F0E2
:1015D00027C099F0FF0E00019625000100019E6FC3
:1015E000FF0E0001972100019F6F000100019F5134
:1015F000800A800F010ED8B49E5DD8A012007086BC
:101600007284729800019FC092F092C093F0000122
:10161000946B00019351766E9EC075FF938C938EF0
:10162000728A7188718E1200E9CF14F0EACF15F03A
:10163000E1CF16F0E2CF17F0D9CF18F0DACF19F0DA
:10164000F3CF1AF0F4CF1BF0F6CF1CF0F7CF1DF05C
:10165000F8CF1EF0F5CF1FF01FC0F5FF1EC0F8FF3A
:101660001DC0F7FF1CC0F6FF1BC0F4FF1AC0F3FF3C
:1016700019C0DAFF18C0D9FF17C0E2FF16C0E1FF9A
:1016800015C0EAFF14C0E9FF13C0FBFF12C0FAFF48
:1016900011003F6A3E6A060EF66E170EF76E000ED8
:1016A000F86E00EE60F010EE28F00900F5CFEEFFC6
:1016B000E550E150FAE19E0EF66E170EF76E000E41
:1016C000F86E00EE2DF010EE11F00900F5CFEEFFF0
:1016D000E550E150FAE1000138EF08F0E8CF23F0DF
:1016E000BA502318FC0B2318BA6E20C022F02246F1
:1016F00022462246BA502218870B2218BA6EBA84A4
:1017000021C0BBFF1200000000000000000000002C
:1017100000002E170000000000008C174A15BE17AD
:1017200000000000000000006C1372175017D35027
:101730008C0B6209D36E206E060E3D6E2050000E9B
:10174000396E120E3A6E7A0E3B6E000E3C6E12002F
:10175000C350C4CF22F0236A22C023F0226A221091
:10176000246E2350256EC28224C020F025C021F0B3
:101770001200E8CF21F021C020F020462046C250C0
:101780002018830B2018C26EC282120039C020F0CC
:101790003AC021F03BC022F03CC023F0120060149C
:1017A000B017000000000000000040420F000300DE
:1017B000E8CF20F0ACA2FED720C0ADFF1200E8CFEA
:0C17C00020F072A2FED720C073FF1200C0
:020000040020DA
:08000000FFFFFFFFFFFFFFFF00
:020000040030CA
:0E000000FF291F3CFFBF81FF0FC00FE00F4024
:00000001FF
