:020000040000fa
:080000000002040000000000f2
:020000040000fa
:100400000f8220000eff27000e0188000000000070
:100410000c00070080d32000010020000f0007001f
:10042000000020000000e000020032000000020096
:1004300000000000da0c0200000000000040da00ba
:100440000000fe00000020000000e000020032007a
:10045000000020009001880000000600a102880032
:10046000800078000000eb001a003700e2804000b6
:1004700054a0b4009101ba00e280400054a0b4003e
:100480009102ba00e280400054a0b4000002eb00e8
:10049000472bde00f507b200a6018800602ce100c2
:1004a00008003a000049eb000201e80002003900b0
:1004b0003420ec0002f0a0008301e900f9ff3e00c7
:1004c000040037006128e100010032000082eb00e7
:1004d000040007001101ba000200e000e3ff3a0047
:1004e0000000060004d0a300e20f49001c00390000
:1004f000810278003549ba000201e80002003900a3
:100500003420ec0002f0a0008301e9000f0032006b
:100510002549ba000201e800020039003420ec004d
:1005200002f0a0008301e900080032000400e000ae
:100530000600320015c9ba000201e80002003900c5
:100540003420ec0002f0a0008301e9008180e80083
:1005500054a0b4000300e000e2ff3a0000000600ef
:100560009102ba00055978008301e900f7ff3200d3
:10057000c82ade00055978008301e900f3ff320044
:100580000400e000f1ff320011d9ba00eeff37009d
:100590007408040000000000b2080400000000001d
:1005a0005009040000000000e20804000000000000
:1005b0007a090400000000000c0a0400000000009a
:1005c0004a0a040000000000c00904000000000006
:1005d000e609040000000000900a0400000000008a
:1005e0000040da000000fe00889fbe008a9fbe0027
:1005f0008c1f7800e0000700e700330003866c00e2
:100600006450e1002e0032006420e100330032002b
:100610006150e1002f0032006120e1003100320022
:1006200085855500eb07b000090020000804200074
:10063000050037000804440089844c000a0031009a
:100640000603430087834b000001530081815b0058
:10065000f8ff33000203be000800a00008044400b5
:1006600089844c00f6ff3900c639dd008301730030
:1006700001003200130020008904d1000884d30057
:100680000998a300050032000800a7000300a0009d
:100690008904d1000884d3008b05e8008904d100c7
:1006a0000884d3000001eb000281d200770007002c
:1006b00001f0a1000cf0a70001f0a000bf0037007e
:1006c0006420e100c10032000801be000200be004b
:1006d000f7ff37006120e100bc0032006000b80085
:1006e000f3ff37000000200001f82700f0ff37007b
:1006f0000001be008b0007000470a70003f0a100fa
:100700006509b100160032000d0035006828e100cf
:1007100006003500f0ff2f00f1ff27000300e00086
:1007200013003b000100280000000500000040000d
:10073000818048008502e900fcff3a00080037008c
:10074000f88f420002003c008000eb000000050032
:100750008100d1000080d3008502e800fcff3a0050
:100760000300e00002003b0060001000e080180081
:10077000000006000001be006a0007000470a70028
:1007800003f0a10003f8a30013003a006509b100cb
:1007900010003200090035006928e1000200350030
:1007a0000100280000000500000040008180480092
:1007b0008502e900fcff3a0000000600f88f4200c5
:1007c000050035008100d1000080d3008502e800db
:1007d000fcff3a00000006008000eb00000005006e
:1007e000889fbe008a9fbe00010578000100e000de
:1007f0000400350008003c000000e000200032004a
:100800000500370060001000e080180002003b0087
:1008100001f02c001a0037000004be006011b8007f
:100820006b0920000982cf00020039000882cf0046
:100830000441b000694252000e00320008003b0043
:1008400082817100610164008904d1000884d300b1
:100850008b05e8000442e800f9ff3a000500370084
:100860000804440089844c008b05e9000442e90037
:10087000fbff3a00050007000af0a70001f0a00006
:100880004f05be004f04be0000000600810020009e
:10089000618055000b003d000b00200061fe2f0021
:1008a0000100e1001d0034008281710061016400db
:1008b0008904d1000884d3000000e800faff3a0060
:1008c00071002000610064000300700002006000fd
:1008d0000900320061044400e0844c000988a5004e
:1008e000050032008b05e8006808e10002003a00cc
:1008f0008904d1000884d300f20f20000258e100df
:1009000005003d00c75ddd00f907b2008980750074
:1009100008007800000006000bf827008b00780024
:1009200000000500c70ade00f107b200f50fb200b3
:1009300008003200e1cf4200020032000170a00046
:1009400024000500810f700001003200040805003a
:1009500044000500810f700002003a0014000500f9
:100960008502e9000000400081c04800fcff3b0018
:100970000170a000240005000004be00e9ff07008c
:100980000003be000405be000200be00e5ff070034
:10099000844f7500000006000200be006450e100b4
:1009a000050036006420e100020036000968a3005b
:1009b00001003a000800be000160a0004f06780068
:1009c0004f05be004f04be0000000600f0ff2f00e0
:1009d000f1ff2700f9ff3700889fbe008a9fbe0005
:1009e0008c1f7800e4ff0700ebff330003866c00e8
:1009f0006450e100240032006420e100270032004e
:100a00006150e100220032006120e100210032004b
:100a10008b854200eb07b1000134b800003ab80002
:100a20000804420089844a00013ab8000030b80046
:100a30008880400009014a000400330000004000a3
:100a400081804800020149008b05e900c909dd00e9
:100a5000830170000100320013002000c814de0082
:100a60004814dd004709de001200b200c808de00ad
:100a70000884700085ff070001f0a1000cf0a700ba
:100a800001f0a000cdff37006120e100cfff320070
:100a90000801be000200be00f7ff37006150e10010
:080aa000fcff3a00c9ff37001a
:020000040000fa
:020000040005f5
:0457f800bf7f00006f
:020000040000fa
:020000040005f5
:0457fc007f3e0000ec
:020000040000fa
:10000800f0020000f0020000f0020000f002000020
:10001800f0020000f0020000f0020000f002000010
:10002800f0020000f0020000f0020000f002000000
:10003800f0020000f0020000f0020000f0020000f0
:020000040000fa
:020000040000fa
:100aa8001000fa00204f980062079800730798001a
:100ab8000000eb00400798006000b800200798008d
:100ac8003107980000902000d1032000008fbe005d
:100ad8000a030700008fbe001e00be003eff07008d
:100ae8006e019000fe019000b9ff0700020020008f
:100af800a3472400bafe07001cff07002007980040
:100b0800310798002e019000be019000e0ff2f00f1
:100b180001002000800f5100818f5900030036002a
:100b28000080eb0040079800020037002e0090007c
:100b3800400798002e4890006740600067406000ba
:100b48004201dd00111920009140780030ceb30039
:100b580000c060000240700091e1b7000119200058
:100b68009140780080cfb30000c060006040b300bf
:100b780090e1b7004e009000a00c880092c1bf0021
:100b8800f041b30092e1b7000080fa0000000600cf
:100b98000e00fa0050079800610798000000eb006b
:100ba800400798006000b8002007980031079800b7
:100bb80000902000d1032000008fbe00cf02070064
:100bc800008fbe001e00be0003ff07005e019000fc
:100bd800ee0190007eff070002002000a3472400da
:100be8007ffe0700e1fe0700200798003107980004
:100bf8002e019000be019000e0ff2f0001002000b0
:100c0800800f5100818f5900030036000080eb00ef
:100c180040079800020037002e0090004007980017
:100c28004e009000b00c88000080fa00000006001a
:100c38001000fa00204f9800620798007307980088
:100c48000000eb00400798006000b80020079800fb
:100c58003107980000902000d1032000008fbe00cb
:100c6800a6020700008fbe001e00be00dafe0700c5
:100c78006e019000fe01900055ff07000200200061
:100c8800a347240056fe0700b8fe07002007980077
:100c9800310798002e019000be019000e0ff2f0060
:100ca80001002000800f5100818f59000300360099
:100cb8000080eb0040079800020037002e009000eb
:100cc800400798002e489000674060006740600029
:100cd8004201dd00b11920009140780030ceb30008
:100ce80000c06000024070009be1b700a11920001d
:100cf8009140780080cfb30000c060006040b3002e
:100d08009ae1b7004e009000f00c88009cc1bf002b
:100d1800f041b3009ce1b7000080fa000000060033
:100d28000e00fa0050079800610798000000eb00d9
:100d3800400798006000b800200798003107980025
:100d480000902000d1032000008fbe006b02070036
:100d5800008fbe001e00be009ffe07005e019000cf
:100d6800ee0190001aff070002002000a3472400ac
:100d78001bfe07007dfe070020079800310798003a
:100d88002e019000be019000e0ff2f00010020001e
:100d9800800f5100818f5900030036000080eb005e
:100da80040079800020037002e0090004007980086
:100db8004e009000000d88000080fa000000060038
:100dc8001000fa00204f98006207980073079800f7
:100dd8000000eb00400798006000b800200798006a
:100de8003107980000902000d1032000008fbe003a
:100df80042020700008fbe001e00be0076fe0700fc
:100e08006e019000fe019000f1fe07000200200034
:100e1800a3472400f2fd070054fe070020079800ae
:100e2800310798002e019000be019000e0ff2f00ce
:100e380001002000800f5100818f59000300360007
:100e48000080eb0040079800020037002e00900059
:100e5800400798002e489000674060006740600097
:100e68004201dd00511a20009140780030ceb300d5
:100e780000c0600002407000a5e1b700411a2000e0
:100e88009140780080cfb30000c060006040b3009c
:100e9800a4e1b7004e009000400d8800a6c1bf0035
:100ea800f041b300a6e1b7000080fa000000060098
:100eb8000e00fa0050079800610798000000eb0048
:100ec800400798006000b800200798003107980094
:100ed80000902000d1032000008fbe000702070009
:100ee800008fbe001e00be003bfe07005e019000a2
:100ef800ee019000b6fe070002002000a347240080
:100f0800b7fd070019fe0700200798003107980071
:100f18002e019000be019000e0ff2f00010020008c
:100f2800800f5100818f5900030036000080eb00cc
:100f380040079800020037002e00900040079800f4
:100f48004e009000500d88000080fa000000060056
:100f58001000fa00204f9800620798007307980065
:100f68000000eb00400798006000b80020079800d8
:100f78003107980000902000d1032000008fbe00a8
:100f8800de010700008fbe001e00be0012fe070033
:100f98006e019000fe0190008dfe07000200200007
:100fa800a34724008efd0700f0fd070020079800e6
:100fb800310798002e019000be019000e0ff2f003d
:100fc80001002000800f5100818f59000300360076
:100fd8000080eb0040079800020037002e009000c8
:100fe800400798002e489000674060006740600006
:100ff8004201dd00f11a20009140780030ceb300a4
:1010080000c0600002407000afe1b700e11a2000a4
:101018009140780080cfb30000c060006040b3000a
:10102800aee1b7004e009000900d8800b0c1bf003f
:10103800f041b300b0e1b7000080fa0000000600fc
:101048000e00fa0050079800610798000000eb00b6
:10105800400798006000b800200798003107980002
:1010680000902000d1032000008fbe00a3010700dc
:10107800008fbe001e00be00d7fd07005e01900075
:10108800ee01900052fe070002002000a347240052
:1010980053fd0700b5fd07002007980031079800a9
:1010a8002e019000be019000e0ff2f0001002000fb
:1010b800800f5100818f5900030036000080eb003b
:1010c80040079800020037002e0090004007980063
:1010d8004e009000a00d88000080fa000000060075
:1010e8000200fa00004f78001e80fb0061006000db
:1010f8000004e00002003200c802a800e204a800d0
:101108001e80fb000000d100610060000004e000c8
:1011180002003200c822a800e224a8001e80fb00ba
:101128004200de00610060000004e00002003200be
:10113800c842a800e244a8001e80fb004300de006d
:10114800610060000004e00002003200c862a800ec
:10115800e264a8000080fa00000006000200fa001d
:10116800004f78001e80fb00610060000004e00072
:1011780002003200e022a900e422a9001e80fb0040
:101188000000d100610060000004e00002003200ad
:10119800e042a900e442a9001e80fb004200de00f4
:1011a800610060000004e00002003200e062a90073
:1011b800e462a9000080fa00000006000200fa00bc
:1011c800004f78001e80fb00610060000004e00012
:1011d80008003200d962a900dd62a900c16c2000b4
:1011e8009140780000ccb30000c060002041b300fb
:1011f800cce6b7001e80fb000000d1006100600053
:101208000004e00008003200d902a900dd02a900ac
:10121800216c20009140780000ccb30000c0600031
:101228003041b300c2e6b7001e80fb004200de007a
:10123800610060000004e00008003200d802a90044
:10124800dc02a900b16c20009140780000ccb3000a
:1012580000c060004041b300cbe6b7001e80fb0031
:101268004300de00610060000004e0000800320076
:10127800d822a900dc22a900816d200091407800c5
:1012880000ccb30000c060005041b300d8e6b700fe
:101298000080fa00000006000200fa00004f780003
:1012a8001e80fb00610060000004e00004003200c2
:1012b800c942a900c962a900cd42a900cd62a9000e
:1012c8001e80fb000000d100610060000004e00007
:1012d80004003200c982a900c9a2a900cd82a900d0
:1012e800cda2a9000080fa00000006000200fa0062
:1012f800004f78001e80fb00610060000004e000e1
:1013080003003200e002a800e202a9000200370050
:10131800e002a900e202a9001e80fb000000d10043
:10132800610060000004e00003003200e822a80029
:10133800ea22a90002003700e822a900ea22a9004f
:101348001e80fb004200de00610060000004e00037
:1013580004003200ea04a900e802a800ea02a90091
:1013680003003700ea04a900e802a900ea02a9007c
:101378000080fa00000006000000fa00e284a900dc
:10138800e2a4a900c882a800c8a2a900416a200056
:101398009140780000ccb30000c06000c041b300a9
:1013a800a4e6b700216d20009140780000ccb3007e
:1013b80000c060003040b300d2e6b7000080fa00f9
:1013c800000006000000fa00e3e4a900e3c4a90055
:1013d800c9e2a800c9c2a900616a2000914078004a
:1013e80000ccb30000c06000d041b300a6e6b7004f
:1013f800e16c20009140780000ccb30000c0600090
:101408005040b300cee6b7000080fa0000000600a6
:101418000000fa00d8a2a900d882a800d862a900c2
:10142800d842a900416d20009140780000ccb3005b
:1014380000c060009040b300d4e6b700816a200085
:101448009140780000ccb30000c060009041b30028
:10145800a8e6b700616d20009140780000ccb30089
:1014680000c060007040b300d6e6b700716d200080
:101478009140780000ccb30000c060000034a000a8
:10148800d7e6b7000080fa00000006000000fa0066
:10149800ed24a900ed04a900ece4a900ecc4a9001e
:1014a800f122a900f102a800f0e2a900f0c2a90007
:1014b800b16d20009140780000ccb30000c06000fe
:1014c800c040b300dbe6b700c16a20009140780055
:1014d80000ccb30000c060003041b300ace6b700f8
:1014e800a16d20009140780000ccb30000c06000de
:1014f800a040b300dae6b700516d200091407800b3
:1015080000ccb30000c06000b040b300d5e6b7001f
:101518000080fa00000006000000fa00113a80007e
:10152800f00b20000081600061042000700520009d
:101538002374200081497800804978008249780026
:1015480001408000f0c0b30001000100114080009c
:1015580070c0b300010001002140800030c0b3001a
:101568000100010031408000f0c0b300010001001b
:101578004140800070c0b30001000100504080006d
:101588000000010060408000000001007040800001
:10159800000001008040800000000100113a800036
:1015a8000004200000817000610420007005200004
:1015b80023742000814978008049780082497800a6
:1015c8000080fa00000006000000fa0040872000b2
:1015d80000408800208b20001040880000952000e3
:1015e80020408800208e200030408800a0972000ee
:1015f80040408800c0a0200070408800a0a42000bf
:1016080080408800009c200050408800609e200098
:101618006040880000a92000904088000080fa00ff
:10162800000006000400fa00204798000040eb0084
:10163800104798000040eb00004f780043c7bf00f8
:101648000080fb004400de0067406000004f780027
:1016580010c0b3009e4f10000300320030c0b3002a
:101668009e4f100010003a002e409000e34f5000ab
:1016780020003e00517420009140780080cfb300d4
:1016880000c0600045e7b7002e409000634060004e
:10169800c600dd0044c7bf00f043b200014070003f
:1016a80044e7b7001300370070c0b3009e4f100026
:1016b80010003a002e409000e74f50000d00360011
:1016c8002e4090000080fb004400de001047980088
:1016d8001e40900067406000674160005174200020
:1016e8009140780080cfb30000c0600002407000d5
:1016f80045e7b7000080fa00000006000a00fa007b
:10170800889fbe000040eb00704798000040eb0047
:10171800604798000040eb00504798000040eb00fd
:101728004047980000902000d1032000008fbe00a1
:1017380043c7bf000080fb004400de006740600034
:101748007047980044c7bf000080fb004600de00d9
:101758005047980045c7bf00674060004047980061
:101768007e4090000080fb00400798004e009000eb
:10177800e30f5000370032004e009000e30f500096
:101788000a003c004e009000e10f500018003200a3
:101798004e009000e10f50002a003c004e009000df
:1017a8000000e0000e0032005f0037004e0090009d
:1017b800e50f5000400032004e009000e50f500049
:1017c800390035004e009000e60f50003e00320010
:1017d8004e009000e70f50003f00320052003700e3
:1017e80000902000d1032000008fbe004e0037007b
:1017f80000402200410f2000008fbe005e40900094
:101808008080fb00100020000100dd006047980088
:101818001e00be00f0fb07000004be006e409000f2
:101828000080fb00cf80de00ebfb07000001be005c
:101838000800be006afb0700abfb0700008fbe0074
:101848003900370000902000d1032000008fbe002f
:101858003500370000402200410f2000008fbe00f5
:101868005e4090008080fb00100020000100dd0039
:10187800604798001e00be00d7fb07000004be00aa
:101888006e4090000080fb00cf80de00d2fb070096
:101898000001be000800be0051fb070092fb0700d4
:1018a800008fbe0020003700000024000100200047
:1018b800008fbe001c003700c0c8230001002000b4
:1018c800008fbe001800370000092d0031002000ed
:1018d800008fbe001400370000902000d1032000c4
:1018e800008fbe004e4090008080fb00100020005a
:1018f8000100dd00604798001e00be00b6fb07002f
:101908000004be006e4090000080fb00cf80de0027
:10191800b1fb07000001be000800be0030fb070055
:1019280071fb0700008fbe001e00be004f04be0002
:101938000080fa00000006000a00fa00400798003c
:101948006000b80020079800310798006000b800d0
:10195800008fbe0069ff0700200798003107980034
:101968002e009000be0090009bfb070002002000a4
:10197800a34724001afb07007cfb0700008fbe006a
:10198800050037001e00be00290007004e00900029
:101998000000e900400798004e0090000000e000b9
:1019a800f8ff3a000080fa00000006000000fa0084
:1019b80000c1b3001bff070003ff0700113a8000b6
:1019c800f00b2000008160006104200070052000f9
:1019d8002374200081497800804978008249780082
:1019e8003140800020c0b30001000100113a80009e
:1019f80000042000008170006104200070052000b0
:101a08002374200081497800804978008249780051
:101a180002002000031a240070c0b30084fc0700f1
:101a280000002000010a2400bdfc0700ffff37006a
:020000040000fa
:101a3800f03fb1000180b10006003500ee03090057
:101a480000000000403fb1000180b100fbff3d00f5
:101a58001000b000203fb0000200350000800900ef
:081a6800000000000000060070
:020000040000fa
:101a7000140800000c0000008000000000080000b6
:0c1a8000140000008000000000000000c6
:00000001FF
