:020000040000fa
:080000000002040000000000f2
:020000040000fa
:100400002f9a200000ff2700000188000000000054
:100410000c000700407c2200010020000f000700b4
:10042000000020000000e000020032000000020096
:100430000000000096210200000000000040da00e9
:100440000000fe00400020000000e000020032003a
:10045000002020009001880000000600a102880012
:10046000800078000000eb001a003700e2804000b6
:1004700054a0b4009101ba00e280400054a0b4003e
:100480009102ba00e280400054a0b4000002eb00e8
:10049000472bde00f507b200a6018800602ce100c2
:1004a00008003a000049eb000201e80002003900b0
:1004b0003420ec0002f0a0008301e900f9ff3e00c7
:1004c000040037006128e100010032000082eb00e7
:1004d000040007001101ba000200e000e3ff3a0047
:1004e0000000060004d0a300e20f49001c00390000
:1004f000810278003549ba000201e80002003900a3
:100500003420ec0002f0a0008301e9000f0032006b
:100510002549ba000201e800020039003420ec004d
:1005200002f0a0008301e900080032000400e000ae
:100530000600320015c9ba000201e80002003900c5
:100540003420ec0002f0a0008301e9008180e80083
:1005500054a0b4000300e000e2ff3a0000000600ef
:100560009102ba00055978008301e900f7ff3200d3
:10057000c82ade00055978008301e900f3ff320044
:100580000400e000f1ff320011d9ba00eeff37009d
:10059000141f040000000000521f040000000000af
:1005a000d61f040000000000821f040000000000ad
:1005b0000020040000000000922004000000000061
:1005c000d0200400000000004620040000000000cd
:1005d0006c20040000000000162104000000000050
:1005e000f402040000000000881f78000204780074
:1005f00014000700080040004f04780000000600c7
:100600000000fa00881f7800000478003fb99700c6
:10061000ea81570080007800402f2000100007007a
:10062000800078000000e000020035000040eb0090
:1006300000f47800010078004f0478000080fa0090
:10064000000006008001eb000200370061f0790035
:100650008301e800828f5100fcff3a000000060091
:100660006200fa00889fbe008a9fbe000004be00a0
:10067000020578008300780060f92f000f00400029
:10068000b000070088979f0099979f000000eb003b
:10069000a09f9f009a4578000b80fb000000ea00b5
:1006a000cf04de0050c2b30080cf550002003200fc
:1006b00009047800010037000904e9000800e0009f
:1006c0000b0034001f909700080178008a00780022
:1006d0008f9197000300010090979f000000e000b9
:1006e000930032002f98970000004400a09f9f00c5
:1006f0000905450050c2b30080cf55000400320008
:100700000b04e000e3ff3a002f98970089003700c0
:100710000000eb00809f9f00f0979f00e0979f00f4
:10072000d0979f00c0979f00b0979f00c09f9f00e9
:100730000900370040992000008050000000400070
:1007400081982000e10078004f9897000100700028
:10075000c09f9f000a05e8001a4478008800fb004b
:10076000409920007c000700800078000000e00035
:10077000f0ff3a00a0c2b300804f54000e003a00d0
:10078000bf8897000180e900b08f9f0010007800bb
:10079000b09f9f000000e00005003d000000ea005f
:1007a000b09f9f004f9897000020a000c09f9f001f
:1007b0000a05e80010003700b19f9f0003fd2f00dd
:1007c000f4ff2700080037003f989700840f50007f
:1007d000040032006a00b90000004100030040003c
:1007e000b09f9f000a05e8001a01fb0003004100ca
:1007f000e90f5000f4ff3600e0c2b3009a4f10003a
:10080000040032000080eb00909f9f008a04780073
:100810001c0037008a04e800a0c2b300994f100002
:1008200007003a00bf8897000180e900b08f9f0061
:1008300010007800909f9f008a84e8001100370024
:100840000000eb00909f9f0003fd2f00f4ff2700a6
:10085000080037001f989700840f500004003200f2
:100860006a00b9000000410003004000909f9f0013
:100870008904e8001901fb0003004100e90f500062
:10088000f4ff3600194478008800fb00a09920008e
:10089000310007000000e00002003a000044780048
:1008a000010037008904e800a87f9f0080c6b300dc
:1008b000804f540004003a00994f14000a003a0097
:1008c0006640500006003700c0c6b300804f540099
:1008d00005003a00994f140003003a0065404000bb
:1008e000a07f9f008904e8000905e800cbfb2f00ea
:1008f0008f8545001901fb0060f92f000f004000b3
:100900000084e8008b0178008000780008007800ff
:100910001a0007000000e00005003a008b00780094
:1009200008007800580107000000e00059ff3d0072
:100930000080eb004f05be004f04be000080fa00af
:10094000000006000200fa00f1bf9f0001087800d5
:100950000080fa0000000600040037000204e000f6
:1009600001003a00000005000000e8001041780096
:10097000814f5100f9ff3a0000000600889fbe0039
:100980008a1f780000047800010278008244780011
:1009900003057800e0c6b300804f5100d20032005a
:1009a00015003c006b405000804f51002400320085
:1009b0000a003c0070405000804f51000f0132008f
:1009c00065404000804f51007400320050c2b300b7
:1009d000804f510020013a001c01370040c6b3008f
:1009e000804f51001b00320065404000804f510095
:1009f00019013a001700370030c7b300804f51008b
:100a0000fe00320007003c0064405000804f51005f
:100a1000620032000040e800804f51000e013a00b1
:100a2000e700370050c7b300804f51005b00320031
:100a300063404000804f510007013a0057003700e3
:100a40009180e900010a78007800900091717800a7
:100a500007013700a8609000c0c6b30080cf5000e7
:100a60000a003a009400780064805000000a780080
:100a70001000be004f89de00cf91de000002be00f4
:100a800002037800820378001300370010c7b30018
:100a900080cf500003003200a0c6b30080cf5000ca
:100aa00006003a009400780068805000000a780040
:100ab0003002be002003be00070037001480e900aa
:100ac000000a78001000780000027800cfa2de0053
:100ad0000503780086037800049cbe000694be00df
:100ae000a860900080c6b30080cf50000e00320096
:100af00020c6b30080cf500005003a000400fb0080
:100b0000cf80de0001017800820178000a00370002
:100b100040c7b30080cf5000030032006640400061
:100b200080cf500006003a0004007800cf80de003d
:100b30000101780082017800009cbe000294be0092
:100b40003800be002801be00e00f5000e08f5800c2
:100b5000e00f5900e08f590003003d00780090003d
:100b6000d1c2b3000a003700081090000018a3009b
:100b70000300320078009000b1c2b30004003700d7
:100b80000008a300530032007800900001c2b300b7
:100b9000017578000000e8004d003700a860900063
:100ba000c0c6b30080cf500006003a009400780021
:100bb00064805000000a78001002be006033b80064
:100bc0001300370010c7b30080cf5000030032007d
:100bd000a0c6b30080cf500006003a009400780011
:100be00068805000000a78003002be002003be007a
:100bf000070037001480e900000a78001000780030
:100c000000027800050020000600200007002000f8
:100c1000049cbe000694be00a860900080c6b3008d
:100c200080cf50000e00320020c6b30080cf5000ad
:100c300005003a000480fb000100200002002000b3
:100c4000030020000a00370040c7b30080cf5000e7
:100c5000030032006640400080cf500006003a009a
:100c600004007800010020000200200003002000a2
:100c7000009cbe000294be00081090000038a30043
:100c8000140032003800be002801be00e00f500002
:100c9000e08f5800e00f5900e08f59000d0032003e
:100ca00080c7b30080cf54000300320080c5b3007a
:100cb00080cf540007003a007800900001c3b300d1
:100cc000017578008000e80009f578000080e800f0
:100cd00070049800780090000000450060049800bf
:100ce0008940780042003700a8609000c0c6b30079
:100cf00080cf5000250032000a003c0064405000c4
:100d000080cf50002800320000c0e80080cf5000a3
:100d1000140032006840500080cf500022003a009a
:100d20000a00370040c7b30080cf50001e003200d9
:100d30006640400080cf50001b00320069405000e8
:100d400080cf500018003a00060037001480e900f8
:100d5000000a780010007800485c9000084878008d
:100d6000450037001480e900000a7800100278007e
:100d700068089000cf80de000101780082017800d1
:100d8000009abe000292be003b0037001480e900ca
:100d9000000a78001001780068089000cf80de001b
:100da0000089be00340037001480e900000a780092
:100db00010007800680c9000080878002e003700ba
:100dc0001180e9008008780010007800cf80de00f4
:100dd0000101780082017800009cbe000294be00f0
:100de00078009000000045006004980081c7b300bf
:100df00008007800ee0007001f0037001480e900ab
:100e0000000a7800100078006004980058099000eb
:100e10000200e00002003d006e02070009003700fa
:100e20008000eb0072020700800078000000e00004
:100e3000030032006800900000805000010037007d
:100e400058089000100c98000b00370078009000b4
:100e50000275780006003700780090008000450099
:100e60000904e00001003a0059c2b3008948780043
:100e70000000e800700498000000eb004f057800c7
:100e80004f04be00000006000400fa00889fbe0068
:100e90008a9fbe008c1f780000047800010678004d
:100ea00070089000f8009000010050008808900041
:100eb000010050009808900001005000a808900020
:100ec00001005000b808900001005000c8089000d0
:100ed000810550000002220090bf9f000003230004
:100ee000a0bf9f00081090000028a30018003a003f
:100ef0000b00e000160034008b0478000905780030
:100f0000e28f5400020036002a0020000200370061
:100f10000900e0000b00340058009000c801900068
:100f20000a017800ee805700030001005004980089
:100f30000000e000960032006808900000004500c4
:100f4000600c98008a8454004240a900ebff3c00ea
:100f5000780190000200e0000b003400580090007f
:100f6000c80190008c007800030001005004980034
:100f70000000e0008600320068089000f800900051
:100f800001004000600c9800880c90000900e0000f
:100f90001500340009057800e28f54000200360085
:100fa0002a002000020037000900e0000b00340096
:100fb00058009000c80190000a017800ec805700aa
:100fc00003000100500498000000e00070003200af
:100fd0006808900000004500600c98008a84540066
:100fe0004240a900ebff3c00180990000200e0001d
:100ff0000b003400e800900058009000c8019000f9
:1010000003000100500498000000e000600032007e
:10101000680890009808900001004000600c98005b
:10102000a80c90000900e0001500340009057800c4
:10103000e28f5400020036002a0020000200370030
:101040000900e0000b00340058009000c801900037
:101050000a017800ec80570003000100500498005a
:101060000000e0004a0032006808900000004500df
:10107000600c98008a8454004240a900ebff3c00b9
:10108000380990000200e0000d003400e8009000f4
:10109000180890008080400058009000c80190001f
:1010a00003000100500498000000e0003800320006
:1010b00068089000b808900001004000600c98009b
:1010c000c80c90000900e000150034000905780004
:1010d000e28f5400020036002a0020000200370090
:1010e0000900e0000b00340058009000c801900097
:1010f0000a017800ec8057000300010050049800ba
:101100000000e00022003200680890000000450066
:10111000600c98008a8454004240a900ebff3c0018
:10112000081090000028a3001b0032000b00e00014
:10113000190034008b04780009057800e28f540010
:10114000020036002a002000020037000900e000fb
:101150000b00340058009000c80190000a0178008c
:10116000ee80570003000100500498000000e000ea
:10117000070032006808900000004500600c9800ed
:101180008a8454004240a90003003400eaff37007b
:101190000080eb00010037000000eb004f067800f4
:1011a0004f05be004f04be000080fa00000006009c
:1011b0002f03b000889fbe008a9fbe008c9fbe0098
:1011c0008e1f78000007780070972000c0b79f003e
:1011d00080c5b30080cf5000080032006296200026
:1011e000c2b79f007740400080cf500003003a0014
:1011f00083002000b3b79f000a00370080c7b30008
:1012000080cf500005003200a4002000b4b79f003a
:1012100080c5b30080cf500002003a0005012000d5
:10122000b5b79f003e04be002e05be0040c6b30009
:1012300080cf5000030032006540400080cf500056
:101240000b003a00e00f5400e08f5c00e00f5d00ff
:10125000e08f5d0006003d006000b8006011b8003e
:1012600008045000898458000a0559008b855900ec
:10127000bfb39700e88f530003003200f08f530094
:1012800045003a0002003700360020000100370018
:1012900046002000e00f5400e08f5c00e00f5d008e
:1012a000e08f5d0005003a005e089000810120009b
:1012b000a1b79f000000e000080032003fb1970096
:1012c0000200e90008006000cfb197006340780099
:1012d00090df9f0074012000a4b79f008602780071
:1012e0008502e900050033008b05d1000a85d30093
:1012f0008984d3000884d300f9ff3700089fbe001b
:101300000a97be00afb397000700e90021fc2f0049
:101310008f804000008240003fb197008202e900c8
:1013200012003700afb397008703e900a7b79f000b
:1013300000806200cfb09700615278003e00be008e
:101340002e01be00860378008703e9000500330004
:101350008381d1000281d3008180d3000080d3003b
:10136000f9ff3700009fbe000297be003e00be009e
:101370002e01be00e00f5000e08f5800e00f590032
:10138000e08f5900d6003400afb397000700e000ab
:10139000e4ff3c00d2003700ae60900080c6b3008e
:1013a00080cf50000b00320006003c000104e0003a
:1013b000080032006640500080cf500073003a00b1
:1013c00004003700c0c6b30080cf50006f003a0061
:1013d00031003700080178000800e00005003a00fd
:1013e0005e08900081012000a1b79f000000e0008e
:1013f00009003200bfb19700110009000381d80035
:101400008000fd004fb297006440780090df9f009d
:1014100075012000a5b79f00bfb397001100090018
:101420000781d80080017800afb097000100e90083
:1014300022fc2f000f014100000241000c00370088
:10144000bfb29700110009008501d80000017800a3
:10145000afb397008703e900a7b79f000590b900d5
:1014600000805100cfb0970061527800820178006f
:101470000300e000030034002fb197000200e000f9
:10148000efff3c0003007800cf80de000101780010
:10149000820178003a0037000806be00e00f5400d1
:1014a000e08f5c0005003a005e0890008301200098
:1014b000a3b79f000000e000090032003fb2970090
:1014c0006121b9000c00be0067020700cfb297008f
:1014d0006540780090df9f0077012000a7b79f004c
:1014e0003fb297006121b9000c00be006102070005
:1014f0000006be00afb297000500e90027fc2f00f0
:101500008f8343008083430097b79f00110037000b
:101510003fb197006114b9000801be000c00be0085
:10152000640207000005be00afb197008301e90027
:10153000a3b79f000801be00b700070000005600d7
:101540001fb29700cfb297006552780094b79f0002
:101550000a06be00e00f5600e08f5e000300340074
:10156000afb397000700e000e9ff3c004feade0060
:10157000cfa2de000c00be000401780084017800d8
:10158000009fbe000297be0055003700e00f5400d8
:10159000e08f5c00e00f5d00e08f5d0005003a0029
:1015a0005e08900081012000a1b79f000000e000cc
:1015b0000d0032003fb1970002027800cfa2de009a
:1015c00005037800860378000800be000a01be000b
:1015d000c80207004fb297006440780090df9f0078
:1015e00075012000a5b79f003fb197000202780067
:1015f000cfa2de0005037800860378000800be0055
:101600000a01be00b4020700009fbe000297be00a0
:10161000afb197000300e90024fc2f000f02420045
:101620000006420020003700bfb297000504780092
:10163000cfc4de00090578008a0578000802be00e4
:101640000a03be005fa89700efa897007fa9970044
:101650008fb19700ab020700d0b79f00e1b79f00a2
:10166000f2b79f0083bf9f00afb397008703e900e5
:10167000a7b79f000802be000a03be0027030700a9
:101680005faa970000005200cfb29700655678001d
:101690005fb09700efb097007fb197008fb99700c8
:1016a000009fbe000297be003e00be002e01be009d
:1016b000d0af9f00e1af9f00f2af9f0083b79f00c4
:1016c000e00f5000e08f5800e00f5900e08f590004
:1016d00003003400afb097000100e000d2ff3c00ef
:1016e0003fb19700e80f510013003a000e10900030
:1016f0000038a30010003200afb19700f78f5100ff
:1017000006003e0024fc2f000f024200830042002e
:1017100000c3b300914f100007003200afb2970032
:101720008502e900a5b79f0000c3b30027fc2f0086
:101730008f83430080f37a00afb197007881110066
:10174000120f98006e00900024fc2f000f02420040
:1017500083004200bbfb07001e0990005e0890005a
:10176000800f510006003d0002005000000f98005d
:101770000e1090000040a100001798000f003700e5
:101780000000e0000d003d000e10900074006000ad
:10179000f00f500009003a007e089000fe00900013
:1017a000010050008e08900001005000020050001f
:1017b0004240a90001003400000f98004f07780054
:1017c0004f06be004f05be004f04be002f03b10000
:1017d0000000060080007800010037000000e800eb
:1017e0001004e000fdff3a00010050000000060078
:1017f0008001eb00040037008301e80090cf100067
:10180000040032000000e800828f5100faff3a0025
:101810000000eb0000000600020ab900001bb9003e
:101820000200b80081004200810043000000060071
:10183000889fbe008a9fbe00010578000100e0007d
:101840000400350008003c000000e00020003200e9
:101850000500370060001000e080180002003b0027
:1018600001f02c001a0037000004be006011b8001f
:101870006b0920000982cf00020039000882cf00e6
:101880000441b000694252000e00320008003b00e3
:1018900082817100610164008904d1000884d30051
:1018a0008b05e8000442e800f9ff3a000500370024
:1018b0000804440089844c008b05e9000442e900d7
:1018c000fbff3a00150107000af0a70001f0a00095
:1018d0004f05be004f04be0000000600889fbe00fa
:1018e0008a9fbe008c1f7800320107003901330047
:1018f00003866c006450e1002e0032006420e10099
:10190000330032006150e1002f0032006120e1001d
:101910003100320085855500eb07b000090020003a
:1019200008042000050037000804440089844c00a6
:101930000a0031000603430087834b000001530077
:1019400081815b00f8ff33000203be000800a000a5
:101950000804440089844c00f6ff3900c639dd00d4
:101960008301730001003200130020008904d100bc
:101970000884d3000998a300050032000800a700de
:101980000300a0008904d1000884d3008b05e8007f
:101990008904d1000884d3000001eb000281d20049
:1019a000de00070001f0a1000cf0a70001f0a0008c
:1019b000110137006420e100130132000801be006c
:1019c0000200be00f7ff37006120e1000e01320087
:1019d0006000b800f3ff37000000200001f8270086
:1019e000f0ff37000001be000a0107000470a700e5
:1019f00003f0a1006509b100160032000d003500aa
:101a00006828e10006003500f0ff2f00f1ff2700f5
:101a10000300e00013003b00010028000000050067
:101a200000004000818048008502e900fcff3a0088
:101a300008003700f88f420002003c008000eb00f5
:101a4000000005008100d1000080d3008502e8007d
:101a5000fcff3a000300e00002003b0060001000c1
:101a6000e0801800000006000001be00e900070049
:101a70000470a70003f0a10003f8a30013003a00cc
:101a80006509b10010003200090035006928e10045
:101a900002003500010028000000050000004000a1
:101aa000818048008502e900fcff3a000000060042
:101ab000f88f4200050035008100d1000080d3007e
:101ac0008502e800fcff3a00000006008000eb0001
:101ad00000000500889fbe008a9fbe008c1f780012
:101ae000b4000700bb00330003866c006450e100c3
:101af000240032006420e100270032006150e10040
:101b0000220032006120e100210032008b8542007a
:101b1000eb07b1000134b800003ab80008044200f5
:101b200089844a00013ab8000030b800888040003b
:101b300009014a0004003300000040008180480091
:101b4000020149008b05e900c909dd00830170002d
:101b50000100320013002000c814de004814dd002c
:101b60004709de001200b200c808de0008847000d9
:101b70006a00070001f0a1000cf0a70001f0a0002e
:101b80009d0037006120e1009f0032000801be0087
:101b90000200be00f7ff37006150e100fcff3a0091
:101ba0009900370003f0a200889fbe008a9fbe0004
:101bb0008c1f78007f000700860033006450e1002e
:101bc0004f0032006420e1005200320003826c00ba
:101bd00007003b000905d0000306d000820f540027
:101be0000c065d0002003900020032008901780015
:101bf000030678008582550004003d000003fd00c7
:101c00008103fd008502ea008b854200840f72008b
:101c100002003b0060001000e08018006011b80076
:101c20000005eb007a28e1000a0039000600780080
:101c3000c75ddd00f707b200878075002d00370013
:101c4000828171000a017800610560008180d10005
:101c50000080d3008502e900f9ff3b000604400044
:101c60008784480002003b0060041400e0841c00ec
:101c70000988a300070032008a8171008281710007
:101c8000610164008904d1000884d3008b05e80059
:101c9000170037000978a30013003a000b00e0009a
:101ca000130034008b05e9000804440089844c00cb
:101cb0000a4474000978a3000d003a000b00e0000c
:101cc000070034008b05e9000804440089844c00b7
:101cd00001003a000b0020000978a300f7ff320052
:101ce0000001eb0002003700828171000a017800d8
:101cf0000a0007000cf0a70001f0a0003e0037002a
:101d00006420e10002003a00838f6c003e00330043
:101d10000801be000200be0037003700810020002d
:101d2000618055000b003d000b00200061fe2f007c
:101d30000100e1001d003400828171006101640036
:101d40008904d1000884d3000000e800faff3a00bb
:101d50007100200061006400030070000200600058
:101d60000900320061044400e0844c000988a500a9
:101d7000050032008b05e8006808e10002003a0027
:101d80008904d1000884d300f20f20000258e1003a
:101d900005003d00c75ddd00f907b20089807500d0
:101da00008007800000006000bf827008b00780080
:101db000000005000004be00160007000003be007e
:101dc0000405be000200be0012000700844f75002b
:101dd000000006000200be006450e100050036006d
:101de0006420e100020036000968a30001003a0007
:101df0000800be000160a0004f0678004f05be003d
:101e00004f04be0000000600f0ff2f00f1ff270086
:101e1000f9ff3700c70ade00f107b200f50fb20084
:101e200008003200e1cf4200020032000170a00041
:101e300024000500810f7000010032000408050035
:101e400044000500810f700002003a0014000500f4
:101e50008502e9000000400081c04800fcff3b0013
:101e60000170a00024000500020007000400be006d
:101e7000000006006022b800060220000000d0002a
:101e80008180d2000482d2008582d2000000a000ae
:101e90000202520083825a00030031000202420013
:101ea00083824a000000a1000603e900f3ff3a0024
:101eb00000000600839f68000100e00002003d0072
:101ec00060001000e08018000300e00002003d0008
:101ed00060011100e0811900e6ff07004f00e000fb
:101ee00002003b0060001000e080180000000600c7
:101ef000881f7800000478005001be004000be003a
:101f0000040040008580480006014900878149009f
:101f1000009cbe000294be000400e1000588e100c0
:101f20000690e1000798e1000200310068004400db
:101f30001008e8004f04780000000600f48747000e
:101f4000889fbe008a9fbe008c9fbe008e1f7800b7
:101f50000205be000004be00d4b79f00e5b79f0095
:101f6000f6b79f0087bf9f000000eb00c0b79f003f
:101f7000b0b79f00a0b79f0090b79f0080b79f00a9
:101f80000d042000bfb097004fb097000001400043
:101f90000000e0000f003d004f08de00000071006f
:101fa000c0b79f009e00070001003d001200200006
:101fb000a100070001003d0012002000a60007005c
:101fc000b1000700b60007000f004000c8ff07007f
:101fd000220037004f08de0000067100ccb79f00da
:101fe0008f00070001003d00120020009200070052
:101ff00001003d001200200097000700a20007002a
:102000000fb297009fb297002fb39700bfb397000e
:10201000a90007000000520081805a0002015b0005
:1020200083815b0080b79f0091b79f00a2b79f009c
:10203000b3b79f000007eb009f0007000020e100fe
:1020400001a8e10002b0e10003b8e10001003100a5
:102050001e0020000e005600c0b79f004fb2970030
:102060000400e000070035001000200001002000ff
:102070006011b80008047000898470000a057100be
:102080008b8571008d06e900beff3a000400e00078
:1020900003003d00820007000f00400094ff07008e
:1020a0004fa897000000e00004003a000fb497002a
:1020b0009fb497002fb59700bfb597009400070015
:1020c0004f0778004f06be004f05be004f04be000c
:1020d0004f01b10000000600881f780018002000a2
:1020e000881f780095ff07008f87e9004f0478006c
:1020f00000000600801feb0090ff07008f87e900bb
:1021000000000600889fbe008a9fbe008c1f7800da
:102110006e00070007003d0073000700e00f5b0042
:10212000e08f5b0007003d00320007000006eb0077
:10213000040037003400070002003d002a000700b9
:102140001c00200072000700e3ff07000203be002e
:102150000002be000c00e000010032002200070077
:102160000400be000601be004f0678004f05be0009
:102170004f04be0000000600889fbe008a9fbe007c
:102180008c1f78005100070005003d005600070035
:10219000e00f5b00e08f5b0006003d0004003700ad
:1021a0001900070003003d006000b8006011b8008e
:1021b0001000070056000700ceff07000203be0014
:1021c0000002be000c00e000010032000600070023
:1021d0000400be000601be004f0678004f05be0099
:1021e0004f04be00000006006000b8006011b80097
:1021f0000000370004025000858258000603590091
:1022000087835900000006000006eb00e00f520033
:10221000e08f5a00e00f5b00e08f5b0000000600db
:102220000180400090b79f000001eb008fb0970045
:102230000100e000000006000200700090b79f005f
:102240000180400080b79f000001eb00ffa89700cd
:102250000100e000000006000200700080b79f004f
:10226000018040006faa9700cf20de0001007000bf
:10227000f0af9f0004024200250007004f18de0067
:102280000002720000000600e4af9f000804440052
:1022900089844c000a054d008b854d000000060026
:1022a0003fb29700cfb297005fb39700efb39700ac
:1022b00000fe2f00000006003fb09700cfb097004f
:1022c0005fb19700efb19700000006000205be0065
:1022d0000004be00e00f5000e08f5800e00f5900ee
:1022e000e08f5900000006006000b8006011b800df
:1022f00008045000898458000a0559008b8559004c
:102300001c002000e00f5200e08f5a000000060081
:102310000800be000a01be0000000600889fbe0043
:102320008a9fbe008c1f78000205be000004be001c
:102330000006eb00e00f5000e08f5800e00f59005e
:10234000e08f590007003d006000b8006011b80040
:1023500008045000898458000a0559008b855900eb
:102360001c002000e00f5200e08f5a00e00f5b00dd
:10237000e08f5b0002003d000f0007000c00a20090
:102380000800be000a01be00120007000203be00e2
:102390000002be000c00e000010032000600070051
:1023a0000400be000601be004f0678004f05be00c7
:1023b0004f04be00000006006000b8006011b800c5
:1023c0000402500085825800060359008783590093
:1023d00000000600889fbe008a9fbe008c9fbe0042
:1023e0000404b8000506b8008904460060854e0064
:1023f0000606b8000a054600e0854e000706b8004c
:102400008b054600040eb800890446000a854e007c
:10241000e0854d00050eb8000a0546008b854e008c
:10242000060eb8008b0546000416b8000a054600e3
:102430008b854e000516b8008b054600041eb800bb
:102440008b0546000800be000a01be004f06be0014
:102450004f05be004f04be00000006008420a90006
:10246000e7416000c419dd00410a20009140780076
:10247000f2c8b30082c0600083c070008000fd001d
:10248000a4e0b7008000fd00680060004300de00ab
:102490000040400041092000914078000114a10053
:1024a00080c070000100780094e0b70000000600d2
:1024b000000a8800110a88000000060080007800e9
:1024c00002003700200a80008018780040c1bf0059
:1024d0000038a300fbff3a00000006008600a900b8
:1024e0008620a900e7416000c10a200091407800e1
:1024f00082cfb30082c0600083c070008000fd0006
:10250000ace0b7008000fd0001c7b300814160006e
:10251000c10a200091407800f2c8b30082c0600078
:1025200083c070008000fd00ace0b7008000fd00bb
:10253000680160004311de006109200091407800cd
:102540000104a10082c070008000fd0096e0b70089
:102550008000fd000008b2004700de00004040009f
:1025600061092000914078000114a10080c0700032
:102570000100780096e0b7000000060021108800f6
:1025800030108800000006008a20a9008a40a900b7
:10259000e7416000c419dd00c10b200091407800c4
:1025a000f2c8b30082c0600083c070008000fd00ec
:1025b000bce0b7008000fd00800178000307b20096
:1025c000c419de00d10b20009140780082cfb30007
:1025d00082c0600083c070008000fd00bde0b700d5
:1025e0008000fd00680160004311de0002414100ef
:1025f000a1092000914078000114a10082c0700060
:102600008000fd009ae0b7008000fd000008b200e5
:102610004700de004200dd00a10920009140780063
:102620000124a10080c07000010078009ae0b7008a
:1026300000000600a1108800b0108800000006000d
:10264000a1138800b0138800000006000602a8004d
:102650000000060006c2bf000008a300fdff3a000c
:1026600006c2bf000018a300faff3a0006c2bf006e
:102670000028a300f7ff3a0006c2bf000038a300fd
:10268000f4ff3a0006c2bf000048a300f1ff3a0081
:1026900009c2bf000068a300eeff3a000000060078
:1026a0000080fb001010880008c2bf0001c8b30002
:1026b000014060000080fb000000e9004f00de00e8
:1026c0000000e900000006000642a8000000060025
:1026d0001602a8000000060016c2bf000008a300f2
:1026e000fdff3a0016c2bf000018a300faff3a002f
:1026f00016c2bf000028a300f7ff3a0016c2bf00b1
:102700000038a300f4ff3a0016c2bf000048a3003f
:10271000f1ff3a0019c2bf000068a300eeff3a00c3
:10272000000006000080fb009010880018c2bf0067
:1027300001c8b300014060000080fb000000e90018
:102740004f00de000000e900000006001642a8006d
:10275000000006007602a8000000060076c2bf0056
:102760000008a300fdff3a0076c2bf000018a300d6
:10277000faff3a0076c2bf000028a300f7ff3a0034
:1027800076c2bf000038a300f4ff3a0076c2bf0053
:102790000048a300f1ff3a0079c2bf000068a3001f
:1027a000eeff3a00000006000080fb009013880056
:1027b00078c2bf0001c8b300014060000080fb0088
:1027c0000000e9004f00de000000e9000000060004
:1027d0007642a800000006000622a80000000600bd
:1027e000889fbe008a9fbe008c9fbe008005780037
:1027f0008106780002067800800478000005eb006e
:10280000150037000662a8000004eb000300370043
:102810008c0f5400130031000804e8006f0007001b
:102820000004e000faff32000010800080767d0096
:102830008904e90002003a0006a2a800010037005e
:1028400006a2a9000682a80006c2bf000048a30095
:10285000fdff3a000a05e8008b0f5500e9ff3a003a
:102860008004eb00090078004f06be004f05be0053
:102870004f04be000000060006a2a8000682a800c1
:10288000000006001622a80000000600889fbe0077
:102890008a9fbe008c9fbe0080057800810678006c
:1028a00002067800800478000005eb001500370070
:1028b0001662a8000004eb00030037008c0f5400e0
:1028c000130031000804e800480007000004e0009d
:1028d000faff32008010800080767d008904e900d4
:1028e00002003a0016a2a8000100370016a2a900b3
:1028f0001682a80016c2bf000048a300fdff3a00e0
:102900000a05e8008b0f5500e9ff3a008004eb0050
:10291000090078004f06be004f05be004f04be0000
:102920000000060016a2a8001682a80000000600fb
:102930007622a80000000600889fbe008a9fbe0085
:102940008c9fbe0080057800810678000206780022
:10295000800478000005eb00150037007662a800bf
:102960000004eb00030037008c0f5400130031000b
:102970000804e800210007000004e000faff32002c
:102980008013800080767d008904e90002003a000f
:1029900076a2a8000100370076a2a9007682a800de
:1029a00076c2bf000048a300fdff3a000a05e80018
:1029b0008b0f5500e9ff3a008004eb000900780016
:1029c0004f06be004f05be004f04be0000000600cb
:1029d00076a2a8007682a8000000060008c2bf0008
:1029e0000000d100610060000000060018c2bf00b6
:1029f0000000d100610060000000060078c2bf0046
:0c2a00000000d100610060000000060032
:020000040000fa
:020000040005f5
:0457f800bf7f00006f
:020000040000fa
:020000040005f5
:0457fc007f3e0000ec
:020000040000fa
:100008004028000040280000402800004028000048
:100018004028000040280000402800004028000038
:10002800402800005e23000040280000dc23000078
:100038004028000040280000402800004028000018
:100048004028000040280000402800004028000008
:1000580040280000402800004028000040280000f8
:1000680040280000402800004028000040280000e8
:1000780040280000402800004028000040280000d8
:1000880040280000402800004028000040280000c8
:1000980040280000402800004028000040280000b8
:1000a80040280000402800004028000040280000a8
:1000b8004028000040280000402800004028000098
:1000c8004028000040280000402800004028000088
:1000d8004028000040280000402800004028000078
:1000e8004028000040280000402800004028000068
:1000f8004028000040280000402800004028000058
:100108004028000040280000402800004028000047
:100118004028000040280000402800004028000037
:100128004028000040280000402800004028000027
:100138004028000040280000402800004028000017
:100148004028000040280000402800004028000007
:1001580040280000402800004028000040280000f7
:1001680040280000402800004028000040280000e7
:1001780040280000402800004028000040280000d7
:1001880040280000402800004028000040280000c7
:10019800d423000040280000402800004028000028
:1001a80040280000402800004028000040280000a7
:1001b8004028000040280000402800004028000097
:1001c8004028000040280000402800004028000087
:1001d8004028000040280000402800004028000077
:1001e8004028000040280000402800004028000067
:0801f80040280000402800002f
:020000040000fa
:100208004028000040280000402800004028000046
:100218004028000040280000402800004028000036
:10022800402800005e23000040280000dc23000076
:100238004028000040280000402800004028000016
:100248004028000040280000402800004028000006
:1002580040280000402800004028000040280000f6
:1002680040280000402800004028000040280000e6
:1002780040280000402800004028000040280000d6
:1002880040280000402800004028000040280000c6
:1002980040280000402800004028000040280000b6
:1002a80040280000402800004028000040280000a6
:1002b8004028000040280000402800004028000096
:1002c8004028000040280000402800004028000086
:1002d8004028000040280000402800004028000076
:1002e8004028000040280000402800004028000066
:1002f8004028000040280000402800004028000056
:100308004028000040280000402800004028000045
:100318004028000040280000402800004028000035
:100328004028000040280000402800004028000025
:100338004028000040280000402800004028000015
:100348004028000040280000402800004028000005
:1003580040280000402800004028000040280000f5
:1003680040280000402800004028000040280000e5
:1003780040280000402800004028000040280000d5
:1003880040280000402800004028000040280000c5
:10039800d423000040280000402800004028000026
:1003a80040280000402800004028000040280000a5
:1003b8004028000040280000402800004028000095
:1003c8004028000040280000402800004028000085
:1003d8004028000040280000402800004028000075
:1003e8004028000040280000402800004028000065
:0803f80040280000402800002d
:020000040000fa
:082a0c00257500000000000028
:020000040000fa
:102a14000c00fa00889fbe00300798004107980018
:102a2400224f980000902000d10320001007980046
:102a34002107980070c2b300004f7800a508070072
:102a440010079800210798001e009000ae00900027
:102a540076fb07000004be003e009000ce0090000c
:102a640072fb07000001be000800be009afb0700cd
:102a74000004be001e009000ae0090006bfb070037
:102a84000268290083b12c0093fb07000001be00fb
:102a94000800be0043fc07000200200003f82300e6
:102aa4003ffc0700effb0700004f78002e48900022
:102ab4000080fb0088fe07009e80fb0000002800c9
:102ac400adfe07004f04be000080fa0000000600bf
:102ad4000c00fa00889fbe00300798004107980058
:102ae400224f980000902000d10320001007980086
:102af4002107980030c0b300004f78007508070024
:102b040010079800210798001e009000ae00900066
:102b140046fb07000004be003e009000ce0090007b
:102b240042fb07000001be000800be006afb07006c
:102b34000004be001e009000ae0090003bfb0700a6
:102b44000268290083b12c0063fb07000001be006a
:102b54000800be0013fc07000200200003f8230055
:102b64000ffc0700bffb0700004f78002e489000c1
:102b74000080fb0083fe07009e80fb00000028000d
:102b8400abfe07004f04be000080fa000000060000
:102b94000c00fa00889fbe00300798004107980097
:102ba400224f980000902000d103200010079800c5
:102bb4002107980030c0b300004f78004508070093
:102bc40010079800210798001e009000ae009000a6
:102bd40016fb07000004be003e009000ce009000eb
:102be40012fb07000001be000800be003afb07000c
:102bf4000004be001e009000ae0090000bfb070016
:102c04000268290083b12c0033fb07000001be00d9
:102c14000800be00e3fb07000200200003f82300c5
:102c2400dffb07008ffb0700004f78002e48900061
:102c34000080fb0053fe07009e80fb00000028007c
:102c44007efe07004f04be000080fa00000006006c
:102c54000800fa002047980031479800220798009e
:102c6400634798002e4090000040400020479800a1
:102c740075fe070076fe070009c2bf0001c8b30055
:102c8400014060000004e000fbff3a002e40900089
:102c940082fe0700004f78006dfe070009c2bf00e6
:102ca40001c8b300014060000004e000fbff3a00eb
:102cb4003e40900079fe0700004f780064fe070054
:102cc40009c2bf0001c8b300014060000004e00075
:102cd400fbff3a000d0037002e00900010407800f2
:102ce4006efe0700004f780059fe070009c2bf00be
:102cf40001c8b300014060000004e000fbff3a009b
:102d04002e0090000000e800200798006e4090001c
:102d14000040e900604798006e409000e14f400099
:102d2400edff3a0067fe070049fe07001e00fb00a6
:102d34000080fa00000006000800fa00204798000e
:102d44003147980022079800634798002e4090006e
:102d540000404000204798005cfe07005dfe07002d
:102d640019c2bf0001c8b300014060000004e000c4
:102d7400fbff3a002e40900069fe0700004f7800e8
:102d840054fe070019c2bf0001c8b300014060002f
:102d94000004e000fbff3a003e40900060fe0700a4
:102da400004f78004bfe070019c2bf0001c8b300f2
:102db400014060000004e000fbff3a000d00370012
:102dc4002e0090001040780055fe0700004f780058
:102dd40040fe070019c2bf0001c8b30001406000f3
:102de4000004e000fbff3a002e0090000000e80021
:102df400200798006e4090000040e900604798006a
:102e04006e409000e14f4000edff3a004efe070097
:102e140030fe07001e00fb000080fa0000000600e0
:102e24000800fa00204798003147980022079800cc
:102e3400634798002e4090000040400020479800cf
:102e440043fe070044fe070079c2bf0001c8b30077
:102e5400014060000004e000fbff3a002e409000b7
:102e640050fe0700004f78003bfe070079c2bf0008
:102e740001c8b300014060000004e000fbff3a0019
:102e84003e40900047fe0700004f780032fe0700e6
:102e940079c2bf0001c8b300014060000004e00033
:102ea400fbff3a000d0037002e0090001040780020
:102eb4003cfe0700004f780027fe070079c2bf00e0
:102ec40001c8b300014060000004e000fbff3a00c9
:102ed4002e0090000000e800200798006e4090004b
:102ee4000040e900604798006e409000e14f4000c8
:102ef400edff3a0035fe070017fe07001e00fb0039
:102f04000080fa00000006000a00fa00404798001a
:102f14005147980032079800034f98000e489000dc
:102f24008080fb00400620000088b900100798004c
:102f34004e4090000080fb0000004000004f7800ed
:102f4400c1fd0700c2fd070009c2bf0001c8b300ec
:102f5400014060000004e000fbff3a001e407800de
:102f6400cefd070010479800b9fd070009c2bf0055
:102f740001c8b300014060000004e000fbff3a0018
:102f84005e409000c5fd070010479800b0fd0700a3
:102f940009c2bf0001c8b300014060000004e000a2
:102fa400fbff3a00aafd07000afe0700a8fd070080
:102fb40009c2bf0001c8b300014060000004e00082
:102fc400fbff3a004e4090000080fb0000004000f0
:102fd400804078000104a000014f78001e40780072
:102fe400aefd07009afd070009c2bf0001c8b30087
:102ff400014060000004e000fbff3a001e01900065
:103004000e4890000080fb00be009000f3fd070016
:103014008ffd070017fe07008dfd0700a9fd0700bf
:103024008bfd07001e4090000000fb000080fa00aa
:10303400000006000a00fa00404798005147980033
:1030440032079800034f98000e4890008080fb00e0
:10305400400620000088b900100798004e409000f8
:103064000080fb0000004000004f780097fd07003f
:1030740098fd070019c2bf0001c8b30001406000f9
:103084000004e000fbff3a001e407800a4fd0700a6
:10309400104798008ffd070019c2bf0001c8b30094
:1030a400014060000004e000fbff3a005e40900035
:1030b4009bfd07001047980086fd070019c2bf005a
:1030c40001c8b300014060000004e000fbff3a00c7
:1030d400ebfd07007ffd070019c2bf0001c8b30064
:1030e400014060000004e000fbff3a004e40900005
:1030f4000080fb0000004000804078000104a00034
:10310400014f78001e40780085fd070071fd07001f
:1031140019c2bf0001c8b300014060000004e00010
:10312400fbff3a001e0190000e4890000080fb0057
:10313400be009000d4fd070066fd0700f8fd0700ff
:1031440064fd070080fd070062fd07001e4090003b
:103154000000fb000080fa00000006000a00fa00ec
:10316400404798005147980032079800034f980051
:103174000e4890008080fb00400620000088b900c3
:10318400100798004e4090000080fb0000004000b3
:10319400004f78006efd07006ffd070079c2bf0085
:1031a40001c8b300014060000004e000fbff3a00e6
:1031b4001e4078007bfd07001047980066fd07005d
:1031c40079c2bf0001c8b300014060000004e00000
:1031d400fbff3a005e40900072fd07001047980024
:1031e4005dfd070079c2bf0001c8b3000140600063
:1031f4000004e000fbff3a00ccfd070056fd070089
:1032040079c2bf0001c8b300014060000004e000bf
:10321400fbff3a004e4090000080fb00000040009d
:10322400804078000104a000014f78001e4078001f
:103234005cfd070048fd070079c2bf0001c8b30068
:10324400014060000004e000fbff3a001e01900012
:103254000e4890000080fb00be009000b5fd070002
:103264003dfd0700d9fd07003bfd070057fd0700a2
:1032740039fd07001e4090000000fb000080fa00aa
:10328400000006001000fa00204f98006207980022
:10329400730798000000eb00400798006000b80036
:1032a400200798003107980000902000d1032000e7
:1032b400008fbe0087060700008fbe001e00be0000
:1032c4005af907006e019000fe01900000fa070011
:1032d40002002000a34724007ff90700e1f907005a
:1032e40020079800310798002e019000be0190003d
:1032f400e0ff2f0001002000800f5100818f590052
:10330400030036000080eb004007980002003700fd
:103314002e009000400798002e48900067406000ff
:10332400674060004201dd001119200091407800df
:1033340030ceb30000c060000240700091e1b700dd
:10334400011920009140780080cfb30000c06000d4
:103354006040b30090e1b7004e009000a00c8800dc
:1033640092c1bf00f041b30092e1b7000080fa00bf
:10337400000006000e00fa0050079800610798004c
:103384000000eb00400798006000b8002007980098
:103394003107980000902000d1032000008fbe0068
:1033a4004c060700008fbe001e00be001ff9070078
:1033b4005e019000ee019000c5f9070002002000b4
:1033c400a347240044f90700a6f907002007980042
:1033d400310798002e019000be019000e0ff2f00fd
:1033e40001002000800f5100818f59000300360036
:1033f4000080eb0040079800020037002e00900088
:10340400400798004e009000b00c88000080fa003d
:10341400000006001000fa00204f98006207980090
:10342400730798000000eb00400798006000b800a4
:10343400200798003107980000902000d103200055
:10344400008fbe0023060700008fbe001e00be00d2
:10345400f6f807006e019000fe0190009cf9070049
:1034640002002000a34724001bf907007df9070090
:1034740020079800310798002e019000be019000ab
:10348400e0ff2f0001002000800f5100818f5900c0
:10349400030036000080eb0040079800020037006c
:1034a4002e009000400798002e489000674060006e
:1034b400674060004201dd00b119200091407800ae
:1034c40030ceb30000c06000024070009be1b70042
:1034d400a11920009140780080cfb30000c06000a3
:1034e4006040b3009ae1b7004e009000f00c8800f1
:1034f4009cc1bf00f041b3009ce1b7000080fa001a
:10350400000006000e00fa005007980061079800ba
:103514000000eb00400798006000b8002007980006
:103524003107980000902000d1032000008fbe00d6
:10353400e8050700008fbe001e00be00bbf80700b0
:103544005e019000ee01900061f907000200200086
:10355400a3472400e0f8070042f907002007980079
:10356400310798002e019000be019000e0ff2f006b
:1035740001002000800f5100818f590003003600a4
:103584000080eb0040079800020037002e009000f6
:10359400400798004e009000000d88000080fa005b
:1035a400000006001000fa00204f980062079800ff
:1035b400730798000000eb00400798006000b80013
:1035c400200798003107980000902000d1032000c4
:1035d400008fbe00bf050700008fbe001e00be00a6
:1035e40092f807006e019000fe01900038f9070080
:1035f40002002000a3472400b7f8070019f90700c8
:1036040020079800310798002e019000be01900019
:10361400e0ff2f0001002000800f5100818f59002e
:10362400030036000080eb004007980002003700da
:103634002e009000400798002e48900067406000dc
:10364400674060004201dd00511a2000914078007b
:1036540030ceb30000c0600002407000a5e1b700a6
:10366400411a20009140780080cfb30000c0600070
:103674006040b300a4e1b7004e009000400d880004
:10368400a6c1bf00f041b300a6e1b7000080fa0074
:10369400000006000e00fa00500798006107980029
:1036a4000000eb00400798006000b8002007980075
:1036b4003107980000902000d1032000008fbe0045
:1036c40084050700008fbe001e00be0057f80700e7
:1036d4005e019000ee019000fdf80700020020005a
:1036e400a34724007cf80700def8070020079800b1
:1036f400310798002e019000be019000e0ff2f00da
:1037040001002000800f5100818f59000300360012
:103714000080eb0040079800020037002e00900064
:10372400400798004e009000500d88000080fa0079
:10373400000006001000fa00204f9800620798006d
:10374400730798000000eb00400798006000b80081
:10375400200798003107980000902000d103200032
:10376400008fbe005b050700008fbe001e00be0078
:103774002ef807006e019000fe019000d4f80700b7
:1037840002002000a347240053f80700b5f80700ff
:1037940020079800310798002e019000be01900088
:1037a400e0ff2f0001002000800f5100818f59009d
:1037b400030036000080eb00400798000200370049
:1037c4002e009000400798002e489000674060004b
:1037d400674060004201dd00f11a2000914078004a
:1037e40030ceb30000c0600002407000afe1b7000b
:1037f400e11a20009140780080cfb30000c060003f
:103804006040b300aee1b7004e009000900d880018
:10381400b0c1bf00f041b300b0e1b7000080fa00ce
:10382400000006000e00fa00500798006107980097
:103834000000eb00400798006000b80020079800e3
:103844003107980000902000d1032000008fbe00b3
:1038540020050700008fbe001e00be00f3f707001e
:103864005e019000ee01900099f80700020020002c
:10387400a347240018f807007af8070020079800e7
:10388400310798002e019000be019000e0ff2f0048
:1038940001002000800f5100818f59000300360081
:1038a4000080eb0040079800020037002e009000d3
:1038b400400798004e009000a00d88000080fa0098
:1038c400000006001000fa005007980061079800f5
:1038d400624f98000000eb00400798006000b800b9
:1038e400200798003107980000902000d1032000a1
:1038f400008fbe00f7040700008fbe001e00be004c
:10390400caf707005e019000ee01900070f807000e
:1039140002002000a3472400eff7070051f8070036
:1039240020079800310798002e019000be019000f6
:10393400e0ff2f0001002000800f5100818f59000b
:10394400030036000080eb004007980002003700b7
:103954002e009000400798006e4890000004e0009c
:1039640010003200ee48900070cfb30000c0600039
:10397400604f98006e4890006740600067406000a8
:103984004401dd00510a200091407800f0c8b300e2
:1039940000c0600002407000a5e0b7008460a90088
:1039a4009460a8000000eb00200888000000eb00f1
:1039b400000888004e009000100888004110200084
:1039c40091407800f0ccb30000c0600004e1b7007f
:1039d4000421a90005e1a8000080fa000000060007
:1039e4001000fa005007980061079800624f980091
:1039f4000000eb00400798006000b8002007980022
:103a04003107980000902000d1032000008fbe00f1
:103a1400b0040700008fbe001e00be0083f707003d
:103a24005e019000ee01900029f8070002002000da
:103a3400a3472400a8f707000af807002007980006
:103a4400310798002e019000be019000e0ff2f0086
:103a540001002000800f5100818f590003003600bf
:103a64000080eb0040079800020037002e00900011
:103a7400400798006e4890000004e00010003200f7
:103a8400ee48900070cfb30000c06000604f980013
:103a94006e48900067406000674060004401dd00ac
:103aa400710a200091407800f0c8b30000c06000a3
:103ab40002407000a7e0b70084e0a90094e0a800e9
:103ac4000000eb00800888000000eb00300888004c
:103ad4004e00900060088800011120009140780099
:103ae400f0ccb30000c0600010e1b7001021a900c1
:103af40011e1a8000080fa00000006001000fa009e
:103b04005007980061079800624f98000000eb008e
:103b1400400798006000b80020079800310798001b
:103b240000902000d1032000008fbe00690407002c
:103b3400008fbe001e00be003cf707005e0190002f
:103b4400ee019000e2f7070002002000a3472400e2
:103b540061f70700c3f707002007980031079800b2
:103b64002e019000be019000e0ff2f000100200014
:103b7400800f5100818f5900030036000080eb0054
:103b840040079800020037002e009000400798007c
:103b94006e4890000004e0000f003200ee489000f0
:103ba40070cfb30000c06000604f98006e48900072
:103bb4006740600067416000810a200091407800fe
:103bc40080cfb30000c0600002407000a8e0b700de
:103bd4008500a9009500a8000000eb00900888006b
:103be4000000eb00500888004e0090007008880028
:103bf4002111200091407800f0ccb30000c0600097
:103c040012e1b7001221a90013e1a8000080fa0014
:103c1400000006000e00fa004007980051079800c3
:103c2400424f98006000b8002007980031079800c0
:103c340000902000d1032000008fbe00250407005f
:103c4400008fbe001e00be00f8f607004e01900073
:103c5400de0190009ef7070002002000a347240025
:103c64001df707007ff70700200798003107980029
:103c74000000eb00800888000000eb00900888003a
:103c84000000eb00300888000000eb0050088800ba
:103c94001061a8004e4890000004e0000f003200bc
:103ca400ce48900070cfb30000c06000404f980031
:103cb4004e4890006740600067416000810a200020
:103cc4009140780080cfb30000c0600002407000d3
:103cd400a8e0b7008500a9009500a8002e00900078
:103ce400600888002e009000be0090004008de00ae
:103cf4000100200070088800011120009140780024
:103d0400f0ccb30000c0600010e1b7001021a9009e
:103d140011e1a8000080fa00000006000e00fa007d
:103d24004007980051079800424f98006000b8007f
:103d3400200798003107980000902000d10320004c
:103d4400008fbe00e3030700008fbe001e00be000c
:103d5400b6f607004e019000de0190005cf7070004
:103d640002002000a3472400dbf607003df707000c
:103d740020079800310798000000eb00f008880045
:103d84000000eb00000988000000eb00a008880098
:103d94000000eb00c00888001e61a8004e48900097
:103da4000004e0000f003200ce48900070cfb30052
:103db40000c06000404f98004e489000674060008b
:103dc40067416000210b20009140780080cfb30050
:103dd40000c0600002407000b2e0b7008780a90014
:103de4009780a8002e009000d00888002e00900034
:103df400be0090004008de0001002000e0088800ba
:103e0400e111200091407800f0ccb30000c06000c4
:103e14001ee1b7001e21a9001fe1a8000080fa00de
:103e2400000006000200fa00004f78001e80fb002c
:103e3400610060000004e00002003200c802a80033
:103e4400e204a9001e80fb000000d10061006000b4
:103e54000004e00002003200c822a800e224a90005
:103e64001e80fb004200de00610060000004e000f0
:103e740002003200c842a800e244a8001e80fb00f1
:103e84004300de00610060000004e0000200320034
:103e9400c862a800e264a8000080fa0000000600de
:103ea4000200fa00004f78001e80fb0061006000f1
:103eb4000004e00002003200e022a900e422a9008c
:103ec4001e80fb000000d100610060000004e000df
:103ed40002003200e042a900e442a9001e80fb0077
:103ee4004200de00610060000004e00002003200d5
:103ef400e062a900e462a9000080fa000000060064
:103f04000200fa00004f78001e80fb006100600090
:103f14000004e00008003200d962a900dd62a900b3
:103f2400c16c20009140780000ccb30000c0600058
:103f34002041b300cce6b7001e80fb004200de0047
:103f4400610060000004e00008003200d802a9000b
:103f5400dc02a900b16c20009140780000ccb300d1
:103f640000c060004041b300cbe6b7001e80fb00f8
:103f74004300de00610060000004e000080032003d
:103f8400d822a900dc22a900816d2000914078008c
:103f940000ccb30000c060005041b300d8e6b700c5
:103fa4000080fa00000006000200fa00004f7800ca
:103fb4001e80fb00610060000004e0000400320089
:103fc400c942a900c962a900cd42a900cd62a900d5
:103fd4001e80fb000000d100610060000004e000ce
:103fe40004003200c982a900c9a2a900cd82a90097
:103ff400cda2a9000080fa00000006000200fa0029
:10400400004f78001e80fb00610060000004e000a7
:1040140003003200e002a800e202a9000200370017
:10402400e002a900e202a9001e80fb000000d1000a
:10403400610060000004e00003003200e822a800f0
:10404400ea22a90002003700e822a900ea22a90016
:104054001e80fb004200de00610060000004e000fe
:1040640004003200ea04a900e802a800ea02a90058
:1040740003003700ea04a900e802a900ea02a90043
:104084000080fa00000006000000fa00e284a900a3
:10409400e2a4a900c882a800c8a2a900416a20001d
:1040a4009140780000ccb30000c06000c041b30070
:1040b400a4e6b700216d20009140780000ccb30045
:1040c40000c060003040b300d2e6b7000080fa00c0
:1040d400000006000000fa00e3e4a900e3c4a9001c
:1040e400c9e2a800c9c2a900616a20009140780011
:1040f40000ccb30000c06000d041b300a6e6b70016
:10410400e16c20009140780000ccb30000c0600056
:104114005040b300cee6b7000080fa00000006006d
:104124000000fa00d8a2a900d882a800d862a90089
:10413400d842a900416d20009140780000ccb30022
:1041440000c060009040b300d4e6b700816a20004c
:104154009140780000ccb30000c060009041b300ef
:10416400a8e6b700616d20009140780000ccb30050
:1041740000c060007040b300d6e6b700716d200047
:104184009140780000ccb30000c060000034a0006f
:10419400d7e6b7000080fa00000006000000fa002d
:1041a400ed24a900ed04a900ece4a900ecc4a900e5
:1041b400f122a900f102a800f0e2a900f0c2a900ce
:1041c400b16d20009140780000ccb30000c06000c5
:1041d400c040b300dbe6b700c16a2000914078001c
:1041e40000ccb30000c060003041b300ace6b700bf
:1041f400a16d20009140780000ccb30000c06000a5
:10420400a040b300dae6b700516d20009140780079
:1042140000ccb30000c06000b040b300d5e6b700e6
:104224000080fa00000006000000fa00113a800045
:10423400f00b200000816000610420007005200064
:1042440023742000814978008049780082497800ed
:10425400f1498000f0c0b30001000100014a800070
:1042640070c0b30001000100114a800030c0b300e7
:1042740001000100314a800070c0b3000100010058
:10428400404a800000000100504a80000000010004
:10429400604a800000000100704a800000000100b4
:1042a400113a8000000420000081700061042000a5
:1042b400700520002374200081497800804978002b
:1042c400824978000080fa00000006000000fa002d
:1042d40040f12100f049880020f52100004a8800bf
:1042e40060fd2100104a880020f82100204a88003f
:1042f40000002200304a880020092200604a880019
:10430400000d2200704a880060042200404a8800a0
:10431400c0062200504a880060112200804a8800aa
:104324000080fa0000000600d400fa000000eb0050
:10433400300798000000eb00200798000000eb0015
:10434400b041880000c3b3002c020700dfff070060
:104354001c010700113a8000f00b2000008160006e
:104364006104200070052000237420008149780036
:104374008049780082497800d822a900dc22a9006b
:10438400e16820009140780000ccb30000c06000d8
:10439400a040b3008ee6b700c16c200091407800c5
:1043a40000ccb30000c060002041b300cce6b700ed
:1043b400b16c20009140780000ccb30000c06000d4
:1043c40031c2b30001407000cbe6b700113a80005f
:1043d40000042000008170006104200070052000aa
:1043e400237420008149780080497800824978004c
:1043f4000000eb00b041880000002800200888007d
:1044040000002800800888004110200091407800b6
:10441400f0ccb30000c0600004e1b700011120003b
:1044240091407800f0ccb30000c060000044a000cc
:1044340010e1b70000002800900888000000280060
:10444400f0088800e111200091407800f0ccb3001e
:1044540000c060000044a0001ee1b700c0002000be
:10446400fdf7070010402200300798000000eb0021
:1044740020079800ae0090003e0090000bf8070063
:104484009f80a80000ff2500300f880040ff250012
:10449400200f8800111e20009140780030ceb30018
:1044a40000c06000e1e1b700e2c1bf00f041b30029
:1044b400e2e1b700011e20009140780080cfb300f4
:1044c40000c060006040b300e0e1b700e381a800f1
:1044d40002002000031a240070c0b30069fb070027
:1044e4006066260061fa2300a2fb0700e022a9000f
:1044f400e422a900e042a900e442a900e062a90084
:10450400e462a90020002000b041880010002000cf
:1045140010079800330037001e0090000000e800e8
:10452400800040008084200000804000100178005a
:104534001e00900080004000808420000080400025
:104544001000780000005100fe0f500020003600db
:104554001e0090000000e8008000400080842000dd
:1045640000804000100178001e0090008000400090
:1045740080842000008040001000780080005100fa
:10458400301f2000808f50000e003e001e0090005f
:104594000000e8008000400080842000008040008b
:1045a400100178001e0090008000400080842000ec
:1045b400008040001000780000005100e0498800ad
:1045c4000b00370070b62200e04988000200370073
:1045d40070b62200e04988001e0090000000e80048
:1045e400100798001e009000e40f5000caff34002a
:1045f400e149800070b62200808f50000d00320027
:1046040060010700e049800001802000801f7800dd
:1046140060502900801f780001007800f7ef070040
:10462400e48757000280200011c0b30010c0b3001b
:10463400d00007000000eb00104b8800800220002f
:10464400000f78000a0037001e007800cf80de00db
:1046540076f40700a2702d0033ca23001cf507006e
:1046640044fb070040012000290207001e0fe80058
:10467400300620009e0f1000f3ff34000a003700bc
:104684001e007800cf80de0068f40700a2702d00c1
:1046940033ca23000ef5070036fb07004001200053
:1046a4001b0207001e0fe900700220009e0f10007d
:1046b400f3ff3c0095ff37003600f800809fbe00f2
:1046c400829fbe00849fbe00869fbe000000fa0049
:1046d400e4c2bf000080fb004200de000004a20030
:1046e40061406000614060006140600061406000c2
:1046f4004201dd00412e200091407800b0cfb3008c
:1047040000c0600002407000e4e2b7006084200052
:1047140069f707003142800000002600808f5000b6
:104724001400360031428000f0ff2600808f5000d4
:1047340010003e00c04180000000e800c041880035
:10474400c04180003242800080004000808420000c
:104754000080400002087800c141800080072000ea
:10476400808f50000500340020032000c0418800e1
:10477400020037000000eb00c04188008420a9003b
:1047840010002000104b88000080fa004f03be0088
:104794004f02be004f01be004f00be003600f900bc
:1047a400004006000000fa008f80a9000080fa0093
:1047b400004006000000fa008460a9000080fa00ae
:1047c400004006000000fa0002c8b30000a821005f
:1047d40061002000eef8070080022000cc010700f1
:1047e40080c3b30064e9b70013c0b300429620004d
:1047f4008040eb00e0c3b30089f9070010002000fb
:10480400c301070090c3b30064e9b70013c0b30049
:10481400429620008040eb00e0c3b30080f907001b
:1048240010002000ba01070040c1b30064e9b700da
:1048340013c0b300429620008040eb00e0c3b300f5
:1048440077f9070010002000b101070080c7b3000a
:1048540064e9b70013c0b300429620008040eb0027
:10486400e0c3b3006ef9070010002000a8010700a0
:10487400d0c5b30064e9b70013c0b300429620006a
:104884008040eb00e0c3b30065f90700100020008e
:104894009f010700d0c6b30064e9b70013c0b3009a
:1048a400429620008040eb00e0c3b3005cf90700af
:1048b400800c200096010700c0c0b30064e9b70073
:1048c40013c0b300429620008040eb00e0c3b30065
:1048d40053f90700100020008d01070010c0b30039
:1048e40064e9b70013c0b300429620008040eb0097
:1048f400e0c3b3004af90700200020008401070048
:1049040060c0b30064e9b70013c0b300429620004e
:104914008040eb00e0c3b30041f90700a000200091
:104924007b01070090c3b30064e9b70013c0b30070
:10493400429620008040eb00e0c3b30038f9070042
:10494400100020007201070010c0b30064e9b70032
:1049540013c0b300429620008040eb00e0c3b300d4
:104964002ff9070020002000690107000080fa00e9
:10497400000006001a00fa004057980051579800aa
:10498400320f98000040eb00204798000040eb00f5
:10499400004f78004e509000e14f500002003a0062
:1049a40082000700010037008a00070080c3b300bb
:1049b40064e9b70013c0b300429620008040eb00c6
:1049c400e0c3b30016f907001000200050010700ef
:1049d4000040eb00104798000a00370040c1b300c4
:1049e40064e9b70013c0b300429620008040eb0096
:1049f400e0c3b3000af907001e4090000040e8003d
:104a0400104798001e4090008080fb005e5090008c
:104a14000080fb000000e900808f5000efff3500ac
:104a2400010037001e4fe8002e4090000080fb007c
:104a3400800078003e08900000804000104078001c
:104a4400005f98000e5890000004e000020032005d
:104a540010c0b300005f98000e589000ae40900064
:104a64008140e800214798000004e000edff3a008f
:104a74000040eb00204798009e80fb005e509000b1
:104a84000080fb0071001000808f500006003c0085
:104a94009e4178003e09900001c4b300e0c3b30016
:104aa400dff80700350037004e509000e14f50000a
:104ab4002a003a00de50900010c1b30001405000bb
:104ac400804178003e09900001c4b300e0c3b30004
:104ad400d3f80700de50900010c1b300014050002d
:104ae40010479800130037002e4090000081fb000f
:104af4001e4090000080fb00800078003e0890007b
:104b04000080400090407800630047000171780005
:104b14002e4090000040e800204798002e4090006e
:104b2400f04f5000060032001e4090000040e800a4
:104b3400104798001e4090009e4f5000eaff390035
:104b44002400070063014700ae41900001c4b30094
:104b5400e0c3b300b2f8070008003700de5090004d
:104b640010c1b30001405000804178003e0990001c
:104b740001c4b300e0c3b300a9f807000080fa0041
:104b8400000006000000fa0010c0b30064e9b7009a
:104b940013c0b300429620008040eb00e0c3b30092
:104ba4009ff807000080fa00000006000000fa00e9
:104bb40020c0b30064e9b70013c0b30042962000dc
:104bc4008040eb00e0c3b30095f807000080fa00d2
:104bd400000006000000fa0000ccb30064e9b7004e
:104be40013c0b300429620008040eb00e0c3b30042
:104bf4008bf807000080fa00000006000400fa00a9
:104c0400204798000040eb00104798000040eb005c
:104c1400004f780043c7bf000080fb004400de0063
:104c240067406000004f780010c0b3009e4f100032
:104c34000300320030c0b3009e4f100010003a0051
:104c44002e409000e34f500020003e00517420009d
:104c54009140780080cfb30000c0600045e7b70002
:104c64002e40900063406000c600dd0044c7bf00d2
:104c7400f043b2000140700044e7b700130037006e
:104c840070c0b3009e4f100010003a002e409000f8
:104c9400e74f50000d0036002e4090000080fb00ce
:104ca4004400de00104798001e40900067406000fa
:104cb40067416000517420009140780080cfb300b8
:104cc40000c060000240700045e7b7000080fa00b1
:104cd400000006000a00fa00889fbe000040eb00b6
:104ce400704798000040eb00604798000040eb00dc
:104cf400504798000040eb00404798000090200087
:104d0400d1032000008fbe0043c7bf000080fb001a
:104d14004400de00674060007047980044c7bf004d
:104d24000080fb004600de005047980045c7bf00e6
:104d340067406000404798007e4090000080fb0080
:104d4400400798004e009000e30f500037003200f7
:104d54004e009000e30f50000a003c004e0090000b
:104d6400e10f5000180032004e009000e10f500097
:104d74002a003c004e0090000000e0000e003200cb
:104d84005f0037004e009000e50f500040003200f5
:104d94004e009000e50f5000390035004e009000a1
:104da400e60f50003e0032004e009000e70f500026
:104db4003f0032005200370000902000d103200051
:104dc400008fbe004e00370000402200410f20003b
:104dd400008fbe005e4090008080fb001000200029
:104de4000100dd00604798001e00be008ff207003e
:104df4000004be006e4090000080fb00cf80de0007
:104e04008af207000001be000800be00b2f20700eb
:104e1400f3f20700008fbe00390037000090200035
:104e2400d1032000008fbe0035003700004022006f
:104e3400410f2000008fbe005e4090008080fb0088
:104e4400100020000100dd00604798001e00be0035
:104e540076f207000004be006e4090000080fb0064
:104e6400cf80de0071f207000001be000800be0022
:104e740099f20700daf20700008fbe002000370025
:104e84000000240001002000008fbe001c00370039
:104e9400c0c8230001002000008fbe0018003700a6
:104ea40000092d0031002000008fbe0014003700df
:104eb40000902000d1032000008fbe004e409000df
:104ec4008080fb00100020000100dd006047980096
:104ed4001e00be0055f207000004be006e409000a4
:104ee4000080fb00cf80de0050f207000001be000e
:104ef4000800be0078f20700b9f20700008fbe0078
:104f04001e00be004f04be000080fa000000060030
:104f14000a00fa00400798006000b80020079800d3
:104f2400310798006000b800008fbe0069ff0700d9
:104f340020079800310798002e009000be009000d2
:104f44003af2070002002000a347240062f207009f
:104f5400c4f20700008fbe00050037001e00be002b
:104f6400380007004e0090000000e9004007980058
:104f74004e0090000000e000f8ff3a000080fa00c4
:044f84000000060023
:020000040000fa
:104f8800520900000c000000800000003e090000eb
:104f980014000000800000005e0900000600000008
:104fa800820000000000000000000000000800006f
:104fb8003e010000800000006409000002000000bb
:104fc8008000000088090000120000008200000034
:104fd80001000200000400000800100000000000aa
:104fe800202b2d00233000009a0900000800000043
:104ff80082000000686a6c00747a4c0000000000af
:1050080066090000220000008200000030313200f2
:10501800333435003637380039616200636465001f
:105028006600300031323300343536003738390005
:1050380041424300444546000000000000000000d3
:020000040000fa
:10504800f03fb1000180b10006003500ee03090011
:1050580000000000403fb1000180b100fbff3d00af
:105068001000b000203fb0000200350000800900a9
:0850780000000000000006002a
:020000040000fa
:045080000000fe002e
:00000001FF
