:020000040000fa
:080000000002040000000000f2
:020000040000fa
:100400006f81200000ff270000018800000000002d
:100410000c000700e0d02000010020000f000700c2
:10042000000020000000e000020032000000020096
:1004300000000000660c0200000000000040da002e
:100440000000fe00000020000000e000020032007a
:10045000000020009001880000000600a102880032
:10046000800078000000eb001a003700e2804000b6
:1004700054a0b4009101ba00e280400054a0b4003e
:100480009102ba00e280400054a0b4000002eb00e8
:10049000472bde00f507b200a6018800602ce100c2
:1004a00008003a000049eb000201e80002003900b0
:1004b0003420ec0002f0a0008301e900f9ff3e00c7
:1004c000040037006128e100010032000082eb00e7
:1004d000040007001101ba000200e000e3ff3a0047
:1004e0000000060004d0a300e20f49001c00390000
:1004f000810278003549ba000201e80002003900a3
:100500003420ec0002f0a0008301e9000f0032006b
:100510002549ba000201e800020039003420ec004d
:1005200002f0a0008301e900080032000400e000ae
:100530000600320015c9ba000201e80002003900c5
:100540003420ec0002f0a0008301e9008180e80083
:1005500054a0b4000300e000e2ff3a0000000600ef
:100560009102ba00055978008301e900f7ff3200d3
:10057000c82ade00055978008301e900f3ff320044
:100580000400e000f1ff320011d9ba00eeff37009d
:1005900000080400000000003e0804000000000005
:1005a000dc080400000000006e08040000000000e9
:1005b0000609040000000000980904000000000083
:1005c000d6090400000000004c09040000000000ef
:1005d00072090400000000001c0a04000000000072
:1005e000889fbe008a9fbe00010578000100e000e0
:1005f0000400350008003c000000e000200032004c
:100600000500370060001000e080180002003b0089
:1006100001f02c001a0037000004be006011b80081
:100620006b0920000982cf00020039000882cf0048
:100630000441b000694252000e00320008003b0045
:1006400082817100610164008904d1000884d300b3
:100650008b05e8000442e800f9ff3a000500370086
:100660000804440089844c008b05e9000442e90039
:10067000fbff3a00b70007000af0a70001f0a00056
:100680004f05be004f04be0000000600889fbe005c
:100690008a9fbe008c1f7800d4000700db00330067
:1006a00003866c006450e1002e0032006420e100fb
:1006b000330032006150e1002f0032006120e10080
:1006c0003100320085855500eb07b000090020009d
:1006d00008042000050037000804440089844c0009
:1006e0000a0031000603430087834b0000015300da
:1006f00081815b00f8ff33000203be000800a00008
:100700000804440089844c00f6ff3900c639dd0036
:100710008301730001003200130020008904d1001e
:100720000884d3000998a300050032000800a70040
:100730000300a0008904d1000884d3008b05e800e1
:100740008904d1000884d3000001eb000281d200ab
:100750008000070001f0a1000cf0a70001f0a0004c
:10076000b30037006420e100b50032000801be008c
:100770000200be00f7ff37006120e100b000320048
:100780006000b800f3ff37000000200001f82700e8
:10079000f0ff37000001be00ac0007000470a700a6
:1007a00003f0a1006509b100160032000d0035000c
:1007b0006828e10006003500f0ff2f00f1ff270058
:1007c0000300e00013003b000100280000000500ca
:1007d00000004000818048008502e900fcff3a00eb
:1007e00008003700f88f420002003c008000eb0058
:1007f000000005008100d1000080d3008502e800e0
:10080000fcff3a000300e00002003b006000100023
:10081000e0801800000006000001be008b00070009
:100820000470a70003f0a10003f8a30013003a002e
:100830006509b10010003200090035006928e100a7
:100840000200350001002800000005000000400003
:10085000818048008502e900fcff3a0000000600a4
:10086000f88f4200050035008100d1000080d300e0
:100870008502e800fcff3a00000006008000eb0063
:1008800000000500889fbe008a9fbe008c1f780074
:10089000560007005d00330003866c006450e100e1
:1008a000240032006420e100270032006150e100a2
:1008b000220032006120e100210032008b854200dd
:1008c000eb07b1000134b800003ab8000804420058
:1008d00089844a00013ab8000030b800888040009e
:1008e00009014a00040033000000400081804800f4
:1008f000020149008b05e900c909dd008301700090
:100900000100320013002000c814de004814dd008e
:100910004709de001200b200c808de00088470003b
:100920000c00070001f0a1000cf0a70001f0a000ee
:100930003f0037006120e100410032000801be00a5
:100940000200be00f7ff37006150e100fcff3a00f3
:100950003b00370081002000618055000b003d0006
:100960000b00200061fe2f000100e1001d0034009b
:1009700082817100610164008904d1000884d30080
:100980000000e800faff3a007100200061006400f6
:10099000030070000200600009003200610444009e
:1009a000e0844c000988a500050032008b05e800b2
:1009b0006808e10002003a008904d1000884d300ed
:1009c000f20f20000258e10005003d00c75ddd0088
:1009d000f907b20089807500080078000000060061
:1009e0000bf827008b007800000005000004be0013
:1009f000160007000003be000405be000200be0092
:100a000012000700844f7500000006000200be00bf
:100a10006450e100050036006420e1000200360069
:100a20000968a30001003a000800be000160a000b0
:100a30004f0678004f05be004f04be0000000600c0
:100a4000f0ff2f00f1ff2700f9ff3700c70ade0093
:100a5000f107b200f50fb20008003200e1cf42000a
:100a6000020032000170a00024000500810f700018
:100a7000010032000408050044000500810f7000e9
:100a800002003a00140005008502e9000000400061
:100a900081c04800fcff3b000170a000240005005d
:020000040000fa
:020000040005f5
:0457f800bf7f00006f
:020000040000fa
:020000040005f5
:0457fc007f3e0000ec
:020000040000fa
:100008001e0d00001e0d00001e0d00001e0d00003c
:100018001e0d00001e0d00001e0d00001e0d00002c
:100028001e0d00001e0d00001e0d0000fe0c00003d
:100038001e0d00001e0d00001e0d00001e0d00000c
:100048001e0d00001e0d00001e0d00001e0d0000fc
:100058001e0d00001e0d00001e0d00001e0d0000ec
:100068001e0d00001e0d00001e0d00001e0d0000dc
:100078001e0d00001e0d00001e0d00001e0d0000cc
:100088001e0d00001e0d00001e0d00001e0d0000bc
:100098001e0d00001e0d00001e0d00001e0d0000ac
:1000a8001e0d00001e0d00001e0d00001e0d00009c
:1000b8001e0d00001e0d00001e0d00001e0d00008c
:1000c8001e0d00001e0d00001e0d00001e0d00007c
:1000d8001e0d00001e0d00001e0d00001e0d00006c
:1000e8001e0d00001e0d00001e0d00001e0d00005c
:1000f8001e0d00001e0d00001e0d00001e0d00004c
:100108001e0d00001e0d00001e0d00001e0d00003b
:100118001e0d00001e0d00001e0d00001e0d00002b
:100128001e0d00001e0d00001e0d00001e0d00001b
:100138001e0d00001e0d00001e0d00001e0d00000b
:100148001e0d00001e0d00001e0d00001e0d0000fb
:100158001e0d00001e0d00001e0d00001e0d0000eb
:100168001e0d00001e0d00001e0d00001e0d0000db
:100178001e0d00001e0d00001e0d00001e0d0000cb
:100188001e0d00001e0d00001e0d00001e0d0000bb
:100198001e0d00001e0d00001e0d00001e0d0000ab
:1001a8001e0d00001e0d00001e0d00001e0d00009b
:1001b8001e0d00001e0d00001e0d00001e0d00008b
:1001c8001e0d00001e0d00001e0d00001e0d00007b
:1001d8001e0d00001e0d00001e0d00001e0d00006b
:1001e8001e0d00001e0d00001e0d00001e0d00005b
:0801f8001e0d00001e0d0000a9
:020000040000fa
:100208001e0d00001e0d00001e0d00001e0d00003a
:100218001e0d00001e0d00001e0d00001e0d00002a
:100228001e0d00001e0d00001e0d0000fe0c00003b
:100238001e0d00001e0d00001e0d00001e0d00000a
:100248001e0d00001e0d00001e0d00001e0d0000fa
:100258001e0d00001e0d00001e0d00001e0d0000ea
:100268001e0d00001e0d00001e0d00001e0d0000da
:100278001e0d00001e0d00001e0d00001e0d0000ca
:100288001e0d00001e0d00001e0d00001e0d0000ba
:100298001e0d00001e0d00001e0d00001e0d0000aa
:1002a8001e0d00001e0d00001e0d00001e0d00009a
:1002b8001e0d00001e0d00001e0d00001e0d00008a
:1002c8001e0d00001e0d00001e0d00001e0d00007a
:1002d8001e0d00001e0d00001e0d00001e0d00006a
:1002e8001e0d00001e0d00001e0d00001e0d00005a
:1002f8001e0d00001e0d00001e0d00001e0d00004a
:100308001e0d00001e0d00001e0d00001e0d000039
:100318001e0d00001e0d00001e0d00001e0d000029
:100328001e0d00001e0d00001e0d00001e0d000019
:100338001e0d00001e0d00001e0d00001e0d000009
:100348001e0d00001e0d00001e0d00001e0d0000f9
:100358001e0d00001e0d00001e0d00001e0d0000e9
:100368001e0d00001e0d00001e0d00001e0d0000d9
:100378001e0d00001e0d00001e0d00001e0d0000c9
:100388001e0d00001e0d00001e0d00001e0d0000b9
:100398001e0d00001e0d00001e0d00001e0d0000a9
:1003a8001e0d00001e0d00001e0d00001e0d000099
:1003b8001e0d00001e0d00001e0d00001e0d000089
:1003c8001e0d00001e0d00001e0d00001e0d000079
:1003d8001e0d00001e0d00001e0d00001e0d000069
:1003e8001e0d00001e0d00001e0d00001e0d000059
:0803f8001e0d00001e0d0000a7
:020000040000fa
:100aa0001000fa005007980061079800624f980004
:100ab0000000eb00400798006000b8002007980095
:100ac0003107980000902000d1032000008fbe0065
:100ad000d2020700008fbe001e00be00c0fe07004d
:100ae0005e019000ee01900066ff0700020020000a
:100af000a3472400e5fe070047ff070020079800f2
:100b0000310798002e019000be019000e0ff2f00f9
:100b100001002000800f5100818f59000300360032
:100b20000080eb0040079800020037002e00900084
:100b3000400798006e4890000004e000100032006a
:100b4000ee48900070cfb30000c06000604f980086
:100b50006e48900067406000674060004401dd001f
:100b6000510a200091407800f0c8b30000c0600036
:100b700002407000a5e0b7008460a9009460a8005e
:100b80000000eb00200888000000eb00000888004f
:100b90004e0090001008880041102000914078001d
:100ba000f0ccb30000c0600004e1b7000421a9004c
:100bb00005e1a8000080fa00000006001000fa001d
:100bc0005007980061079800624f98000000eb0002
:100bd000400798006000b80020079800310798008f
:100be00000902000d1032000008fbe008b02070080
:100bf000008fbe001e00be0079fe07005e0190005f
:100c0000ee0190001fff070002002000a347240010
:100c10009efe070000ff070020079800310798009c
:100c20002e019000be019000e0ff2f000100200087
:100c3000800f5100818f5900030036000080eb00c7
:100c400040079800020037002e00900040079800ef
:100c50006e4890000004e00010003200ee48900062
:100c600070cfb30000c06000604f98006e489000e5
:100c700067406000674060004401dd00710a2000a9
:100c800091407800f0c8b30000c0600002407000de
:100c9000a7e0b70084e0a90094e0a8000000eb0002
:100ca000800888000000eb00300888004e009000ab
:100cb000600888000111200091407800f0ccb3005a
:100cc00000c0600010e1b7001021a90011e1a800e8
:100cd0000080fa00000006001000fa00500798009b
:100ce00061079800624f98000000eb0040079800f1
:100cf0006000b8002007980031079800009020009d
:100d0000d1032000008fbe0044020700008fbe0008
:100d10001e00be0032fe07005e019000ee01900052
:100d2000d8fe070002002000a347240057fe07005a
:100d3000b9fe070020079800310798002e019000a7
:100d4000be019000e0ff2f0001002000800f510045
:100d5000818f5900030036000080eb0040079800a7
:100d6000020037002e009000400798006e48900067
:100d70000004e0000f003200ee48900070cfb30096
:100d800000c06000604f98006e48900067406000af
:100d900067416000810a20009140780080cfb30055
:100da00000c0600002407000a8e0b7008500a90004
:100db0009500a8000000eb00900888000000eb0000
:100dc000500888004e009000700888002111200013
:100dd00091407800f0ccb30000c0600012e1b70091
:100de0001221a90013e1a8000080fa00000006000b
:100df0000e00fa004007980051079800424f9800f3
:100e00006000b8002007980031079800009020008b
:100e1000d1032000008fbe0000020700008fbe003b
:100e20001e00be00eefd07004e019000de019000a6
:100e300094fe070002002000a347240013fe0700d1
:100e400075fe070020079800310798000000eb00ae
:100e5000800888000000eb00900888000000eb008c
:100e6000300888000000eb00500888001061a800de
:100e70004e4890000004e0000f003200ce48900081
:100e800070cfb30000c06000404f98004e48900003
:100e90006740600067416000810a2000914078004f
:100ea00080cfb30000c0600002407000a8e0b7002f
:100eb0008500a9009500a8002e0090006008880019
:100ec0002e009000be0090004008de0001002000cf
:100ed000700888000111200091407800f0ccb30028
:100ee00000c0600010e1b7001021a90011e1a800c6
:100ef0000080fa00000006000e00fa00400798008b
:100f000051079800424f98006000b80020079800f1
:100f10003107980000902000d1032000008fbe0010
:100f2000be010700008fbe001e00be00acfd070022
:100f30004e019000de01900052fe070002002000ea
:100f4000a3472400d1fd070033fe070020079800c7
:100f5000310798000000eb00f00888000000eb006b
:100f6000000988000000eb00a00888000000eb00ea
:100f7000c00888001e61a8004e4890000004e000f0
:100f80000f003200ce48900070cfb30000c0600068
:100f9000404f98004e4890006740600067416000f5
:100fa000210b20009140780080cfb30000c060008a
:100fb00002407000b2e0b7008780a9009780a800c7
:100fc0002e009000d00888002e009000be009000f7
:100fd0004008de0001002000e0088800e111200048
:100fe00091407800f0ccb30000c060001ee1b70073
:100ff0001e21a9001fe1a8000080fa0000000600e1
:101000000200fa00004f78001e80fb0061006000c3
:101010000004e00002003200c802a800e204a800b8
:101020001e80fb000000d100610060000004e000b1
:1010300002003200c822a800e224a8001e80fb00a3
:101040004200de00610060000004e00002003200a7
:10105000c842a800e244a8001e80fb004300de0056
:10106000610060000004e00002003200c862a800d5
:10107000e264a8000080fa00000006000200fa0006
:10108000004f78001e80fb00610060000004e0005b
:1010900002003200e022a900e422a9001e80fb0029
:1010a0000000d100610060000004e0000200320096
:1010b000e042a900e442a9001e80fb004200de00dd
:1010c000610060000004e00002003200e062a9005c
:1010d000e462a9000080fa00000006000200fa00a5
:1010e000004f78001e80fb00610060000004e000fb
:1010f00008003200d962a900dd62a900c16c20009d
:101100009140780000ccb30000c060002041b300e3
:10111000cce6b7001e80fb000000d100610060003b
:101120000004e00008003200d902a900dd02a90095
:10113000216c20009140780000ccb30000c060001a
:101140003041b300c2e6b7001e80fb004200de0063
:10115000610060000004e00008003200d802a9002d
:10116000dc02a900b16c20009140780000ccb300f3
:1011700000c060004041b300cbe6b7001e80fb001a
:101180004300de00610060000004e000080032005f
:10119000d822a900dc22a900816d200091407800ae
:1011a00000ccb30000c060005041b300d8e6b700e7
:1011b0000080fa00000006000200fa00004f7800ec
:1011c0001e80fb00610060000004e00004003200ab
:1011d000c942a900c962a900cd42a900cd62a900f7
:1011e0001e80fb000000d100610060000004e000f0
:1011f00004003200c982a900c9a2a900cd82a900b9
:10120000cda2a9000080fa00000006000200fa004a
:10121000004f78001e80fb00610060000004e000c9
:1012200003003200e002a800e202a9000200370039
:10123000e002a900e202a9001e80fb000000d1002c
:10124000610060000004e00003003200e822a80012
:10125000ea22a90002003700e822a900ea22a90038
:101260001e80fb004200de00610060000004e00020
:1012700004003200ea04a900e802a800ea02a9007a
:1012800003003700ea04a900e802a900ea02a90065
:101290000080fa00000006000000fa00e284a900c5
:1012a000e2a4a900c882a800c8a2a900416a20003f
:1012b0009140780000ccb30000c06000c041b30092
:1012c000a4e6b700216d20009140780000ccb30067
:1012d00000c060003040b300d2e6b7000080fa00e2
:1012e000000006000000fa00e3e4a900e3c4a9003e
:1012f000c9e2a800c9c2a900616a20009140780033
:1013000000ccb30000c06000d041b300a6e6b70037
:10131000e16c20009140780000ccb30000c0600078
:101320005040b300cee6b7000080fa00000006008f
:101330000000fa00d8a2a900d882a800d862a900ab
:10134000d842a900416d20009140780000ccb30044
:1013500000c060009040b300d4e6b700816a20006e
:101360009140780000ccb30000c060009041b30011
:10137000a8e6b700616d20009140780000ccb30072
:1013800000c060007040b300d6e6b700716d200069
:101390009140780000ccb30000c060000034a00091
:1013a000d7e6b7000080fa00000006000000fa004f
:1013b000ed24a900ed04a900ece4a900ecc4a90007
:1013c000f122a900f102a800f0e2a900f0c2a900f0
:1013d000b16d20009140780000ccb30000c06000e7
:1013e000c040b300dbe6b700c16a2000914078003e
:1013f00000ccb30000c060003041b300ace6b700e1
:10140000a16d20009140780000ccb30000c06000c6
:10141000a040b300dae6b700516d2000914078009b
:1014200000ccb30000c06000b040b300d5e6b70008
:101430000080fa00000006000000fa00113a800067
:10144000f00b200000816000610420007005200086
:10145000237420008149780080497800824978000f
:1014600001408000f0c0b300010001001140800085
:1014700070c0b300010001002140800030c0b30003
:101480000100010031408000f0c0b3000100010004
:101490004140800070c0b300010001005040800056
:1014a00000000100604080000000010070408000ea
:1014b000000001008040800000000100113a80001f
:1014c00000042000008170006104200070052000ed
:1014d000237420008149780080497800824978008f
:1014e0000080fa00000006000000fa0000802000e2
:1014f00000408800e083200010408800c08d20005c
:1015000020408800e0862000304088006090200065
:10151000404088008099200070408800609d200035
:1015200080408800c0942000504088002097200010
:1015300060408800c0a12000904088000080fa0030
:10154000000006000400fa00204798000040eb006d
:10155000104798000040eb00004f780043c7bf00e1
:101560000080fb004400de0067406000004f780010
:1015700010c0b3009e4f10000300320030c0b30013
:101580009e4f100010003a002e409000e34f500094
:1015900020003e00517420009140780080cfb300bd
:1015a00000c0600045e7b7002e4090006340600037
:1015b000c600dd0044c7bf00f043b2000140700028
:1015c00044e7b7001300370070c0b3009e4f10000f
:1015d00010003a002e409000e74f50000d003600fa
:1015e0002e4090000080fb004400de001047980071
:1015f0001e40900067406000674160005174200009
:101600009140780080cfb30000c0600002407000bd
:1016100045e7b7000080fa00000006000a00fa0063
:10162000889fbe000040eb00704798000040eb0030
:10163000604798000040eb00504798000040eb00e6
:101640004047980000902000d1032000008fbe008a
:1016500043c7bf000080fb004400de00674060001d
:101660007047980044c7bf000080fb004600de00c2
:101670005047980045c7bf0067406000404798004a
:101680007e4090000080fb00400798004e009000d4
:10169000e30f5000370032004e009000e30f50007f
:1016a0000a003c004e009000e10f5000180032008c
:1016b0004e009000e10f50002a003c004e009000c8
:1016c0000000e0000e0032005f0037004e00900086
:1016d000e50f5000400032004e009000e50f500032
:1016e000390035004e009000e60f50003e003200f9
:1016f0004e009000e70f50003f00320052003700cc
:1017000000902000d1032000008fbe004e00370063
:1017100000402200410f2000008fbe005e4090007c
:101720008080fb00100020000100dd006047980071
:101730001e00be00aafb07000004be006e40900021
:101740000080fb00cf80de00a5fb07000001be008b
:101750000800be00cdfb07000efc0700008fbe0096
:101760003900370000902000d1032000008fbe0018
:101770003500370000402200410f2000008fbe00de
:101780005e4090008080fb00100020000100dd0022
:10179000604798001e00be0091fb07000004be00d9
:1017a0006e4090000080fb00cf80de008cfb0700c5
:1017b0000001be000800be00b4fb0700f5fb0700f7
:1017c000008fbe0020003700000024000100200030
:1017d000008fbe001c003700c0c82300010020009d
:1017e000008fbe001800370000092d0031002000d6
:1017f000008fbe001400370000902000d1032000ad
:10180000008fbe004e4090008080fb001000200042
:101810000100dd00604798001e00be0070fb07005d
:101820000004be006e4090000080fb00cf80de0010
:101830006bfb07000001be000800be0093fb070021
:10184000d4fb0700008fbe001e00be004f04be0088
:101850000080fa00000006000a00fa004007980025
:101860006000b80020079800310798006000b800b9
:10187000008fbe0069ff070020079800310798001d
:101880002e009000be00900055fb070002002000d3
:10189000a34724007dfb0700dffb0700008fbe008d
:1018a000050037001e00be00460007004e009000f5
:1018b0000000e900400798004e0090000000e000a2
:1018c000f8ff3a000080fa00000006000000fa006d
:1018d00000c5b3001bff070003ff07009040800016
:1018e0000000010092c0b30000002000a1472400c6
:1018f0006bfc070000003700a04080000000e00003
:10190000fdff32000000eb00a0408800e4c2bf00f1
:101910000080fb000000d1000004a20061406000d4
:101920006140600061406000614060000041400033
:10193000412e200091407800d0cfb30000c060005d
:1019400002407000e4e2b700e4c2bf000080fb0088
:101950004200de000004a2006140600061406000bf
:1019600061406000614060004201dd00412e2000c6
:1019700091407800b0cfb30000c06000024070001a
:10198000e4e2b700e4c2bf000080fb004300de00d9
:101990000004a2006140600061406000614060009e
:1019a000614060004301dd00412e2000914078003d
:1019b00070cfb30000c0600002407000e4e2b700e6
:1019c000cdff3700f03fb1000180b10006003500c7
:1019d000ee03090000000000403fb1000180b100ab
:1019e000fbff3d001000b000203fb00002003500ba
:1019f000008009000000000000000600801f780041
:101a00000000fa008460a90010c0b30014e8b70019
:0c1a10000080fa004f0078000040060043
:020000040000fa
:101a1c00140800000200000082000000000000001a
:101a2c00000800001400000080000000000000000e
:020000040000fa
:041a3c000000fe00a8
:00000001FF
