:0400000051EF00F0CC
:0C000800FACF13F0FBCF14F0A8EF0AF0C1
:10001800D8CF01F0E8CF02F0E0CF03F0FACF04F038
:10002800FBCF05F0E9CF06F0EACF07F0E1CF08F003
:10003800E2CF09F0D9CF0AF0DACF0BF0F3CF0CF00A
:10004800F4CF0DF0F6CF0EF0F7CF0FF0F8CF10F099
:10005800F5CF11F011C0F5FF10C0F8FF0FC0F7FF82
:100068000EC0F6FF0DC0F4FF0CC0F3FF0BC0DAFFA3
:100078000AC0D9FF09C0E2FF08C0E1FF07C0EAFFD4
:1000880006C0E9FF05C0FBFF04C0FAFF03C0E0FF9C
:0E00980002C0E8FF01C0D8FF1000EFEF0AF031
:1010000000E616000000000000000000003A2C7E00
:101010000000000000000000AAB33E98BADCFEC148
:10102000C4C5C6C78081828384C4C780818283840B
:101030008586878484848484848C9CBC0084848496
:1010400084CCCCCCA5CDA7083E7DFA3264C8C8C8F4
:10105000C8C1C2C3C4C5C6C78081060D193264C8E1
:10106000C8C8C8C0C1C2C3C4C5000000003A00005F
:10107000216E000E000100019D6F21500001000152
:101080009B51800A800F0BE1000E00019A5D07E181
:10109000000E0001995D03E1000E0001985DD8B0DB
:1010A00016D0000100019B1F00019A1F0001991F2B
:1010B0000001986D000E0001992300019A230001A0
:1010C0009B23216E010E000100019D6F2150000144
:1010D00000019751800A800F0BE1000E0001965D20
:1010E00007E1000E0001955D03E1000E0001945D33
:1010F000D8B014D000010001971F0001961F000115
:10110000951F0001946D000E0001952300019623A8
:1011100000019723010E000100019D1B000E00013C
:1011200000019E6F000E00019F6F000E0001A06F76
:10113000000E0001A16F000100019B51981199114F
:101140009A11D8B465D0216E010E000100019C6F88
:1011500021500DD00001D890000198370001993737
:1011600000019A3700019B37000100019C2B000110
:1011700000019BAFEFD70001D89000019E3700011E
:101180009F370001A0370001A137000100019851ED
:1011900000010001945D000100019951000100016E
:1011A0009559000100019A51000100019659000172
:1011B00000019B51000100019759D8A01BD00001EC
:1011C0000001985100010001945F00010001995154
:1011D00000010001955B000100019A51000100012E
:1011E000965B000100019B5100010001975B00012B
:1011F00000019E810001D89000019B3300019A33C9
:101200000001993300019833000100019C2FB3D7EE
:10121000000100019D51D8B410D000010001A11FB0
:101220000001A01F00019F1F00019E6D000E000124
:101230009F230001A0230001A1239EC094F09FC022
:1012400095F0A0C096F0A1C097F0120001D80CD084
:101250000500FA6E000100016C51FD6E00016D5138
:10126000FE6EFF6AFA5012000F010F013A9D949C26
:10127000010EF66E100EF76E000EF86E0900F5CF37
:10128000B4F00900F5CFB5F001D80AD00500FA6E28
:101290000001B451FD6EB551FE6EFF6AFA501200A6
:1012A000800E00010001A26F250E0001A36F000E49
:1012B0000001A46F000E0001A56F01D809D0050040
:1012C000FA6E2250FD6E2350FE6EFF6AFA50120035
:1012D00001D80DD00500FA6E000100018251FD6EAB
:1012E00000018351FE6EFF6AFA50010E120001D810
:1012F0000DD00500FA6E000100017851FD6E00016D
:101300007951FE6EFF6AFA50000E1200F2A4FED769
:10131000F2948BBC02D0010E01D0000E0001B46F1C
:101320000001B43BB447B4478B500001B419BF0B64
:10133000B4198B6E35C037F036C038F0000E366EFB
:10134000000E356E37C03BF038C03CF038503D6E73
:101350003E6A000E00010001956F3B0E0001000186
:10136000946F0001B46F020E00010001966F00013E
:10137000B45101D8CBD70500FA6E2650FD6E275028
:10138000FE6EFF6AFA50120001D80CD00500FA6E0A
:10139000000100017451FD6E00017551FE6EFF6A7F
:1013A000FA50120094C0AEF095C0AFF096C0B0F005
:1013B00097C0B1F0AEC094F0AFC095F0B0C096F059
:1013C000B1C097F00001A2C0A6F00001A3C0A7F031
:1013D0000001A4C0A8F00001A5C0A9F0020ED89099
:1013E0000001A637A737A837A937E82EF8D7A6C037
:1013F00098F0A7C099F0A8C09AF0A9C09BF038EC6B
:1014000008F094C0AAF095C0ABF096C0ACF097C0BD
:10141000ADF0FF0E0001AA2500010001B26FFF0E22
:101420000001AB210001B36F00010001B351800A3C
:10143000800F010ED8B4B25DD8A01200B886AC847B
:10144000AC980001B3C0A6F0A6C0A7F00001A86B3D
:101450000001A751B06EB2C0AFFF0F010F013A9D5E
:101460000F010F013A9F948C948EAC8AAB88AB8E9F
:10147000120001D80CD00500FA6E00010001745171
:10148000FD6E00017551FE6EFF6AFA50120094C0A5
:10149000AEF095C0AFF096C0B0F097C0B1F0AEC05E
:1014A00094F0AFC095F0B0C096F0B1C097F00001D5
:1014B000A2C0A6F00001A3C0A7F00001A4C0A8F03C
:1014C0000001A5C0A9F0020ED8900001A637A737E9
:1014D000A837A937E82EF8D7A6C098F0A7C099F08A
:1014E000A8C09AF0A9C09BF038EC08F094C0AAF00C
:1014F00095C0ABF096C0ACF097C0ADF0FF0E000108
:10150000AA2500010001B26FFF0E0001AB2100010E
:10151000B36F00010001B351800A800F010ED8B4EF
:10152000B25DD8A012007086728472980001B3C0B8
:10153000A6F0A6C0A7F00001A86B0001A751766E27
:10154000B2C075FF938C938E728A7188718E12006F
:10155000E9CF15F0EACF16F0E1CF17F0E2CF18F09F
:10156000D9CF19F0DACF1AF0F3CF1BF0F4CF1CF07B
:10157000F6CF1DF0F7CF1EF0F8CF1FF0F5CF20F01B
:10158000F0A010D081A203D0126A122A01D0126AF0
:101590001250336E346A000E346E010E336E354ACB
:1015A000362AF09020C0F5FF1FC0F8FF1EC0F7FFDD
:1015B0001DC0F6FF1CC0F4FF1BC0F3FF1AC0DAFF0A
:1015C00019C0D9FF18C0E2FF17C0E1FF16C0EAFF3B
:1015D00015C0E9FF14C0FBFF13C0FAFF110000EEB5
:1015E00033F00C0EEE6AE806FDE1300EF66E160ED4
:1015F000F76E000EF86E00EE60F010EE34F00900A9
:10160000F5CFEEFFE550E150FAE1480EF66E170E09
:10161000F76E000EF86E00EE22F010EE11F00900E9
:10162000F5CFEEFFE550E150FAE1000126EF09F0B9
:10163000000000000000000000000000C4160000D0
:1016400000000000361700001E1700000000000018
:10165000000004170000000088130000641600005A
:1016600000000000000100019651D8B412000CD017
:10167000ACA2FED794C0D9FF95C0DAFFDF50AD6EA3
:1016800000010001944B952B000100019607000119
:101690009629D8B41200ECD700019650D8B41200A5
:1016A0000BD072A2FED794C0D9FF95C0DAFFDF50ED
:1016B000736E0001944A952A000196069628D8B4C4
:1016C0001200EFD7D3508C0B6209D36E216E060E39
:1016D000326E2150000E2E6E120E2F6E7A0E306E6C
:1016E000000E316E12003250010D290EF324F66EF9
:1016F000100EF420F76EF86A000EF8220800F5CFFD
:10170000D5FF1200E8CF21F0F09021B002D0F09C7C
:1017100001D0F08CF086D08EF28EF28C1200E8CFE1
:1017200021F00F010F013993938221B002D0F19A79
:1017300001D0F18A12002EC094F02FC095F030C075
:1017400096F031C097F01200721400009816000055
:0A1750000000000040420F000300FB
:020000040020DA
:08000000FFFFFFFFFFFFFFFF00
:020000040030CA
:0E000000FF291F3CFFBF81FF0FC00FE00F4024
:00000001FF
