:020000040000fa
:080000000002040000000000f2
:020000040000fa
:100400006f8120000eff27000e0188000000000011
:100410000c00070080642000010020000f0007008e
:10042000000020000000e000020032000000020096
:100430000000000096050200000000000040da0005
:100440000000fe00000020000000e000020032007a
:10045000000020009001880000000600a102880032
:10046000800078000000eb001a003700e2804000b6
:1004700054a0b4009101ba00e280400054a0b4003e
:100480009102ba00e280400054a0b4000002eb00e8
:10049000472bde00f507b200a6018800602ce100c2
:1004a00008003a000049eb000201e80002003900b0
:1004b0003420ec0002f0a0008301e900f9ff3e00c7
:1004c000040037006128e100010032000082eb00e7
:1004d000040007001101ba000200e000e3ff3a0047
:1004e0000000060004d0a300e20f49001c00390000
:1004f000810278003549ba000201e80002003900a3
:100500003420ec0002f0a0008301e9000f0032006b
:100510002549ba000201e800020039003420ec004d
:1005200002f0a0008301e900080032000400e000ae
:100530000600320015c9ba000201e80002003900c5
:100540003420ec0002f0a0008301e9008180e80083
:1005500054a0b4000300e000e2ff3a0000000600ef
:100560009102ba00055978008301e900f7ff3200d3
:10057000c82ade00055978008301e900f3ff320044
:100580000400e000f1ff320011d9ba00eeff37009d
:10059000f402040000000000320304000000000028
:1005a000d00304000000000062030400000000000b
:1005b000fa030400000000008c04040000000000a6
:1005c000ca04040000000000400404000000000011
:1005d0006604040000000000100504000000000094
:0805e0000040da000000fe00fb
:020000040000fa
:020000040005f5
:0457f800bf7f00006f
:020000040000fa
:020000040005f5
:0457fc007f3e0000ec
:020000040000fa
:10000800f0020000f0020000f0020000f002000020
:10001800f0020000f0020000f0020000f002000010
:10002800f0020000f0020000f0020000f002000000
:10003800f0020000f0020000f0020000f0020000f0
:10004800f0020000f0020000f0020000f0020000e0
:10005800f0020000f0020000f0020000f0020000d0
:10006800f0020000f0020000f00200003806000074
:10007800f0020000f0020000f0020000f0020000b0
:10008800f0020000f0020000f0020000f0020000a0
:10009800f0020000f0020000f0020000f002000090
:1000a800f0020000f0020000f0020000f002000080
:1000b800f0020000f0020000f0020000f002000070
:1000c800f0020000f0020000f0020000f002000060
:1000d800f0020000f0020000f0020000f002000050
:1000e800f0020000f0020000f0020000f002000040
:1000f800f0020000f0020000f0020000f002000030
:10010800f0020000f0020000f0020000f00200001f
:10011800f0020000f0020000f0020000f00200000f
:10012800f0020000f0020000f0020000f0020000ff
:10013800f0020000f0020000f0020000f0020000ef
:10014800f0020000f0020000f0020000f0020000df
:10015800f0020000f0020000f0020000f0020000cf
:10016800f0020000f0020000f0020000f0020000bf
:10017800f0020000f0020000f0020000f0020000af
:10018800f0020000f0020000f0020000f00200009f
:10019800f0020000f0020000f0020000f00200008f
:1001a800f0020000f0020000f0020000f00200007f
:1001b800f0020000f0020000f0020000f00200006f
:1001c800f0020000f0020000f0020000f00200005f
:1001d800f0020000f0020000f0020000f00200004f
:1001e800f0020000f0020000f0020000f00200003f
:0801f800f0020000f00200001b
:020000040000fa
:10020800f0020000f0020000f0020000f00200001e
:10021800f0020000f0020000f0020000f00200000e
:10022800f0020000f0020000f0020000f0020000fe
:10023800f0020000f0020000f0020000f0020000ee
:10024800f0020000f0020000f0020000f0020000de
:10025800f0020000f0020000f0020000f0020000ce
:10026800f0020000f0020000f00200003806000072
:10027800f0020000f0020000f0020000f0020000ae
:10028800f0020000f0020000f0020000f00200009e
:10029800f0020000f0020000f0020000f00200008e
:1002a800f0020000f0020000f0020000f00200007e
:1002b800f0020000f0020000f0020000f00200006e
:1002c800f0020000f0020000f0020000f00200005e
:1002d800f0020000f0020000f0020000f00200004e
:1002e800f0020000f0020000f0020000f00200003e
:1002f800f0020000f0020000f0020000f00200002e
:10030800f0020000f0020000f0020000f00200001d
:10031800f0020000f0020000f0020000f00200000d
:10032800f0020000f0020000f0020000f0020000fd
:10033800f0020000f0020000f0020000f0020000ed
:10034800f0020000f0020000f0020000f0020000dd
:10035800f0020000f0020000f0020000f0020000cd
:10036800f0020000f0020000f0020000f0020000bd
:10037800f0020000f0020000f0020000f0020000ad
:10038800f0020000f0020000f0020000f00200009d
:10039800f0020000f0020000f0020000f00200008d
:1003a800f0020000f0020000f0020000f00200007d
:1003b800f0020000f0020000f0020000f00200006d
:1003c800f0020000f0020000f0020000f00200005d
:1003d800f0020000f0020000f0020000f00200004d
:1003e800f0020000f0020000f0020000f00200003d
:0803f800f0020000f002000019
:020000040000fa
:1005e8000200fa00004f78001e80fb0061006000e6
:1005f8000004e00002003200c802a800e204a800db
:100608001e80fb000000d100610060000004e000d3
:1006180002003200c822a800e224a8001e80fb00c5
:100628004200de00610060000004e00002003200c9
:10063800c842a800e244a8001e80fb004300de0078
:10064800610060000004e00002003200c862a800f7
:10065800e264a8000080fa00000006000200fa0028
:10066800004f78001e80fb00610060000004e0007d
:1006780002003200e022a900e422a9001e80fb004b
:100688000000d100610060000004e00002003200b8
:10069800e042a900e442a9001e80fb004200de00ff
:1006a800610060000004e00002003200e062a9007e
:1006b800e462a9000080fa00000006000200fa00c7
:1006c800004f78001e80fb00610060000004e0001d
:1006d80008003200d962a900dd62a900c16c2000bf
:1006e8009140780000ccb30000c060002041b30006
:1006f800cce6b7001e80fb000000d100610060005e
:100708000004e00008003200d902a900dd02a900b7
:10071800216c20009140780000ccb30000c060003c
:100728003041b300c2e6b7001e80fb004200de0085
:10073800610060000004e00008003200d802a9004f
:10074800dc02a900b16c20009140780000ccb30015
:1007580000c060004041b300cbe6b7001e80fb003c
:100768004300de00610060000004e0000800320081
:10077800d822a900dc22a900816d200091407800d0
:1007880000ccb30000c060005041b300d8e6b70009
:100798000080fa00000006000200fa00004f78000e
:1007a8001e80fb00610060000004e00004003200cd
:1007b800c942a900c962a900cd42a900cd62a90019
:1007c8001e80fb000000d100610060000004e00012
:1007d80004003200c982a900c9a2a900cd82a900db
:1007e800cda2a9000080fa00000006000200fa006d
:1007f800004f78001e80fb00610060000004e000ec
:1008080003003200e002a800e202a900020037005b
:10081800e002a900e202a9001e80fb000000d1004e
:10082800610060000004e00003003200e822a80034
:10083800ea22a90002003700e822a900ea22a9005a
:100848001e80fb004200de00610060000004e00042
:1008580004003200ea04a900e802a800ea02a9009c
:1008680003003700ea04a900e802a900ea02a90087
:100878000080fa00000006000000fa00e284a900e7
:10088800e2a4a900c882a800c8a2a900416a200061
:100898009140780000ccb30000c06000c041b300b4
:1008a800a4e6b700216d20009140780000ccb30089
:1008b80000c060003040b300d2e6b7000080fa0004
:1008c800000006000000fa00e3e4a900e3c4a90060
:1008d800c9e2a800c9c2a900616a20009140780055
:1008e80000ccb30000c06000d041b300a6e6b7005a
:1008f800e16c20009140780000ccb30000c060009b
:100908005040b300cee6b7000080fa0000000600b1
:100918000000fa00d8a2a900d882a800d862a900cd
:10092800d842a900416d20009140780000ccb30066
:1009380000c060009040b300d4e6b700816a200090
:100948009140780000ccb30000c060009041b30033
:10095800a8e6b700616d20009140780000ccb30094
:1009680000c060007040b300d6e6b700716d20008b
:100978009140780000ccb30000c060000034a000b3
:10098800d7e6b7000080fa00000006000000fa0071
:10099800ed24a900ed04a900ece4a900ecc4a90029
:1009a800f122a900f102a800f0e2a900f0c2a90012
:1009b800b16d20009140780000ccb30000c0600009
:1009c800c040b300dbe6b700c16a20009140780060
:1009d80000ccb30000c060003041b300ace6b70003
:1009e800a16d20009140780000ccb30000c06000e9
:1009f800a040b300dae6b700516d200091407800be
:100a080000ccb30000c06000b040b300d5e6b7002a
:100a18000080fa00000006000000fa00113a800089
:100a2800f00b2000008160006104200070052000a8
:100a38002374200081497800804978008249780031
:100a480001408000f0c0b3000100010011408000a7
:100a580070c0b300010001002140800030c0b30025
:100a68000100010031408000f0c0b3000100010026
:100a78004140800070c0b300010001005040800078
:100a8800000001006040800000000100704080000c
:100a9800000001008040800000000100113a800041
:100aa800000420000081700061042000700520000f
:100ab80023742000814978008049780082497800b1
:100ac8000080fa00000006000000fa00402f200015
:100ad800004088002033200010408800003d20009e
:100ae800204088002036200030408800a03f2000a9
:100af80040408800c048200070408800a04c20007a
:100b08008040880000442000504088006046200053
:100b18006040880000512000904088000080fa0062
:100b2800000006000000fa00e7ff070041408000cf
:100b380070c0b300010001001140800070c0b30014
:100b4800010001005d40a8006940a8009660a80067
:100b58005ea0a8006aa0a8009660a8005e80a80011
:100b68006a80a8009660a80000003700a0408000b6
:100b78000000e000fdff32000000eb00a04088000c
:100b8800e2c2bf00614060000004e0000f003200d4
:100b9800e4c2bf000080fb000000d1000004a200f6
:100ba8006140600061406000614060006140600039
:100bb80000414000412e200091407800d0cfb30082
:100bc80000c0600002407000e4e2b700eac2bf0063
:100bd800624060000004e0000f003200e4c2bf0081
:100be8000080fb004200de000004a20061406000bb
:100bf8006140600061406000614060004201dd00ca
:100c0800412e200091407800b0cfb30000c06000b2
:100c180002407000e4e2b700eac2bf006140600031
:100c28000004e000d1ff3200e4c2bf000080fb00f6
:100c38004300de000004a2006140600061406000e3
:100c480061406000614060004301dd00412e2000ea
:100c58009140780070cfb30000c06000024070007f
:100c6800e4e2b700c1ff3700801f78000000fa00f7
:100c78008660a90010c0b30014e8b7000080fa002d
:080c88004f0078000040060057
:020000040000fa
:100c9000000800001400000080000000140800009c
:100ca00002000000820000000000000000000000c0
:00000001FF
