:0400000051EF00F0CC
:0C000800FACF12F0FBCF13F028EF0CF041
:10001800D8CF01F0E8CF02F0E0CF03F0FACF04F038
:10002800FBCF05F0E9CF06F0EACF07F0E1CF08F003
:10003800E2CF09F0D9CF0AF0DACF0BF0F3CF0CF00A
:10004800F4CF0DF0F6CF0EF0F7CF0FF0F8CF10F099
:10005800F5CF11F011C0F5FF10C0F8FF0FC0F7FF82
:100068000EC0F6FF0DC0F4FF0CC0F3FF0BC0DAFFA3
:100078000AC0D9FF09C0E2FF08C0E1FF07C0EAFFD4
:1000880006C0E9FF05C0FBFF04C0FAFF03C0E0FF9C
:0E00980002C0E8FF01C0D8FF10008AEF0CF094
:10100000001C1A000000000000000000003A2C7EC6
:101010000000000000000000AAB33E98BADCFEC148
:10102000C4C5C6C78081828384C4C780818283840B
:101030008586878484848484848C9CBC0084848496
:1010400084CCCCCCA5CDA7083E7DFA3264C8C8C8F4
:10105000C8C1C2C3C4C5C6C78081060D193264C8E1
:10106000C8C8C8C0C1C2C3C4C5000000003A00005F
:1010700000019C6F000E000100019E6F00019C5159
:1010800000019C6F050E000100019F6F00019C5143
:1010900001D80CD00500FA6E000100016C51FD6E04
:1010A00000016D51FE6EFF6AFA501200010EF66EDD
:1010B000100EF76E000EF86E0900F5CF9CF00900D7
:1010C000F5CF9DF001D80AD00500FA6E00019C51C1
:1010D000FD6E9D51FE6EFF6AFA501200800E296E61
:1010E000250E2A6E000E2B6E000E2C6E01D80CD031
:1010F0000500FA6E000100017651FD6E0001775186
:10110000FE6EFF6AFA501200800E296E1A0E2A6EC9
:10111000060E2B6E000E2C6E01D80CD00500FA6E58
:10112000000100018251FD6E00018351FE6EFF6AD5
:10113000FA50120001D81FD00500FA6E000100011C
:101140008451FD6E00018551FE6EFF6AFA50000168
:101150009C6F000E256E00019C510001000E276E51
:1011600000019E0E266E00019D6F010E286E00018B
:101170009D51380E120001D81FD00500FA6E0001F3
:1011800000018651FD6E00018751FE6EFF6AFA5024
:1011900000019C6F0F0E226E00019C510001000E99
:1011A000246E00019F0E236E00019D6F010E256EBF
:1011B00000019D51380E120001D81FD00500FA6EB3
:1011C000000100018451FD6E00018551FE6EFF6A31
:1011D000FA5000019C6F0F0E256E00019C5100011A
:1011E000000E276E00019F0E266E00019D6F010EFE
:1011F000286E00019D51380E1200F2A4FED7F29421
:101200000001000E216E00019E0E206E00019C6FF9
:10121000010E226E00019C5101D80CD00500FA6E1F
:10122000000100017A51FD6E00017B51FE6EFF6AE4
:10123000FA5012000001000E216E00019F0E206E78
:1012400000019C6F010E226E00019C5101D8D5D780
:101250000500FA6E000100017A51FD6E00017B511C
:10126000FE6EFF6AFA501200286E000E00010001A7
:10127000896F28502750800A800F08E1000E265CF5
:1012800005E1000E255C02E1000E245CD8B00ED012
:10129000271E261E251E246C000E2522262227220C
:1012A000286E010E00010001896F28502350800A2A
:1012B000800F08E1000E225C05E1000E215C02E1D6
:1012C000000E205CD8B00CD0231E221E211E206CE4
:1012D000000E212222222322010E00010001891B7F
:1012E000000E000100018A6F000E00018B6F000EDE
:1012F00000018C6F000E00018D6F27502410251007
:101300002610D8B439D0286E010E00010001886F74
:10131000285008D0D89024362536263627360001A6
:101320000001882B27AEF6D70001D89000018A373C
:1013300000018B3700018C3700018D372450205C71
:10134000255021582650225827502358D8A00BD07A
:101350002450205E2550215A2650225A2750235AC5
:10136000000100018A81D8902732263225322432AA
:1013700000010001882FD8D7000100018951D8B49D
:1013800010D0000100018D1F00018C1F00018B1F78
:1013900000018A6D000E00018B2300018C230001E7
:1013A0008D238AC020F08BC021F08CC022F08DC02C
:1013B00023F01200E8CF2BF02B502B242C6EC5808D
:1013C000C5B0FED7C7A403D0296A292A01D0296A4B
:1013D000C5501F0B29100009D8A4F4D7C9CF2AF093
:1013E0002C50E2EC0BF02D6E2D28D8A404D0C9CFE0
:1013F0002AF0C69E04D02D50FE0AD8B412002D66E5
:10140000EFD72550E2EC0BF02D6E2D28D8A404D098
:10141000C9CF2AF0C69E04D02D50FE0AD8B41200BF
:101420002D66EFD7C7A403D0296A292A01D0296ADB
:10143000C5501F0B29100009D8A4F4D7D8802B342D
:101440002C6EC582C5B2FED7C7A403D0296A292A4B
:1014500001D0296AC5501F0B29100009D8A4F4D760
:10146000C9CF2AF02C50E2EC0BF02D6E2D28D8A419
:1014700004D0C9CF2AF0C69E04D02D50FE0AD8B49D
:1014800012002D66EFD727C022F026C021F028C019
:1014900023F05DEC0CF00009D8A4F5D7C58AC58807
:1014A000C5B8FED7C5B8FED7C584C5A41200FDD700
:1014B00001D80CD00500FA6E000100017451FD6ED8
:1014C00000017551FE6EFF6AFA50120020C096F0BE
:1014D00021C097F022C098F023C099F096C020F068
:1014E00097C021F098C022F099C023F029C08EF057
:1014F0002AC08FF02BC090F02CC091F0020ED89033
:1015000000018E378F3790379137E82EF8D78EC08D
:1015100024F08FC025F090C026F091C027F034EC65
:1015200009F020C092F021C093F022C094F023C0B3
:1015300095F0FF0E00019225000100019A6FFF0E49
:101540000001932100019B6F000100019B51800A63
:10155000800F010ED8B49A5DD8A01200B886AC8472
:10156000AC9800019BC08EF08EC08FF00001906B94
:1015700000018F51B06E9AC0AFFF0F010F013A9D6D
:101580000F010F013A9F948C948EAC8AAB88AB8E7E
:10159000120001D80CD00500FA6E00010001745150
:1015A000FD6E00017551FE6EFF6AFA50120020C0F8
:1015B00096F021C097F022C098F023C099F096C011
:1015C00020F097C021F098C022F099C023F029C0E4
:1015D0008EF02AC08FF02BC090F02CC091F0020E3C
:1015E000D89000018E378F3790379137E82EF8D793
:1015F0008EC024F08FC025F090C026F091C027F057
:1016000034EC09F020C092F021C093F022C094F095
:1016100023C095F0FF0E00019225000100019A6F92
:10162000FF0E0001932100019B6F000100019B51FF
:10163000800A800F010ED8B49A5DD8A0120070867F
:101640007284729800019BC08EF08EC08FF00001F2
:10165000906B00018F51766E9AC075FF938C938EBC
:10166000728A7188718E1200E8CF28F028502824E1
:10167000286EC580C5B0FED7C7A403D0266A262A27
:1016800001D0266AC5501F0B26100009D8A4F4D734
:10169000C9CF27F02850E2EC0BF0296E2928D8A4F6
:1016A00004D0C9CF27F0C69E04D02950FE0AD8B472
:1016B00012002966EFD72250E2EC0BF0296E2928A0
:1016C000D8A404D0C9CF27F0C69E04D02950FE0A62
:1016D000D8B412002966EFD717D023C0D9FF24C091
:1016E000DAFFDF50E2EC0BF0296E2928D8A404D0F1
:1016F000C9CF27F0C69E04D02950FE0AD8B41200E4
:101700002966EBD7234A242A25062528D8A4E5D71D
:10171000C584C5A41200FDD701D80CD00500FA6E0F
:10172000000100017451FD6E00017551FE6EFF6AEB
:10173000FA50120020C096F021C097F022C098F015
:1017400023C099F000018E6F000E206E00018E51B3
:10175000080E1DEC0DF096C020F097C021F098C047
:1017600022F099C023F029C08EF02AC08FF02BC040
:1017700090F02CC091F0020ED89000018E378F3778
:1017800090379137E82EF8D78EC024F08FC025F01F
:1017900090C026F091C027F034EC09F020C092F000
:1017A00021C093F022C094F023C095F0000192056F
:1017B000C86E0F010F013A970F010F013A999486F5
:1017C00094881200E8CF21F021C0C9FFC6AE02D034
:1017D000FF0E1200C6CF20F00F0E20162050080A70
:1017E000D8B412D0C6CF20F00F0E201620500B0A0E
:1017F000D8B40AD0C6889EA6FED7C7A4C7B002D068
:10180000FE0E1200000E1200C6CF20F00F0E2016A2
:101810002050080AD8B408D0C6CF20F00F0E2016EA
:1018200020500B0AD8A41200C7B0FED7C7A403D01B
:10183000206A202A01D0206AC5501F0B2010000901
:10184000D8A4F4D7C5AC02D0FE0E1200000E1200D0
:10185000E9CF14F0EACF15F0E1CF16F0E2CF17F0A0
:10186000D9CF18F0DACF19F0F3CF1AF0F4CF1BF07C
:10187000F6CF1CF0F7CF1DF0F8CF1EF0F5CF1FF01C
:101880001FC0F5FF1EC0F8FF1DC0F7FF1CC0F6FF0C
:101890001BC0F4FF1AC0F3FF19C0DAFF18C0D9FF4C
:1018A00017C0E2FF16C0E1FF15C0EAFF14C0E9FF50
:1018B00013C0FBFF12C0FAFF110026D0C3EC0CF0DE
:1018C00021C0D9FF22C0DAFFDF6E214A222AC5B625
:1018D000FED7A1A602D0FF0E1200C6CF24F00F0E35
:1018E00024162450080AD8B408D0C6CF24F00F0E0E
:1018F000241624500B0AD8A407D02350D8B404D0FF
:10190000C59AC588C5B8FED723062328D8A4D6D73C
:10191000000E1200406A3F6A5E0EF66E190EF76EF8
:10192000000EF86E00EE60F010EE28F00900F5CF22
:10193000EEFFE550E150FAE1680EF66E1A0EF76E12
:10194000000EF86E00EE2EF010EE11F00900F5CF4B
:10195000EEFFE550E150FAE1000138EF08F0000039
:1019600000000000000000000000FA190000000064
:101970000000561A92150000D41900000000000063
:101980001817B4136816C6CF20F00F0E201620507B
:10199000080AD8B407D0C6CF20F00F0E201620506A
:1019A0000B0AD8B4C586C7A0FED7C9501200225072
:1019B000D8B412000AD0ACA2FED720C0D9FF21C0F3
:1019C000DAFFDF50AD6E204A212A22062228D8B441
:1019D0001200F1D72250D8B412000AD072A2FED75A
:1019E00020C0D9FF21C0DAFFDF50736E204A212AC0
:1019F00022062228D8B41200F1D7D3508C0B6209EA
:101A0000D36E206E060E3E6E2050000E3A6E120E01
:101A10003B6E7A0E3C6E000E3D6E12003E50010D84
:101A2000290EF324F66E100EF420F76EF86A000EFD
:101A3000F8220800F5CFD5FF1200E8CF21F03F0EC5
:101A4000C716000EC66E000EC56E2150C61220507D
:101A5000C712C68A12003AC020F03BC021F03CC039
:101A600022F03DC023F01200B0140000AE190000B7
:0A1A70000000000040420F000300D8
:020000040020DA
:08000000FFFFFFFFFFFFFFFF00
:020000040030CA
:0E000000FF291F3CFFBF81FF0FC00FE00F4024
:00000001FF
