:020000040000fa
:080000000002040000000000f2
:020000040000fa
:100400000f84200000ff270000018800000000008a
:100410000c000700007c2100010020000f000700f5
:10042000000020000000e000020032000000020096
:10043000000000005a170200000000000040da002f
:100440000000fe00000020000000e000020032007a
:10045000000020009001880000000600a102880032
:10046000800078000000eb001a003700e2804000b6
:1004700054a0b4009101ba00e280400054a0b4003e
:100480009102ba00e280400054a0b4000002eb00e8
:10049000472bde00f507b200a6018800602ce100c2
:1004a00008003a000049eb000201e80002003900b0
:1004b0003420ec0002f0a0008301e900f9ff3e00c7
:1004c000040037006128e100010032000082eb00e7
:1004d000040007001101ba000200e000e3ff3a0047
:1004e0000000060004d0a300e20f49001c00390000
:1004f000810278003549ba000201e80002003900a3
:100500003420ec0002f0a0008301e9000f0032006b
:100510002549ba000201e800020039003420ec004d
:1005200002f0a0008301e900080032000400e000ae
:100530000600320015c9ba000201e80002003900c5
:100540003420ec0002f0a0008301e9008180e80083
:1005500054a0b4000300e000e2ff3a0000000600ef
:100560009102ba00055978008301e900f7ff3200d3
:10057000c82ade00055978008301e900f3ff320044
:100580000400e000f1ff320011d9ba00eeff37009d
:10059000be0f040000000000fc0f0400000000007b
:1005a0009a100400000000002c100400000000005d
:1005b000c4100400000000005611040000000000f8
:1005c00094110400000000000a1104000000000063
:1005d0003011040000000000da11040000000000e7
:1005e000889fbe008a9fbe00010578000100e000e0
:1005f0000400350008003c000000e000200032004c
:100600000500370060001000e080180002003b0089
:1006100001f02c001a0037000004be006011b80081
:100620006b0920000982cf00020039000882cf0048
:100630000441b000694252000e00320008003b0045
:1006400082817100610164008904d1000884d300b3
:100650008b05e8000442e800f9ff3a000500370086
:100660000804440089844c008b05e9000442e90039
:10067000fbff3a00150107000af0a70001f0a000f7
:100680004f05be004f04be0000000600889fbe005c
:100690008a9fbe008c1f78003201070039013300a9
:1006a00003866c006450e1002e0032006420e100fb
:1006b000330032006150e1002f0032006120e10080
:1006c0003100320085855500eb07b000090020009d
:1006d00008042000050037000804440089844c0009
:1006e0000a0031000603430087834b0000015300da
:1006f00081815b00f8ff33000203be000800a00008
:100700000804440089844c00f6ff3900c639dd0036
:100710008301730001003200130020008904d1001e
:100720000884d3000998a300050032000800a70040
:100730000300a0008904d1000884d3008b05e800e1
:100740008904d1000884d3000001eb000281d200ab
:10075000de00070001f0a1000cf0a70001f0a000ee
:10076000110137006420e100130132000801be00ce
:100770000200be00f7ff37006120e1000e013200e9
:100780006000b800f3ff37000000200001f82700e8
:10079000f0ff370003f0a200889fbe008a9fbe00d2
:1007a0008c1f7800ef000700f60033006450e10072
:1007b0004f0032006420e1005200320003826c00de
:1007c00007003b000905d0000306d000820f54004b
:1007d0000c065d0002003900020032008901780039
:1007e000030678008582550004003d000003fd00eb
:1007f0008103fd008502ea008b854200840f7200b0
:1008000002003b0060001000e08018006011b8009a
:100810000005eb007a28e1000a00390006007800a4
:10082000c75ddd00f707b200878075002d00370037
:10083000828171000a017800610560008180d10029
:100840000080d3008502e900f9ff3b000604400068
:100850008784480002003b0060041400e0841c0010
:100860000988a300070032008a817100828171002b
:10087000610164008904d1000884d3008b05e8007d
:10088000170037000978a30013003a000b00e000be
:10089000130034008b05e9000804440089844c00ef
:1008a0000a4474000978a3000d003a000b00e00030
:1008b000070034008b05e9000804440089844c00db
:1008c00001003a000b0020000978a300f7ff320076
:1008d0000001eb0002003700828171000a017800fc
:1008e0007a0007000cf0a70001f0a000ae0037006e
:1008f0006420e10002003a00838f6c00ae003300f8
:100900000801be000200be00a70037000001be00c3
:10091000ac0007000470a70003f0a10003f8a300d7
:1009200013003a006509b1001000320009003500db
:100930006928e100020035000100280000000500e0
:1009400000004000818048008502e900fcff3a0079
:1009500000000600f88f4200050035008100d1003c
:100960000080d3008502e800fcff3a00000006008a
:100970008000eb00000005000001be0091000700b0
:100980000470a70003f0a1006509b1001600320051
:100990000d0035006828e10006003500f0ff2f004b
:1009a000f1ff27000300e00013003b0001002800d6
:1009b0000000050000004000818048008502e90039
:1009c000fcff3a0008003700f88f420002003c00ac
:1009d0008000eb00000005008100d1000080d30002
:1009e0008502e800fcff3a000300e00002003b0043
:1009f00060001000e080180000000600889fbe0024
:100a00008a9fbe008c1f7800560007005d003300ef
:100a100003866c006450e100240032006420e10091
:100a2000270032006150e100220032006120e10025
:100a3000210032008b854200eb07b1000134b80081
:100a4000003ab8000804420089844a00013ab8001c
:100a50000030b8008880400009014a0004003300db
:100a60000000400081804800020149008b05e90038
:100a7000c909dd008301700001003200130020006d
:100a8000c814de004814dd004709de001200b20081
:100a9000c808de00088470000c00070001f0a10007
:100aa0000cf0a70001f0a0003f0037006120e1003a
:100ab000410032000801be000200be00f7ff37000f
:100ac0006150e100fcff3a003b003700810020004c
:100ad000618055000b003d000b00200061fe2f00df
:100ae0000100e1001d003400828171006101640099
:100af0008904d1000884d3000000e800faff3a001e
:100b000071002000610064000300700002006000ba
:100b10000900320061044400e0844c000988a5000b
:100b2000050032008b05e8006808e10002003a0089
:100b30008904d1000884d300f20f20000258e1009c
:100b400005003d00c75ddd00f907b2008980750032
:100b500008007800000006000bf827008b007800e2
:100b6000000005000004be00160007000003be00e0
:100b70000405be000200be0012000700844f75008d
:100b8000000006000200be006450e10005003600cf
:100b90006420e100020036000968a30001003a0069
:100ba0000800be000160a0004f0678004f05be009f
:100bb0004f04be0000000600f0ff2f00f1ff2700e9
:100bc000f9ff3700c70ade00f107b200f50fb200e7
:100bd00008003200e1cf4200020032000170a000a4
:100be00024000500810f7000010032000408050098
:100bf00044000500810f700002003a001400050057
:100c00008502e9000000400081c04800fcff3b0075
:100c10000170a000240005008600a9008620a9001c
:100c2000e7416000c10a20009140780082cfb30004
:100c300082c0600083c070008000fd00ace0b7009f
:100c40008000fd0001c7b30081416000c10a20009f
:100c500091407800f2c8b30082c0600083c0700089
:100c60008000fd00ace0b7008000fd00680160007e
:100c70004311de0061092000914078000104a100c9
:100c800082c070008000fd0096e0b7008000fd008b
:100c90000008b2004700de0000404000610920006b
:100ca000914078000114a10080c07000010078001c
:100cb00096e0b70000000600211088003010880080
:100cc000000006008a20a9008a40a900e7416000d0
:100cd000c419dd00c10b200091407800f2c8b300b8
:100ce00082c0600083c070008000fd00bce0b700df
:100cf0008000fd00800178000307b200c419de0007
:100d0000d10b20009140780082cfb30082c06000f8
:100d100083c070008000fd00bde0b7008000fd00d2
:100d2000680160004311de0002414100a10920007a
:100d3000914078000114a10082c070008000fd0085
:100d40009ae0b7008000fd000008b2004700de0016
:100d50004200dd00a1092000914078000124a1009b
:100d600080c07000010078009ae0b7000000060023
:100d7000a1108800b010880000000600a1138800b0
:100d8000b0138800000006000602a800000006005c
:100d900006c2bf000008a300fdff3a0006c2bf0064
:100da0000018a300faff3a0006c2bf000028a30003
:100db000f7ff3a0006c2bf000038a300f4ff3a0074
:100dc00006c2bf000048a300f1ff3a0009c2bf00fd
:100dd0000068a300eeff3a00000006000080fb0060
:100de0001010880008c2bf0001c8b30001406000b5
:100df0000080fb000000e9004f00de000000e90079
:100e0000000006000642a800000006001602a80026
:100e10000000060016c2bf000008a300fdff3a0054
:100e200016c2bf000018a300faff3a0016c2bf00a6
:100e30000028a300f7ff3a0016c2bf000038a30045
:100e4000f4ff3a0016c2bf000048a300f1ff3a00c9
:100e500019c2bf000068a300eeff3a0000000600c0
:100e60000080fb009010880018c2bf0001c8b300ca
:100e7000014060000080fb000000e9004f00de0040
:100e80000000e900000006001642a800000006006d
:100e90007602a8000000060076c2bf000008a3008a
:100ea000fdff3a0076c2bf000018a300faff3a0027
:100eb00076c2bf000028a300f7ff3a0076c2bf0049
:100ec0000038a300f4ff3a0076c2bf000048a30038
:100ed000f1ff3a0079c2bf000068a300eeff3a00bc
:100ee000000006000080fb009013880078c2bf005d
:100ef00001c8b300014060000080fb000000e90071
:100f00004f00de000000e900000006007642a80065
:100f1000000006000622a80000000600889fbe0010
:100f20008a9fbe008c9fbe008005780081067800f5
:100f300002067800800478000005eb0015003700f9
:100f40000662a8000004eb00030037008c0f540079
:100f5000130031000804e800870007000004e000e7
:100f6000faff32000010800080767d008904e900dd
:100f700002003a0006a2a8000100370006a2a9005c
:100f80000682a80006c2bf000048a300fdff3a0089
:100f90000a05e8008b0f5500e9ff3a008004eb00da
:100fa000090078004f06be004f05be004f04be008a
:100fb0000000060006a2a8000682a80000000600a5
:100fc0001622a80000000600889fbe008a9fbe006f
:100fd0008c9fbe00800578008106780002067800ac
:100fe000800478000005eb00150037001662a800a9
:100ff0000004eb00030037008c0f54001300310095
:101000000804e800600007000004e000faff320076
:101010008010800080767d008904e90002003a009b
:1010200016a2a8000100370016a2a9001682a80087
:1010300016c2bf000048a300fdff3a000a05e80001
:101040008b0f5500e9ff3a008004eb00090078009f
:101050004f06be004f05be004f04be000000060054
:1010600016a2a8001682a800000006007622a8009a
:1010700000000600889fbe008a9fbe008c9fbe00b5
:1010800080057800810678000206780080047800e8
:101090000005eb00150037007662a8000004eb00a5
:1010a000030037008c0f5400130031000804e800df
:1010b000390007000004e000faff320080138000ce
:1010c00080767d008904e90002003a0076a2a8003b
:1010d0000100370076a2a9007682a80076c2bf0080
:1010e0000048a300fdff3a000a05e8008b0f5500f9
:1010f000e9ff3a008004eb00090078004f06be00cb
:101100004f05be004f04be000000060076a2a800f6
:101110007682a8000000060022c2bf0061006000c5
:101120000000060020c2bf0066406000e64f50008d
:1011300002003a00301180000000060030118000eb
:10114000f00fb2000000060032c2bf006100600074
:101150000000060030c2bf0066406000e64f50004d
:1011600002003a00b011800000000600b0118000bb
:10117000f00fb2000000060008c2bf000000d1005e
:10118000610060000000060018c2bf000000d1002e
:10119000610060000000060078c2bf000000d100be
:0811a000610060000000060080
:020000040000fa
:020000040005f5
:0457f800bf7f00006f
:020000040000fa
:020000040005f5
:0457fc007f3e0000ec
:020000040000fa
:10000800ce170000ce170000ce170000ce17000054
:10001800ce170000ce170000ce170000ce17000044
:10002800ce170000ce170000ce170000ce17000034
:10003800ce170000ce170000ce17000038170000ba
:10004800ce170000ce170000ce170000941600004f
:10005800ce170000ce170000ce170000ce17000004
:10006800ce170000ce170000ce170000841600003f
:10007800ce170000ce170000ce170000ce170000e4
:10008800ce170000ce170000ce170000ce170000d4
:10009800ce170000ce170000e6160000ce170000ad
:1000a800ce170000ce170000ce170000ce170000b4
:1000b800ce170000ce170000ce170000ce170000a4
:1000c800ce170000ce170000ce170000ce17000094
:1000d800ce170000ce170000ce170000ce17000084
:1000e800ce170000ce170000ce170000ce17000074
:1000f800ce170000ce170000ce170000ce17000064
:10010800ce170000ce170000ce170000ce17000053
:10011800ce170000ce170000ce170000ce17000043
:10012800ce170000ce170000ce170000ce17000033
:10013800ce170000ce170000ce170000ce17000023
:10014800ce170000ce170000ce170000ce17000013
:10015800ce170000ce170000ce170000ce17000003
:10016800ce170000ce170000ce170000ce170000f3
:10017800ce170000ce170000ce170000ce170000e3
:10018800ce170000ce170000ce170000ce170000d3
:10019800ce170000ce170000ce170000ce170000c3
:1001a800ce170000ce170000ce170000ce170000b3
:1001b800ce170000ce170000ce170000ce170000a3
:1001c800ce170000ce170000ce170000ce17000093
:1001d800ce170000ce170000ce170000ce17000083
:1001e800ce170000ce170000ce170000ce17000073
:0801f800ce170000ce17000035
:020000040000fa
:10020800ce170000ce170000ce170000ce17000052
:10021800ce170000ce170000ce170000ce17000042
:10022800ce170000ce170000ce170000ce17000032
:10023800ce170000ce170000ce17000038170000b8
:10024800ce170000ce170000ce170000941600004d
:10025800ce170000ce170000ce170000ce17000002
:10026800ce170000ce170000ce170000841600003d
:10027800ce170000ce170000ce170000ce170000e2
:10028800ce170000ce170000ce170000ce170000d2
:10029800ce170000ce170000e6160000ce170000ab
:1002a800ce170000ce170000ce170000ce170000b2
:1002b800ce170000ce170000ce170000ce170000a2
:1002c800ce170000ce170000ce170000ce17000092
:1002d800ce170000ce170000ce170000ce17000082
:1002e800ce170000ce170000ce170000ce17000072
:1002f800ce170000ce170000ce170000ce17000062
:10030800ce170000ce170000ce170000ce17000051
:10031800ce170000ce170000ce170000ce17000041
:10032800ce170000ce170000ce170000ce17000031
:10033800ce170000ce170000ce170000ce17000021
:10034800ce170000ce170000ce170000ce17000011
:10035800ce170000ce170000ce170000ce17000001
:10036800ce170000ce170000ce170000ce170000f1
:10037800ce170000ce170000ce170000ce170000e1
:10038800ce170000ce170000ce170000ce170000d1
:10039800ce170000ce170000ce170000ce170000c1
:1003a800ce170000ce170000ce170000ce170000b1
:1003b800ce170000ce170000ce170000ce170000a1
:1003c800ce170000ce170000ce170000ce17000091
:1003d800ce170000ce170000ce170000ce17000081
:1003e800ce170000ce170000ce170000ce17000071
:0803f800ce170000ce17000033
:020000040000fa
:1011a8000c00fa00889fbe0030079800410798009d
:1011b800224f980000902000d103200010079800cb
:1011c8002107980070c2b300004f7800200607007e
:1011d80010079800210798001e009000ae009000ac
:1011e800fdfc07000004be003e009000ce00900009
:1011f800f9fc07000001be000800be0021fd070041
:101208000004be001e009000ae009000f2fc070033
:101218000268290083b12c001afd07000001be00f6
:101228000800be005afd07000200200003f8230052
:1012380056fd0700b3fd0700004f78002e489000c8
:101248000080fb0072fe07009e80fb000000280063
:1012580097fe07004f04be000080fa000000060059
:101268000c00fa00889fbe003007980041079800dc
:10127800224f980000902000d1032000100798000a
:101288002107980030c0b300004f7800f005070030
:1012980010079800210798001e009000ae009000eb
:1012a800cdfc07000004be003e009000ce00900078
:1012b800c9fc07000001be000800be00f1fc0700e1
:1012c8000004be001e009000ae009000c2fc0700a3
:1012d8000268290083b12c00eafc07000001be0067
:1012e8000800be002afd07000200200003f82300c2
:1012f80026fd070083fd0700004f78002e48900068
:101308000080fb006dfe07009e80fb0000002800a7
:1013180095fe07004f04be000080fa00000006009a
:101328000c00fa00889fbe0030079800410798001b
:10133800224f980000902000d10320001007980049
:101348002107980030c0b300004f7800c00507009f
:1013580010079800210798001e009000ae0090002a
:101368009dfc07000004be003e009000ce009000e7
:1013780099fc07000001be000800be00c1fc070080
:101388000004be001e009000ae00900092fc070012
:101398000268290083b12c00bafc07000001be00d6
:1013a8000800be00fafc07000200200003f8230032
:1013b800f6fc070053fd0700004f78002e48900008
:1013c8000080fb003dfe07009e80fb000000280017
:1013d80068fe07004f04be000080fa000000060007
:1013e8000800fa0020479800314798002207980023
:1013f800634798002e409000004040002047980026
:101408005ffe070060fe070009c2bf0001c8b30005
:10141800014060000004e000fbff3a002e4090000d
:101428006cfe0700004f780057fe070009c2bf0096
:1014380001c8b300014060000004e000fbff3a006f
:101448003e40900063fe0700004f78004efe070004
:1014580009c2bf0001c8b300014060000004e000f9
:10146800fbff3a000d0037002e0090001040780076
:1014780058fe0700004f780043fe070009c2bf006e
:1014880001c8b300014060000004e000fbff3a001f
:101498002e0090000000e800200798006e409000a1
:1014a8000040e900604798006e409000e14f40001e
:1014b800edff3a0051fe070033fe07001e00fb0057
:1014c8000080fa00000006000800fa002047980093
:1014d8003147980022079800634798002e409000f3
:1014e800004040002047980046fe070047fe0700de
:1014f80019c2bf0001c8b300014060000004e00049
:10150800fbff3a002e40900053fe0700004f780082
:101518003efe070019c2bf0001c8b30001406000c9
:101528000004e000fbff3a003e4090004afe07003e
:10153800004f780035fe070019c2bf0001c8b3008c
:10154800014060000004e000fbff3a000d00370096
:101558002e009000104078003ffe0700004f7800f2
:101568002afe070019c2bf0001c8b300014060008d
:101578000004e000fbff3a002e0090000000e800a5
:10158800200798006e4090000040e90060479800ee
:101598006e409000e14f4000edff3a0038fe070032
:1015a8001afe07001e00fb000080fa00000006007b
:1015b8000800fa0020479800314798002207980051
:1015c800634798002e409000004040002047980054
:1015d8002dfe07002efe070079c2bf0001c8b30028
:1015e800014060000004e000fbff3a002e4090003c
:1015f8003afe0700004f780025fe070079c2bf00b9
:1016080001c8b300014060000004e000fbff3a009d
:101618003e40900031fe0700004f78001cfe070096
:1016280079c2bf0001c8b300014060000004e000b7
:10163800fbff3a000d0037002e00900010407800a4
:1016480026fe0700004f780011fe070079c2bf0090
:1016580001c8b300014060000004e000fbff3a004d
:101668002e0090000000e800200798006e409000cf
:101678000040e900604798006e409000e14f40004c
:10168800edff3a001ffe070001fe07001e00fb00e9
:101698000080fa00000006000a00fa00404798009f
:1016a8005147980032079800034f98000e48900061
:1016b8008080fb00400620000088b90010079800d1
:1016c8004e4090000080fb0000004000004f780072
:1016d800abfd0700acfd070009c2bf0001c8b3009d
:1016e800014060000004e000fbff3a001e40780063
:1016f800b8fd070010479800a3fd070009c2bf0006
:1017080001c8b300014060000004e000fbff3a009c
:101718005e409000affd0700104798009afd070053
:1017280009c2bf0001c8b300014060000004e00026
:10173800fbff3a0094fd0700f4fd070092fd070047
:1017480009c2bf0001c8b300014060000004e00006
:10175800fbff3a004e4090000080fb000000400074
:10176800804078000104a000014f78001e407800f6
:1017780098fd070084fd070009c2bf0001c8b30037
:10178800014060000004e000fbff3a001e019000e9
:101798000e4890000080fb00be009000ddfd0700b1
:1017a80079fd070001fe070077fd070093fd07009c
:1017b80075fd07001e4090000000fb000080fa0045
:1017c800000006000a00fa004047980051479800b8
:1017d80032079800034f98000e4890008080fb0065
:1017e800400620000088b900100798004e4090007d
:1017f8000080fb0000004000004f780081fd0700da
:1018080082fd070019c2bf0001c8b3000140600093
:101818000004e000fbff3a001e4078008efd070040
:101828001047980079fd070019c2bf0001c8b3002e
:10183800014060000004e000fbff3a005e409000b9
:1018480085fd07001047980070fd070019c2bf000a
:1018580001c8b300014060000004e000fbff3a004b
:10186800d5fd070069fd070019c2bf0001c8b30014
:10187800014060000004e000fbff3a004e40900089
:101888000080fb0000004000804078000104a000b8
:10189800014f78001e4078006ffd07005bfd0700d0
:1018a80019c2bf0001c8b300014060000004e00095
:1018b800fbff3a001e0190000e4890000080fb00dc
:1018c800be009000befd070050fd0700e2fd0700c6
:1018d8004efd07006afd07004cfd07001e40900002
:1018e8000000fb000080fa00000006000a00fa0071
:1018f800404798005147980032079800034f9800d6
:101908000e4890008080fb00400620000088b90047
:10191800100798004e4090000080fb000000400037
:10192800004f780058fd070059fd070079c2bf0035
:1019380001c8b300014060000004e000fbff3a006a
:101948001e40780065fd07001047980050fd07000d
:1019580079c2bf0001c8b300014060000004e00084
:10196800fbff3a005e4090005cfd070010479800be
:1019780047fd070079c2bf0001c8b30001406000fd
:101988000004e000fbff3a00b6fd070040fd070039
:1019980079c2bf0001c8b300014060000004e00044
:1019a800fbff3a004e4090000080fb000000400022
:1019b800804078000104a000014f78001e407800a4
:1019c80046fd070032fd070079c2bf0001c8b30019
:1019d800014060000004e000fbff3a001e01900097
:1019e8000e4890000080fb00be0090009ffd07009d
:1019f80027fd0700c3fd070025fd070041fd07007f
:101a080023fd07001e4090000000fb000080fa0044
:101a1800000006001000fa005007980061079800bf
:101a2800624f98000000eb00400798006000b80083
:101a3800200798003107980000902000d10320006b
:101a4800008fbe0002040700008fbe001e00be000b
:101a5800e1fa07005e019000ee019000e5fb070047
:101a680002002000a347240006fb0700a5fb07008f
:101a780020079800310798002e019000be019000c1
:101a8800e0ff2f0001002000800f5100818f5900d6
:101a9800030036000080eb00400798000200370082
:101aa8002e009000400798006e4890000004e00067
:101ab80010003200ee48900070cfb30000c0600004
:101ac800604f98006e489000674060006740600073
:101ad8004401dd00510a200091407800f0c8b300ad
:101ae80000c0600002407000a5e0b7008460a90053
:101af8009460a8000000eb00200888000000eb00bc
:101b0800000888004e00900010088800411020004e
:101b180091407800f0ccb30000c0600004e1b70049
:101b28000421a90005e1a8000080fa0000000600d1
:101b38001000fa005007980061079800624f98005b
:101b48000000eb00400798006000b80020079800ec
:101b58003107980000902000d1032000008fbe00bc
:101b6800bb030700008fbe001e00be009afa0700e4
:101b78005e019000ee0190009efb0700020020002d
:101b8800a3472400bffa07005efb07002007980060
:101b9800310798002e019000be019000e0ff2f0051
:101ba80001002000800f5100818f5900030036008a
:101bb8000080eb0040079800020037002e009000dc
:101bc800400798006e4890000004e00010003200c2
:101bd800ee48900070cfb30000c06000604f9800de
:101be8006e48900067406000674060004401dd0077
:101bf800710a200091407800f0c8b30000c060006e
:101c080002407000a7e0b70084e0a90094e0a800b3
:101c18000000eb00800888000000eb003008880016
:101c28004e00900060088800011120009140780063
:101c3800f0ccb30000c0600010e1b7001021a9008b
:101c480011e1a8000080fa00000006001000fa0068
:101c58005007980061079800624f98000000eb0059
:101c6800400798006000b8002007980031079800e6
:101c780000902000d1032000008fbe0074030700ed
:101c8800008fbe001e00be0053fa07005e019000e0
:101c9800ee01900057fb070002002000a347240034
:101ca80078fa070017fb070020079800310798000b
:101cb8002e019000be019000e0ff2f0001002000df
:101cc800800f5100818f5900030036000080eb001f
:101cd80040079800020037002e0090004007980047
:101ce8006e4890000004e0000f003200ee489000bb
:101cf80070cfb30000c06000604f98006e4890003d
:101d08006740600067416000810a200091407800c8
:101d180080cfb30000c0600002407000a8e0b700a8
:101d28008500a9009500a8000000eb009008880035
:101d38000000eb00500888004e00900070088800f2
:101d48002111200091407800f0ccb30000c0600061
:101d580012e1b7001221a90013e1a8000080fa00df
:101d6800000006000e00fa0040079800510798008e
:101d7800424f98006000b80020079800310798008b
:101d880000902000d1032000008fbe003003070020
:101d9800008fbe001e00be000ffa07004e01900023
:101da800de01900013fb070002002000a347240077
:101db80034fa0700d3fa0700200798003107980083
:101dc8000000eb00800888000000eb009008880005
:101dd8000000eb00300888000000eb005008880085
:101de8001061a8004e4890000004e0000f00320087
:101df800ce48900070cfb30000c06000404f9800fc
:101e08004e4890006740600067416000810a2000ea
:101e18009140780080cfb30000c06000024070009d
:101e2800a8e0b7008500a9009500a8002e00900042
:101e3800600888002e009000be0090004008de0078
:101e480001002000700888000111200091407800ee
:101e5800f0ccb30000c0600010e1b7001021a90069
:101e680011e1a8000080fa00000006000e00fa0048
:101e78004007980051079800424f98006000b8004a
:101e8800200798003107980000902000d103200017
:101e9800008fbe00ee020700008fbe001e00be00cd
:101ea800cdf907004e019000de019000d1fa07003d
:101eb80002002000a3472400f2f9070091fa070066
:101ec80020079800310798000000eb00f008880010
:101ed8000000eb00000988000000eb00a008880063
:101ee8000000eb00c00888001e61a8004e48900062
:101ef8000004e0000f003200ce48900070cfb3001d
:101f080000c06000404f98004e4890006740600055
:101f180067416000210b20009140780080cfb3001a
:101f280000c0600002407000b2e0b7008780a900de
:101f38009780a8002e009000d00888002e009000fe
:101f4800be0090004008de0001002000e008880084
:101f5800e111200091407800f0ccb30000c060008f
:101f68001ee1b7001e21a9001fe1a8000080fa00a9
:101f7800000006000200fa00004f78001e80fb00f7
:101f8800610060000004e00002003200c802a800fe
:101f9800e204a8001e80fb000000d1006100600080
:101fa8000004e00002003200c822a800e224a800d1
:101fb8001e80fb004200de00610060000004e000bb
:101fc80002003200c842a800e244a8001e80fb00bc
:101fd8004300de00610060000004e00002003200ff
:101fe800c862a800e264a8000080fa0000000600a9
:101ff8000200fa00004f78001e80fb0061006000bc
:102008000004e00002003200e022a900e422a90056
:102018001e80fb000000d100610060000004e000a9
:1020280002003200e042a900e442a9001e80fb0041
:102038004200de00610060000004e000020032009f
:10204800e062a900e462a9000080fa00000006002e
:102058000200fa00004f78001e80fb00610060005b
:102068000004e00008003200d962a900dd62a9007e
:10207800c16c20009140780000ccb30000c0600023
:102088002041b300cce6b7001e80fb000000d10061
:10209800610060000004e00008003200d902a900d5
:1020a800dd02a900216c20009140780000ccb3002b
:1020b80000c060003041b300c2e6b7001e80fb00dc
:1020c8004200de00610060000004e0000800320009
:1020d800d802a900dc02a900b16c20009140780068
:1020e80000ccb30000c060004041b300cbe6b700ad
:1020f8001e80fb004300de00610060000004e00079
:1021080008003200d822a900dc22a900816d200035
:102118009140780000ccb30000c060005041b3008b
:10212800d8e6b7000080fa00000006000200fa00b6
:10213800004f78001e80fb00610060000004e00092
:1021480004003200c942a900c962a900cd42a90011
:10215800cd62a9001e80fb000000d1006100600074
:102168000004e00004003200c982a900c9a2a90045
:10217800cd82a900cda2a9000080fa0000000600c7
:102188000200fa00004f78001e80fb00610060002a
:102198000004e00003003200e002a800e202a90007
:1021a80002003700e002a900e202a9001e80fb003d
:1021b8000000d100610060000004e000030032006c
:1021c800e822a800ea22a90002003700e822a900b4
:1021d800ea22a9001e80fb004200de0061006000c8
:1021e8000004e00004003200ea04a900e802a800a4
:1021f800ea02a90003003700ea04a900e802a900de
:10220800ea02a9000080fa00000006000000fa00b7
:10221800e284a900e2a4a900c882a800c8a2a90073
:10222800416a20009140780000ccb30000c06000f3
:10223800c041b300a4e6b700216d200091407800aa
:1022480000ccb30000c060003040b300d2e6b70055
:102258000080fa00000006000000fa00e3e4a9008c
:10226800e3c4a900c9e2a800c9c2a900616a2000a4
:102278009140780000ccb30000c06000d041b300aa
:10228800a6e6b700e16c20009140780000ccb300ce
:1022980000c060005040b300cee6b7000080fa00ee
:1022a800000006000000fa00d8a2a900d882a80001
:1022b800d862a900d842a900416d20009140780059
:1022c80000ccb30000c060009040b300d4e6b70073
:1022d800816a20009140780000ccb30000c0600003
:1022e8009041b300a8e6b700616d200091407800e6
:1022f80000ccb30000c060007040b300d6e6b70061
:10230800716d20009140780000ccb30000c06000df
:102318000034a000d7e6b7000080fa0000000600ed
:102328000000fa00ed24a900ed04a900ece4a900de
:10233800ecc4a900f122a900f102a800f0e2a9006a
:10234800f0c2a900b16d20009140780000ccb30024
:1023580000c06000c040b300dbe6b700c16a2000df
:102368009140780000ccb30000c060003041b30059
:10237800ace6b700a16d20009140780000ccb30016
:1023880000c06000a040b300dae6b700516d20003d
:102398009140780000ccb30000c06000b040b300aa
:1023a800d5e6b7000080fa00000006000000fa0039
:1023b800113a8000f00b20000081600061042000c9
:1023c8007005200023742000814978008049780036
:1023d8008249780061418000f0c0b300010001002b
:1023e8007141800070c0b30001000100814180008c
:1023f80030c0b3000100010091418000f0c0b3007b
:1024080001000100a141800070c0b300010001007b
:10241800b041800000000100c041800000000100c0
:10242800d041800000000100e04180000000010070
:10243800113a80000004200000817000610420002f
:1024480070052000237420008149780080497800b5
:10245800824978000080fa00000006000000fa00b7
:10246800e0fb200060418800c0ff20007041880028
:10247800a009210080418800c00221009041880005
:10248800400c2100a041880060152100d04188003f
:1024980040192100e0418800a0102100b0418800c7
:1024a80000132100c0418800a01d2100f0418800d0
:1024b8000080fa00000006001000fa00889fbe00a5
:1024c8005007980061079800624f9800734f980072
:1024d8000040eb00104f98000040eb00004f9800c0
:1024e80000902000d10320002007980031079800b1
:1024f80000c1b300204798000000eb00000f7800ef
:102508005301070020079800310798006e48900093
:102518000004e0000200320040c0b30020479800e9
:102528002e009000be0090002bf807000004be00ab
:102538002e4090000083fb000700200086007800f2
:102548005e009000000ab8006e00900000b0b9006c
:1025580005017800000141005e0090000780b90085
:1025680000014100820278000400be001af807004a
:102578000001be000800be0042f80700020020006b
:1025880003f8230081f80700def80700000f780041
:102598007e4890000080fb004300de006100600080
:1025a8000004e000130032007e4890004500dd0082
:1025b800004f98000e4890000080fb004500de00a8
:1025c800004f98000e489000674060006740600028
:1025d8004401dd00910a200091407800f0c8b30062
:1025e80000c0600002407000a9e0b7008560a90043
:1025f8009560a8007e4890000004e00012003d00ad
:102608007e4890000047b200004f98000e489000a6
:102618000080fb004400de00004f98000e48900048
:102628006740600067416000a10a2000914078007f
:1026380080cfb30000c0600002407000aae0b7007d
:102648008580a9009580a8000000eb000011880093
:102658000000eb00101188001e007800401188006f
:102668006e48900061406000614060004301dd00f9
:10267800012220009140780070cfb30000c06000b4
:102688000240700020e2b70001222000914078004b
:1026980090cfb30000c0600020e2b7002002a9007c
:1026a80021e2a8002342a80010c0b300104f9800f0
:1026b8001e4890000000fb004f04be000080fa0096
:1026c800000006001000fa00889fbe00500798001e
:1026d80061079800624f9800734f98000040eb0024
:1026e800104f98000040eb00004f98000090200029
:1026f800d1032000200798003107980000c1b300db
:10270800204798000000eb00000f7800d000070079
:1027180020079800310798006e4890000004e000f8
:102728000200320040c0b300204798002e009000fd
:10273800be009000a8f707000004be002e409000dd
:102748000083fb0007002000860078005e009000f0
:10275800000ab8006e00900000b0b90005017800ca
:10276800000141005e0090000780b90000014100af
:10277800820278000400be0097f707000001be003f
:102788000800be00bff707000200200003f823007e
:10279800fef707005bf80700000f78007e489000fe
:1027a8000080fb004300de00610060000004e000e0
:1027b800120032007e4890004500dd00004f98006e
:1027c8000e4890000080fb004500de00004f980096
:1027d8000e4890006740600067416000310b2000a0
:1027e8009140780080cfb30000c0600002407000c4
:1027f800b3e0b70087c0a90097c0a8007e48900042
:102808000004e00013003d007e4890000047b2003d
:10281800004f98000e4890000080fb004400de0046
:10282800004f98000e4890006740600067406000c5
:102838004401dd00310b200091407800f0c8b3005e
:1028480000c0600002407000b3e0b70087e0a90054
:1028580097e0a8000000eb00801188000000eb0062
:10286800901188001e007800c01188006e48900002
:1028780061406000614060004301dd0001232000e9
:102888009140780070cfb30000c060000240700033
:1028980030e2b700012320009140780090cfb300c8
:1028a80000c0600030e2b7003002a90031e2a800a1
:1028b8003342a80010c0b300104f98001e48900083
:1028c8000000fb004f04be000080fa000000060074
:1028d8000400fa00000f780021479800090037002b
:1028e80023c2bf00614060000004e000fcff32002a
:1028f8001e007800104078000080fb00201188003e
:102908001e0fe8002e4090000040e9002047980084
:102918002e409000e14f4000f1ff3a000080fa009d
:10292800000006000400fa00000f78002147980014
:102938000900370033c2bf00614060000004e000b6
:10294800fcff32001e007800104078000080fb0079
:10295800a01188001e0fe8002e4090000040e900fa
:10296800204798002e409000e14f4000f1ff3a00c8
:102978000080fa00000006000400fa0020479800d2
:102988000040eb00104798000040eb00004f780033
:1029980043c7bf000080fb004400de0067406000c2
:1029a800004f780010c0b3009e4f100003003200a3
:1029b80030c0b3009e4f100010003a002e40900027
:1029c800e34f500020003e005174200091407800f1
:1029d80080cfb30000c0600045e7b7002e409000ec
:1029e80063406000c600dd0044c7bf00f043b2008a
:1029f8000140700044e7b7001300370070c0b3000f
:102a08009e4f100010003a002e409000e74f5000f3
:102a18000d0036002e4090000080fb004400de00d0
:102a2800104798001e4090006740600067416000b2
:102a3800517420009140780080cfb30000c060003e
:102a48000240700045e7b7000080fa000000060069
:102a58000a00fa00889fbe000040eb00704798000b
:102a68000040eb00604798000040eb00504798009a
:102a78000040eb004047980000902000d103200060
:102a8800008fbe0043c7bf000080fb004400de008b
:102a9800674060007047980044c7bf000080fb0093
:102aa8004600de005047980045c7bf0067406000f9
:102ab800404798007e4090000080fb004007980047
:102ac8004e009000e30f5000370032004e00900097
:102ad800e30f50000a003c004e009000e10f500048
:102ae800180032004e009000e10f50002a003c0010
:102af8004e0090000000e0000e0032005f0037003a
:102b08004e009000e50f5000400032004e0090004b
:102b1800e50f5000390035004e009000e60f5000d8
:102b28003e0032004e009000e70f50003f00320098
:102b38005200370000902000d1032000008fbe0013
:102b48004e00370000402200410f2000008fbe00d9
:102b58005e4090008080fb00100020000100dd0036
:102b6800604798001e00be009bf607000004be00e8
:102b78006e4090000080fb00cf80de0096f60700d4
:102b88000001be000800be00bef6070078f7070087
:102b9800008fbe003900370000902000d1032000cc
:102ba800008fbe003500370000402200410f200092
:102bb800008fbe005e4090008080fb001000200067
:102bc8000100dd00604798001e00be0082f6070085
:102bd8000004be006e4090000080fb00cf80de0045
:102be8007df607000001be000800be00a5f607003c
:102bf8005ff70700008fbe002000370000002400a8
:102c080001002000008fbe001c003700c0c8230050
:102c180001002000008fbe001800370000092d00b9
:102c280031002000008fbe00140037000090200003
:102c3800d1032000008fbe004e4090008080fb0032
:102c4800100020000100dd00604798001e00be0053
:102c580061f607000004be006e4090000080fb0093
:102c6800cf80de005cf607000001be000800be0051
:102c780084f607003ef70700008fbe001e00be0066
:102c88004f04be000080fa00000006000a00fa00a7
:102c9800400798006000b8002007980031079800a6
:102ca8006000b800008fbe0069ff07002007980089
:102cb800310798002e009000be00900046f60700ed
:102cc80002002000a34724006ef607000df7070056
:102cd800008fbe00050037001e00be0098000700e8
:102ce8004e0090000000e900400798004e00900058
:102cf8000000e000f8ff3a000080fa00000006003b
:102d0800801f78000000fa0010c0b30000e8b70088
:102d18008660a9000080fa004f0078000040060095
:102d28003600f800809fbe00829fbe00849fbe00d0
:102d3800869fbe00889fbe000000fa008560a9003b
:102d480000003700f2f807000004e000fdff320041
:102d580022c2bf00704060000004e000f9ff3200aa
:102d680049822000994478000984fb00ebf80700a9
:102d7800804078001080200000004400014878005e
:102d88000940e80024e8b70024c8bf00ff4f5000fe
:102d9800020036000040eb0024e8b7003041800014
:102da800104188000080fa004f04be004f03be00a7
:102db8004f02be004f01be004f00be003600f900b2
:102dc800004006003600f800809fbe00829fbe00cb
:102dd800849fbe00869fbe00889fbe000000fa0048
:102de80087c0a90000003700d5f807000004e000fc
:102df800fdff320032c2bf00704060000004e000f6
:102e0800f9ff320049822000994478000984fb00c8
:102e1800cef80700804078001080200000004400b1
:102e2800014878000940e80024e8b70024c8bf003a
:102e3800ff4f5000020036000040eb0024e8b700c6
:102e480030418000104188000080fa004f04be0025
:102e58004f03be004f02be004f01be004f00be0030
:102e68003600f90000400600809fbe000000fa000e
:102e780084e0a900304180000000e800304188006b
:102e88003141800040418000808f500004003a00aa
:102e98000000eb003041880010c0b3002ae8b700fa
:102ea8000080fa004f00be00004006000800fa004b
:102eb8000040eb00004f780000c3b300aefe0700ef
:102ec80066fd0700f04180000000010003c8b30060
:102ed80012c0b300005822000100200076fd070050
:102ee80002c8b30000a8210061002000acf8070068
:102ef80013c0b3000e0178008040eb0080c3b3001c
:102f0800e5f907001e407800e24f500003003a0040
:102f180011c0b3000e0078006dfe07000e01e80036
:102f280063c0b30021c0b30080c3b300daf907005f
:102f38000e00e80061c0b30065fe0700ffff370020
:102f4800f03fb1000180b10006003500ee03090032
:102f580000000000403fb1000180b100fbff3d00d0
:102f68001000b000203fb0000200350000800900ca
:082f780000000000000006004b
:020000040000fa
:102f80002c08000014000000800000000008000071
:0c2f90002c000000800000000000000089
:020000040000fa
:042f9c000000fe0033
:00000001FF
