:0400000051EF00F0CC
:0C000800FACF12F0FBCF13F0C1EF00F0B4
:10001800D8CF01F0E8CF02F0E0CF03F0FACF04F038
:10002800FBCF05F0E9CF06F0EACF07F0E1CF08F003
:10003800E2CF09F0D9CF0AF0DACF0BF0F3CF0CF00A
:10004800F4CF0DF0F6CF0EF0F7CF0FF0F8CF10F099
:10005800F5CF11F011C0F5FF10C0F8FF0FC0F7FF82
:100068000EC0F6FF0DC0F4FF0CC0F3FF0BC0DAFFA3
:100078000AC0D9FF09C0E2FF08C0E1FF07C0EAFFD4
:1000880006C0E9FF05C0FBFF04C0FAFF03C0E0FF9C
:1000980002C0E8FF01C0D8FF1000F6EF00F020EE24
:1000A8002EF001D80AD00500FA6EDE50FD6EDE5043
:1000B800FE6EF850FF6EFA5012000F010F013A91D0
:1000C80094900F010F013A9B949A8B808B9A000EA3
:1000D8003E6E000E3D6E880E3D5C130E3E58D8B045
:1000E8000AD0030E216E980EE82EFED7212EFCD7DB
:1000F8003D4A3E2AF0D78B908B9A000E3E6E000E3A
:100108003D6ED00E3D5C070E3E58D8B00AD0030EA7
:10011800216E980EE82EFED7212EFCD73D4A3E2AA6
:10012800F0D78B908B8A000E3E6E000E3D6E880EC7
:100138003D5C130E3E58D8B00AD0030E216E980EBF
:10014800E82EFED7212EFCD73D4A3E2AF0D78B90C9
:100158008B9A000E3E6E000E3D6ED00E3D5C070E73
:100168003E58D8B0B2D7030E216E980EE82EFED7AF
:10017800212EFCD73D4A3E2AF0D7E9CF14F0EACF2A
:1001880015F0E1CF16F0E2CF17F0D9CF18F0DACF9B
:1001980019F0F3CF1AF0F4CF1BF0F6CF1CF0F7CF1D
:1001A8001DF0F8CF1EF0F5CF1FF01FC0F5FF1EC0E1
:1001B800F8FF1DC0F7FF1CC0F6FF1BC0F4FF1AC0F4
:1001C800F3FF19C0DAFF18C0D9FF17C0E2FF16C045
:1001D800E1FF15C0EAFF14C0E9FF13C0FBFF12C01E
:1001E800FAFF11003E6A3D6A3C0EF66E020EF76E8B
:1001F800000EF86E00EE22F010EE1BF00900F5CFAD
:10020800EEFFE550E150FAE1000EF86E000153EF01
:1002180000F0D3508C0B6209D36E206E060E3C6E34
:100228002050000E386E120E396E7A0E3A6E000E9D
:100238003B6E1200000000000000000000000000FB
:100248001A02000000000000000040420F000300F6
:020000040020DA
:08000000FFFFFFFFFFFFFFFF00
:020000040030CA
:0E000000FF291F3CFFBF81FF0FC00FE00F4024
:00000001FF
