:0400000051EF00F0CC
:0C000800FACF12F0FBCF13F09DEF00F0D8
:10001800D8CF01F0E8CF02F0E0CF03F0FACF04F038
:10002800FBCF05F0E9CF06F0EACF07F0E1CF08F003
:10003800E2CF09F0D9CF0AF0DACF0BF0F3CF0CF00A
:10004800F4CF0DF0F6CF0EF0F7CF0FF0F8CF10F099
:10005800F5CF11F011C0F5FF10C0F8FF0FC0F7FF82
:100068000EC0F6FF0DC0F4FF0CC0F3FF0BC0DAFFA3
:100078000AC0D9FF09C0E2FF08C0E1FF07C0EAFFD4
:1000880006C0E9FF05C0FBFF04C0FAFF03C0E0FF9C
:1000980002C0E8FF01C0D8FF1000D2EF00F020EE48
:1000A80035F001D80AD00500FA6EDE50FD6EDE503C
:1000B800FE6EF850FF6EFA50120020EE3DF001D8A7
:1000C8000AD00500FA6EDE50FD6EDE50FE6EF85066
:1000D800FF6EFA50120020C025F021C026F022C081
:1000E80027F023C028F00F010F013A9D949C8BBC88
:1000F80002D0010E01D0000E246E243A2446244674
:100108008B502418BF0B24188B6E000E456E000E02
:10011800446E640E445C000E4558D8B0E8D7030E10
:10012800246E980EE82EFED7242EFCD7444A452A82
:10013800F0D7E9CF14F0EACF15F0E1CF16F0E2CF0F
:1001480017F0D9CF18F0DACF19F0F3CF1AF0F4CFAF
:100158001BF0F6CF1CF0F7CF1DF0F8CF1EF0F5CF4F
:100168001FF01FC0F5FF1EC0F8FF1DC0F7FF1CC021
:10017800F6FF1BC0F4FF1AC0F3FF19C0DAFF18C05E
:10018800D9FF17C0E2FF16C0E1FF15C0EAFF14C08F
:10019800E9FF13C0FBFF12C0FAFF1100456A446A69
:1001A800F40EF66E010EF76E000EF86E00EE29F0F2
:1001B80010EE1BF00900F5CFEEFFE550E150FAE133
:1001C800000EF86E000153EF00F0D3508C0B62095B
:1001D800D36E206E060E436E2050000E3F6E120E38
:1001E800406E7A0E416E000E426E12000000000052
:1001F8000000000000000000D20100000000000024
:10020800100240420F0003003FC020F040C021F020
:0A02180041C022F042C023F01200A2
:020000040020DA
:08000000FFFFFFFFFFFFFFFF00
:020000040030CA
:0E000000FF291F3CFFBF81FF0FC00FE00F4024
:00000001FF
