:0400000051EF00F0CC
:0C000800FACF12F0FBCF13F073EF02F000
:10001800D8CF01F0E8CF02F0E0CF03F0FACF04F038
:10002800FBCF05F0E9CF06F0EACF07F0E1CF08F003
:10003800E2CF09F0D9CF0AF0DACF0BF0F3CF0CF00A
:10004800F4CF0DF0F6CF0EF0F7CF0FF0F8CF10F099
:10005800F5CF11F011C0F5FF10C0F8FF0FC0F7FF82
:100068000EC0F6FF0DC0F4FF0CC0F3FF0BC0DAFFA3
:100078000AC0D9FF09C0E2FF08C0E1FF07C0EAFFD4
:1000880006C0E9FF05C0FBFF04C0FAFF03C0E0FF9C
:1000980002C0E8FF01C0D8FF1000A8EF02F0206EF0
:1000A800000E00010001696F205000010001675136
:1000B800800A800F0BE1000E0001665D07E1000E6B
:1000C8000001655D03E1000E0001645DD8B016D043
:1000D80000010001671F0001661F0001651F000184
:1000E800646D000E0001652300016623000167238B
:1000F800206E010E00010001696F2050000100010F
:100108006351800A800F0BE1000E0001625D07E178
:10011800000E0001615D03E1000E0001605DD8B0D2
:1001280014D000010001631F0001621F0001611F5C
:100138000001606D000E00016123000162230001CF
:100148006323010E00010001691B000E000100017C
:100158006A6F000E00016B6F000E00016C6F000EDD
:1001680000016D6F0001000167516411651166118E
:10017800D8B465D0206E010E00010001686F2050D0
:100188000DD00001D89000016437000165370001E7
:1001980066370001673700010001682B0001000184
:1001A80067AFEFD70001D89000016A3700016B37BD
:1001B80000016C3700016D37000100016451000136
:1001C8000001605D000100016551000100016159F5
:1001D800000100016651000100016259000100019F
:1001E8006751000100016359D8A01BD0000100012C
:1001F800645100010001605F0001000165510001C8
:100208000001615B00010001665100010001625BB1
:1002180000010001675100010001635B000100015A
:100228006A810001D890000167330001663300013C
:1002380065330001643300010001682FB3D7000162
:1002480000016951D8B410D0000100016D1F0001F0
:100258006C1F00016B1F00016A6D000E00016B230B
:1002680000016C2300016D236AC060F06BC061F06F
:100278006CC062F06DC063F01200000120EE94F0D3
:1002880001D80AD00500FA6EDE50FD6EDE50FE6E13
:10029800F850FF6EFA50120060C07AF061C07BF02F
:1002A80062C07CF063C07DF07AC060F07BC061F012
:1002B8007CC062F07DC063F000016EC072F0000186
:1002C8006FC073F0000170C074F0000171C075F068
:1002D800020ED89000017237733774377537E82EDD
:1002E800F8D772C064F073C065F074C066F075C06A
:1002F80067F053EC00F060C076F061C077F062C040
:1003080078F063C079F0FF0E000176250001000146
:100318007E6FFF0E0001772100017F6F0001000151
:100328007F51800A800F010ED8B47E5DD8A01200DC
:10033800B886AC84AC9800017FC072F072C073F0CC
:100348000001746B00017351B06E7EC0AFFF0F01E6
:100358000F013A9D0F010F013A9F948C948EAC8A3D
:10036800AB88AB8E1200000120EE94F001D80AD0C1
:100378000500FA6EDE50FD6EDE50FE6EF850FF6E20
:10038800FA50120060C07AF061C07BF062C07CF065
:1003980063C07DF07AC060F07BC061F07CC062F021
:1003A8007DC063F000016EC072F000016FC073F091
:1003B800000170C074F0000171C075F0020ED89091
:1003C80000017237733774377537E82EF8D772C063
:1003D80064F073C065F074C066F075C067F053ECE4
:1003E80000F060C076F061C077F062C078F063C05A
:1003F80079F0FF0E00017625000100017E6FFF0EE7
:100408000001772100017F6F000100017F51800A00
:10041800800F010ED8B47E5DD8A012007086728459
:10042800729800017FC072F072C073F00001746BA3
:1004380000017351766E7EC075FF938C938E728A1D
:100448007188718E1200000120EE8CF001D80AD05C
:100458000500FA6EDE50FD6EDE50FE6EF850FF6E3F
:10046800FA501200800E000100016E6F250E000187
:100478006F6F000E0001706F000E0001716F01D8E0
:100488000AD00500FA6E2D50FD6E2E50FE6EF85003
:10049800FF6EFA501200800E000100016E6F250EEB
:1004A80000016F6F000E0001706F000E0001716F88
:1004B80001D80AD00500FA6E2150FD6E2250FE6E5A
:1004C800F850FF6EFA501200A4AA03D074CFADFF03
:1004D800A49A9EAAF9D7AECF73FF9E9AF5D7E9CF13
:1004E80014F0EACF15F0E1CF16F0E2CF17F0D9CF2C
:1004F80018F0DACF19F0F3CF1AF0F4CF1BF0F6CFDB
:100508001CF0F7CF1DF0F8CF1EF0F5CF1FF01FC07D
:10051800F5FF1EC0F8FF1DC0F7FF1CC0F6FF1BC08B
:10052800F4FF1AC0F3FF19C0DAFF18C0D9FF17C0CB
:10053800E2FF16C0E1FF15C0EAFF14C0E9FF13C0CF
:10054800FBFF12C0FAFF11003F6A3E6ADD0EF66E2D
:10055800050EF76E000EF86E00EE80F010EE16F045
:100568000900F5CFEEFFE550E150FAE1C00EF66E56
:10057800050EF76E000EF86E00EE21F010EE1DF07D
:100588000900F5CFEEFFE550E150FAE1000EF86EF4
:10059800000127EF02F0D3508C0B6209D36E206E56
:1005A800060E3D6E2050000E396E120E3A6E7A0E0F
:1005B8003B6E000E3C6E120082020000000000003C
:1005C800000000006E0300000000000000000000B2
:1005D80040420F000300000000000000000000007F
:1005E800009E05000000000000F4050039C060F01E
:0E05F8003AC061F03BC062F03CC063F01200FC
:020000040020DA
:08000000FFFFFFFFFFFFFFFF00
:020000040030CA
:0E000000FF291F3CFFBF81FF0FC00FE00F4024
:00000001FF
