:020000040000fa
:080000000002040000000000f2
:020000040000fa
:100400002f9420000eff27000e018800000000003e
:100410000c00070080c62100010020000f0007002b
:10042000000020000000e000020032000000020096
:1004300000000000461d0200000000000040da003d
:100440000000fe00400120000000e0000200320039
:10045000002020009001880000000600a102880012
:10046000800078000000eb001a003700e2804000b6
:1004700054a0b4009101ba00e280400054a0b4003e
:100480009102ba00e280400054a0b4000002eb00e8
:10049000472bde00f507b200a6018800602ce100c2
:1004a00008003a000049eb000201e80002003900b0
:1004b0003420ec0002f0a0008301e900f9ff3e00c7
:1004c000040037006128e100010032000082eb00e7
:1004d000040007001101ba000200e000e3ff3a0047
:1004e0000000060004d0a300e20f49001c00390000
:1004f000810278003549ba000201e80002003900a3
:100500003420ec0002f0a0008301e9000f0032006b
:100510002549ba000201e800020039003420ec004d
:1005200002f0a0008301e900080032000400e000ae
:100530000600320015c9ba000201e80002003900c5
:100540003420ec0002f0a0008301e9008180e80083
:1005500054a0b4000300e000e2ff3a0000000600ef
:100560009102ba00055978008301e900f7ff3200d3
:10057000c82ade00055978008301e900f3ff320044
:100580000400e000f1ff320011d9ba00eeff37009d
:10059000e61504000000000024160400000000001e
:1005a000c216040000000000541604000000000001
:1005b000ec160400000000007e170400000000009c
:1005c000bc17040000000000321704000000000007
:1005d000581704000000000002180400000000008a
:1005e0000040da000000fe008600a9008620a90075
:1005f000e7416000c10a20009140780082cfb3003b
:1006000082c0600083c070008000fd00ace0b700d5
:100610008000fd0001c7b30081416000c10a2000d5
:1006200091407800f2c8b30082c0600083c07000bf
:100630008000fd00ace0b7008000fd0068016000b4
:100640004311de0061092000914078000104a100ff
:1006500082c070008000fd0096e0b7008000fd00c1
:100660000008b2004700de000040400061092000a1
:10067000914078000114a10080c070000100780052
:1006800096e0b700000006008a20a9008a40a90071
:10069000e7416000c419dd00c10b200091407800e3
:1006a000f2c8b30082c0600083c070008000fd000b
:1006b000bce0b7008000fd00800178000307b200b5
:1006c000c419de00d10b20009140780082cfb30026
:1006d00082c0600083c070008000fd00bde0b700f4
:1006e0008000fd00680160004311de00024141000e
:1006f000a1092000914078000114a10082c070007f
:100700008000fd009ae0b7008000fd000008b20004
:100710004700de004200dd00a10920009140780082
:100720000124a10080c07000010078009ae0b700a9
:100730000000060006c2bf000008a300fdff3a004b
:1007400006c2bf000018a300faff3a0006c2bf00ad
:100750000028a300f7ff3a0006c2bf000038a3003c
:10076000f4ff3a0006c2bf000048a300f1ff3a00c0
:1007700009c2bf000068a300eeff3a0000000600b7
:1007800016c2bf000008a300fdff3a0016c2bf005a
:100790000018a300faff3a0016c2bf000028a30009
:1007a000f7ff3a0016c2bf000038a300f4ff3a007a
:1007b00016c2bf000048a300f1ff3a0019c2bf00f3
:1007c0000068a300eeff3a000000060076c2bf00fa
:1007d0000008a300fdff3a0076c2bf000018a30086
:1007e000faff3a0076c2bf000028a300f7ff3a00e4
:1007f00076c2bf000038a300f4ff3a0076c2bf0003
:100800000048a300f1ff3a0079c2bf000068a300ce
:10081000eeff3a0000000600889fbe008a9fbe00df
:100820008c9fbe0080057800810678000206780063
:10083000800478000005eb00150037000662a80070
:100840000004eb00030037008c0f5400130031004c
:100850000804e800a40007000004e000faff3200ea
:100860000010800080767d008904e90002003a00d3
:1008700006a2a8000100370006a2a9000682a8006f
:1008800006c2bf000048a300fdff3a000a05e800c9
:100890008b0f5500e9ff3a008004eb000900780057
:1008a0004f06be004f05be004f04be00000006000c
:1008b000889fbe008a9fbe008c9fbe008005780086
:1008c0008106780002067800800478000005eb00bd
:1008d000150037001662a8000004eb000300370083
:1008e0008c0f5400130031000804e8008200070058
:1008f0000004e000faff32008010800080767d0066
:100900008904e90002003a0016a2a800010037009d
:1009100016a2a9001682a80016c2bf000048a300b4
:10092000fdff3a000a05e8008b0f5500e9ff3a0089
:100930008004eb00090078004f06be004f05be00a2
:100940004f04be0000000600889fbe008a9fbe00c4
:100950008c9fbe0080057800810678000206780032
:10096000800478000005eb00150037007662a800cf
:100970000004eb00030037008c0f5400130031001b
:100980000804e800600007000004e000faff3200fd
:100990008013800080767d008904e90002003a001f
:1009a00076a2a8000100370076a2a9007682a800ee
:1009b00076c2bf000048a300fdff3a000a05e80028
:1009c0008b0f5500e9ff3a008004eb000900780026
:1009d0004f06be004f05be004f04be0000000600db
:1009e0000080fb001010880008c2bf0001c8b300df
:1009f000014060000080fb000000e9004f00de00c5
:100a00000000e900000006000080fb009010880054
:100a100018c2bf0001c8b300014060000080fb00a5
:100a20000000e9004f00de000000e90000000600c1
:100a30000080fb009013880078c2bf0001c8b3009b
:100a4000014060000080fb000000e9004f00de0074
:100a50000000e9000000060006a2a8000682a80027
:100a60000000060016a2a8001682a80000000600da
:100a700076a2a8007682a800000006002110880057
:100a80003010880000000600a1108800b010880017
:100a900000000600a1138800b013880000000600c3
:100aa0000622a800000006001622a800000006008a
:100ab0007622a800000006000602a800000006003a
:100ac0001602a800000006007602a800000006003a
:100ad0000642a800000006001642a800000006001a
:100ae0007642a8000000060008c2bf000000d10046
:100af000610060000000060018c2bf000000d100c5
:100b0000610060000000060078c2bf000000d10054
:100b1000610060000000060003f0a200889fbe0094
:100b20008a9fbe008c1f78003d01070044013300fe
:100b30006450e1004f0032006420e10052003200b6
:100b400003826c0007003b000905d0000306d000bb
:100b5000820f54000c065d000200390002003200d2
:100b600089017800030678008582550004003d0065
:100b70000003fd008103fd008502ea008b85420031
:100b8000840f720002003b0060001000e08018003b
:100b90006011b8000005eb007a28e1000a00390076
:100ba00006007800c75ddd00f707b200878075009a
:100bb0002d003700828171000a0178006105600014
:100bc0008180d1000080d3008502e900f9ff3b005d
:100bd000060440008784480002003b0060041400c3
:100be000e0841c000988a300070032008a8171009c
:100bf00082817100610164008904d1000884d300fe
:100c00008b05e800170037000978a30013003a00ad
:100c10000b00e000130034008b05e90008044400d9
:100c200089844c000a4474000978a3000d003a003e
:100c30000b00e000070034008b05e90008044400c5
:100c400089844c0001003a000b0020000978a300c1
:100c5000f7ff32000001eb000200370082817100d3
:100c60000a017800b30007000cf0a70001f0a00013
:100c7000fc0037006420e10002003a00838f6c0022
:100c8000fc0033000801be000200be00f500370082
:100c9000889fbe008a9fbe008c1f7800e00007007e
:100ca000e700330003866c006450e1002e00320040
:100cb0006420e100330032006150e1002f00320077
:100cc0006120e1003100320085855500eb07b0005e
:100cd0000900200008042000050037000804440033
:100ce00089844c000a0031000603430087834b00cf
:100cf0000001530081815b00f8ff33000203be0056
:100d00000800a0000804440089844c00f6ff390064
:100d1000c639dd008301730001003200130020009a
:100d20008904d1000884d3000998a300050032008b
:100d30000800a7000300a0008904d1000884d300a4
:100d40008b05e8008904d1000884d3000001eb0082
:100d50000281d2007700070001f0a1000cf0a7008b
:100d600001f0a000bf0037006420e100c1003200a4
:100d70000801be000200be00f7ff37006120e1005d
:100d8000bc0032006000b800f3ff37000000200014
:100d900001f82700f0ff37000001be008b000700bc
:100da0000470a70003f0a1006509b100160032002d
:100db0000d0035006828e10006003500f0ff2f0027
:100dc000f1ff27000300e00013003b0001002800b2
:100dd0000000050000004000818048008502e90015
:100de000fcff3a0008003700f88f420002003c0088
:100df0008000eb00000005008100d1000080d300de
:100e00008502e800fcff3a000300e00002003b001e
:100e100060001000e0801800000006000001be0025
:100e20006a0007000470a70003f0a10003f8a30004
:100e300013003a006509b1001000320009003500c6
:100e40006928e100020035000100280000000500cb
:100e500000004000818048008502e900fcff3a0064
:100e600000000600f88f4200050035008100d10027
:100e70000080d3008502e800fcff3a000000060075
:100e80008000eb0000000500889fbe008a9fbe0026
:100e9000010578000100e0000400350008003c0076
:100ea0000000e00020003200050037006000100064
:100eb000e080180002003b0001f02c001a0037000f
:100ec0000004be006011b8006b0920000982cf0049
:100ed000020039000882cf000441b000694252008c
:100ee0000e00320008003b00828171006101640045
:100ef0008904d1000884d3008b05e8000442e8008f
:100f0000f9ff3a00050037000804440089844c00ca
:100f10008b05e9000442e900fbff3a0005000700e9
:100f20000af0a70001f0a0004f05be004f04be006c
:100f30000000060081002000618055000b003d008c
:100f40000b00200061fe2f000100e1001d003400b5
:100f500082817100610164008904d1000884d3009a
:100f60000000e800faff3a00710020006100640010
:100f700003007000020060000900320061044400b8
:100f8000e0844c000988a500050032008b05e800cc
:100f90006808e10002003a008904d1000884d30007
:100fa000f20f20000258e10005003d00c75ddd00a2
:100fb000f907b2008980750008007800000006007b
:100fc0000bf827008b00780000000500c70ade0040
:100fd000f107b200f50fb20008003200e1cf420085
:100fe000020032000170a00024000500810f700093
:100ff000010032000408050044000500810f700064
:1010000002003a00140005008502e90000004000db
:1010100081c04800fcff3b000170a00024000500d7
:101020000004be00e9ff07000003be000405be0087
:101030000200be00e5ff0700844f750000000600b7
:101040000200be006450e100050036006420e100ab
:10105000020036000968a30001003a000800be0043
:101060000160a0004f0678004f05be004f04be008f
:1010700000000600f0ff2f00f1ff2700f9ff370006
:101080000c00fa00889fbe0000047800cfb09700e3
:10109000f0ff2700d0bf9f008004eb0099bf9f00a6
:1010a00088bf9f00a8bf9f00200c2000b0bf9f00fa
:1010b0007881570070805700080007000fb897002c
:1010c000094878000fb8970008045000080078001d
:1010d0004f04be000080fa0000000600fe874700b3
:1010e000889fbe008a9fbe008c9fbe008e1f780026
:1010f000f0b79f000107780082bf9f000000eb005f
:10110000a0b79f009f0237008006eb0050c2b300db
:1011100080cf5000090032000100fb00ffb09700b3
:10112000a3020700e10f400096023200afb0970023
:101130008100e800a1b79f00920237009e4078002e
:10114000d0c2b30080cf50000c00320007003c003a
:101150006d40500080cf50000a0032006b404000cc
:1011600080cf50000e003a000800370000c3b300e3
:1011700080cf50000a003a00060037000d30a00072
:10118000050037000d00a000030037000d10a0007f
:10119000010037000d20a0000e07e800e7ff370030
:1011a0000d18a300010032000d00a1000d38a300ae
:1011b000010032000d20a1000100fb0002fd2f0004
:1011c00002004000e90f50000e003e000002eb005c
:1011d000c4b79f0082017800cfb297006a28b90097
:1011e0001e01fb000001410003014100c2b79f0046
:1011f0005e00fb0003004000e90f50000b003e00c2
:10120000f5ff37000006eb00ccb79f00a0c2b3008b
:1012100080cf500005003a000fb89700c00078005a
:1012200080bf9f00c1b79f000e07e8000001eb00e0
:10123000b2b79f00e0c2b3009e4f100018003a0002
:101240000de0a0008e00e80064405000914f1000b7
:1012500002003200010778000c0037000fba970037
:10126000c402780084bf9f00b5b79f000e87e800d6
:101270000b0037003fb697006a60b90000004100dc
:1012800003004000b0b79f000e07e8001e01fb00fe
:1012900003fd2f0003004100e90f5000f5ff360069
:1012a000be407800e1d79f00c0c6b30080cf500099
:1012b000220032000f003c006940500080cf5000f7
:1012c0007700320004003c000104e00031023200eb
:1012d0006b4050000f00370040c6b30080cf500075
:1012e000930032006540400080cf50008b003a00f0
:1012f0008f00370030c7b30080cf50001a00320093
:1013000007003c006440500080cf500011003200c4
:101310000040e80080cf500080003a000f00370006
:1013200050c7b30080cf50008000320063404000bf
:1013300080cf500079003a000900370000002800f3
:101340000d48a30001003a000001200080867600cd
:10135000d3ff37000d60a000750037000d50a000ce
:101360000d70a000720037008fb897004100780020
:1013700081bf9f00000478000000e00001003a00f7
:10138000a88e20008004eb00010037008104e800f3
:1013900089007800088044001004e000fbff3a0058
:1013a0003fb197000200e00003003200890f5100b6
:1013b00001003100820478000002eb00e4af9f00de
:1013c000cfb29700898f5200020036000980520088
:1013d000e0af9f004368de00e10660001b003a00ba
:1013e0000d06780009003700ffb0970000022000ca
:1013f000ef010700e10f4000030032002fb097001b
:101400000000e800a0b79f000c06e800efa89700d6
:10141000810f5600f4ff3a000081eb00e2af9f001d
:101420000a003700880078003100fb0001047800d2
:10143000ffb09700de010700e10f4000030032001b
:101440002fb297000402e800a4b79f000900e9004a
:1014500080047800e10f4000f2ff3a000006eb0044
:101460000d00e0000a003a00c6013700ffb0970007
:1014700000022000ce010700e10f4000030032000f
:10148000afb297008502e800a5b79f000c06e80000
:101490006fa89700800f5600f4ff3a00b90137009b
:1014a0008fb897004100780081bf9f00cf80de0099
:1014b00001017800820178000205be000004be0030
:1014c0000203be000002be004822de00482edd00fe
:1014d00004027600e4d79f000d48a3000a00320002
:1014e0000404e00008003200e14f42000600320030
:1014f00071fd2f00018047000448780018409800d3
:101500002900200002003700f0d79f0019002000ba
:1015100072fd2f0002844700a1ff370064fd2f00f9
:1015200004844700190020009dff37000d0cb30014
:101530000d007800000cb20028003a000d00e00019
:1015400005003d008fba97004505be004504be006a
:1015500085bf9f00140037000d48a3000b00320028
:101560000fbe97004c00be008cbf9f004f89de006d
:10157000cf91de000002be000203780082037800f3
:101580000605be000404be00070037008fb89700b0
:101590004100780081bf9f0000047800cfc4de00c6
:1015a000090578008a057800e00f5400e08f5c00a0
:1015b000e00f5d00e08f5d001f003d003d00b300c7
:1015c0006000b8006011b800080450008984580019
:1015d0000a0559008b855900170037000d00e000ff
:1015e00005003d000fb997004205be004204be0051
:1015f00082bf9f00100037000d48a3000700320093
:101600000fba97004400be0084bf9f006011b8006d
:101610000205be000004be00070037008fba970025
:101620004500780085bf9f00000478000900200075
:101630000a0020000b0020003fb697000c00e000dd
:1016400007003a00e00f5400e08f5c00e00f5d00ff
:10165000e08f5d0002003a0010002000b0b79f004c
:101660008d007800010cb200e1b79f00000420005b
:10167000808f50003000320003003c000100e00089
:101680000800320040003700000820006fb19700ca
:10169000800f510014003200000c2000800f510018
:1016a00039003a0014c0b300a58420000b003700b5
:1016b0000400fb004300dd00050040005001be00b7
:1016c0004000be000040e10001c8e10002d0e1009e
:1016d00003d8e1002b0039000442e800f44f520027
:1016e000f3ff3a002700370000012000010020002e
:1016f0006011b80014c0b3000040e10001c8e1006f
:1017000002d0e10003d8e1001e00390045002000ae
:101710000000d0008180d2000281d2008381d200fb
:101720008502e900faff3a000442e800f04f520057
:10173000f1ff3a0013003700800020000100200074
:101740006011b80014c0b3000040e10001c8e1001e
:1017500002d0e10003d8e1000a0039003c0020007b
:101760000000d0008180d2000281d2008381d200ab
:101770000c06e900faff3a000442e800f54f520077
:10178000f1ff3a00e4d79f00efd097000100fb0083
:101790003fb19700820f500002003d00e2d79f004a
:1017a000040037003fb29700800f520001003d0057
:1017b000b0b79f00cfb297000500e00004003200f0
:1017c00063806600020032008502e900c5b79f0011
:1017d0000de8a3000b0032004fb697003fb0970012
:1017e000800f560003003c008000eb00c1b79f0053
:1017f000040037004fb197003fb297000401510039
:10180000c2b79f00efd297000500fb000006eb0077
:10181000dcaf9f00cfb09700808f500002003400f3
:1018200000805000d0af9f000d28a3003700320089
:10183000e18066000d18a3000c003200d0022000e9
:101840000100e00001003a000080e900ffb09700cd
:10185000d7000700e10f40000e0032002fb19700c3
:101860000201e800a2b79f000a0037000100e00073
:1018700008003200ffb0970000022000cc000700f3
:10188000e10f4000030032002fb297000402e8008d
:10189000a4b79f00dfaa97000500e0000f00320008
:1018a0000006eb00ffb0970000032000c000070017
:1018b000e10f4000030032002fb097000000e80065
:1018c000a0b79f000c06e800dfa89700810f560024
:1018d000f4ff3a000001eb00d2af9f003fb2970047
:1018e000c320dd00208420008080400091b79f004d
:1018f0004220dd006400500080b79f006320b900e3
:10190000f0af9f006306500084003700dfaa970005
:101910000500e00011003200688066000f003a0008
:1019200000067800ffb0970000022000a00007002a
:10193000e10f4000030032002fb097000000e800e4
:10194000a0b79f000c06e800dfa89700810f5600a3
:10195000f4ff3a000001eb00d2af9f00e180660087
:101960000d18a3000c003200d00220000100e0009e
:1019700001003a000080e900ffb097008c000700ea
:10198000e10f4000d5ff32002fb297000402e800bb
:10199000a4b79f00d1ff37000100e000cfff320065
:1019a000ffb097000002200081000700e10f400017
:1019b000caff3200afb297008502e800a5b79f00ca
:1019c000c6ff370000042000efb09700808f500062
:1019d0003100320003003c000100e000080032004a
:1019e0003e003700000820006fb19700800f5100c3
:1019f00011003200000c2000800f510037003a0027
:101a00001fb097003002be002003be000800be00d9
:101a10000a01be00d1010700a4002000050020003b
:101a20006033b800d401070004c3b300044240008f
:101a3000e4d79f0029003700158f2000d5b79f00fd
:101a40000d58a30002003a0020902000d0b79f005c
:101a500014002000050020006033b8008fb097000c
:101a60008100e900050033000402d0008582d20025
:101a70000683d2008783d200f9ff37000800be003a
:101a80000a01be00b50107006f0060005fb197005a
:101a9000624078001000370014002000050020008c
:101aa0006033b8000c0078000000e9000500330046
:101ab0000402d0008582d2000683d2008783d20040
:101ac000f9ff37000800be000a01be00a3010700ad
:101ad000674060000043b000e0d79f00efd0970060
:101ae0000100fb00ffb0970031000700e10f40004c
:101af000030032002fb197000201e800a2b79f0057
:101b00001fb297006802520094b79f008fb29700ef
:101b1000e482520085b79f0063065600d0ff2f0075
:101b20003fb197000090b9007faa970000004200e3
:101b300063005000800f5600a2ff3a000d38a3004a
:101b400010003200dfaa97000500e0000d0034000d
:101b50000006eb00ffb09700000220001400070011
:101b6000e10f4000030032002fb097000000e800b2
:101b7000a0b79f000c06e800dfa89700810f560071
:101b8000f4ff3a00be407800e1d79f000104e00076
:101b90005dfd3a002fb097004f0778004f06be005a
:101ba0004f05be004f04be00ef01b100000006006b
:101bb000889fbe000001780001047800b100900009
:101bc0000118a300400032000198a30003003a006e
:101bd000180090000000e0003b003a000190a000d7
:101be0003104980082047800f90fb20018009000c8
:101bf0000000e00002003a0028009000000c78008d
:101c0000ea8f540006003a00380090000078a300e4
:101c100003003a0088007800d0002000e4ff0700ad
:101c2000180290006121b90058009000e80090006f
:101c3000800f5100818f59000b0032000400e80032
:101c4000100498001800780009587800000c7800fb
:101c500011c0b300e093200001487800ea8f5400df
:101c6000060032001900370088007800094078002b
:101c70001900070080047800140037003800900035
:101c80000088a3001100320018019000a800900005
:101c9000480090005300070098009000810f50000a
:101ca00004003200380090000003b30030049800b4
:101cb0008084eb000000eb001004980028009000e6
:101cc000000c7800010037008084eb0009007800e8
:101cd0004f04be00000006000200fa00889fbe000c
:101ce000a0ff9f0001047800b100900081047800fb
:101cf0000904b200020032000000fb003600370089
:101d00000118a30005003a000103b3003104980054
:101d1000190498000080eb002f0037005800900055
:101d20000000e00006003a00480090001200200089
:101d3000e68057002b0007001904980024003700a4
:101d4000280090000000e00008003a00a093200066
:101d500020049800000c7800200020005004980017
:101d6000100498000130a000310498001801900080
:101d7000a8009000480090001a000700280090007a
:101d8000000c78000080eb00100498001800780028
:101d9000aff8970001587800000c78002ff89700f2
:101da000ea4f50000a003a00380090000088a30073
:101db0000700320018019000a80090004800900031
:101dc0000800070019049800a8009000010c780092
:101dd000aff897000100fb004f04be000080fa003e
:101de000000006000a00fa0080017800e20f5000af
:101df00028003e00004a8000e10f50000800320039
:101e0000802320000000e0000500320004232000b1
:101e1000252320004623200080017800040037009d
:101e200004222000252220004622200083222000b8
:101e3000144090000004e000040035008009eb002d
:101e4000144090000074a0001042980015409000cb
:101e50000028a30003003a00154090000024a000d1
:101e6000904298008001eb00070037001540900079
:101e70000008a300fdff320063c078000000fb00f3
:101e8000000b78008301e800828f5100f7ff3a00d1
:101e90000800370030002000b0bf9f00c3bf9f0084
:101ea000d1bf9f00e2bf9f006a80570000c0da00e8
:101eb0006fb99700020078000080fa000000060069
:101ec000881f7800000478005001be004000be006a
:101ed00004004000858048000601490087814900d0
:101ee000009cbe000294be000400e1000588e100f1
:101ef0000690e1000798e10002003100680044000c
:101f00001008e8004f04780000000600f48747003e
:101f1000889fbe008a9fbe008c9fbe008e1f7800e7
:101f20000205be000004be00d4b79f00e5b79f00c5
:101f3000f6b79f0087bf9f000000eb00c0b79f006f
:101f4000b0b79f00a0b79f0090b79f0080b79f00d9
:101f50000d042000bfb097004fb097000001400073
:101f60000000e0000f003d004f08de00000071009f
:101f7000c0b79f004d00070001003d001200200087
:101f80005000070001003d0012002000550007002e
:101f900061000700660007000f004000c8ff07004f
:101fa000220037004f08de0000067100ccb79f000a
:101fb0003e00070001003d00120020004100070024
:101fc00001003d00120020004600070052000700fb
:101fd0000fb297009fb297002fb39700bfb397003f
:101fe000590007000000520081805a0002015b0086
:101ff00083815b0080b79f0091b79f00a2b79f00cd
:10200000b3b79f000007eb004f0007000020e1007e
:1020100001a8e10002b0e10003b8e10001003100d5
:102020001e0020000e005600c0b79f004fb2970060
:102030000400e0000700350010002000010020002f
:102040006011b80008047000898470000a057100ee
:102050008b8571008d06e900beff3a000400e000a8
:1020600003003d00320007000f00400094ff07000e
:102070004fa897000000e00004003a000fb497005a
:102080009fb497002fb59700bfb597000800be001a
:102090000a01be004f0778004f06be004f05be0084
:1020a0004f04be004f01b100000006000180400057
:1020b00090b79f000001eb008fb097000100e00097
:1020c000000006000200700090b79f0001804000f1
:1020d00080b79f000001eb00ffa897000100e0001f
:1020e000000006000200700080b79f0001804000e1
:1020f0006faa9700cf20de0001007000f0af9f00b4
:10210000040242000800be000a01be004f18de00b3
:102110000002720000000600e4af9f0008044400c3
:1021200089844c000a054d008b854d000000060097
:102130003fb29700cfb297005fb39700efb397001d
:1021400000fe2f00000006003fb09700cfb09700c0
:102150005fb19700efb1970000000600881f78007c
:1021600018002000881f780068ff07008f87e900ab
:102170004f04780000000600801feb0063ff07009b
:102180008f87e90000000600889fbe008a9fbe007e
:102190008c1f78000205be000004be00e00f500056
:1021a000e08f5800e00f5900e08f59000c003d000f
:1021b0006000b8006011b80008045000898458001d
:1021c0000a0559008b8559001c0020001f000700dc
:1021d00008003d00180007000006eb00050037006e
:1021e0000006eb001900070002003d000f00070089
:1021f0001c0020000800be000a01be00d7ff070037
:102200000203be000002be000c00e000010032002c
:10221000060007000400be000601be004f0678005d
:102220004f05be004f04be00000006006000b8006d
:102230006011b80000003700040250008582580089
:10224000060359008783590000000600e00f520082
:10225000e08f5a00e00f5b00e08f5b00000006009b
:10226000889fbe008a9fbe008c1f78000205be00ba
:102270000004be00e00f5000e08f5800e00f59004e
:10228000e08f59000a003d006000b8006011b800fe
:1022900008045000898458000a0559008b855900ac
:1022a0001c0020001800070007003d000500370053
:1022b0000006eb001400070003003d006000b800ba
:1022c0006011b800150007000800be000a01be003a
:1022d000a9ff07000203be000002be000c00e000e0
:1022e000030032006000b8006011b8000b00070066
:1022f0000400be000601be004f0678004f05be0078
:102300004f04be0000000600e00f5200e08f5a00ac
:10231000e00f5b00e08f5b0000000600040250004d
:102320008582580006035900878359000000060083
:020000040000fa
:020000040005f5
:0457f800bf7f00006f
:020000040000fa
:020000040005f5
:0457fc007f3e0000ec
:020000040000fa
:10000800f0020000f0020000f0020000f002000020
:10001800f0020000f0020000f0020000f002000010
:10002800f0020000f0020000f0020000f002000000
:10003800f0020000f0020000f0020000f0020000f0
:020000040000fa
:020000040000fa
:1023300025640000200000004252000049470000d0
:102340004f53000048410000205400004543000066
:08235000482e0000000000000f
:020000040000fa
:102358000c00fa00889fbe003007980041079800db
:10236800224f980000902000d10320001007980009
:102378002107980070c2b300004f7800a604070038
:1023880010079800210798001e009000ae009000ea
:10239800bbfa07000004be003e009000ce0090008b
:1023a800b7fa07000001be000800be0036fa0700b1
:1023b8000004be001e009000ae009000b0fa0700b6
:1023c8000268290083b12c002ffa07000001be0023
:1023d8000800be00cff907000200200003f8230020
:1023e800cbf907008bfa0700004f78002e489000c1
:1023f8000080fb007af807009e80fb0000002800a0
:102408009cf907004f04be000080fa000000060097
:102418000c00fa00889fbe0030079800410798001a
:10242800224f980000902000d10320001007980048
:102438002107980030c0b300004f780076040700e9
:1024480010079800210798001e009000ae00900029
:102458008bfa07000004be003e009000ce009000fa
:1024680087fa07000001be000800be0006fa070050
:102478000004be001e009000ae00900080fa070025
:102488000268290083b12c00fff907000001be0093
:102498000800be009ff907000200200003f823008f
:1024a8009bf907005bfa0700004f78002e48900060
:1024b8000080fb0072f807009e80fb0000002800e7
:1024c8006ff907004f04be000080fa000000060004
:1024d8000c00fa00889fbe0030079800410798005a
:1024e800224f980000902000d10320001007980088
:1024f8002107980030c0b300004f78004604070059
:1025080010079800210798001e009000ae00900068
:102518005bfa07000004be003e009000ce00900069
:1025280057fa07000001be000800be00d6f90700f0
:102538000004be001e009000ae00900050fa070094
:102548000268290083b12c00cff907000001be0002
:102558000800be006ff907000200200003f82300fe
:102568006bf907002bfa0700004f78002e489000ff
:102578000080fb0042f807009e80fb000000280056
:1025880042f907004f04be000080fa000000060070
:102598000800fa0020479800314798002207980061
:1025a800634798002e409000004040002047980064
:1025b8003ff907005df8070009c2bf0001c8b30072
:1025c800014060000004e000fbff3a002e4090004c
:1025d80001f90700004f780054f8070009c2bf004e
:1025e80001c8b300014060000004e000fbff3a00ae
:1025f8003e409000f8f80700004f78004bf80700bd
:1026080009c2bf0001c8b300014060000004e00037
:10261800fbff3a000d0037002e00900010407800b4
:10262800edf80700004f780040f8070009c2bf0026
:1026380001c8b300014060000004e000fbff3a005d
:102648002e0090000000e800200798006e409000df
:102658000040e900604798006e409000e14f40005c
:10266800edff3a0018f9070030f807001e00fb00dc
:102678000080fa00000006000800fa0020479800d1
:102688003147980022079800634798002e40900031
:10269800004040002047980007f9070036f8070077
:1026a80019c2bf0001c8b300014060000004e00087
:1026b800fbff3a002e409000d1f80700004f780049
:1026c8002df8070019c2bf0001c8b300014060001f
:1026d8000004e000fbff3a003e409000c8f8070005
:1026e800004f780024f8070019c2bf0001c8b300e2
:1026f800014060000004e000fbff3a000d003700d5
:102708002e00900010407800bdf80700004f7800b8
:1027180019f8070019c2bf0001c8b30001406000e2
:102728000004e000fbff3a002e0090000000e800e3
:10273800200798006e4090000040e900604798002c
:102748006e409000e14f4000edff3a00e0f80700ce
:1027580009f807001e00fb000080fa0000000600d0
:102768000800fa002047980031479800220798008f
:10277800634798002e409000004040002047980092
:10278800cff807000ff8070079c2bf0001c8b300ef
:10279800014060000004e000fbff3a002e4090007a
:1027a800a1f80700004f780006f8070079c2bf00bb
:1027b80001c8b300014060000004e000fbff3a00dc
:1027c8003e40900098f80700004f7800fdf707009a
:1027d80079c2bf0001c8b300014060000004e000f6
:1027e800fbff3a000d0037002e00900010407800e3
:1027f8008df80700004f7800f2f7070079c2bf0094
:1028080001c8b300014060000004e000fbff3a008b
:102818002e0090000000e800200798006e4090000d
:102828000040e900604798006e409000e14f40008a
:10283800edff3a00a8f80700e2f707001e00fb00ca
:102848000080fa00000006000a00fa0040479800dd
:102858005147980032079800034f98000e4890009f
:102868008080fb00400620000088b900100798000f
:102878004e4090000080fb0000004000004f7800b0
:102888008bf80700a9f7070009c2bf0001c8b30009
:10289800014060000004e000fbff3a001e407800a1
:1028a8004df8070010479800a0f7070009c2bf00bd
:1028b80001c8b300014060000004e000fbff3a00db
:1028c8005e40900044f807001047980097f707000b
:1028d80009c2bf0001c8b300014060000004e00065
:1028e800fbff3a0091f707006bf807008ff7070026
:1028f80009c2bf0001c8b300014060000004e00045
:10290800fbff3a004e4090000080fb0000004000b2
:10291800804078000104a000014f78001e40780034
:102928002df8070081f7070009c2bf0001c8b300ee
:10293800014060000004e000fbff3a001e01900027
:102948000e4890000080fb00be009000b0f7070022
:1029580076f707003ef8070074f707005af80700f3
:1029680072f707001e4090000000fb000080fa008c
:10297800000006000a00fa004047980051479800f6
:1029880032079800034f98000e4890008080fb00a3
:10299800400620000088b900100798004e409000bb
:1029a8000080fb0000004000004f780042f807005c
:1029b80071f7070019c2bf0001c8b30001406000e9
:1029c8000004e000fbff3a001e4078000cf8070006
:1029d8001047980068f7070019c2bf0001c8b30084
:1029e800014060000004e000fbff3a005e409000f8
:1029f80003f80700104798005ff7070019c2bf00e7
:102a080001c8b300014060000004e000fbff3a0089
:102a180023f8070058f7070019c2bf0001c8b30020
:102a2800014060000004e000fbff3a004e409000c7
:102a38000080fb0000004000804078000104a000f6
:102a4800014f78001e407800edf707004af70700ad
:102a580019c2bf0001c8b300014060000004e000d3
:102a6800fbff3a001e0190000e4890000080fb001a
:102a7800be0090008cf707003ff70700f7f7070044
:102a88003df7070012f807003bf707001e409000cb
:102a98000000fb000080fa00000006000a00fa00af
:102aa800404798005147980032079800034f980014
:102ab8000e4890008080fb00400620000088b90086
:102ac800100798004e4090000080fb000000400076
:102ad800004f7800faf707003af7070079c2bf00fd
:102ae80001c8b300014060000004e000fbff3a00a9
:102af8001e407800ccf707001047980031f7070010
:102b080079c2bf0001c8b300014060000004e000c2
:102b1800fbff3a005e409000c3f70700104798009b
:102b280028f7070079c2bf0001c8b3000140600060
:102b38000004e000fbff3a00dbf7070021f707007d
:102b480079c2bf0001c8b300014060000004e00082
:102b5800fbff3a004e4090000080fb000000400060
:102b6800804078000104a000014f78001e407800e2
:102b7800adf7070013f7070079c2bf0001c8b3001b
:102b8800014060000004e000fbff3a001e019000d5
:102b98000e4890000080fb00be00900068f7070018
:102ba80008f70700b0f7070006f70700caf707009d
:102bb80004f707001e4090000000fb000080fa00a8
:102bc800000006000200fa00004f78001e80fb009b
:102bd800610060000004e00002003200c802a800a2
:102be800e204a8001e80fb000000d1006100600024
:102bf8000004e00002003200c822a800e224a80075
:102c08001e80fb004200de00610060000004e0005e
:102c180002003200c842a800e244a8001e80fb005f
:102c28004300de00610060000004e00002003200a2
:102c3800c862a800e264a8000080fa00000006004c
:102c48000200fa00004f78001e80fb00610060005f
:102c58000004e00002003200e022a900e422a900fa
:102c68001e80fb000000d100610060000004e0004d
:102c780002003200e042a900e442a9001e80fb00e5
:102c88004200de00610060000004e0000200320043
:102c9800e062a900e462a9000080fa0000000600d2
:102ca8000200fa00004f78001e80fb0061006000ff
:102cb8000004e00008003200d962a900dd62a90022
:102cc800c16c20009140780000ccb30000c06000c7
:102cd8002041b300cce6b7001e80fb000000d10005
:102ce800610060000004e00008003200d902a90079
:102cf800dd02a900216c20009140780000ccb300cf
:102d080000c060003041b300c2e6b7001e80fb007f
:102d18004200de00610060000004e00008003200ac
:102d2800d802a900dc02a900b16c2000914078000b
:102d380000ccb30000c060004041b300cbe6b70050
:102d48001e80fb004300de00610060000004e0001c
:102d580008003200d822a900dc22a900816d2000d9
:102d68009140780000ccb30000c060005041b3002f
:102d7800d8e6b7000080fa00000006000200fa005a
:102d8800004f78001e80fb00610060000004e00036
:102d980004003200c942a900c962a900cd42a900b5
:102da800cd62a9001e80fb000000d1006100600018
:102db8000004e00004003200c982a900c9a2a900e9
:102dc800cd82a900cda2a9000080fa00000006006b
:102dd8000200fa00004f78001e80fb0061006000ce
:102de8000004e00003003200e002a800e202a900ab
:102df80002003700e002a900e202a9001e80fb00e1
:102e08000000d100610060000004e000030032000f
:102e1800e822a800ea22a90002003700e822a90057
:102e2800ea22a9001e80fb004200de00610060006b
:102e38000004e00004003200ea04a900e802a80047
:102e4800ea02a90003003700ea04a900e802a90081
:102e5800ea02a9000080fa00000006000000fa005b
:102e6800e284a900e2a4a900c882a800c8a2a90017
:102e7800416a20009140780000ccb30000c0600097
:102e8800c041b300a4e6b700216d2000914078004e
:102e980000ccb30000c060003040b300d2e6b700f9
:102ea8000080fa00000006000000fa00e3e4a90030
:102eb800e3c4a900c9e2a800c9c2a900616a200048
:102ec8009140780000ccb30000c06000d041b3004e
:102ed800a6e6b700e16c20009140780000ccb30072
:102ee80000c060005040b300cee6b7000080fa0092
:102ef800000006000000fa00d8a2a900d882a800a5
:102f0800d862a900d842a900416d200091407800fc
:102f180000ccb30000c060009040b300d4e6b70016
:102f2800816a20009140780000ccb30000c06000a6
:102f38009041b300a8e6b700616d20009140780089
:102f480000ccb30000c060007040b300d6e6b70004
:102f5800716d20009140780000ccb30000c0600083
:102f68000034a000d7e6b7000080fa000000060091
:102f78000000fa00ed24a900ed04a900ece4a90082
:102f8800ecc4a900f122a900f102a800f0e2a9000e
:102f9800f0c2a900b16d20009140780000ccb300c8
:102fa80000c06000c040b300dbe6b700c16a200083
:102fb8009140780000ccb30000c060003041b300fd
:102fc800ace6b700a16d20009140780000ccb300ba
:102fd80000c06000a040b300dae6b700516d2000e1
:102fe8009140780000ccb30000c06000b040b3004e
:102ff800d5e6b7000080fa00000006000000fa00dd
:10300800113a8000f00b200000816000610420006c
:1030180070052000237420008149780080497800d9
:103028008249780091418000f0c0b300010001009e
:10303800a141800070c0b30001000100b1418000cf
:1030480030c0b30001000100c1418000f0c0b300ee
:1030580001000100d141800070c0b30001000100ef
:10306800e041800000000100f04180000000010004
:1030780000428000000001001042800000000100b2
:10308800113a8000000420000081700061042000d3
:103098007005200023742000814978008049780059
:1030a800824978000080fa00000006000000fa005b
:1030b800605e21009041880040622100a0418800a4
:1030c800206c2100b041880040652100c041880083
:1030d800c06e2100d0418800e077210000428800be
:1030e800c07b21001042880020732100e041880045
:1030f80080752100f041880020802100204288004e
:103108000080fa00000006000000fa0002c8b300c0
:1031180000a8210061002000edfc070080022000cb
:10312800cc01070080c3b30046e8b70013c0b30062
:10313800628420008040eb00e0c3b30088fd0700f4
:1031480010002000c301070090c3b30046e8b70091
:1031580013c0b300628420008040eb00e0c3b300da
:103168007ffd070010002000ba01070040c1b3002e
:1031780046e8b70013c0b300628420008040eb002b
:10318800e0c3b30076fd070010002000b10107007e
:1031980080c7b30046e8b70013c0b30062842000bc
:1031a8008040eb00e0c3b3006dfd07001000200075
:1031b800a8010700d0c5b30046e8b70013c0b300a4
:1031c800628420008040eb00e0c3b30064fd070088
:1031d800100020009f010700d0c6b30046e8b700e2
:1031e80013c0b300628420008040eb00e0c3b3004a
:1031f8005bfd0700800c200096010700c0c0b300eb
:1032080046e8b70013c0b300628420008040eb009a
:10321800e0c3b30052fd0700100020008d01070035
:1032280010c0b30046e8b70013c0b30062842000a2
:103238008040eb00e0c3b30049fd070020002000f8
:103248008401070060c0b30046e8b70013c0b300ac
:10325800628420008040eb00e0c3b30040fd07001b
:10326800a00020007b01070090c3b30046e8b70028
:1032780013c0b300628420008040eb00e0c3b300b9
:1032880037fd0700100020007201070010c0b300ce
:1032980046e8b70013c0b300628420008040eb000a
:1032a800e0c3b3002efd07002000200069010700dd
:1032b8000080fa00000006001a00fa004057980043
:1032c80051579800320f98000040eb0020479800b3
:1032d8000040eb00004f78004e509000e14f500046
:1032e80002003a0082000700010037008a00070048
:1032f80080c3b30046e8b70013c0b300628420005f
:103308008040eb00e0c3b30015fd0700100020006b
:10331800500107000040eb00104798000a003700f2
:1033280040c1b30046e8b70013c0b3006284200070
:103338008040eb00e0c3b30009fd07001e40900089
:103348000040e800104798001e4090008080fb0075
:103358005e5090000080fb000000e900808f500064
:10336800efff3500010037001e4fe8002e409000a7
:103378000080fb00800078003e089000008040003c
:1033880010407800005f98000e5890000004e0009c
:103398000200320010c0b300005f98000e58900081
:1033a800ae4090008140e800214798000004e0000a
:1033b800edff3a000040eb00204798009e80fb009c
:1033c8005e5090000080fb0071001000808f50005c
:1033d80006003c009e4178003e09900001c4b300fd
:1033e800e0c3b300defc0700350037004e50900004
:1033f800e14f50002a003a00de50900010c1b3009f
:1034080001405000804178003e09900001c4b3009b
:10341800e0c3b300d2fc0700de50900010c1b30037
:103428000140500010479800130037002e409000cc
:103438000081fb001e4090000080fb0080007800a7
:103448003e089000008040009040780063004700ec
:10345800017178002e4090000040e8002047980055
:103468002e409000f04f5000060032001e409000a1
:103478000040e800104798001e4090009e4f500002
:10348800eaff39002400070063014700ae419000bd
:1034980001c4b300e0c3b300b1fc07000800370063
:1034a800de50900010c1b300014050008041780008
:1034b8003e09900001c4b300e0c3b300a8fc0700b4
:1034c8000080fa00000006000000fa0010c0b300f7
:1034d80046e8b70013c0b300628420008040eb00c8
:1034e800e0c3b3009efc07000080fa00000006005d
:1034f8000000fa0020c0b30046e8b70013c0b300cc
:10350800628420008040eb00e0c3b30094fc070015
:103518000080fa00000006000000fa0000ccb300aa
:1035280046e8b70013c0b300628420008040eb0077
:10353800e0c3b3008afc07000080fa000000060020
:103548000400fa00204798000040eb00104798005c
:103558000040eb00004f780043c7bf000080fb002d
:103568004400de0067406000004f780010c0b300e0
:103578009e4f10000300320030c0b3009e4f100071
:1035880010003a002e409000e34f500020003e000b
:10359800517420009140780080cfb30000c06000d3
:1035a80045e7b7002e40900063406000c600dd008c
:1035b80044c7bf00f043b2000140700044e7b700c1
:1035c8001300370070c0b3009e4f100010003a007f
:1035d8002e409000e74f50000d0036002e4090001e
:1035e8000080fb004400de00104798001e40900059
:1035f8006740600067416000517420009140780086
:1036080080cfb30000c060000240700045e7b700fb
:103618000080fa00000006000a00fa00889fbe0039
:103628000040eb00704798000040eb0060479800ae
:103638000040eb00504798000040eb0040479800de
:1036480000902000d1032000008fbe0043c7bf00b8
:103658000080fb004400de0067406000704798006f
:1036680044c7bf000080fb004600de0050479800ba
:1036780045c7bf0067406000404798007e40900003
:103688000080fb00400798004e009000e30f5000b8
:10369800370032004e009000e30f50000a003c0053
:1036a8004e009000e10f5000180032004e009000cc
:1036b800e10f50002a003c004e0090000000e0009e
:1036c8000e0032005f0037004e009000e50f5000fa
:1036d800400032004e009000e50f500039003500e0
:1036e8004e009000e60f50003e0032004e00900061
:1036f800e70f50003f0032005200370000902000d2
:10370800d1032000008fbe004e0037000040220089
:10371800410f2000008fbe005e4090008080fb00bb
:10372800100020000100dd00604798001e00be0068
:10373800d3f507000004be006e4090000080fb0037
:10374800cf80de00cef507000001be000800be00f5
:103758004df507008ef50700008fbe0039003700d1
:1037680000902000d1032000008fbe0035003700f4
:1037780000402200410f2000008fbe005e409000f4
:103788008080fb00100020000100dd0060479800e9
:103798001e00be00baf507000004be006e4090008f
:1037a8000080fb00cf80de00b5f507000001be00f9
:1037b8000800be0034f5070075f50700008fbe004d
:1037c800200037000000240001002000008fbe0008
:1037d8001c003700c0c8230001002000008fbe0075
:1037e8001800370000092d0031002000008fbe00ae
:1037f8001400370000902000d1032000008fbe0085
:103808004e4090008080fb00100020000100dd0089
:10381800604798001e00be0099f507000004be002e
:103828006e4090000080fb00cf80de0094f507001a
:103838000001be000800be0013f5070054f507009c
:10384800008fbe001e00be004f04be000080fa00bc
:10385800000006000a00fa00400798006000b8005f
:1038680020079800310798006000b800008fbe005c
:1038780069ff070020079800310798002e00900084
:10388800be0090007ef5070002002000a347240038
:10389800fdf407005ff50700008fbe000500370044
:1038a8001e00be00960007004e0090000000e900d0
:1038b800400798004e0090000000e000f8ff3a0032
:0838c8000080fa000000060078
:020000040000fa
:1038d00046080000020000008000000032080000de
:1038e00014000000800000004808000002000000f2
:1038f000820000000000000000080000320000000c
:10390000800000004a080000a000000082000000c3
:10391000010000000000000000000a00000000009c
:103920000000000000640000000000000000000033
:10393000e803000000000000000010002700000065
:103940000000000000a08600010000000000000050
:1039500040420f0000000000000080009698000028
:10396000000000000000e100f5050000000000007c
:1039700000ca9a003b00000000000000e40b540065
:10398000020000000000e800764817000000000078
:103990000010a500d4e8000000000000a0724e0056
:1039a00018090000000040007a10f3005a000000df
:1039b0000080c600a47e8d000300000000c16f00df
:1039c000f2862300000000008a5d78004563010054
:1039d00000006400a7b3b600e00d000000e8890015
:1039e0000423c7008a000000ea0800002a00000043
:1039f00082000000286e75006c6c290000303100d8
:103a00003233340035363700383941004243440000
:103a10004546000030313200333435003637380047
:103a200039616200636465006600000014090000eb
:103a3000260000008200000016093c00090000007a
:103a40003c0909000000000002003a0009000000e3
:103a50003a0906000201000000000000000000001a
:103a60000000060002020000000000003a09000009
:103a70000600000080000000400900000200000075
:0c3a8000820000000100000000000000b7
:020000040000fa
:103a8c000000fa0080c0b300acfe070086fd070002
:103a9c0020428000000001009afd0700d07d20002c
:103aac00404288004042800001802000801f780046
:103abc0080192900801f7800010078006df507003f
:103acc00e48757000280200061c0b30010c0b3002f
:103adc00f8fd070000802000c11929000e00090024
:103aec0031587800f000b1000280200021c0b300f2
:0c3afc0020c0b300effd0700ffff370003
:020000040000fa
:103b0800f03fb1000180b10006003500ee03090066
:103b180000000000403fb1000180b100fbff3d0004
:103b28001000b000203fb0000200350000800900fe
:083b380000000000000006007f
:00000001FF
